:020000040800F2
:10000000F8080020D500000805160008451400086F
:1000100000000000000000000000000000000000E0
:10002000000000000000000000000000431900086C
:1000300000000000000000004D16000845190008EF
:10004000E7000008E7000008E7000008E7000008F4
:10005000E7000008E7000008E7000008E7000008E4
:10006000E7000008E7000008E7000008E7000008D4
:10007000E7000008E7000008E7000008E7000008C4
:10008000E7000008E7000008E7000008191A000868
:10009000E7000008291A0008391A0008E7000008DC
:1000A000E700000851160008E7000008E700000814
:1000B000E7000008E7000008E7000008E700000884
:1000C0000348854600F03CF80048004785240008B6
:1000D000F80800200448804704480047FEE7FEE790
:1000E000FEE7FEE7FEE7FEE7BD190008C1000008D5
:1000F00030B50B46014600202022012409E00D46C0
:10010000D5409D4205D31D469540491B2546954047
:1001100040191546521E002DF1DC30BDD2B201E06F
:100120000270401C491EFBD270470022F6E710B552
:1001300013460A4604461946FFF7F0FF204610BD55
:10014000064C0125064E05E0E36807CC2B430C3C2A
:1001500098471034B442F7D3FFF7B6FF182C0008C5
:10016000382C000870B50024014620314A78022A54
:1001700003D004218163012416E0026813680E2570
:10018000AB431360026813685B085B0013600122D5
:10019000056C1346AB40C56B6B604A7000220A7059
:1001A000416B002900D08847204670BDF8B5002378
:1001B00093E0224601249C40A44622407ED04C6815
:1001C000022C01D0122C0CD1DC08A40027183C6AA8
:1001D0005D07ED0E0F26AE40B4430E69AE402643D8
:1001E0003E6205685E000324B4400F79A543BF0753
:1001F000BF0FB7402F4307604D68012D05D0022D7A
:1002000003D0112D01D0122D0ED18568CF68A543E2
:10021000B7402F43876047686546AF430D79ED06C9
:10022000ED0F9D403D434560C568A5438C68B440D3
:100230002C43C4604C68E4004ED52B4CA5690126C4
:100240003543A561A4699D0834400094274CAD0056
:100250002F19BC689D072E0F0F25B540AC4309250B
:10026000ED06A84201D1002514E0214DA84201D19C
:1002700001250FE01F4DA84201D102250AE01E4DC5
:10028000A84201D1032505E01C4DA84201D1042557
:1002900000E00525B5402543BD60194C25684E6832
:1002A0009543F60300D51543256065684E68954370
:1002B000B60300D515436560A56800E00CE04E6804
:1002C0009543F60200D51543A560E5684E68954351
:1002D000B60200D51543E5605B1C0A681446DA4097
:1002E00000D066E7F8BD00000010024000000140A9
:1002F0000004004800080048000C004800100048B6
:10030000000401400069084000D001207047002A25
:1003100001D0816170478162704700000148006828
:10032000704700004800002002480168491C016035
:10033000704700004800002010B5064801681022F0
:1003400011430160002000F007F800F017F80020CA
:1003500010BD00000020024010B5044600F078F9FE
:100360007D21C900FFF7C4FE00F054FD00222146A4
:10037000501E00F02FF8002010BD000008B50F48F7
:100380008169012211438161816911400091C26933
:1003900001040A43C261C06900220840009011466E
:1003A000501F00F017F800221146901E00F012F8BE
:1003B00000221146501E00F00DF808BD001002404A
:1003C000C106C90E0120884001490860704700003D
:1003D00000E100E010B501F017F910BDF8B50446D2
:1003E0000068434DC00352D5E8690026C00007D419
:1003F000E96928040143E961E969014001260091A6
:100400003C480168C90510D4016882151143016098
:10041000FFF784FF074604E0FFF780FFC01B642856
:1004200024D834480068C005F6D5286A03273F025F
:10043000384020D06168394081421CD0286A2A6A3D
:10044000B843012109040A432A622A6A8A432A62BC
:100450002862C0070FD0FFF761FF009008E0FFF7A8
:100460005DFF0099411A2448814201D90320F8BD5B
:10047000286A8007F3D5286A6168B8430843286270
:10048000002E04D0E869012109078843E86120783B
:10049000C00705D0286BA168800880000843286346
:1004A0002078800706D5286B032109048843E1687A
:1004B000084328632078800605D5286B10218843DF
:1004C0002169084328632068800305D5286B8021B3
:1004D0008843A169084328632088400505D5286B17
:1004E000402188436169084328630020F8BD00006B
:1004F000001002400070004088130000F8B5054667
:100500004E480E460068C007C00FB0420AD24B48A2
:10051000016849084900314301600068C007C00F05
:10052000B04270D12878464C800705D56068F0212C
:100530008843A968084360602878C00753D068687A
:10054000012817D0022818D0032819D0216889075C
:10055000002958DA61688908890001436160FFF762
:10056000DDFE69680746012913D002291DD0032941
:1005700027D034E021688903EAE721688901E7E7A9
:10058000616BC903E4E7FFF7C9FEC11B2D48814237
:1005900023D860680007800F0128F4D123E0FFF71B
:1005A000BDFEC11B2748814217D860680007800F35
:1005B0000228F4D117E0FFF7B1FEC11B21488142A8
:1005C0000BD860680007800F0328F4D10BE0FFF719
:1005D000A5FEC11B1B48814201D90320F8BD6068FC
:1005E0000007800FF3D115480168C907C90FB14250
:1005F0000BD9016849084900314301600068C00710
:10060000C00FB04201D00120F8BD2878400706D5C0
:100610006068072109028843E9680843606000F0C8
:100620002DF86168084A0906090F515CC84007495E
:1006300008600020FFF790FE0020F8BD0020024077
:100640000010024088130000FF2B00084C0000201F
:1006500001480068704700004C000020044805492C
:1006600000684968044A4905490F515CC840704711
:100670004C000020001002400F2C000830B516A3DB
:100680000FCB89B06C460FC417A30FCB0FC41A4908
:100690004A680C20144604401848042C05D0184B16
:1006A000082C04D00C2C00D1184609B030BD94029F
:1006B000240F6D462C5DC96A04AD0907090FD203EA
:1006C000695C920F022A02D0032A00D11846FFF774
:1006D0000FFD6043E9E7000002030405060708096F
:1006E0000A0B0C0D0E0F101001020304050607087B
:1006F000090A0B0C0D0E0F100010024000127A00B8
:10070000006CDC02FEB504460078F04EF04DC007E8
:1007100048D068680007800F01281FD0686800076C
:10072000800F022804D16868C003800F022815D00A
:100730006168012919D001208004002901D0052910
:1007400017D02968B143296029688143296060680E
:1007500000281BD0FFF7E2FD074613E0286880035E
:1007600020D56068002876D01CE0286830432860D7
:10077000EDE7296801432960F7E7FFF7CFFDC01BCC
:10078000642869D828688003F7D50BE0FFF7C6FD19
:10079000074604E0FFF7C2FDC01B6428F1D82868B3
:1007A0008003F7D4207880073ED568680007800F63
:1007B00014D068680007800F022804D16868C0035D
:1007C000800F01280AD0E068002828681DD0012188
:1007D00008432860FFF7A2FD07460BE02868800762
:1007E0000BD5E068012836D107E0FFF797FDC01B65
:1007F0000228C6D828688007F7D52868F8218843DA
:100800002169C900084328600EE0400840002860C4
:10081000FFF784FD074604E0FFF780FDC01B0228B8
:10082000AFD828688007F7D42078000724D5E0697E
:100830000028686A11D0012108436862FFF76EFD45
:10084000074604E0FFF76AFDC01B022899D8686AD2
:100850008007F7D510E036E1D1E04008400068623B
:10086000FFF75CFD074604E0FFF758FDC01B0228B8
:1008700087D8686A8007F7D42078042740070028C3
:1008800061DA00200190E869C00008D4E969B8067F
:100890000143E961E96901400120009101908D481F
:1008A0000168C90511D40168821511430160FFF781
:1008B00035FD009005E0FFF731FD0099401A6428EE
:1008C00097D884480068C005F5D5A06801280AD0EB
:1008D000002801D0052811D0286A4008400028626D
:1008E000286AB84302E0286A012108432862A06808
:1008F000002812D0FFF712FD00900AE0286A384362
:100900002862F0E7FFF70AFD0099411A7248814218
:1009100075D8286A8007F5D50DE0FFF7FFFC009039
:1009200006E0FFF7FBFC0099411A6B48814266D84C
:10093000286A8007F5D40198002804D0E9690120CD
:1009400000078143E9612078C00635D56069012838
:100950000CD0401D686B24D038436863686B400836
:1009600040006863FFF7DAFC074622E0686B384313
:100970006863686B012108436863FFF7CFFC074693
:1009800004E0FFF7CBFCC01B022838D8686B800757
:10099000F7D5686BF8218843A169C90008436863EB
:1009A0000AE0B8436863F4E7FFF7B8FCC01B02280D
:1009B00025D8686B8007F7D42078800637D568681B
:1009C0000007800F032813D068680007800F0228F3
:1009D00004D16868C003800F032809D0206A00286A
:1009E000686B16D030436863FFF798FC06460CE04E
:1009F000686BC0031BD5206A012864D117E05BE057
:100A0000FFF78CFC801B022856D8686BC003F7D513
:100A10000DE0B0436863FFF781FC064604E0FFF792
:100A20007DFC801B022847D8686BC003F7D4606A3E
:100A3000002846D069680907890F022943D001269A
:100A400036060228286805D0B0432860FFF766FC08
:100A5000044633E0B0432860FFF760FC074604E03B
:100A6000FFF75CFCC01B022826D828688001F7D459
:100A7000E86A216B000900010843E862A16AE06AA4
:100A8000084369687B22D203914308436860286861
:100A900030432860FFF742FC044604E0FFF73EFCC9
:100AA000001B022808D828688001F7D509E0FFF765
:100AB00035FC001B022801D90320FEBD28688001F7
:100AC000F5D40020FEBD0120FEBD000000000100A5
:100AD00000100240007000408813000070470000C2
:100AE000F8B504460068426881684B0605D4CB0718
:100AF00003D0530601D5E16C04E08B0705D513063E
:100B000003D5216D20468847F8BDFF236133194284
:100B1000FAD09306F8D523464D064033002D09DA66
:100B20005D7F032D3CD0256E042635432566C568C0
:100B3000856800958E060125002E08DA266E2E4364
:100B400026668668009606684027BE430660C8058C
:100B500006D5206E08210843206620688068009032
:100B6000206E0028D0D020684168E026B143416063
:100B70005D77900718D02068416889088900416036
:100B8000A06D0B4D002803D04563A06DFFF7EAFA76
:100B9000606D0028B8D04563606DFFF7E3FAF8BDDB
:100BA000C16880680090F8BD2046FFF797FFF8BD48
:100BB000C3170008F8B5040007D0002625464035C5
:100BC000A662687F002802D005E00120F8BD2E77DC
:100BD000204600F04BF802236B7720680168402222
:100BE000914301600721E0680902884201D900228F
:100BF00001E0012212030F273F02B84202D08842CF
:100C000000D0A662276B002F05D1884201D923634B
:100C100001E001202063A1686068636908432169DD
:100C2000194308430123A1695B0219400843E169A4
:100C30000843216A0843A16A084321680860616B80
:100C4000606AA36908431B0C0427E1683B40194311
:100C500008432168104348602068C1697A029143C3
:100C6000C1612666012068770020F8BD00B50068E4
:100C7000114987B088421DD11048826981140A4306
:100C80008261806908400590F02000900220019068
:100C90000021032003900291049109206946C006B7
:100CA000FFF784FA002211461920FFF793FB192061
:100CB000FFF786FB07B000BD003001400010024086
:100CC00070470000F0B504468C464034217F002573
:100CD000C768964601290CD001212177667F4168BB
:100CE000012E0CD0CA1FFD3A07D18168002904D11A
:100CF00001E00220F0BD042E01D0022540E0614653
:100D000000291BD07146002918D0002B16D0617F16
:100D1000042901D0052161770021016661468163C4
:100D20008387C38771460164A380E380072109029A
:100D30008F4205D9144AC264144A04E001251FE019
:100D4000134AC264134A0265012212038F4202D879
:100D5000E188022903D301684B68934302E00168EC
:100D60004B6813434B6001684A68E0231A434A60AA
:100D700000680168490603D40168402211430160FC
:100D8000002020772846F0BD61160008F5160008FF
:100D9000971600082917000870B501220920D10311
:100DA000C006FFF7B4FA0F4C0F4D2078DE2801D0B3
:100DB0000120E8700B4801F0A9FCA078032805D1B8
:100DC0000121002249030948FFF7A1FA054A20231F
:100DD000D11A0748FFF776FF01F046FC0549401895
:100DE000A86070BD9802002018000020000800488C
:100DF000A4000020102700000422044904280869E8
:100E000002D09043086170471043FBE700E000E028
:100E100070470000094910B5401E884201D90120E1
:100E200010BD074C60610321081F00F0EDFB00209E
:100E3000A06107202061002010BD0000FFFFFF001F
:100E400000E000E010B5FFF7E3FF10BD704770470A
:100E500070B502462032137F012B1BD0012313777C
:100E600002245477046865687026B5436560046899
:100E700065680E68354365600468A5688026B543DB
:100E8000A5600068846849680C438460537700203B
:100E9000107770BD022070BD70B5040005D02546E6
:100EA0002035687F002802D006E0012070BD0020B8
:100EB0002877204600F00AF802206877211D206874
:100EC00000F0C2FD01206877002070BD08B5012246
:100ED000016892072048914207D1C169012211435C
:100EE000C161C0691040009008BD1C4A91420DD1FB
:100EF000C26989150A43C261C06900220840009096
:100F000003211320FFF766FA132010E0144A9142E0
:100F100010D18269012149040A438261806900225B
:100F20000840009003211520FFF754FA1520FFF721
:100F300047FA08BD0B4A9142FBD18269012189041D
:100F40000A43826180690022084000900221162035
:100F5000FFF740FA1620EAE70010024000200040A8
:100F600000440140004801400222014620314A77F6
:100F7000026813680120034313604877002070471C
:100F80000268D36801210B43D360006802680A43FA
:100F9000026000207047F8B5054604462035287FDA
:100FA000012817D001272F770220687722689068E0
:100FB0007726FF23B0431B029843906008685028AF
:100FC00037D00EDC202857D006DC00284ED0102861
:100FD00040D14EE00220F8BD302850D0402839D111
:100FE0003CE060282DD0702817D001221203801A0F
:100FF0000ED090422ED1CB684A688968206800F0F4
:101000006DFD20688168012292031143816021E017
:1010100020688168C908C900F8E7CB684A68896810
:10102000206800F05BFD21688868B0433043886029
:1010300010E0CA684968206800F063FD502120680C
:1010400006E0CA684968206800F06CFD60212068ED
:1010500000F04FFD6F7700202877F8BDCA68496817
:10106000206800F04EFD40212068F1E70021206853
:10107000EEE710212068EBE720212068E8E7302127
:101080002068E5E7704770B50446006801690025EF
:10109000C9438907002915DBC168C943890711D4F1
:1010A000E91E0161012020772068806980072046C1
:1010B00002D0FFF7E7FF04E000F096F8204600F0CA
:1010C00094F8257720680169C943490717D4C16896
:1010D000C943490713D40421C94301610220207781
:1010E000206880698005800F204602D0FFF7CAFF84
:1010F00004E000F079F8204600F077F825772068C2
:101100000169C943090716D4C168C943090712D444
:101110000821C9430161042020772068C069800745
:10112000204602D0FFF7AEFF04E000F05DF8204655
:1011300000F05BF8257720680169C943C90617D418
:10114000C168C943C90613D41021C94301610820ED
:1011500020772068C0698005800F204602D0FFF705
:1011600091FF04E000F040F8204600F03EF82577BB
:1011700020680169C943C90708D1C168C943C907C3
:1011800004D1891E0161204600F030F82068016911
:10119000C943090609D4C168C943090605D4802199
:1011A000C94301612046FFF751FE20680169C94328
:1011B000490609D4C168C943490605D44021C94339
:1011C0000161204600F07CF820680169C943890666
:1011D00009D4C168C943890605D42021C9430161E6
:1011E0002046FFF734FE70BD70477047F8B52F4CAE
:1011F00007462078002855D060682D4E874238D1A8
:101200002C49206900F08FFF2A4D0090288801B2F8
:10121000304600F02BFFA88801B230461C3000F0A9
:1012200025FF304600F070FFB06130461C3000F002
:101230006BFF32461C329061B06900F029FFA16853
:101240000968C862906900F023FFE1680968C86214
:10125000009800280DD02A7A012149031648002A57
:1012600002D1AA7A002A01D0002200E00122FFF771
:101270004EF8A068874209D1B069002806D00C4812
:1012800002DD01F0FFFA01E001F0BCFAE0688742FC
:1012900008D107481C308069002803D0074802DDC8
:1012A00001F0F0FAF8BD01F0ADFAF8BD040000203D
:1012B0005C0000209400002000040048780000201A
:1012C000704770B5040005D025466035687A00285F
:1012D00002D006E0012070BD00202872204600F0F8
:1012E00027F82420687220680168490849000160D5
:1012F000204600F0C9FC0128EDD0606A002802D029
:10130000204600F022FC206841680922D202914365
:101310004160206881682A229143816020680168C9
:10132000012211430160204600F074FC70BD0000F2
:1013300000B500680F4987B0884218D10E4882690D
:10134000012189030A4382618069084005900320D6
:1013500040020090022001900020029003200390A0
:101360000120049009206946C006FEF71FFF07B060
:1013700000BD00000038014000100240FFB50646E5
:1013800004466036707A83B00D46202858D1002D6F
:101390000CD00598002809D00120A16800038142E3
:1013A00007D12069002804D1E80702D0012007B046
:1013B000F0BD307A012843D0012030720020E06671
:1013C00021207072FEF7AAFF01902746403705984A
:1013D00038820598788218E0788A401E78820698CC
:1013E0000090002280212046019B00F0FBFC002899
:1013F00018D10120A1680003814202D12069002890
:1014000012D02168287808856D1C788A0028E3D1DD
:1014100006980090002240212046019B00F0E2FC4B
:10142000002808D00320C2E728882168C005C00D25
:101430000885AD1CE9E72020707200203072B6E705
:101440000220B4E7FEE70000F0B5374887B04269F4
:101450000121C9040A43426142690A400592426976
:1014600089100A43426142690A4005924269490073
:101470000A43426140694C11084005900022214610
:101480002A48FEF744FFFF2609360920012231468B
:10149000C006FEF73CFF00220A212548FEF737FF71
:1014A000244F012239462248FEF731FF0022A100D5
:1014B0007806FEF72CFF0094002401250195029484
:1014C00069461A480394FEF771FE009611260294AD
:1014D0006946780601960394FEF768FE1648009068
:1014E00002200290019469461148FEF75FFE0A202F
:1014F000009002946946019503940D48FEF756FE4C
:10150000029469460A48009701960394FEF74EFE3E
:10151000E803009002946946019503947806FEF76B
:1015200045FE07B0F0BD0000001002400008004872
:101530000004004824F50000110A000010B50D4811
:101540000B4901600021416081600161416181615D
:101550000722016212024162C260816207220163B6
:10156000C2624163FFF726FB002800D0FEE710BDF2
:1015700000300140A400002010B50121124886B0BF
:101580008907016000242F21846041600461611E8D
:101590008461C160FFF780FC002800D0FEE70120D5
:1015A0000003009069460848FFF7F5FC002800D0CA
:1015B000FEE7049404A904480594FFF749FC0028B9
:1015C00000D0FEE706B010BD0801002010B50C48A1
:1015D0000A490160E1214902416000218160C16046
:1015E00001618161C1610C22016242614162FFF7C8
:1015F00068FE002800D0FEE710BD00000038014062
:1016000008020020704700008307FF22DB0E9A408B
:101610008907090E994000280BDA0007000F0838E7
:10162000830808489B001818C36993430B43C361A0
:101630007047830804489B001B18186890430843B0
:101640001860704700ED00E000E400E07047000023
:1016500010B50248FFF744FA10BD0000A4000020B6
:1016600010B50168C968026C1180016C891C0164A5
:1016700001464031CA88521ECA80C988002909D152
:1016800001684A6840239A434A60C18F002901D10A
:1016900000F06EF810BD10B501464031CC880368EB
:1016A000026C012C11D9DB681380026C921C02645D
:1016B000CA88921ECA80CA88012A0DD1026853685E
:1016C000012424032343536006E01C7B531C036462
:1016D0001470CA88521ECA80C988002909D10168BD
:1016E0004A6860239A434A60C18F002901D100F003
:1016F0003FF810BD10B5816B02680988D160816B1D
:10170000891C8163C18F491EC187C18F00290AD1FD
:1017100001684A6880239A434A604621095A002991
:1017200001D100F025F810BD10B5C38F0268816BA0
:10173000022B07D30988D160816B891C8163C18F1B
:10174000891E05E04B1C836309781173C18F491E04
:10175000C187C18F00290AD101684A6880239A4352
:101760004A604621095A002901D100F001F810BD54
:1017700070B50446FEF7D2FD024620684168202578
:10178000A94341606421204600F024F8002802D0DB
:10179000206E28432066226E204601214030002A18
:1017A00004D041772046FFF799F970BD427F417719
:1017B000042A204602D0FFF7EFFA70BDFFF780FA47
:1017C00070BD10B5406A002146221152C187FFF753
:1017D00085F910BDF8B50F460B461546009203215A
:1017E00004460022C90200F01BF82026002812D16E
:1017F0003B46002280212046009500F05CF800283E
:1018000009D103213B46002249022046009500F001
:1018100007F8002803D0206E304320660320F8BD6F
:10182000F8B51D4617460E4604463DE00321490221
:101830008E4205D1002F03D1017B684601700078EC
:10184000681C31D0002D05D0FEF768FD0699401ABE
:10185000A84229D320684168E02291434160606832
:10186000C11FFD390CD10121A068C903884202D0F3
:101870004911884204D120680168402291430160E7
:101880000120A16A4003814207D121680A6882438E
:101890000A6021680A6802430A60012040346077C8
:1018A000002020770320F8BD206881683140B942CC
:1018B000BCD10020F8BDF8B51D4617460E460446BB
:1018C00033E0681C31D0002D05D0FEF727FD0699C6
:1018D000401AA84229D320684168E0229143416020
:1018E0006068C11FFD390CD10121A068C90388427D
:1018F00002D04911884204D12068016840229143F6
:1019000001600120A16A4003814207D121680A6871
:1019100082430A6021680A6802430A600120403459
:101920006077002020770320F8BD2068816830466A
:10193000884304D00020B842C3D10020F8BD012064
:10194000F9E7704710B5FEF7EFFCFFF77BFA10BD23
:1019500030B599B020200125002400900895099405
:101960006846FEF7CFFE002800D0FEE707200D9066
:1019700003200E900F94012110940DA8FEF7BEFDD8
:10198000002800D0FEE7119511A81395FEF726FD5B
:10199000002800D0FEE7FEF75BFE7D21C900FEF7C0
:1019A000A7FBFFF737FA0420FFF726FA00221146BB
:1019B000501EFEF70FFD19B030BD0000124801683F
:1019C0000122114301604168104A114041600168E1
:1019D0000F4A1140016001680122920491430160A5
:1019E00041683F22120491434160C16A090909011B
:1019F000C162016B074A11400163416B490849000C
:101A00004163002181607047001002400CB8FF085C
:101A1000FFFFF6FE2CFEFCFF10B50248FFF733FB7C
:101A200010BD00004801002010B50248FFF72BFB55
:101A300010BD00008801002010B50248FFF723FB0D
:101A400010BD0000C8010020F0B502681D4B012444
:101A5000A4071D4D984203D0A04201D0A84203D153
:101A60007026B2434E683243184E194F98420DD03B
:101A7000A0420BD0A84209D0164CA04206D0B042DA
:101A800004D0B84202D0144CA04204D10324240252
:101A9000A243CC6822438024A2434C6922430260C3
:101AA0008A68C2620A688262984206D0B04204D054
:101AB000B84202D0084A904201D10969016301216C
:101AC0004161F0BD002C0140000400400040014095
:101AD00000440140002000400048014030B58468C7
:101AE000FF252D021B021343AC430B4323438360AA
:101AF00030BD826870239A430A4307210A438260FB
:101B0000704730B5036A046A64086400046284693B
:101B1000F025AC43120122430A24A3430B43826104
:101B2000036230BD30B5036A1024A34303628469A5
:101B3000036A0F252D031203AC432243A024A343C1
:101B4000090119438261016230BD10B5818CC9075A
:101B500007D001684A6801235B049A43836A1A43E9
:101B60004A60818C890707D501684A6801231B04F4
:101B70009A43C36A1A434A60818C490707D50168B2
:101B80004A6801239B049A43036B1A434A60818C81
:101B9000090707D501684A680123DB039A43436BB1
:101BA0001A434A60818CC90607D5026891680123EF
:101BB0001B039943836B19439160818C890607D578
:101BC00001688A6801235B039A43C36B1A438A60E6
:101BD000818C490612D503685A6801210905046CF5
:101BE0008A4322435A60026C8A4207D102685168D4
:101BF00003235B059943436C19435160818C0906AB
:101C000007D501684A680123DB04806C9A430243CC
:101C10004A6010BDF8B500260446C666FEF77EFB96
:101C2000054616492068884202D0154988421DD1D0
:101C30000068144F000709D501212B4600224905F1
:101C40002046009700F0CEF800280DD120680068EB
:101C500040070BD501212B4600228905204600971D
:101C600000F0C0F8002801D00320F8BD2020603427
:101C70006072A07226720020F8BD0000003801409A
:101C800000440040FFFFFF01F8B504462369A26845
:101C9000E5691A43636910202B43002125681A4324
:101CA0002B680E46474F3B4013432B6023685A680E
:101CB00003252D03AA43E5682A435A60236AA269D3
:101CC00025681A43AB680B273F02BB431343AB6045
:101CD0003D4F25683D4B0203BD420AD11B6B9B075C
:101CE0009B0F20D0012B14D0022B14D0032B1BD11F
:101CF0000DE0374FBD4210D11B6B03273F043B4023
:101D000011D09B1A05D09B1A05D093420CD102200A
:101D10000AE0042008E0082006E02E4B9D4202D095
:101D20002D4B9D4200D100200123E769DB039F4238
:101D300022D100280CD002280DD0042813D0082866
:101D400017D001260A0912010807400F10432EE0A0
:101D5000FEF784FC09E06168204A48088018FEF715
:101D6000C7F981B2EEE7FEF789FC616840004A08D6
:101D7000F4E761684808F1E7002808D0022809D094
:101D800004280CD0082815D001263046F8BDFEF7EF
:101D900065FC06E06168124A480880180DE0FEF70D
:101DA0006DFC61684A088018FEF7A2F980B22168CC
:101DB000C860EAE761684808C018FEF799F980B280
:101DC000E860E2E7F369FFEF0038014000100240ED
:101DD0000044004000480040004C00400024F40053
:101DE00000127A00FFB581B017460E4604460A9DE0
:101DF0001DE0681C1BD0002D05D0FEF78FFA04995A
:101E0000401AA84213D920680168FF22A1329143E9
:101E100001602068816849084900816020206034A1
:101E20006072A07200202072032005B0F0BD20680F
:101E3000C1693046884304D00020B842D9D0002080
:101E4000F3E70120F9E700000FB410B503A9044B34
:101E5000044A029800F024F810BC08BC04B01847EB
:101E6000F12000085000002030B47446641E25782C
:101E7000641CAB4200D21D46635D5B00E31830BCBE
:101E8000184702E008C8121F08C1002AFAD170479B
:101E90007047002001E001C1121F002AFBD17047EA
:101EA000FFB58DB00F460546002606E025280AD06E
:101EB000109A0F9990476D1C761C28780028F5D150
:101EC000304611B0F0BD00240121674A009400E0C3
:101ED00004436D1C2B780846203B98401042F7D1F4
:101EE00028782E2815D10420044368786D1C2A28F0
:101EF0000AD101CF6D1C00900BE000990A225143DA
:101F0000303940186D1C0090287801463039092975
:101F1000F3D92878692843D006DC0028D0D063287C
:101F20000BD0642804D13BE073280FD075284CD027
:101F3000109A0F999047761C94E038786946087299
:101F40000020487202A80190012003E03868019047
:101F50000020C0433F1D61070CD5002400E0641C35
:101F600000998C420FDA8442F9DB0199095D00295E
:101F7000F5D108E0002400E0641C8442FCDB0199F8
:101F8000095D0029F8D1361907E001980199007818
:101F9000491C0191109A0F999047641EF5D261E097
:101FA0000A20019001CF002802DA40422D2102E0F0
:101FB000210504D52B216A461172012103E0E107B6
:101FC00001D02021F7E70C9104E00A20019001CF15
:101FD00000210C910BA90B9108E00199FEF788F8FC
:101FE0000A460B993032491E0B910A700028F4D131
:101FF0000B9803A9081A20300190600701D50098BA
:1020000001E0012000900199884203DD014601981A
:10201000081A00E000200024009006E002A8109AB0
:10202000005D0F999047641C761C0C988442F5DB88
:1020300004E0109A30200F999047761C0099481EB2
:1020400000900029F5DC08E00B980B990078491CFA
:102050000B91109A0F999047761C0199481E019098
:102060000029F1DC6D1C28E709280100027D5200DF
:1020700012181182017D491CC9B20175022901D3D0
:102080000021017570470902014308B27047000042
:10209000002800DA4042002801DD402802DBFF2052
:1020A000F530704701494000085A7047CC290008B4
:1020B00002687F2A01DD7F2103E07E21C9438A4235
:1020C00000DA0160704700000449096809684A6A3B
:1020D00010184A6A8242FCD37047000000000020BA
:1020E00010B502490860FEF73FFF10BD0000002058
:1020F00013B50A23012269460248FFF73FF9009809
:102100001CBD00000802002010B500210A46530043
:102110001C181023E35E521C5918022AF7DBC80F63
:102120004018401010BD30B500240C604C600C729B
:102130000B4605468C72284600F0CAFA002815D0D6
:1021400019680268891819605968426889185960C5
:10215000197A027A11431972997A807A0143997235
:10216000284600F0BFFA641CE4B2E4E71846FFF723
:102170009FFF181DFFF79CFF204630BD70B5440639
:10218000C209640ED201102C24D2134D295D0029FE
:1021900020D04006400EC01E002A0DD0022919D1C1
:1021A0000300FFF761FE070707070707070507009A
:1021B00000F058FB01200CE001290BD10300FFF7D0
:1021C00053FE0707070707070705070000F024FB72
:1021D0000220285570BD0000D402002010B50C4626
:1021E000034600F01FF8002801D0012010BD197827
:1021F000586844541978986842541878401C40072D
:10220000400F1870002010BD10B50446082000F0E3
:10221000F5F96060082000F0F1F9A060204600F0B8
:1022200025F810BD41780078401C4007400F8142DE
:1022300001D1012070470020704710B54378047821
:10224000A34201D1012010BD4468E35C0B7081689A
:102250004078085C1070002010BD417802789142EF
:1022600003D0491C4907490F4170704710B5044617
:1022700000202070607008216068FDF756FF08217B
:10228000A068FDF752FF10BD10B50A4602290AD01A
:102290000549095C002906D0002A01D080200143AD
:1022A000024800F0A1F810BD7F2B0008400000207C
:1022B00010B5024800F0ABF810BD0000400000204F
:1022C00010B50921C9060160082181800349816098
:1022D00001218181FFF7ECFF10BD000000040048E0
:1022E00038B52D4DA9882868FEF70CF8012843D091
:1022F0002A4800F047FB2A4C411C3ED00A283BDD0F
:102300002046083000F08DF8002835D12046694677
:10231000083000F099F800F0A7F96168401A2149E7
:10232000884206D268460078802802D02178884208
:1023300022D11B48083000F092F872B60820FFF74F
:10234000C3FEA98800222868FDF7E1FF0F20FFF7F0
:10235000BBFE6846007800F029F8A98801222868A9
:10236000FDF7D5FF0F20FFF7AFFE62B600F07CF956
:1023700060600DA0FFF768FD38BD0948083000F027
:1023800077F807488021083000F02EF804482178BB
:10239000083000F029F838BDE40200209411000054
:1023A00038000020102700007300000070B50C49B1
:1023B0000C4E0D5C07242846E040C207D20FB188BE
:1023C0003068FDF7A4FF0F20FFF77EFE042C02D03B
:1023D000641EF0D570BD0F20FFF776FE0324EAE7F8
:1023E0007F2A0008E402002000B50B46024600F0F8
:1023F00020F8002801D0012000BD11785068435416
:102400001078401C4007400F1070002000BD10B530
:102410000446082000F0F2F86060204600F028F83A
:1024200010BD41780078814201D101207047002021
:10243000704741780078401C4007400F814201D12D
:102440000120704700207047427803789A4201D1FA
:10245000012070474068805C087000207047417818
:102460000278914203D0491C4907490F41707047D7
:1024700010B500210170417040680821FDF755FE3C
:1024800010BD000088B0FDF757FFFFF761FAFEF7B7
:10249000DBFFFFF753F8FFF799F8FFF76DF84848AF
:1024A0000024484E84604549C6602F25046122C03F
:1024B00080270C3090C01C38FEF7EEFC002800D0BE
:1024C000FEE73F4840494030846022C08460C460D9
:1024D0003E49046141600838FEF7DEFC002800D068
:1024E000FEE737483A49403884608761C660046136
:1024F00022C00838FEF7D0FC002800D0FEE70120FB
:1025000000940190334C00232278334933A0FFF725
:102510009BFC2B488038FFF7E3FD00F061F9204673
:102520001030FFF774FF3248FFF76EFE2046183078
:1025300000F0B8F82E4820214038FDF7F6FD2C4A6F
:102540001F482023203AD11AE438FEF7BBFB0121B3
:10255000284809030791069089008A1145010192D4
:10256000174A04900926164B039102900595F6062A
:1025700011462046403B00964031183000F08CF95F
:102580001D48FFF79DFEE078002801D000F0EAF931
:1025900000F06AF8A168884204D900222946304632
:1025A000FDF7B5FE00F0C6F9114A05482023203A90
:1025B000D11AE438FEF786FBE5E70000004401404D
:1025C00088010020FFFF00000048014010270000A4
:1025D00000200040180000204C2A000825730A72D1
:1025E00065762564207625642E25642E25640A00F0
:1025F000B802002000040048E4020020F0B50B30CF
:10260000C108C900144F0026144A0FE003688B422A
:102610000BD38B4205D95C1A4318456830C3083B7D
:1026200000E04368136002C004E0021D1068002847
:10263000ECD13046002803D13868002801D00020B2
:10264000F0BD064A06481060064A121AD208D200A7
:1026500044C001203860D7E7580000205400002013
:10266000FC020020F8040020024800680068406A6C
:10267000704700000000002030B50B46024600F015
:102680001CF8002801D0012030BD117850680901E4
:1026900040183ACB3AC01078401C0007000F107069
:1026A000002030BD10B50446FF200130FFF7A6FF23
:1026B0006060204600F01FF810BD41780078401C93
:1026C0000007000F814201D10120704700207047B0
:1026D00041780278914201D1002070474068090199
:1026E0004018704741780278914203D0491C09078D
:1026F000090F4170704710B5002101704170FF2132
:1027000040680131FDF711FD10BD000070B50446B1
:10271000807809280FD0082827D001282CD002283B
:1027200008D10325605D002804D0FFF727FD6D1C4C
:10273000202DF7DB70BD61792079FFF7A4FC264AD4
:102740001060E179A079FFF79EFC5060607B107209
:10275000A07B9072E07B5072207CD072607C107302
:102760001D491E48FFF788FF70BD1B48A2792179DB
:102770000C38FFF733FD70BD174820214C38FDF7AA
:10278000D4FC1548CD214C3801706178417080250A
:1027900085700321C1701149082218390978017127
:1027A0000021417181710121C171002104465C3415
:1027B000635C002B0BD0022B02D0012B02D004E073
:1027C000815402E00B462B438354521CD2B2491C65
:1027D0001029EDDB70BD0000C40200203000002095
:1027E00007480021016341638163C16301213030E7
:1027F000C1708171022141728172C1727047000003
:10280000A402002010B5817B491E8907890F8173BE
:1028100000F078F810BD000010B50F4900200F4CF3
:102820000870A18801222068FDF771FDA1890122AD
:10283000A068FDF76CFD1C34A18801222068FDF71B
:1028400066FDA1890122A068FDF761FD0122510307
:102850000348FDF75CFD10BD040000205C00002073
:102860000004004810B5054800F042F803481C3049
:1028700000F03EF802490120087010BD5C00002005
:102880000400002010B5817B491C8907890F8173E2
:1028900000F038F810BD0000F8B506ACE0CC124CE2
:1028A0002560A680A760099DA5811C340A9D25602E
:1028B0000B9DA5800C9DA5600D9DA5810B4C2061F5
:1028C000241D0EC40848103C00F012F806481C30C5
:1028D00000F00EF86068FEF753FBA068FEF750FBAF
:1028E000E068FEF74DFBF8BD5C000020040000200E
:1028F00010B50021817301758161018200F002F839
:1029000010BD000070B50446807B09490D5CA188AC
:102910002068EA0700D00122FDF7F9FCA807A18989
:10292000A06801D5012200E00022FDF7F0FC70BD97
:10293000C829000810B5FFF7D3FC084A0848511E03
:10294000FFF77BFC002808D10448801F817940797B
:10295000FFF79AFC0248FFF780FC10BD1E00002024
:10296000B802002010B503A0FFF76EFA044900205A
:10297000C87010BD535049204552524F520A0000B2
:1029800018000020F8B50746FFF76EFE0D4C0090CA
:10299000A1882068FDF7B6FC05460AE0FFF764FE53
:1029A0000099461A002F04D0BE4202D90020C0432D
:1029B000F8BDA1882068FDF7A5FCA842EED03046FE
:1029C000F8BD0000E402002000010302B92F012835
:1029D0007D22141E661A4617E314AE12D710300F6C
:1029E000E60DCC0CE10B240B970A0A0A7D091F099E
:1029F000C10863080408A60777071907EA06BB069B
:102A00005D062E06FF05D005A105720543051405D8
:102A1000E404B5048604860457042804F903F90382
:102A2000CA039B039B036C036C033D033D030E032E
:102A30000E03DF02DF02B002B002810281028102D6
:102A400052025202520223022302230255534234FD
:102A500056432050726F746F636F6C20426F6172C7
:102A6000640A4170706C65205072652D5553420A9E
:102A700064656B754E756B656D203230323200FFC8
:102A8000F7FBF3FDF5F9F1FEF6FAF2FCF4F8F07F4E
:102A9000777B737D7579717E767A727C747870BF7E
:102AA000B7BBB3BDB5B9B1BEB6BAB2BCB4B8B03F2E
:102AB000373B333D3539313E363A323C343830DFFE
:102AC000D7DBD3DDD5D9D1DED6DAD2DCD4D8D05F0E
:102AD000575B535D5559515E565A525C5458509F3E
:102AE000979B939D9599919E969A929C9498901FEE
:102AF000171B131D1519111E161A121C141810EF8E
:102B0000E7EBE3EDE5E9E1EEE6EAE2ECE4E8E06FCD
:102B1000676B636D6569616E666A626C646860AFFD
:102B2000A7ABA3ADA5A9A1AEA6AAA2ACA4A8A02FAD
:102B3000272B232D2529212E262A222C242820CF7D
:102B4000C7CBC3CDC5C9C1CEC6CAC2CCC4C8C04F8D
:102B5000474B434D4549414E464A424C4448408FBD
:102B6000878B838D8589818E868A828C8488800F6D
:102B7000070B030D0509010E060A020C04080000EC
:102B8000007471727364616263505140414578759D
:102B9000776065666752535F445657487C70767B12
:102BA000696A6B5455595A5B687E42797A6D6C6ECE
:102BB0006F585D5E4C7E227F5C7D0000000000004F
:102BC0000000000020002426252128292A2B4D2D35
:102BD0002E492C0000000000000000000000002F23
:102BE0007C270046000027002223002B0000000065
:102BF00000000000230000000000000000000000B2
:102C0000000000000000000102030406070809009C
:102C10000000000102030400382C0008000000201E
:102C20005C000000821E0008942C00085C0000205C
:102C30009C080000921E0008000000000000000038
:102C40000000000000000000000000000000000084
:102C50000000000000000000000000000000000074
:102C60000000000000000000000000000000000064
:102C7000AF000000000000000000000000000000A5
:102C80000000000000127A000000000000000000B8
:042C90000000000040
:04000005080000C12E
:00000001FF
