:020000040800F2
:10000000A8070020D50000081D130008B111000842
:1000100000000000000000000000000000000000E0
:100020000000000000000000000000005B16000857
:100030000000000000000000651300085D160008C5
:100040000501000805010008050100080501000878
:100050000501000805010008050100080501000868
:100060000501000805010008050100080501000858
:100070000501000805010008050100080501000848
:100080000501000800000000000000000501000854
:100090000000000005010008050100080501000836
:1000A00000000000691300080501000805010008B0
:1000B0000501000800000000050100080501000816
:1000C0000348854600F06CF8004800471D1C0008F6
:1000D000A80700200C4880F308880C480168090E26
:1000E0000B4A914205D10B480B4901600B480C4962
:1000F00001600C4880470C480047FEE7FEE7FEE73A
:10010000FEE7FEE7FEE70000A8070020040000006D
:100110001F00000018100240010000000000014014
:1001200000000000D5160008C100000830B50B46DD
:10013000014600202022012409E00D46D5409D42C1
:1001400005D31D469540491B254695404019154647
:10015000521E002DF1DC30BD03460B439B0703D03C
:1001600009E008C9121F08C0042AFAD203E00B787C
:100170000370401C491C521EF9D27047D2B201E0F4
:100180000270401C491EFBD270470022F6E710B5F2
:1001900013460A4604461946FFF7F0FF204610BDF5
:1001A000064C0125064E05E0E36807CC2B430C3CCA
:1001B00098471034B442F7D3FFF786FF9C2200081B
:1001C000BC22000870B50024014620314A78022A7A
:1001D00003D004218163012416E0026813680E2510
:1001E000AB431360026813685B085B001360012275
:1001F000056C1346AB40C56B6B604A7000220A70F9
:10020000416B002900D08847204670BDF8B5002317
:1002100089E001249C402A46A44622407ED04C68B6
:10022000022C01D0122C0CD1DC08A40027183C6A47
:100230005D07ED0E0F26AE40B4430E69AE40264377
:100240003E6205685E000324B4400F79A543BF07F2
:10025000BF0FB7402F4307604D68012D05D0022D19
:1002600003D0112D01D0122D0ED18568CF68A54382
:10027000B7402F43876047686546AF430D79ED0669
:10028000ED0F9D403D434560C568A5438C68B44073
:100290002C43C4604C68E40044D5264CA569012673
:1002A0003543A561A4699D0834400094224CAD00FB
:1002B0002F19BC689D072E0F0F25B540AC430925AB
:1002C000ED06A84201D100250AE01C4DA84201D14B
:1002D000012505E01A4DA84201D1022500E00525BF
:1002E000B5402543BD60174C25684E689543F6031D
:1002F00000D51543256065684E689543B60300D563
:1003000015436560A5684E689543F60200D5154310
:10031000A560E5684E689543B60200E002E000D5AE
:100320001543E5605B1C0A681546DA4000D070E7AB
:10033000F8BD000000100240000001400004004829
:1003400000080048000401400069084000D0012076
:100350007047002A01D081617047816270470000B8
:10036000014800687047000014000020024801683E
:10037000491C0160704700001400002010B50648B9
:100380000168102211430160002000F007F800F01E
:1003900017F8002010BD00000020024010B50446F0
:1003A00000F06EF97D21C900FFF7C0FE00F050FD9E
:1003B00000222146501E00F02FF8002010BD000042
:1003C00008B50F488169012211438161816911409B
:1003D0000091C26901040A43C261C0690022084059
:1003E00000901146501F00F017F800221146901E91
:1003F00000F012F800221146501E00F00DF808BD62
:1004000000100240C106C90E012088400149086061
:100410007047000000E100E010B500F081FF10BD62
:10042000F8B5044600683E4DC00352D5E869002681
:10043000C00007D4E96928040143E961E969014082
:100440000126009137480168C90510D4016882155A
:1004500011430160FFF784FF074604E0FFF780FFC8
:10046000C01B642824D82F480068C005F6D5286A28
:1004700003273F02384020D06168394081421CD0B8
:10048000286A2A6AB843012109040A432A622A6AAF
:100490008A432A622862C0070FD0FFF761FF0090ED
:1004A00008E0FFF75DFF0099411A1F48814201D91A
:1004B0000320F8BD286A8007F3D5286A6168B8432D
:1004C00008432862002E04D0E96901200007814317
:1004D000E9612078C00705D0286BA16880088000FA
:1004E000084328632078800605D5286B10218843AF
:1004F000E168084328632068800305D5286B8021C4
:1005000088436169084328632088400505D5286B26
:10051000402188432169084328630020F8BD00007A
:10052000001002400070004088130000F8B5054636
:100530004E480E460068C007C00FB0420AD24B4872
:10054000016849084900314301600068C007C00FD5
:10055000B04270D12878464C800705D56068F021FC
:100560008843A968084360602878C00753D068684A
:10057000012817D0022818D0032819D0216889072C
:10058000002958DA61688908890001436160FFF732
:10059000E7FE69680746012913D002291DD0032907
:1005A00027D034E021688903EAE721688901E7E779
:1005B000616BC903E4E7FFF7D3FEC11B2D488142FD
:1005C00023D860680007800F0128F4D123E0FFF7EB
:1005D000C7FEC11B2748814217D860680007800FFB
:1005E0000228F4D117E0FFF7BBFEC11B214881426E
:1005F0000BD860680007800F0328F4D10BE0FFF7E9
:10060000AFFEC11B1B48814201D90320F8BD6068C1
:100610000007800FF3D115480168C907C90FB1421F
:100620000BD9016849084900314301600068C007DF
:10063000C00FB04201D00120F8BD2878400706D590
:100640006068072109028843E9680843606000F098
:100650002DF86168084A0906090F515CC84007492E
:1006600008600020FFF79AFE0020F8BD002002403D
:1006700000100240881300008122000818000020AA
:100680000148006870470000180000200448054930
:1006900000684968044A4905490F515CC8407047E1
:1006A00018000020001002409122000830B516A367
:1006B0000FCB89B06C460FC417A30FCB0FC41A49D8
:1006C0004A680C20144604401848042C05D0184BE6
:1006D000082C04D00C2C00D1184609B030BD94026F
:1006E000240F6D462C5DC96A04AD0907090FD203BA
:1006F000695C920F022A02D0032A00D11846FFF744
:1007000015FD6043E9E70000020304050607080938
:100710000A0B0C0D0E0F101001020304050607084A
:10072000090A0B0C0D0E0F100010024000127A0087
:10073000006CDC02FEB504460078F04EF04DC007B8
:1007400048D068680007800F01281FD0686800073C
:10075000800F022804D16868C003800F022815D0DA
:100760006168012919D001208004002901D00529E0
:1007700017D02968B14329602968814329606068DE
:1007800000281BD0FFF7ECFD074613E02868800324
:1007900020D56068002876D01CE0286830432860A7
:1007A000EDE7296801432960F7E7FFF7D9FDC01B92
:1007B000642869D828688003F7D50BE0FFF7D0FDDF
:1007C000074604E0FFF7CCFDC01B6428F1D8286879
:1007D0008003F7D4207880073ED568680007800F33
:1007E00014D068680007800F022804D16868C0032D
:1007F000800F01280AD0E068002828681DD0012158
:1008000008432860FFF7ACFD07460BE02868800727
:100810000BD5E068012836D107E0FFF7A1FDC01B2A
:100820000228C6D828688007F7D52868F8218843A9
:100830002169C900084328600EE040084000286094
:10084000FFF78EFD074604E0FFF78AFDC01B022874
:10085000AFD828688007F7D42078000724D5E0694E
:100860000028686A11D0012108436862FFF778FD0B
:10087000074604E0FFF774FDC01B022899D8686A98
:100880008007F7D510E036E1D1E04008400068620B
:10089000FFF766FD074604E0FFF762FDC01B022874
:1008A00087D8686A8007F7D4207804274007002893
:1008B00061DA00200190E869C00008D4E969B8064F
:1008C0000143E961E96901400120009101908D48EF
:1008D0000168C90511D40168821511430160FFF751
:1008E0003FFD009005E0FFF73BFD0099401A6428AA
:1008F00097D884480068C005F5D5A06801280AD0BB
:10090000002801D0052811D0286A4008400028623C
:10091000286AB84302E0286A012108432862A068D7
:10092000002812D0FFF71CFD00900AE0286A384327
:100930002862F0E7FFF714FD0099411A72488142DE
:1009400075D8286A8007F5D50DE0FFF709FD0090FE
:1009500006E0FFF705FD0099411A6B48814266D811
:10096000286A8007F5D40198002804D0E96901209D
:1009700000078143E9612078C00635D56069012808
:100980000CD0401D686B24D038436863686B400806
:1009900040006863FFF7E4FC074622E0686B3843D9
:1009A0006863686B012108436863FFF7D9FC074659
:1009B00004E0FFF7D5FCC01B022838D8686B80071D
:1009C000F7D5686BF8218843A169C90008436863BB
:1009D0000AE0B8436863F4E7FFF7C2FCC01B0228D3
:1009E00025D8686B8007F7D42078800637D56868EB
:1009F0000007800F032813D068680007800F0228C3
:100A000004D16868C003800F032809D0206A002839
:100A1000686B16D030436863FFF7A2FC06460CE013
:100A2000686BC0031BD5206A012864D117E05BE026
:100A3000FFF796FC801B022856D8686BC003F7D5D9
:100A40000DE0B0436863FFF78BFC064604E0FFF758
:100A500087FC801B022847D8686BC003F7D4606A04
:100A6000002846D069680907890F022943D001266A
:100A700036060228286805D0B0432860FFF770FCCE
:100A8000044633E0B0432860FFF76AFC074604E001
:100A9000FFF766FCC01B022826D828688001F7D41F
:100AA000E86A216B000900010843E862A16AE06A74
:100AB000084369687B22D203914308436860286831
:100AC00030432860FFF74CFC044604E0FFF748FC85
:100AD000001B022808D828688001F7D509E0FFF735
:100AE0003FFC001B022801D90320FEBD28688001BD
:100AF000F5D40020FEBD0120FEBD00000000010075
:100B00000010024000700040881300007047000091
:100B1000F8B504460068426881684B0605D4CB07E7
:100B200003D0530601D5E16C04E08B0705D513060D
:100B300003D5216D20468847F8BDFF236133194254
:100B4000FAD09306F8D523464D064033002D09DA36
:100B50005D7F032D3CD0256E042635432566C56890
:100B6000856800958E060125002E08DA266E2E4334
:100B700026668668009606684027BE430660C8055C
:100B800006D5206E08210843206620688068009002
:100B9000206E0028D0D020684168E026B143416033
:100BA0005D77900718D02068416889088900416006
:100BB000A06D0B4D002803D04563A06DFFF702FB2D
:100BC000606D0028B8D04563606DFFF7FBFAF8BD93
:100BD000C16880680090F8BD2046FFF797FFF8BD18
:100BE000DB140008F8B5040007D000262546403580
:100BF000A662687F002802D005E00120F8BD2E77AC
:100C0000204600F04BF802236B77206801684022F1
:100C1000914301600721E0680902884201D900225E
:100C200001E0012212030F273F02B84202D088429E
:100C300000D0A662276B002F05D1884201D923631B
:100C400001E001202063A1686068636908432169AD
:100C5000194308430123A1695B0219400843E16974
:100C60000843216A0843A16A084321680860616B50
:100C7000606AA36908431B0C0427E1683B401943E1
:100C800008432168104348602068C1697A02914393
:100C9000C1612666012068770020F8BD00B50068B4
:100CA000114987B088421DD11048826981140A43D6
:100CB0008261806908400590F02000900220019038
:100CC0000021032003900291049109206946C00687
:100CD000FFF79CFA002211461920FFF79DFB19200F
:100CE000FFF790FB07B000BD00300140001002404C
:100CF00070470000F0B504468C464034217F002543
:100D0000C768964601290CD001212177667F41688A
:100D1000012E0CD0CA1FFD3A07D18168002904D1E9
:100D200001E00220F0BD042E01D0022540E0614622
:100D300000291BD07146002918D0002B16D0617FE6
:100D4000042901D005216177002101666146816394
:100D50008387C38771460164A380E380072109026A
:100D60008F4205D9144AC264144A04E001251FE0E9
:100D7000134AC264134A0265012212038F4202D849
:100D8000E188022903D301684B68934302E00168BC
:100D90004B6813434B6001684A68E0231A434A607A
:100DA00000680168490603D40168402211430160CC
:100DB000002020772846F0BD791300080D140008A4
:100DC000AF1300084114000870B52023134A1449DA
:100DD0001448FFF78FFF1248202210492030FFF7F8
:100DE000BBF90F4C104D203404E001221146284677
:100DF000FFF7AFFA2078DE28F7D1A078012804D1D8
:100E0000227AA179094800F0B9FFA078042804D11A
:100E1000002202210648FFF79CFA70BD280000203E
:100E20006801002054000020001400484800002001
:100E300000040048042204490428086902D09043B1
:100E4000086170471043FBE700E000E070470000D6
:100E5000094910B5401E884201D9012010BD074C38
:100E600060610321081F00F05BFA0020A0610720E9
:100E70002061002010BD0000FFFFFF0000E000E047
:100E800010B5FFF7E3FF10BD70B502462032137FA7
:100E9000012B1BD001231377022454770468656863
:100EA0007026B5436560046865680E683543656003
:100EB0000468A5688026B543A56000688468496811
:100EC0000C43846053770020107770BD022070BD02
:100ED00070B5040005D025462035687F002802D073
:100EE00006E0012070BD00202877204600F00AF8B7
:100EF00002206877211D206800F01AFC0120687725
:100F0000002070BD08B5006801218907884207D11B
:100F10000448C16901221143C161C06910400090B9
:100F200008BD0000001002400222014620314A772D
:100F3000026813680120034313604877002070475C
:100F4000F8B5054604462035287F012817D001272B
:100F50002F7702206877226890687726FF23B043B6
:100F60001B02984390600868502837D00EDC202878
:100F700057D006DC00284ED0102840D14EE0022089
:100F8000F8BD302850D0402839D13CE060282DD021
:100F9000702817D001221203801A0ED090422ED151
:100FA000CB684A688968206800F004FC2068816882
:100FB000012292031143816021E020688168C90801
:100FC000C900F8E7CB684A688968206800F0F2FB3E
:100FD00021688868B0433043886010E0CA68496877
:100FE000206800F0FAFB5021206806E0CA684968D2
:100FF000206800F003FC6021206800F0E6FB6F77BA
:1010000000202877F8BDCA684968206800F0E5FB31
:1010100040212068F1E700212068EEE710212068D8
:10102000EBE720212068E8E730212068E5E770B58C
:10103000040005D025466035687A002802D006E015
:10104000012070BD00202872204600F027F82420DF
:10105000687220680168490849000160204600F074
:1010600079FC0128EDD0606A002802D0204600F00B
:10107000D8FB206841680922D20291434160206870
:1010800081682A229143816020680168012211430E
:101090000160204600F02AFC70BD000000B5006829
:1010A0000F4987B0884218D10E488269012189030F
:1010B0000A43826180690840059003204002009045
:1010C0000220019000200290032003900120049050
:1010D00009206946C006FFF799F807B000BD000077
:1010E0000038014000100240FFB506460446603655
:1010F000707A83B00D46202858D1002D0CD0059869
:10110000002809D00120A1680003814207D120698D
:10111000002804D1E80702D0012007B0F0BD307AE2
:10112000012843D0012030720020E0662120707237
:10113000FFF716F901902746403705983882059841
:10114000788218E0788A401E788206980090002203
:1011500080212046019B00F095FC002818D1012039
:10116000A1680003814202D12069002812D02168C1
:10117000287808856D1C788A0028E3D106980090AD
:10118000002240212046019B00F07CFC002808D072
:101190000320C2E728882168C005C00D0885AD1C62
:1011A000E9E72020707200203072B6E70220B4E731
:1011B000FEE70000F0B5244887B0426901218905A7
:1011C0000A43426142690A400592426949110A4351
:1011D000426142690A400592426949000A434261FC
:1011E00040691A4F08400590002203213846FFF756
:1011F000B0F8092000220321C006FFF7AAF8002258
:1012000002211348FFF7A5F80024032501260294C4
:1012100069463846019600950394FEF7F7FF1120C2
:10122000019009200294694600950394C006FEF7D8
:10123000EDFF022000900294694601960394044851
:10124000FEF7E4FF07B0F0BD0010024000140048B4
:101250000004004810B50D480B49016000214160B1
:101260008160016141618161072201621202416274
:10127000C260816207220163C2624163FFF7B2FC70
:10128000002800D0FEE710BD0030014054000020CF
:1012900010B50121124886B08907016000242F2172
:1012A000846041600461611E8461C160FFF710FECB
:1012B000002800D0FEE7012000030090694608489E
:1012C000FFF73EFE002800D0FEE7049404A904487E
:1012D0000594FFF7D9FD002800D0FEE706B010BD49
:1012E000B800002010B50C480A490160E12149020C
:1012F000416000218160C16001618161C1610C2296
:10130000016242614162FFF792FE002800D0FEE7D1
:1013100010BD000000380140F800002070470000B8
:101320008307FF22DB0E9A408907090E99400028A7
:101330000BDA0007000F0838830808489B001818CC
:10134000C36993430B43C3617047830804489B0000
:101350001B181868904308431860704700ED00E0C0
:1013600000E400E07047000010B50248FFF7D0FB32
:1013700010BD00005400002010B50168C968026C5F
:101380001180016C891C016401464031CA88521EDB
:10139000CA80C988002909D101684A6840239A4354
:1013A0004A60C18F002901D100F06EF810BD10B560
:1013B00001464031CC880368026C012C11D9DB68EE
:1013C0001380026C921C0264CA88921ECA80CA886A
:1013D000012A0DD10268536801242403234353607A
:1013E00006E01C7B531C03641470CA88521ECA801A
:1013F000C988002909D101684A6860239A434A6074
:10140000C18F002901D100F03FF810BD10B5816BEC
:1014100002680988D160816B891C8163C18F491E74
:10142000C187C18F00290AD101684A6880239A4385
:101430004A604621095A002901D100F025F810BD63
:1014400010B5C38F0268816B022B07D30988D16066
:10145000816B891C8163C18F891E05E04B1C8363EE
:1014600009781173C18F491EC187C18F00290AD124
:1014700001684A6880239A434A604621095A002934
:1014800001D100F001F810BD70B50446FEF768FF09
:101490000246206841682025A94341606421204616
:1014A00000F024F8002802D0206E28432066226E27
:1014B000204601214030002A04D041772046FFF722
:1014C00025FB70BD427F4177042A204602D0FFF7FA
:1014D0007BFC70BDFFF70CFC70BD10B5406A0021AD
:1014E00046221152C187FFF711FB10BDF8B50F4618
:1014F0000B4615460092032104460022C90200F063
:101500001BF82026002812D13B46002280212046CD
:10151000009500F05CF8002809D103213B46002229
:1015200049022046009500F007F8002803D0206EFD
:10153000304320660320F8BDF8B51D4617460E4619
:1015400004463DE0032149028E4205D1002F03D11C
:10155000017B684601700078681C31D0002D05D0F1
:10156000FEF7FEFE0699401AA84229D3206841687A
:10157000E022914341606068C11FFD390CD1012117
:10158000A068C903884202D04911884204D120686A
:1015900001684022914301600120A16A4003814219
:1015A00007D121680A6882430A6021680A680243F9
:1015B0000A60012040346077002020770320F8BDC6
:1015C000206881683140B942BCD10020F8BDF8B52F
:1015D0001D4617460E46044633E0681C31D0002DE8
:1015E00005D0FEF7BDFE0699401AA84229D320680F
:1015F0004168E022914341606068C11FFD390CD110
:101600000121A068C903884202D04911884204D14F
:10161000206801684022914301600120A16A4003D3
:10162000814207D121680A6882430A6021680A68FA
:1016300002430A60012040346077002020770320B5
:10164000F8BD206881683046884304D00020B84245
:10165000C3D10020F8BD0120F9E7704710B5FEF7AF
:1016600085FEFFF70DFC10BD30B597B02020012599
:1016700000240090089509946846FFF75BF800285D
:1016800000D0FEE707200D9003200E900F9401215B
:1016900010940DA8FEF74AFF002800D0FEE711A81D
:1016A00011951394FEF7BCFE002800D0FEE7FEF76C
:1016B000E7FF7D21C900FEF739FDFFF7C9FB0420D4
:1016C000FFF7B8FB00221146501EFEF7A5FE17B02B
:1016D00030BD0000134801680122114301604168D8
:1016E000114A114041600168104A114001600168CF
:1016F000012292049143016041683F221204914308
:101700004160C16A09090901C162016BFF22D4323B
:1017100091430163416B49084900416300218160A5
:1017200070470000001002400CB8FF08FFFFF6FEF3
:10173000F0B502681A4B0124A4071A4D984203D051
:10174000A04201D0A84203D17026B2434E68324372
:10175000154E164F98420AD0A04208D0A84206D093
:10176000134CA04203D0B04201D0B84204D10324AC
:101770002402A243CC6822438024A2434C69224322
:1017800002608A68C2620A688262984203D0B042EC
:1017900001D0B84201D10969016301214161F0BD65
:1017A000002C01400004004000440140004801407A
:1017B0000020004030B58468FF252D021B02134332
:1017C000AC430B432343836030BD826870239A434C
:1017D0000A4307210A438260704730B5036A046AEE
:1017E0006408640004628469F025AC43120122435A
:1017F0000A24A3430B438261036230BD30B5036A00
:101800001024A34303628469036A0F252D03120386
:10181000AC432243A024A34309011943826101621E
:1018200030BD10B5818CC90707D001684A68012313
:101830005B049A43836A1A434A60818C890707D5FF
:1018400001684A6801231B049A43C36A1A434A6029
:10185000818C490707D501684A6801239B049A4394
:10186000036B1A434A60818C090707D501684A68EF
:101870000123DB039A43436B1A434A60818CC906F8
:1018800007D50268916801231B039943836B1943B1
:101890009160818C890607D501688A6801235B0302
:1018A0009A43C36B1A438A60818C490612D5036838
:1018B0005A6801210905046C8A4322435A60026C6C
:1018C0008A4207D10268516803235B059943436C40
:1018D00019435160818C090607D501684A680123C4
:1018E000DB04806C9A4302434A6010BDF8B50026C1
:1018F0000446C666FEF734FD054614492068884252
:101900001DD10068124F000709D501212B46002286
:1019100049052046009700F0B5F800280DD1206851
:10192000006840070BD501212B460022890520467F
:10193000009700F0A7F8002801D00320F8BD202070
:1019400060346072A07226720020F8BD0038014039
:10195000FFFFFF01F8B504462369A268E5691A4351
:10196000636910202B43002125681A432B680E461B
:101970003E4F3B4013432B6023685A6803252D03D9
:10198000AA43E5682A435A60236AA26925681A4374
:10199000AB680B273F02BB431343AB60344A256857
:1019A000954210D1334A126B9207920F0ED0012A42
:1019B00005D0022A05D0032A09D1022007E004201D
:1019C00005E0082003E02C4A954200D100200122C6
:1019D000E369D203934224D100280CD002280DD011
:1019E000042813D0082817D001260A091201080775
:1019F000400F10432FE0FEF749FE09E061681F4ADF
:101A000048088018FEF792FB81B2EEE7FEF74EFE23
:101A1000616840004A08F4E761680122480812043E
:101A2000EFE7002808D0022809D004280BD00828A6
:101A300014D001263046F8BDFEF728FE05E06168A7
:101A40000F4A48080CE0FEF731FE61684A0880182A
:101A5000FEF76CFB80B22168C860EBE7616848085C
:101A60008018FEF763FB80B2E860E3E7F369FFEFFD
:101A70000038014000100240004400400024F400FF
:101A800000127A00FFB581B017460E4604460A9D43
:101A90001DE0681C1BD0002D05D0FEF761FC0499E9
:101AA000401AA84213D920680168FF22A13291434D
:101AB0000160206881684908490081602020603405
:101AC0006072A07200202072032005B0F0BD206873
:101AD000C1693046884304D00020B842D9D00020E4
:101AE000F3E70120F9E7000010B5024A024900F0CF
:101AF00021F810BD791B00081C00002030B474468A
:101B0000641E2578641CAB4200D21D46635D5B00F9
:101B1000E31830BC184702E008C8121F08C1002AA9
:101B2000FAD170477047002001E001C1121F002A5E
:101B3000FBD17047F8B516460F460446002503E072
:101B40003946B047641C6D1C20780028F8D128461F
:101B5000F8BD00B5014600F009F9411800F006F99A
:101B60008842FBD300BD000010B502490860FFF7B2
:101B7000DBF910BD0000002013B564230122694683
:101B80000248FFF7B1FA00981CBD0000F8000020E1
:101B900038B5ED380C460300FFF7B0FF13302A2F9D
:101BA000142F1C143B3B3B2F2F2F2F2F2F2F3B0B82
:101BB0002F0014220121FA2000F092FAFA220021CB
:101BC000AA2018E014220121FA2000F089FA1E212F
:101BD00068461AE014220121FA2000F081FA14224A
:101BE0000021AB2000F07CFA14220021832002E0C7
:101BF00014220121EE2000F073FA38BD14220121D5
:101C0000FA2000F06DFA1E21204600F0EBF90028C2
:101C1000F3D114220121FA20EDE700001FB5FEF7F1
:101C2000ADFBFFF721FDFFF7C5FAFFF75BFBFFF701
:101C300011FBFFF72DFB2A48FFF796FF0920C0068E
:101C400002230246012100F025F91021254800F069
:101C5000C4F823482021B030FEF797FA20492048E5
:101C60002023214AB0316438FFF744F81FA0FFF762
:101C70003BFF1B4CFF260127B03400F0DBF80128A6
:101C800020D1684606720A2103A800F0ABF9684625
:101C900002A9007BFFF77CFF6846057AFF2D11D073
:101CA0000F482021B030FEF770FACD2020700C488C
:101CB0000122D03040786070A770E57002210F4893
:101CC000FEF747FB01AA6946064800F06FF80028B6
:101CD000D3D168460179007800F0EEF8CDE7000036
:101CE000B8000020480000202800002068656C6CC7
:101CF0006F20776F726C640A0000000000040048D7
:101D0000F0B50B30C108C900144F0026144A0FE08B
:101D100003688B420BD38B4205D95C1A4318456884
:101D200030C3083B00E04368136002C004E0021DBA
:101D300010680028ECD13046002803D1386800280C
:101D400001D00020F0BD064A06481060064A121A6B
:101D5000D208D20044C001203860D7E72400002018
:101D600020000020AC010020A803002002480068E9
:101D70000068406A704700000000002070B51546FA
:101D80000E46044600F039F8002801D0012070BD4D
:101D90002178606846542178A06845542078A1785D
:101DA000401CFEF7C3F92170002070BD10B5044639
:101DB00040782378984201D1012010BD6368185CF7
:101DC00008706178A068405C10706078A178401C51
:101DD000FEF7ACF96170002010BD70B50D460446E9
:101DE00081702846FFF78CFF60602846FFF788FF68
:101DF000A060204600F00FF870BD10B50446817851
:101E00000078401CFEF792F96078814201D10120F0
:101E100010BD002010BD10B5044600202070607079
:101E2000A1786068FEF7B1F9A178A068FEF7ADF976
:101E300010BD000010B5164C6188A068FEF784FA4A
:101E4000012805D121886068FEF77EFA012806D0B6
:101E50006188A068FEF778FA012802D007E0032025
:101E600010BD21886068FEF76FFA002806D06188EF
:101E7000A068FEF769FA002802D007E0022010BD32
:101E800021886068FEF760FA0128F8D0002010BDB4
:101E90000400002010B5074C60602180A2606380C0
:101EA0000122FEF756FA01226188A068FEF751FA76
:101EB00010BD00000400002010B559280DD2484A7A
:101EC000145CFF2C7CD0002902D01422002102E0F7
:101ED000142200217CE0204645E0632812D07728B8
:101EE00045D00246603A1F2A78D83D4A5932101828
:101EF00060380478FF2C71D0002962D014220021B0
:101F0000E02066E0002912D014220021E02000F039
:101F1000E7F814220121122000F0E2F81422012136
:101F2000E02000F0DDF8142201217C201BE01422C7
:101F30000021E02000F0D4F814220121F02000F06C
:101F4000CFF8142201217C2000F0CAF814220121CC
:101F5000E02000F0C5F814220121F02000F0C0F8C4
:101F600014220121122000F0BBF8002010BD00292E
:101F7000BBD014220021E12000F0B2F8142201218C
:101F8000104600F0ADF814220121772000F0A8F8E7
:101F900014220121E12000F0A3F814220121F020F5
:101FA00000F09EF814220121104600F099F8142246
:101FB0000121F02000F094F8142201217720D2E7CB
:101FC0000CE014220021E02000F08AF81422012104
:101FD000F02000F085F8142201217CE7012010BDDB
:101FE00008220008F3B581B00F4600250126FEF750
:101FF000B7F93A4CE06007E0FEF7B2F9E168401A41
:10200000B84201D30120FEBDFFF714FF0128F3D130
:102010001220FFF79EFD002221886068FEF799F9E3
:102020002420FFF796FD012221886068FEF791F9D0
:102030001220FFF78EFD6188A068FEF785F9012860
:1020400000D135437004060C1220FFF782FD0022F8
:1020500021886068FEF77DF92420FFF77AFD0122D0
:1020600021886068FEF775F91220FFF772FDFF2ED8
:10207000E1D91220FFF76DFD002221886068FEF78C
:1020800068F92420FFF765FD012221886068FEF7CA
:1020900060F91220FFF75DFD1220FFF75AFD0022C4
:1020A0006188A068FEF755F9002221886068FEF774
:1020B00050F92420FFF74DFD012221886068FEF7CA
:1020C00048F91220FFF745FD01226188A068FEF75C
:1020D00040F9019805700020FEBD000004000020BA
:1020E000F7B5164605460127FEF73AF9454CE0607C
:1020F00007E0FEF735F9E168401AB04201D301204C
:10210000FEBDFFF797FE0328F3D10198002803D006
:10211000AF208000FFF71DFD00226188A068FEF758
:1021200018F91220FFF715FD002221886068FEF7DC
:1021300010F92420FFF70DFD012221886068FEF7C9
:1021400008F91220FFF705FD0026E80701D001225B
:1021500000E000226188A068FEF7FBF81220FFF77C
:10216000F8FC002221886068FEF7F3F82420FFF7CE
:10217000F0FC012221886068FEF7EBF81220FFF7DF
:10218000E8FCE807C00F761C47406D08F6B2082E41
:10219000DBD3002F01D0012200E000226188A0687B
:1021A000FEF7D7F81220FFF7D4FC002221886068E0
:1021B000FEF7CFF82420FFF7CCFC012221886068CD
:1021C000FEF7C7F81220FFF7C4FC01226188A0685F
:1021D000FEF7BFF81220FFF7BCFC002221886068E0
:1021E000FEF7B7F82420FFF7B4FC012221886068CD
:1021F000FEF7AFF81220FFF7ACFCC820FFF7A9FCF0
:102200000020FEBD04000020FF76161E26252E3677
:102210003D3E46454E55660D151D242D2C353C433F
:10222000444D545B5A141C1B232B34333B424B4C00
:10223000520E125D1A22212A32313A41494A597C02
:102240001129580506040C030B830A0109777E6CDB
:10225000757D7B6B73747969727A7071FFFF617839
:10226000075A144AFF11FF6C757D6B7469727A709E
:1022700071FFFFFFFFFFFFFFFFFFFFFFFFFF1F27B4
:102280002F00000000000000000102030406070800
:10229000090000000001020304000000BC22000845
:1022A0000000002028000000161B0008E42200089F
:1022B0002800002080070000261B00080000000006
:1022C000000000000000000000000000000000000E
:1022D0000000000000127A00000000000000000072
:0422E00000000000FA
:04000005080000C12E
:00000001FF
