:020000040800F2
:10000000B0090020D5000008691E00087519000815
:1000100000000000000000000000000000000000E0
:10002000000000000000000000000000A721000800
:100030000000000000000000B11E0008A921000817
:10004000E7000008E7000008E7000008E7000008F4
:10005000E700000889010008E7000008E700000841
:10006000E7000008E7000008E7000008E7000008D4
:10007000E7000008E7000008E7000008E7000008C4
:10008000E7000008E7000008E7000008E7000008B4
:10009000E7000008E7000008E7000008E7000008A4
:1000A000E7000008B51E0008E7000008E7000008A8
:1000B000E7000008A9270008E7000008E70000089B
:1000C0000348854600F04EF800480047412F0008DD
:1000D000B00900200448804704480047FEE7FEE7D7
:1000E000FEE7FEE7FEE7FEE721220008C100000868
:1000F00030B50B46014600202022012409E00D46C0
:10010000D5409D4205D31D469540491B2546954047
:1001100040191546521E002DF1DC30BD03460B433D
:100120009B0703D009E008C9121F08C0042AFAD2AD
:1001300003E00B780370401C491C521EF9D2704733
:10014000D2B201E00270401C491EFBD2704700226F
:10015000F6E710B513460A4604461946FFF7F0FFC6
:10016000204610BD064C0125064E05E0E36807CC8D
:100170002B430C3C98471034B442F7D3FFF7A4FF4D
:10018000204600084046000810B5022000F042F862
:1001900010BD70B50024014620314A78022A03D0F0
:1001A00004218163012416E0026813680E25AB4325
:1001B0001360026813685B085B0013600122056C22
:1001C0001346AB40C56B6B604A7000220A70416BEE
:1001D000002900D08847204670BD31B500F0E2F814
:1001E000009C0546601C00D0641C00F0DBF8401B3E
:1001F000A042FAD338BD000000B5022807D105207F
:1002000002F08EFD002802D001490120087200BDD5
:100210004800002010B504494A69024202D04861F2
:10022000FFF7EAFF10BD000000040140F8B500230D
:1002300093E0224601249C40A44622407ED04C6894
:10024000022C01D0122C0CD1DC08A40027183C6A27
:100250005D07ED0E0F26AE40B4430E69AE40264357
:100260003E6205685E000324B4400F79A543BF07D2
:10027000BF0FB7402F4307604D68012D05D0022DF9
:1002800003D0112D01D0122D0ED18568CF68A54362
:10029000B7402F43876047686546AF430D79ED0649
:1002A000ED0F9D403D434560C568A5438C68B44053
:1002B0002C43C4604C68E4004ED52B4CA569012644
:1002C0003543A561A4699D0834400094274CAD00D6
:1002D0002F19BC689D072E0F0F25B540AC4309258B
:1002E000ED06A84201D1002514E0214DA84201D11C
:1002F00001250FE01F4DA84201D102250AE01E4D45
:10030000A84201D1032505E01C4DA84201D10425D6
:1003100000E00525B5402543BD60194C25684E68B1
:100320009543F60300D51543256065684E689543EF
:10033000B60300D515436560A56800E00CE04E6883
:100340009543F60200D51543A560E5684E689543D0
:10035000B60200D51543E5605B1C0A681446DA4016
:1003600000D066E7F8BD0000001002400000014028
:100370000004004800080048000C00480010004835
:10038000000401400069084000D001207047426924
:100390004A4042617047002A01D081617047816202
:1003A0007047000001480068704700007800002096
:1003B00070B5024640325378202B1CD11378012BA4
:1003C00019D00123137024245470046825689D43B8
:1003D0002560046825681E03B54325600468256808
:1003E0000D432560006801681943016020205070AA
:1003F0000020107070BD022070BD70B50246403202
:100400005378202B1BD11378012B18D001241470A2
:100410002423537003681D68A5431D6005682B687D
:100420000F263602B34309021943296000680168A8
:1004300021430160202050700020107070BD022008
:1004400070BD000070B5040006D0254640356878C0
:100450000026002802D005E0012070BD2E70204645
:1004600000F082F92420687020680168490849007A
:1004700001600F21606809068843216808612168CE
:100480008A680120C00382438A60E1680129A1686B
:1004900008D021229202114322689160E16802296A
:1004A00002D005E00143F7E701212268C90251604B
:1004B00021684A680F4B1A434A602168CA68824320
:1004C000CA60616920690843A1690902084321687B
:1004D000C860216AE06908432168086020680168F3
:1004E0000122114301606664202068702663AE70AB
:1004F000002070BD00800002FFB50446002083B0DC
:100500002546403501906A78202A7FD12268926979
:10051000D24312047AD52A78012A77D001222A7090
:1005200024226A7060648F05BF0DE06801280BD03B
:100530000520C002012138188902884321684860DB
:10054000FFF730FF064612E03148F3E70698401CFB
:100550000DD00698002805D0FFF724FF811B0698D0
:10056000814204D9202068700020287043E0206870
:100570008169C943890606D58069C043C00602D592
:100580006878A028E2D120688069069BC043C00635
:1005900000960ED500222021204601F07FFA002887
:1005A00029D121682020C86168700020287007B018
:1005B000F0BD00222021204601F070FA00281AD157
:1005C00020681021C16120682021C1610198411C6F
:1005D00001910599884214D1206841680122920353
:1005E000114341600096002220212046069B01F025
:1005F00055FA002802D00320D9E707E0216820201F
:10060000C8610199059881428FD3ABE70220CEE7FC
:1006100000200002FFB5054604464035687883B0E7
:10062000202876D10C98002874D00D98002871D01D
:10063000287801286DD001202870FFF7B3FE074607
:10064000012200901923D103204601F027FA002847
:1006500053D1212068704020A870002666640C9851
:1006600060620D98608566630E980090019704A9FA
:100670000EC9204601F0CAF9002804D0606C2E7023
:1006800004286AD039E0608DFF2805D9FF22228531
:1006900001231B06009606E0608D20850096208DC4
:1006A0000123C2B25B062046049901F0E5F93A46FF
:1006B00020460E9901F03DFA002803D0606C042812
:1006C0004BD01AE0606A411C616221680078886240
:1006D000608D401E6085208D401E0004000C20852A
:1006E00024D1608D002821D000970022802120464F
:1006F0000E9B01F0D3F9002802D0032007B0F0BD13
:10070000608DFF2807D9FF22228501231B06009652
:1007100008E024E021E0608D20850096208D0123F3
:10072000C2B25B062046049901F0A6F9608D00284C
:10073000BDD13A4620460E9901F0D4F90028BDD12A
:1007400020682021C16120684268064B1A4042603F
:100750006970AE702E700020D0E70120CEE7022035
:10076000CCE7000000E800FE00B500680E4987B045
:10077000884217D1032040030090122001900020EE
:100780000290032003900520049069460748FFF774
:100790004DFD0748C269012189050A43C261C0694C
:1007A0000840059007B000BD005800400004004814
:1007B0000010024070B504000FD021681348086093
:1007C00021681348086003CC41602068083C216818
:1007D0008860FFF7E7FD054608E0012070BDFFF7E0
:1007E000E1FD401B272801D9032070BD2068C068A7
:1007F0000028F4D120680269E1688A4201D00161D1
:1008000001E004490160002070BD0000CCCC000074
:1008100055550000AAAA00000068024901600020A6
:1008200070470000AAAA000002480168491C016044
:10083000704700007800002010B5064801681022BB
:1008400011430160002000F007F800F017F80020C5
:1008500010BD00000020024010B5044600F078F9F9
:100860007D21C900FFF744FC00F0E2FD0022214693
:10087000501E00F02FF8002010BD000008B50F48F2
:100880008169012211438161816911400091C2692E
:1008900001040A43C261C069002208400090114669
:1008A000501F00F017F800221146901E00F012F8B9
:1008B00000221146501E00F00DF808BD0010024045
:1008C000C106C90E01208840014908607047000038
:1008D00000E100E010B501F0C9FA10BDF8B504461A
:1008E0000068434DC00352D5E8690026C00007D414
:1008F000E96928040143E961E969014001260091A1
:100900003C480168C90510D4016882151143016093
:10091000FFF748FD074604E0FFF744FDC01B6428CD
:1009200024D834480068C005F6D5286A03273F025A
:10093000384020D06168394081421CD0286A2A6A38
:10094000B843012109040A432A622A6A8A432A62B7
:100950002862C0070FD0FFF725FD009008E0FFF7E1
:1009600021FD0099411A2448814201D90320F8BD94
:10097000286A8007F3D5286A6168B843084328626B
:10098000002E04D0E869012109078843E861207836
:10099000C00705D0286BA168800880000843286341
:1009A0002078800706D5286B032109048843E16875
:1009B000084328632078800605D5286B10218843DA
:1009C0002169084328632068800305D5286B8021AE
:1009D0008843A169084328632088400505D5286B12
:1009E000402188436169084328630020F8BD000066
:1009F000001002400070004088130000F8B5054662
:100A00004E480E460068C007C00FB0420AD24B489D
:100A1000016849084900314301600068C007C00F00
:100A2000B04270D12878464C800705D56068F02127
:100A30008843A968084360602878C00753D0686875
:100A4000012817D0022818D0032819D02168890757
:100A5000002958DA61688908890001436160FFF75D
:100A6000A1FC69680746012913D002291DD003297A
:100A700027D034E021688903EAE721688901E7E7A4
:100A8000616BC903E4E7FFF78DFCC11B2D48814270
:100A900023D860680007800F0128F4D123E0FFF716
:100AA00081FCC11B2748814217D860680007800F6E
:100AB0000228F4D117E0FFF775FCC11B21488142E1
:100AC0000BD860680007800F0328F4D10BE0FFF714
:100AD00069FCC11B1B48814201D90320F8BD606835
:100AE0000007800FF3D115480168C907C90FB1424B
:100AF0000BD9016849084900314301600068C0070B
:100B0000C00FB04201D00120F8BD2878400706D5BB
:100B10006068072109028843E9680843606000F0C3
:100B20002DF86168084A0906090F515CC840074959
:100B300008600020FFF790FE0020F8BD0020024072
:100B40000010024088130000054600087C000020C9
:100B500001480068704700007C00002004480549F7
:100B600000684968044A4905490F515CC84070470C
:100B70007C000020001002401546000830B516A386
:100B80000FCB89B06C460FC417A30FCB0FC41A4903
:100B90004A680C20144604401848042C05D0184B11
:100BA000082C04D00C2C00D1184609B030BD94029A
:100BB000240F6D462C5DC96A04AD0907090FD203E5
:100BC000695C920F022A02D0032A00D11846FFF76F
:100BD0008FFA6043E9E700000203040506070809ED
:100BE0000A0B0C0D0E0F1010010203040506070876
:100BF000090A0B0C0D0E0F100010024000127A00B3
:100C0000006CDC02FEB504460078F04EF04DC007E3
:100C100048D068680007800F01281FD06868000767
:100C2000800F022804D16868C003800F022815D005
:100C30006168012919D001208004002901D005290B
:100C400017D02968B1432960296881432960606809
:100C500000281BD0FFF7A6FB074613E02868800397
:100C600020D56068002876D01CE0286830432860D2
:100C7000EDE7296801432960F7E7FFF793FBC01B05
:100C8000642869D828688003F7D50BE0FFF78AFB52
:100C9000074604E0FFF786FBC01B6428F1D82868EC
:100CA0008003F7D4207880073ED568680007800F5E
:100CB00014D068680007800F022804D16868C00358
:100CC000800F01280AD0E068002828681DD0012183
:100CD00008432860FFF766FB07460BE0286880079B
:100CE0000BD5E068012836D107E0FFF75BFBC01B9E
:100CF0000228C6D828688007F7D52868F8218843D5
:100D00002169C900084328600EE0400840002860BF
:100D1000FFF748FB074604E0FFF744FBC01B02282F
:100D2000AFD828688007F7D42078000724D5E06979
:100D30000028686A11D0012108436862FFF732FB7E
:100D4000074604E0FFF72EFBC01B022899D8686A0B
:100D50008007F7D510E036E1D1E040084000686236
:100D6000FFF720FB074604E0FFF71CFBC01B02282F
:100D700087D8686A8007F7D42078042740070028BE
:100D800061DA00200190E869C00008D4E969B8067A
:100D90000143E961E96901400120009101908D481A
:100DA0000168C90511D40168821511430160FFF77C
:100DB000F9FA009005E0FFF7F5FA0099401A642867
:100DC00097D884480068C005F5D5A06801280AD0E6
:100DD000002801D0052811D0286A40084000286268
:100DE000286AB84302E0286A012108432862A06803
:100DF000002812D0FFF7D6FA00900AE0286A38439C
:100E00002862F0E7FFF7CEFA0099411A7248814252
:100E100075D8286A8007F5D50DE0FFF7C3FA009072
:100E200006E0FFF7BFFA0099411A6B48814266D885
:100E3000286A8007F5D40198002804D0E9690120C8
:100E400000078143E9612078C00635D56069012833
:100E50000CD0401D686B24D038436863686B400831
:100E600040006863FFF79EFA074622E0686B38434C
:100E70006863686B012108436863FFF793FA0746CC
:100E800004E0FFF78FFAC01B022838D8686B800790
:100E9000F7D5686BF8218843A169C90008436863E6
:100EA0000AE0B8436863F4E7FFF77CFAC01B022846
:100EB00025D8686B8007F7D42078800637D5686816
:100EC0000007800F032813D068680007800F0228EE
:100ED00004D16868C003800F032809D0206A002865
:100EE000686B16D030436863FFF75CFA06460CE087
:100EF000686BC0031BD5206A012864D117E05BE052
:100F0000FFF750FA801B022856D8686BC003F7D54C
:100F10000DE0B0436863FFF745FA064604E0FFF7CB
:100F200041FA801B022847D8686BC003F7D4606A77
:100F3000002846D069680907890F022943D0012695
:100F400036060228286805D0B0432860FFF72AFA41
:100F5000044633E0B0432860FFF724FA074604E074
:100F6000FFF720FAC01B022826D828688001F7D492
:100F7000E86A216B000900010843E862A16AE06A9F
:100F8000084369687B22D20391430843686028685C
:100F900030432860FFF706FA044604E0FFF702FA40
:100FA000001B022808D828688001F7D509E0FFF760
:100FB000F9F9001B022801D90320FEBD2868800131
:100FC000F5D40020FEBD0120FEBD000000000100A0
:100FD00000100240007000408813000070470000BD
:100FE000F8B504460068426881684B0605D4CB0713
:100FF00003D0530601D5E16C04E08B0705D5130639
:1010000003D5216D20468847F8BDFF23613319427F
:10101000FAD09306F8D523464D064033002D09DA61
:101020005D7F032D3CD0256E042635432566C568BB
:10103000856800958E060125002E08DA266E2E435F
:1010400026668668009606684027BE430660C80587
:1010500006D5206E0821084320662068806800902D
:10106000206E0028D0D020684168E026B14341605E
:101070005D77900718D02068416889088900416031
:10108000A06D0B4D002803D04563A06DFFF781F8DC
:10109000606D0028B8D04563606DFFF77AF8F8BD41
:1010A000C16880680090F8BD2046FFF797FFF8BD43
:1010B00027200008F8B5040007D000262546403553
:1010C000A662687F002802D005E00120F8BD2E77D7
:1010D000204600F04BF802236B772068016840221D
:1010E000914301600721E0680902884201D900228A
:1010F00001E0012212030F273F02B84202D08842CA
:1011000000D0A662276B002F05D1884201D9236346
:1011100001E001202063A1686068636908432169D8
:10112000194308430123A1695B0219400843E1699F
:101130000843216A0843A16A084321680860616B7B
:10114000606AA36908431B0C0427E1683B4019430C
:1011500008432168104348602068C1697A029143BE
:10116000C1612666012068770020F8BD00B50068DF
:10117000114987B088421DD11048826981140A4301
:101180008261806908400590F02000900220019063
:101190000021032003900291049109206946C006B2
:1011A000FFF744F8002211461920FFF793FB19209E
:1011B000FFF786FB07B000BD003001400010024081
:1011C00070470000F0B504468C464034217F00256E
:1011D000C768964601290CD001212177667F4168B6
:1011E000012E0CD0CA1FFD3A07D18168002904D115
:1011F00001E00220F0BD042E01D0022540E061464E
:1012000000291BD07146002918D0002B16D0617F11
:10121000042901D0052161770021016661468163BF
:101220008387C38771460164A380E3800721090295
:101230008F4205D9144AC264144A04E001251FE014
:10124000134AC264134A0265012212038F4202D874
:10125000E188022903D301684B68934302E00168E7
:101260004B6813434B6001684A68E0231A434A60A5
:1012700000680168490603D40168402211430160F7
:10128000002020772846F0BDC51E0008591F000821
:10129000FB1E00088D1F0008F8B501220920D103AC
:1012A000C006FFF778F857492022881AFEF736FF64
:1012B000544C0126203C2078534FDE2801D07E720A
:1012C00090E0A07808280BD0092810D000250B2822
:1012D00030D003284AD001284FD0022879D081E0AD
:1012E0004848A2792179203001F024FD7AE0617923
:1012F000207901F073FB434A2C321060E179A07928
:1013000001F06CFB40425060207A3E49404210722E
:10131000607A5072607B9072A07B1073E07BD07219
:10132000207C5073607C907337482C31203001F062
:10133000EFFF57E0334821794C30017061794170FB
:10134000A1798170E179C170057145718571C571AF
:10135000217A0172617A4172A17A8172E17AC17255
:1013600001462948283001F067FB3BE001210022BB
:1013700049032648FFF70FF834E02248202140387F
:10138000FEF7E5FE1F48CD214038017061784170BD
:1013900080238370C6703978017145710521817190
:1013A000C171082200210546A1356C5C002C0CD0CF
:1013B000022C02D0012C03D005E0815403E008E0A8
:1013C0000C461C438454521CD2B2491C1029ECDB3D
:1013D00008E00325605D002804D001F029FC6D1CA5
:1013E000202DF7DB074A2023114640390848FFF734
:1013F000E9FE012109200022C903C006FEF7CBFF48
:10140000F8BD00003C030020480000200008004810
:1014100078010020042204490428086902D090437E
:10142000086170471043FBE700E000E070470000F0
:10143000094910B5401E884201D9012010BD074C52
:1014400060610321081F00F011FD0020A06107204A
:101450002061002010BD0000FFFFFF0000E000E061
:1014600010B5FFF7E3FF10BD70B502462032137FC1
:10147000012B1BD00123137702245477046865687D
:101480007026B5436560046865680E68354365601D
:101490000468A5688026B543A5600068846849682B
:1014A0000C43846053770020107770BD022070BD1C
:1014B00070B5040005D025462035687F002802D08D
:1014C00006E0012070BD00202877204600F00AF8D1
:1014D00002206877211D206800F0D0FE0120687787
:1014E000002070BD08B5006801218907884207D136
:1014F0000448C16901221143C161C06910400090D4
:1015000008BD0000001002400222014620314A7747
:101510000268136801200343136048770020704776
:10152000F8B5054604462035287F012817D0012745
:101530002F7702206877226890687726FF23B043D0
:101540001B02984390600868502837D00EDC202892
:1015500057D006DC00284ED0102840D14EE00220A3
:10156000F8BD302850D0402839D13CE060282DD03B
:10157000702817D001221203801A0ED090422ED16B
:10158000CB684A688968206800F0C2FE20688168DC
:10159000012292031143816021E020688168C9081B
:1015A000C900F8E7CB684A688968206800F0B0FE97
:1015B00021688868B0433043886010E0CA68496891
:1015C000206800F0B8FE5021206806E0CA6849682B
:1015D000206800F0C1FE6021206800F0A4FE6F7753
:1015E00000202877F8BDCA684968206800F0A3FE8B
:1015F00040212068F1E700212068EEE710212068F3
:10160000EBE720212068E8E730212068E5E7704714
:1016100070470000F8B503680446D86919680507E3
:101620002D0F07D1820605D58A0603D5204600F086
:101630006BFFF8BD9A68002D64D0D507ED0FFF262B
:1016400021360E402E435DD0C60706D0CE0504D508
:1016500001261E62E36E3343E366870702230426F6
:10166000002F06DAD70704D027683B62E76E3743BE
:10167000E766470706D5D20704D022681662E26EF5
:101680001A43E266020709D520220A402A4305D000
:10169000236808221A62E36E1343E366E26E002AAF
:1016A000C7D0800604D5880602D5204600F02CFF5E
:1016B000E06E000703D42068806840061CD52046F1
:1016C00000F006FF20688168490611D58168402234
:1016D00091438160606E00280AD01A494163606EB0
:1016E000FEF757FD0028A4D0606E416B8847F8BD17
:1016F0002046FFF78DFFF8BD2046FFF789FF002049
:10170000E066F8BDC5020DD552020BD501200005DB
:101710001862202120466030417281722046FFF716
:1017200076FFF8BD020605D50A0603D5204600F06F
:10173000D7FFF8BD4006FCD54806FAD5204600F094
:10174000D6FEF8BDBD24000870B5040005D02546BE
:101750006035687A002802D006E0012070BD0020C4
:101760002872204600F026F824206872206801685C
:10177000490849000160204600F004FF0128EDD02F
:10178000606A002802D0204600F0F9FD2068416818
:101790000922D20291434160206881682A22914344
:1017A000816020680168012211430160204600F039
:1017B0004BFE70BD30B51F4D046800211E4802224B
:1017C000032387B0AC4214D1856954032543856156
:1017D00080690291204005905802009001200490F9
:1017E0000920039301926946C006FEF71FFD07B06A
:1017F00030BD124DAC42FAD1C5690124A404254381
:10180000C561C069029120400590032080020090CC
:10181000042004900393019269460948FEF706FDEF
:10182000002201211D20FFF755F81D20FFF748F881
:10183000DDE7000000380140001002400048004091
:10184000000400487047FFB5064604466036707ACB
:1018500083B00D46202858D1002D0CD005980028C3
:1018600009D00120A1680003814207D12069002826
:1018700004D1E80702D0012007B0F0BD307A01287A
:1018800043D0012030720020E06621207072FEF704
:1018900089FD01902746403705983882059878825F
:1018A00018E0788A401E78820698009000228021F5
:1018B0002046019B00F047FF002818D10120A168B5
:1018C0000003814202D12069002812D021682878C3
:1018D00008856D1C788A0028E3D1069800900022C4
:1018E00040212046019B00F02EFF002808D0032055
:1018F000C2E728882168C005C00D0885AD1CE9E74E
:101900002020707200203072B6E70220B4E730B5B4
:10191000034660335C7A202C23D100290BD0002AA7
:1019200009D0012584682D03AC4206D10469002C3E
:1019300003D1CC0701D0012030BD1C7A012C10D07E
:10194000C164014640310A824A820021C1662122D7
:101950005A721972006801688022114301600020E8
:1019600030BD022030BD0000014900208872704760
:1019700048000020FEE701688A69D243920701D43B
:1019800000228A6200688169C943C90703D081695E
:101990000122114381617047F7B5044600680E4685
:1019A0008069C043C0062CD42027254640352068D6
:1019B0008069C04380060FD5701CF8D0002E05D07A
:1019C000FEF7F0FC0299401AB042F0D96F70002087
:1019D000A87028700320FEBD21681020C86120680F
:1019E000C7612046FFF7C7FF20684168064A1140DB
:1019F0004160042060646F700020A870287001208E
:101A0000FEBD0020FEBD000000E800FEF8B5044663
:101A10000120164640031D46DAB2C3020090079F1C
:101A2000204600F029F83A462046069900F081F851
:101A3000002803D0606C04281BD018E02846F5B2BB
:101A4000012809D02168300A88623A462046069962
:101A500000F06FF80028EDD1206885620097002221
:101A600080212046069B00F019F8002800D00320B2
:101A7000F8BD0120F8BD000070B50568049C6868D9
:101A80008905890D1204044E114319433040214346
:101A90000143696070BD0000009800FCF8B51C4669
:101AA00017460E46054611E0601C0FD0002C05D0ED
:101AB000FEF778FC0699401AA04207D9202040354D
:101AC00068700020A87028700320F8BD286881691C
:101AD0003046884304D00020B842E5D00020F8BD4D
:101AE0000120F9E770B516460D4604461AE0324665
:101AF00029462046FFF750FF002801D0012070BD85
:101B0000002D04D0FEF74EFC801BA8420AD9616C60
:101B1000202001436164403460700020A070207078
:101B2000032070BD20688069C0438006DFD4002098
:101B300070BD70B516460D4604461CE03246294677
:101B40002046FFF729FF002801D0012070BD681C46
:101B500011D0002D04D0FEF725FC801BA8420AD925
:101B6000616C202001436164403460700020A070EB
:101B70002070032070BD20688069C0438007DDD4D9
:101B8000002070BDF0B5504887B041690120C00405
:101B90004D4A014351615169014005915169C000AD
:101BA000014351615169014005915169401101435F
:101BB000516151690140104605914169012080043D
:101BC00001435161516944110140404F0591002288
:101BD00021463846FEF7DFFB0326B60301223146D5
:101BE0003846FEF7D8FB012203213948FEF7D3FB24
:101BF000CD21012289003748FEF7CDFB09200022C4
:101C0000A100C006FEF7C7FB002208213148FEF7FD
:101C1000C2FB0094002401250195029469463846D0
:101C20000394FEF703FB009611260294694638469A
:101C300001960394FEF7FAFA032000900294694695
:101C4000019603942248FEF7F1FA234802270190F7
:101C50006946009702941F48FEF7E8FACD208000FD
:101C6000009002946946019603941A48FEF7DEFA42
:101C7000E8036A4691C269461648FEF7D7FA280279
:101C80006A4691C209206946C006FEF7CFFAE8030A
:101C9000009009200294694601950394C006FEF75E
:101CA000C5FA0820009002946946019503940948FA
:101CB000FEF7BCFA002202210520FEF70BFE0520EC
:101CC000FEF7FEFD07B0F0BD00100240000800481E
:101CD00000140048000400480000211010B512480C
:101CE0001049016011494160002181600161416139
:101CF00081610122C161C2600162FEF7A3FB00287D
:101D000000D0FEE700210848FEF752FB002800D073
:101D1000FEE700210448FEF770FB002800D0FEE734
:101D200010BD0000005800401C0100205D3E302026
:101D300010B50D480B4901600021416081600161CF
:101D4000416181610722016212024162C2608162C7
:101D500007220163C2624163FFF7ACF9002800D09B
:101D6000FEE710BD003001407801002010B50121D0
:101D7000124886B08907016000242F2184604160E9
:101D80000461611E8461C160FFF792FB002800D0EE
:101D9000FEE701200003009069460848FFF7C0FBFA
:101DA000002800D0FEE7049404A904480594FFF736
:101DB0005BFB002800D0FEE706B010BDDC01002070
:101DC00010B50F480D490160E121490241600D49FC
:101DD0008989402901D00C49416000218160C1609E
:101DE00001618161C1610C2201624261416204486A
:101DF000FFF7AAFC002800D0FEE710BD0038014024
:101E00001C020020480000203EFA020010B51448D1
:101E1000124901604B210901416012498989402919
:101E200002D07F2109014160002101221207C16017
:101E30008260016181610C22C161426101623021D5
:101E400041620121090381634900C1630448FFF72E
:101E50007BFC002800D0FEE710BD000000480040D9
:101E60008C02002048000020704700008307FF22FA
:101E7000DB0E9A408907090E994000280BDA00070B
:101E8000000F0838830808489B001818C36993435B
:101E90000B43C3617047830804489B001B181868F4
:101EA000904308431860704700ED00E000E400E054
:101EB0007047000010B50248FFF792F810BD00000F
:101EC0007801002010B50168C968026C1180016CAE
:101ED000891C016401464031CA88521ECA80C988E3
:101EE000002909D101684A6840239A434A60C18F9A
:101EF000002901D100F06EF810BD10B50146403147
:101F0000CC880368026C012C11D9DB681380026C49
:101F1000921C0264CA88921ECA80CA88012A0DD106
:101F200002685368012424032343536006E01C7BAA
:101F3000531C03641470CA88521ECA80C9880029C1
:101F400009D101684A6860239A434A60C18F002919
:101F500001D100F03FF810BD10B5816B026809880F
:101F6000D160816B891C8163C18F491EC187C18F7C
:101F700000290AD101684A6880239A434A604621B1
:101F8000095A002901D100F025F810BD10B5C38F02
:101F90000268816B022B07D30988D160816B891C91
:101FA0008163C18F891E05E04B1C8363097811731F
:101FB000C18F491EC187C18F00290AD101684A68B3
:101FC00080239A434A604621095A002901D100F032
:101FD00001F810BD70B50446FEF7E4F9024620682A
:101FE00041682025A94341606421204600F024F87F
:101FF000002802D0206E28432066226E2046012150
:102000004030002A04D041772046FEF7E7FF70BD3C
:10201000427F4177042A204602D0FFF73DF970BD88
:10202000FFF7CEF870BD10B5406A0021462211526C
:10203000C187FEF7D3FF10BDF8B50F460B46154616
:102040000092032104460022C90200F01BF820265A
:10205000002812D13B46002280212046009500F046
:102060005CF8002809D103213B46002249022046A2
:10207000009500F007F8002803D0206E304320665A
:102080000320F8BDF8B51D4617460E4604463DE050
:10209000032149028E4205D1002F03D1017B6846FE
:1020A00001700078681C31D0002D05D0FEF77AF958
:1020B0000699401AA84229D320684168E02291433A
:1020C00041606068C11FFD390CD10121A068C903BE
:1020D000884202D04911884204D120680168402218
:1020E000914301600120A16A4003814207D1216828
:1020F0000A6882430A6021680A6802430A60012074
:1021000040346077002020770320F8BD2068816884
:102110003140B942BCD10020F8BDF8B51D46174684
:102120000E46044633E0681C31D0002D05D0FEF782
:1021300039F90699401AA84229D320684168E0225B
:10214000914341606068C11FFD390CD10121A06835
:10215000C903884202D04911884204D1206801682D
:102160004022914301600120A16A4003814207D1CE
:1021700021680A6882430A6021680A6802430A608B
:10218000012040346077002020770320F8BD2068CC
:1021900081683046884304D00020B842C3D1002073
:1021A000F8BD0120F9E7704710B5FEF73DFBFFF7DA
:1021B00057F910BD30B599B02820012500240090B2
:1021C0000895079509946846FEF71CFD002800D085
:1021D000FEE707200D9003200E900F94012110942C
:1021E0000DA8FEF70BFC002800D0FEE7119511A802
:1021F0001395FEF773FB002800D0FEE7FEF7A8FC5E
:102200007D21C900FDF774FFFFF712F90420FFF7E5
:1022100001F900221146501EFEF75CFB19B030BDDB
:10222000124801680122114301604168104A1140BF
:10223000416001680F4A1140016001680122920467
:102240009143016041683F22120491434160C16A99
:1022500009090901C162016B074A11400163416B21
:102260004908490041630021816070470010024025
:102270000CB8FF08FFFFF6FE2CFEFCFFF0B502686D
:102280001D4B0124A4071D4D984203D0A04201D04C
:10229000A84203D17026B2434E683243184E194FFC
:1022A00098420DD0A0420BD0A84209D0164CA042B3
:1022B00006D0B04204D0B84202D0144CA04204D19F
:1022C00003242402A243CC6822438024A2434C6905
:1022D000224302608A68C2620A688262984206D01B
:1022E000B04204D0B84202D0084A904201D10969F4
:1022F000016301214161F0BD002C01400004004058
:1023000000400140004401400020004000480140DE
:1023100030B58468FF252D021B021343AC430B43E9
:102320002343836030BD826870239A430A430721A8
:102330000A438260704730B5036A046A6408640027
:1023400004628469F025AC43120122430A24A343AA
:102350000B438261036230BD30B5036A1024A3438E
:1023600003628469036A0F252D031203AC432243E1
:10237000A024A343090119438261016230BD10B555
:10238000818CC90707D001684A6801235B049A431E
:10239000836A1A434A60818C890707D501684A68B5
:1023A00001231B049A43C36A1A434A60818C49077C
:1023B00007D501684A6801239B049A43036B1A43BB
:1023C0004A60818C090707D501684A680123DB034D
:1023D0009A43436B1A434A60818CC90607D5026849
:1023E000916801231B039943836B19439160818C8E
:1023F000890607D501688A6801235B039A43C36B8A
:102400001A438A60818C490612D503685A680121F3
:102410000905046C8A4322435A60026C8A4207D140
:102420000268516803235B059943436C194351606B
:10243000818C090607D501684A680123DB04806C9A
:102440009A4302434A6010BDF8B500260446C666AA
:10245000FDF7A8FF054616492068884202D01549B5
:1024600088421DD10068144F000709D501212B4671
:10247000002249052046009700F065F900280DD19B
:102480002068006840070BD501212B4600228905F2
:102490002046009700F057F9002801D00320F8BD2E
:1024A000202060346072A07226720020F8BD000007
:1024B0000038014000440040FFFFFF0110B5406AB2
:1024C0000022014640314A834A82FFF7A1F810BD3D
:1024D00001680A68FF2321339A430A6001688A6809
:1024E000520852008A60202160308172704710B516
:1024F00001680A6840239A430A60202269210A542D
:10250000FFF732FA002010BD70B502464032034694
:102510006033948B9D7A0168222D05D0886908224A
:1025200010438861022070BD898C012685683603BE
:10253000B54202D10569002D0BD02140446D651CC8
:1025400045652170518B491E0904090C518307D040
:1025500015E0456D21402980416D891C4165F1E7F9
:1025600001680A68FF242134A2430A6001688A686E
:10257000520852008A6020219972FFF763F9002007
:1025800070BD0000F8B504462369A268E5691A43E6
:10259000636910202B43002125681A432B680E46DF
:1025A000474F3B4013432B6023685A6803252D0394
:1025B000AA43E5682A435A60236AA26925681A4338
:1025C000AB680B273F02BB431343AB603D4F25680D
:1025D0003D4B0203BD420AD11B6B9B079B0F20D0D2
:1025E000012B14D0022B14D0032B1BD10DE0374F3D
:1025F000BD4210D11B6B03273F043B4011D09B1AF7
:1026000005D09B1A05D093420CD102200AE0042089
:1026100008E0082006E02E4B9D4202D02D4B9D4243
:1026200000D100200123E769DB039F4222D100286B
:102630000CD002280DD0042813D0082817D001266A
:102640000A0912010807400F10432EE0FEF786FA30
:1026500009E06168204A48088018FDF749FD81B209
:10266000EEE7FEF78BFA616840004A08F4E761681C
:102670004808F1E7002808D0022809D004280CD027
:10268000082815D001263046F8BDFEF767FA06E0A7
:102690006168124A480880180DE0FEF76FFA616819
:1026A0004A088018FDF724FD80B22168C860EAE777
:1026B00061684808C018FDF71BFD80B2E860E2E7DA
:1026C000F369FFEF00380140001002400044004071
:1026D00000480040004C00400024F40000127A0042
:1026E0006921095C212901D002207047024640324D
:1026F000518A002912D0012381681B03994202D11B
:102700000169002915D0C16C4B1CC36400680978AD
:102710000185508A401E50820020704701680A6877
:1027200080239A430A6000680168402211430160D7
:10273000F2E7C16C03680988C905C90D1985C16C28
:10274000891CC164E5E7FFB581B017460E46044613
:102750000A9D1DE0681C1BD0002D05D0FDF722FE50
:102760000499401AA84213D920680168FF22A132B7
:1027700091430160206881684908490081602020F8
:1027800060346072A07200202072032005B0F0BD9A
:102790002068C1693046884304D00020B842D9D0AF
:1027A0000020F3E70120F9E710B50248FEF732FFF9
:1027B00010BD00008C0200200FB410B503A9044B1B
:1027C000044A029800F024F810BC08BC04B0184772
:1027D000212A00088000002030B47446641E257849
:1027E000641CAB4200D21D46635D5B00E31830BC45
:1027F000184702E008C8121F08C1002AFAD1704722
:102800007047002001E001C1121F002AFBD1704770
:10281000FFB58DB00F460546002606E025280AD0F4
:10282000109A0F9990476D1C761C28780028F5D1D6
:10283000304611B0F0BD00240121674A009400E049
:1028400004436D1C2B780846203B98401042F7D17A
:1028500028782E2815D10420044368786D1C2A2876
:102860000AD101CF6D1C00900BE000990A22514360
:10287000303940186D1C00902878014630390929FC
:10288000F3D92878692843D006DC0028D0D0632803
:102890000BD0642804D13BE073280FD075284CD0AE
:1028A000109A0F999047761C94E038786946087220
:1028B0000020487202A80190012003E038680190CE
:1028C0000020C0433F1D61070CD5002400E0641CBC
:1028D00000998C420FDA8442F9DB0199095D0029E5
:1028E000F5D108E0002400E0641C8442FCDB01997F
:1028F000095D0029F8D1361907E00198019900789F
:10290000491C0191109A0F999047641EF5D261E01D
:102910000A20019001CF002802DA40422D2102E076
:10292000210504D52B216A461172012103E0E1073C
:1029300001D02021F7E70C9104E00A20019001CF9B
:1029400000210C910BA90B9108E00199FDF7D0FB38
:102950000A460B993032491E0B910A700028F4D1B7
:102960000B9803A9081A20300190600701D5009840
:1029700001E0012000900199884203DD01460198A1
:10298000081A00E000200024009006E002A8109A37
:10299000005D0F999047641C761C0C988442F5DB0F
:1029A00004E0109A30200F999047761C0099481E39
:1029B00000900029F5DC08E00B980B990078491C81
:1029C0000B91109A0F999047761C0199481E01901F
:1029D0000029F1DC6D1C28E70928010009020143E8
:1029E00008B2704702687F2A01DD7F2103E07E2163
:1029F000C9438A4200DA0160704700B5014600F021
:102A00001DFC411800F01AFC8842FBD300BD0000F9
:102A100010B502490860FEF777FD10BD00000020E8
:102A200013B56423012269460248FEF70CFF0098A3
:102A30001CBD00001C02002010B50B46044600F02F
:102A40001DF8002801D0012010BD20780C226168FB
:102A5000504308181946FDF761FB2078401C4007D9
:102A6000400F2070002010BD10B50446602000F01B
:102A70006BFB6060204600F020F810BD41780078C4
:102A8000401C4007400F814201D1012070470020C7
:102A9000704741780278914201D100207047406828
:102AA0000C2251434018704741780278914203D07C
:102AB000491C4907490F4170704710B5002101704A
:102AC000417040686021FDF742FB10BD70B525489C
:102AD000FFF7DFFF04003BD02078002839D0002228
:102AE000214E02213046FDF756FC6078002832D096
:102AF00000221E4D0121C9032846FDF74CFCA07899
:102B000000282AD0002201213046FDF744FCE0785D
:102B1000002824D00022012189032846FDF73BFC30
:102B2000207AFF25291A032000F06CFB607A291A0D
:102B3000002000F067FBA07A291A022000F062FB57
:102B4000E07A291A012000F05DFB0648FFF7ACFF90
:102B500070BD0122C4E70122CBE70122D3E70122A5
:102B6000D9E7000070000020001400480008004869
:102B700070B50C4C012202212046FDF70CFC0A4DD9
:102B80000122D1032846FDF706FC0122114620460A
:102B9000FDF701FC012291032846FDF7FCFB00F044
:102BA00019FB70BD001400480008004870B50546C8
:102BB0000020086048600872487288720873C87202
:102BC00048730C468873284600F0CEFB002827D0B7
:102BD000216802688918216061684268891861600B
:102BE000217A027A89182172617A427A891861728F
:102BF000A17A827A1143A172217B027B1143217356
:102C0000E17AC27A1143E172617B427B11436173C5
:102C1000A17B807B0143A173284600F0AFFBD2E784
:102C20002046FFF7DFFE201DFFF7DCFE70BD000031
:102C300070B54406C109640EC901102C2BD2254D74
:102C4000285D002827D0002926D0022823D1224839
:102C50002300FFF7C1FD091E060D1E10161E1C19CC
:102C60001E00FF2301330246590000F027FC10E04C
:102C700001F0D8FA0DE010230246202101F07CF883
:102C800007E000F08FFB04E000F098FB01E0FFF7A5
:102C90006FFF0120285570BD0128FCD10220285566
:102CA0002300FFF799FD0805060B050E0505130522
:102CB000F1E700F0C7FD00F0D5FD70BD01F002FBAB
:102CC00070BD01F0F3F801F0E1F870BDFFF750FFBF
:102CD00070BD00009D03002000040048002802D0C1
:102CE000ED2901D3002070470B4882780B48012A58
:102CF00004D0022A06D0032A08D00BE08E2909D27C
:102D0000042206E08E2905D2022202E08E2901D299
:102D10000322425401207047040000208C00002050
:102D2000102803D20249085C012800D00020704717
:102D30009D03002010B50C46034600F01FF8002844
:102D400001D0012010BD197858684454197898684A
:102D500042541878401C4007400F1870002010BDE6
:102D600010B50446082000F0EFF96060082000F07C
:102D7000EBF9A060204600F025F810BD41780078FE
:102D8000401C4007400F814201D1012070470020C4
:102D9000704710B543780478A34201D1012010BDDB
:102DA0004468E35C0B7081684078085C1070002018
:102DB00010BD41780278914203D0491C4907490F60
:102DC0004170704710B504460020207060700821E3
:102DD0006068FDF7BCF90821A068FDF7B8F910BDDF
:102DE000F3B581B00746FF2069460870524C39465A
:102DF000A078FFF773FF002814D10026ED3FA670DE
:102E00000125032102224D483B00FFF7E5FC138812
:102E1000820B660B585049403D36302A2422201E32
:102E20000B0F0B0014220121FA2075E0142201215E
:102E3000FA2000F083FD00F015FDFF204E30FDF775
:102E4000CCF9FA220021AA2066E0A170EAE7A2707C
:102E5000E8E7A570E6E700214554491C8E29FBDB15
:102E6000E0E700228154521C8E2AFBDBDAE70021C6
:102E70004254491C8E29FBDBD4E700210422425432
:102E8000491C8E29FBDBCDE700F0ECFCCAE700F023
:102E9000E9FC14220121FA2000F050FD6670FEBD0D
:102EA00014220121FA2000F049FD6570FEBD1422B4
:102EB0000121FA2000F042FD1E21684636E014226E
:102EC0000121FA2000F03AFD14220021AB2000F08D
:102ED00035FD1422002183201EE014220121FA2056
:102EE00000F02CFD1E21684600F02EFC0028DDD1EC
:102EF00014220121FA2000F021FD68460078002804
:102F000003D00328D2D82070FEBD142200212078DF
:102F100002E014220121EE2000F010FDFEBD14227B
:102F20000121FA2000F00AFD1E21029800F00CFC9D
:102F300000288BD0FEBD0000040000208C00002083
:102F40001CB56848684C8089A081FDF775FCFFF7C7
:102F500031F9FEF717FEFEF7C1FEFEF7E9FEFEF7B8
:102F600005FFFEF72DFFFEF751FF61485F49016045
:102F7000032141605F49C1608160FDF71BFC0028AF
:102F800000D0FEE75A48FDF747FC0520009001906D
:102F900000232278584959A0FFF70EFC544874309A
:102FA000FFF736FD00F056FAFF250135584E6F0049
:102FB00032462B463946104600F080FA32462B4600
:102FC0003946104601F038F93246102320211046C8
:102FD00000F0D2FE0220FFF7A3FE002801D001F08E
:102FE00021F94C48FFF7BCFE3F48203000F0A6F91D
:102FF0003D482830FFF738FD00F0ECF84548202127
:103000006038FDF7A4F8434A3948203A1146202396
:1030100040391030FEF7D6F8A1893FA0FFF7CCFB6E
:1030200000F0C8F8002812D13FA0FFF7C5FB002729
:1030300008213046FDF7ABF93220FDF7CEF87F1CB2
:103040000A2FF5DB012208213046FDF7A4F90927F4
:10305000FF062748FDF7E0FB0420FFF761FE00288C
:1030600009D00121C9033046FDF78CF9002802D0B0
:1030700000F048FF0EE00520FFF752FE002802D0C6
:1030800000F0E4F806E00820FFF74AFE002801D02F
:1030900000F09EF90120FFF743FE002808D02946E2
:1030A0003846FDF76FF9002802D000F0EDFB0CE088
:1030B0000220FFF735FE002807D029463846FDF7E5
:1030C00061F9002801D001F01DF90720FFF728FE63
:1030D000002801D0FFF7FAFC607A0028B9D001F08F
:1030E0002DF80000C0F7FF1F48000020003000400E
:1030F00068010020FF0F0000CE45000825730A720A
:1031000065762564207625642E25642E25640A00C4
:10311000000400485C030020666C6173685F73699B
:103120007A653A2025640A004469676974616C20F5
:10313000706F74206E6F7420726573706F6E646947
:103140006E67210A00000000F0B50B30C108C9000D
:10315000144F0026144A0FE003688B420BD38B42B6
:1031600005D95C1A4318456830C3083B00E0436842
:10317000136002C004E0021D10680028ECD1304644
:10318000002803D13868002801D00020F0BD064A8D
:1031900006481060064A121AD208D20044C0012024
:1031A0003860D7E78800002084000020B4030020A6
:1031B000B005002010B56423012258210448FDF712
:1031C0009BF9002801D0002010BD012010BD000097
:1031D0001C01002070B50A4C002204212046FDF796
:1031E000DAF87D25ED002846FFF707FC01220421CF
:1031F0002046FDF7D0F82846FFF7FFFB70BD000022
:103200000004004803B583B0042802D3FF2005B0B2
:1032100000BD08496423085C01210007020E04A8D0
:103220000293019100900B4658210348FDF7F2F9F3
:10323000EDE70000CA4500081C01002002480068B4
:103240000068406A704700000000002070B52E4CF6
:10325000207A00260125002808D04D20E0710122A7
:10326000E11D2A48FEF753FBA5722672264820303E
:1032700000F07AF8002845D0A07A002842D12349EE
:103280002148EC312030FFF791FC1F48C0210E305F
:103290000680867001701D49EC318A7A002A01D0BF
:1032A000E02202700A7B002A03D0027810231A431E
:1032B00002700A88898812B2494209B20B0603D506
:1032C00003780826334303704B0603D5037804269E
:1032D00033430370130603D5037802263343037088
:1032E000530602D503782B4303709206920E427068
:1032F0008906890E8170044903220E310348FEF7C6
:1033000006FBA57270BD0000480000208C02002062
:1033100030B50B46024600F01CF8002801D0012011
:1033200030BD11785068090140183ACB3AC0107886
:10333000401C0007000F1070002030BD10B504467F
:10334000FF200130FFF700FF6060204600F01FF80B
:1033500010BD41780078401C0007000F814201D168
:10336000012070470020704741780278914201D1D6
:103370000020704740680901401870474178027882
:10338000914203D0491C0907090F4170704710B5DD
:10339000002101704170FF2140680131FCF7D7FE28
:1033A00010BD000010B501200349000788600846E1
:1033B000FEF7CAF910BD00008C02002010B50349C9
:1033C000002088600846FEF7BFF910BD8C0200207F
:1033D00070B51E48FFF7C8FF002835D01B4C203CB5
:1033E000A07A002830D11A491848FFF7DFFB2046A1
:1033F00018300022026002718721017014498B7A13
:10340000002B01D083230370CB7A002B03D00378E9
:10341000FD252B4003700B7B002B03D003785B084A
:103420005B0003700B78437009798170C270027180
:103430000648FFF7A3FF0549054805220839EC387F
:10344000FEF765FA0120A07270BD00006800002040
:103450007803002010B510210648FCF778FE012102
:103460000448022241708270017142710272C1717E
:1034700010BD00009D03002070B50F4DA988A868FD
:10348000FCF780FF0446E988E868FCF77BFF012829
:1034900002D0002809D00AE0012C02D0002C02D072
:1034A00005E0032070BD022070BD012C01D000207A
:1034B00070BD012070BD00000400002010B5054C57
:1034C000A060A180E260E38000F0BCF900F0CAF9DE
:1034D00010BD00000400002010B50C4A5378002BEA
:1034E00008D01278012A07D0022A08D0032A09D06E
:1034F000072010BD012010BD00F00AF810BD00F03B
:103500001DF810BD00F0E2F810BD0000040000201E
:1035100010B5532805D9572803D0582801D00320C7
:1035200010BD002907D01422002100F007FA00285E
:10353000F6D0082010BD80210843F4E710B55928C3
:1035400010D2614A145CFF2C7ED0002902D01422D4
:103550000021ABE014220021F02000F0EFF9002858
:1035600073D1F4E7632816D077285AD00246603A20
:103570001F2A6BD8544A5932101860380478FF2C2F
:1035800062D000297ED014220021E02000F0D6F97C
:1035900000285AD188E000291CD014220021E02004
:1035A00000F0CCF9002850D114220021122000F0A4
:1035B000C5F9002849D114220021E02000F0BEF90D
:1035C00000287DD1142200217C2000F0B7F90028CA
:1035D00076D110BD14220021E02000F0AFF90028C0
:1035E0006ED114220021F02000F0A8F9002867D144
:1035F000142200217C2000F0A1F9002860D11422BF
:103600000021E02000F09AF9002859D1142200216D
:10361000F02000F093F9002852D11422002112204A
:10362000D3E70029A6D014220021E12000F086F97A
:10363000002845D114220021104600F07FF900280F
:103640003ED11422002102E02CE039E03AE077205C
:1036500000F074F9002833D114220021E12000F099
:103660006DF900282CD114220021F02000F066F919
:10367000002825D114220021104600F05FF900280F
:103680001ED100E014E014220021F02000F056F9D1
:10369000002815D114220021772000F04FF90028CE
:1036A0000ED110BD022010BD1422012120468CE74E
:1036B00014220021E02000F041F9002800D149E760
:1036C000082010BD032010BD5145000810B5C328C7
:1036D00001D3052010BD1A4A145CFF2C03D08E2C98
:1036E00003D3062010BD022010BD16480129025D3B
:1036F00004D0002910D002291BD01EE0022A03D0DA
:10370000012A01D0032A18D114220021204600F0FA
:1037100015F900280BD110E0022A01D0012A0CD1A2
:1037200014220021F02000F009F90028ECD0082034
:1037300010BD012AE8D0042AE6D0002010BD000008
:10374000004400088C000020F3B581B00F4600252E
:103750000126FCF727FE3A4C206107E0FCF722FE29
:103760002169401AB84201D30420FEBDFFF784FE50
:103770000128F3D11220FFF740F90022A188A068A8
:10378000FCF709FE2420FFF738F90122A188A06880
:10379000FCF701FE1220FFF730F9E188E068FCF742
:1037A000F1FD012800D135437004060C1220FFF70B
:1037B00024F90022A188A068FCF7EDFD2420FFF782
:1037C0001CF90122A188A068FCF7E5FD1220FFF793
:1037D00014F9FF2EE1D91220FFF70FF90022A1887A
:1037E000A068FCF7D8FD2420FFF707F90122A18883
:1037F000A068FCF7D0FD1220FFF7FFF81220FFF7BA
:10380000FCF80022E188E068FCF7C5FD0022A188F1
:10381000A068FCF7C0FD2420FFF7EFF80122A18883
:10382000A068FCF7B8FD1220FFF7E7F80122E18855
:10383000E068FCF7B0FD019805700020FEBD0000B7
:103840000400002010B5064C0122A188A068FCF7F6
:10385000A2FD0122E188E068FCF79DFD10BD00009B
:103860000400002010B505480221017001214170BB
:103870008E2203490348FCF751FC10BD04000020D0
:10388000C34400088C00002038B5FFF7F5FD284C34
:103890000228A07114D0012815D003280FD1221DB1
:1038A000511E2448FFF775FA002808D12179E078E5
:1038B000FFF712FE082836D01E48FFF77AFA38BD07
:1038C000FFF7C0FF38BDFF216846017018480A2184
:1038D000401CFFF739FF69466078FFF781FA6846B8
:1038E0000478FF2CEED0134820216038FCF72FFC21
:1038F0001048CD216038017001462031497841706F
:1039000081218170E2070121002A00D0C170A20745
:1039100000D50171620700D54171012251030648AB
:10392000FCF739FD38BD0120FCF757FC38BD00001D
:10393000480000205C03002000080048F8B5154648
:103940000E460746144CFCF72DFD206107E0FCF7FE
:1039500029FD2169401AA84201D30420F8BDFFF7D0
:103960008BFD0328F3D1FFF769FC206103E0FFF72B
:1039700083FD0328E7D1FFF761FC2169401A3C2849
:10398000F5D3002E03D0AF208000FFF736F838467D
:1039900000F004F8F8BD000004000020F8B5474C22
:1039A000054601260022E188E068FCF7F4FC1220BD
:1039B000FFF723F80022A188A068FCF7ECFC242084
:1039C000FFF71BF80122A188A068FCF7E4FC122095
:1039D000FFF713F8A188A068FCF7D4FC002868D092
:1039E0000027E80701D0012200E00022E188E0681A
:1039F000FCF7D1FC1220FFF700F80022A188A06894
:103A0000FCF7C9FC2420FEF7F8FF0122A188A0687A
:103A1000FCF7C1FC1220FEF7F0FFA188A068FCF7BC
:103A2000B1FC002845D0E807C00F46406D087F1C58
:103A3000082FD6DB002E01D0012200E00022E18811
:103A4000E068FCF7A8FC1220FEF7D7FF0022A1884F
:103A5000A068FCF7A0FC2420FEF7CFFF0122A1887C
:103A6000A068FCF798FC1220FEF7C7FFA188A068A9
:103A7000FCF788FC00281CD00122E188E068FCF7F4
:103A80008AFC1220FEF7B9FF0022A188A068FCF78B
:103A900082FC2420FEF7B1FF0122A188A068FCF778
:103AA0007AFC1220FEF7A9FFC820FEF7A6FF00202F
:103AB000F8BDFFF7C7FE0820F8BD00000400002095
:103AC00010B5164C61892069FCF75CFC012805D112
:103AD0002189E068FCF756FC012806D0618920693D
:103AE000FCF750FC012802D007E0032010BD21891B
:103AF000E068FCF747FC002806D061892069FCF7E4
:103B000041FC002802D007E0022010BD2189E068B6
:103B1000FCF738FC0128F8D0002010BD1800002068
:103B2000F8B5364E054630780C46002804D0B079FA
:103B3000002803D00620F8BD0120F8BD0821601C34
:103B4000FCF705FB0320207008206070A87A00288D
:103B500001D009206070287B0221002802D0607803
:103B600008436070E87A0422002802D0607810438D
:103B7000607028681023002802DA607818436070AB
:103B800068682027002802DA607838436070287857
:103B9000A0702879E0707079032806D0042806D038
:103BA000002800D022700020F8BD287A1EE0687B33
:103BB000002802D0207918432071A87B002802D069
:103BC00020793843207109202856002801DD20790A
:103BD00003E0002803DA20790E2108432071082031
:103BE0002856002804DD2079012105E02071D9E75D
:103BF0000028D7DA20790F210843F7E718000020C2
:103C0000F8B500250E46FF2810D0E6380021012720
:103C1000584C0300FEF7E0FD11A0A69063619B9B4A
:103C20009B5A9B549B331E1C1A179B0000F03EF9B5
:103C30001421FA2000F0DFF9FA21AA2000F0CEF9D1
:103C40001421002075E000F03DF980E021707EE055
:103C500027707CE01421FA2000F0CDF94548962128
:103C6000401C00F097F800282FD1424920791431E8
:103C700062780A5407286AD2401C207167E0142138
:103C8000FA2000F0B8F92179022916D93948143000
:103C900040182038C17F50290FD1817F642902D07C
:103CA000C82905D009E0407FC82806D1032003E0D9
:103CB000407FC82801D1042060711421607938E068
:103CC0001421FA2000F097F9A771F8BD1421FA2009
:103CD00000F091F90220A071F8BDA17137E0142124
:103CE000FA2000F088F9A079012800D14025207839
:103CF000002801D020200543E078022801D11020BF
:103D00000543B07A002801D004200543F07A00284A
:103D100001D002200543307B002800D03D43142110
:103D2000284600F05BF91421A07800F057F914211F
:103D3000607800F053F9F8BD1421FA2000F05BF927
:103D40000C489621801C00F025F80028F3D114219E
:103D5000FA2000F050F9F8BD1421FA2000F04BF9D8
:103D6000E770F8BD1421FA2000F045F90220E07058
:103D7000F8BD00001800002010B5054CE06021815E
:103D80002261638100F092F800F080F810BD00001D
:103D900018000020F3B581B00F4600250126FCF77E
:103DA00001FB044606E0FCF7FDFA001BB84201D314
:103DB0000420FEBDFFF784FE0128F4D11220FEF797
:103DC0001CFE314C00222189E068FCF7E4FA242033
:103DD000FEF713FE01222189E068FCF7DCFA1220CD
:103DE000FEF70BFE61892069FCF7CCFA012800D1AF
:103DF00035437004060C1220FEF7FFFD00222189D6
:103E0000E068FCF7C8FA2420FEF7F7FD01222189BB
:103E1000E068FCF7C0FA1220FEF7EFFDFF2EE1D9B3
:103E20001220FEF7EAFD00222189E068FCF7B3FAD0
:103E30002420FEF7E2FD01222189E068FCF7ABFABD
:103E40001220FEF7DAFD1220FEF7D7FD002261896D
:103E50002069FCF7A0FA00222189E068FCF79BFAB0
:103E60002420FEF7CAFD01222189E068FCF793FABD
:103E70001220FEF7C2FD012261892069FCF78BFA4E
:103E8000019805700020FEBD1800002010B5064CFA
:103E900001222189E068FCF77EFA0122618920690C
:103EA000FCF779FA10BD00001800002000B500F002
:103EB00009F803490020087148618861487100BD14
:103EC0001800002005486421417002218170012101
:103ED000C17000210170817170470000180000203E
:103EE00070B50546002407E028194078C82100F085
:103EF00075F8002804D1641C2878A042F4DC002066
:103F000070BD000070B5FFF7DBFD224C0228607128
:103F100025D0012826D0FFF791F96169401AAF2119
:103F2000890088421DD320462030FFF71DFA002863
:103F300017D0204618492030FEF738FE164916489B
:103F40001C31FFF7EDFD00280BD113481C30FFF7A3
:103F5000C7FF00281AD0FCF725FA054612E0FFF744
:103F600095FF70BD0B480A21801CFFF713FF0A491B
:103F7000A0781039FFF744FE70BDFCF713FA401B20
:103F8000142803D8FFF79CFD0328F6D1FFF756F954
:103F9000606170BD480000207803002070B50546C0
:103FA000FCF700FA044606E0FCF7FCF9001BA84207
:103FB00001D3042070BDFFF783FD0328F4D1FFF780
:103FC0003DF9044603E0FFF77BFD0328E8D1FFF746
:103FD00035F9001B3C28F6D3002070BD10B504460F
:103FE0000846FFF7DBFF002801D0042010BD204663
:103FF00000F012F810BD10B504460846FFF7CEFFDA
:10400000002801D0042010BDAF208000FEF7F5FC91
:10401000204600F001F810BDF8B5474C05460126D2
:10402000002261892069FCF7B6F91220FEF7E5FC51
:1040300000222189E068FCF7AEF92420FEF7DDFCC0
:1040400001222189E068FCF7A6F91220FEF7D5FCD1
:104050002189E068FCF796F9002868D00027E80776
:1040600001D0012200E0002261892069FCF793F968
:104070001220FEF7C2FC00222189E068FCF78BF9D0
:104080002420FEF7BAFC01222189E068FCF783F9BD
:104090001220FEF7B2FC2189E068FCF773F90028D2
:1040A00045D0E807C00F46406D087F1C082FD6DBBF
:1040B000002E01D0012200E0002261892069FCF776
:1040C0006AF91220FEF799FC00222189E068FCF7CA
:1040D00062F92420FEF791FC01222189E068FCF7B7
:1040E0005AF91220FEF789FC2189E068FCF74AF9A9
:1040F00000281CD0012261892069FCF74CF91220AC
:10410000FEF77BFC00222189E068FCF744F92420BB
:10411000FEF773FC01222189E068FCF73CF91220CC
:10412000FEF76BFCFA20FEF768FC0020F8BDFFF7F5
:10413000ADFE0820F8BD00001800002011A0FEF719
:104140003BFB134D0024295D12A0FEF735FB641CD8
:10415000202CF8DB10A0FEF72FFB134D00240821C4
:104160002846FCF714F96420FCF737F8641C642C2B
:10417000F5DBBFF34F8F0E490C48C860BFF34F8F7C
:1041800000BFFDE7535049204552524F520A0000EC
:104190001C030020256420000A7265626F6F746939
:1041A0006E672E2E2E0A0000000400480400FA0557
:1041B00000ED00E070B50646FCF7F4F80446084D43
:1041C00006E0FCF7EFF8001BB04201D9042070BDF7
:1041D00029886868FCF7D6F80028F2D0002070BD66
:1041E0003400002010B50E4C21886068FCF7CAF836
:1041F000012802D1FCF7D6F8E060FCF7D3F8E168BB
:10420000401A14280BD9C820FFF7D4FF1420FBF75D
:10421000E4FFAA2000F094F80A20FBF7DEFF10BDAF
:104220003400002010B500F05DF8FCF7BBF8014940
:10423000C86010BD3400002010B5034C60602180C0
:10424000A260638010BD00003400002070B50446F9
:1042500066380300FEF7C0FA0A1406080A0C0E10AE
:104260001216181A482413E0492411E04B240FE0D9
:104270004D240DE04F240BE0502409E0512407E0C9
:10428000472405E0522403E0532401E0532C0BD8CB
:10429000022902D000290DD00EE0FCF783F8084D6A
:1042A0002969401A502801D8002070BDFCF77AF81F
:1042B000286101E080200443204600F041F870BDF1
:1042C0003400002010B5064C012221886068FCF7FC
:1042D00062F801226188A068FCF75DF810BD00005B
:1042E0003400002010B5064C012221886068FCF7DC
:1042F00052F800226188A068FCF74DF810BD00005C
:104300003400002010B5FFF76DFF0B4A0B48511E1B
:10431000FEF73FFD00280AD10748001F0179C07849
:10432000FFF794FF452803D00448FEF742FD10BD77
:104330000120FBF752FF10BD4C0000205C03002061
:1043400070B52E4C054621886068FCF71BF80028E4
:104350002AD0002221886068FCF71DF80520FEF7AE
:104360004CFB01226188A068FCF715F86E20FEF76F
:1043700044FB6188A068FCF705F8002814D00122EE
:1043800021886068FCF707F84120FEF736FB002221
:1043900021886068FBF7FFFF1E20FEF72EFB00263A
:1043A000E80705D0012204E0FFF79CFF452070BD1F
:1043B00000226188A068FBF7EEFF01222188606877
:1043C000FBF7E9FF4120FEF718FB00222188606817
:1043D000FBF7E1FF1E20FEF710FB6D08761C082E90
:1043E000DEDB012221886068FBF7D5FF00226188AF
:1043F000A068FBF7D0FF002070BD00003400002053
:10440000FF08161E26252E363D3E46454E55660DA6
:10441000151D242D2C353C43444D545B5A111C1B57
:10442000232B34333B424B4C520E125C1A22212A6E
:1044300032313A41494A597E192914070F171F276B
:104440002F373F474F765F6C757D4E6B73747C6979
:10445000727A7071FFFF13565EFFFFFFFFFFFFFFD1
:1044600079584A5739FF6E636F616A65606D67649A
:10447000FFFFFFFFFFFFFF62FFFFFFFFFF8B8C8D42
:10448000FFFFFFFFFFFFFFFFFFFFFFFFFFFFFFFF3C
:10449000FFFFFFFFFFFFFFFFFFFFFFFFFFFFFFFF2C
:1044A000FFFFFFFFFFFFFFFFFFFFFFFFFFFFFFFF1C
:1044B000FFFFFFFFFFFFFF0810182028303840489B
:1044C00050575F01010101010101030301010101D5
:1044D00001010301020201020101030102010101C4
:1044E00001010301010101010101030101010101B8
:1044F00001010301010101010101030103010101A6
:104500000101030101010101010103010101010197
:104510000101030101010101010303030201010182
:10452000010303010103010103010301030103036B
:104530000303030303030303030303010303010151
:104540000303010101010103010101010101010155
:1045500001FF76161E26252E363D3E46454E5566F3
:104560000D151D242D2C353C43444D545B5A141C11
:104570001B232B34333B424B4C520E125D1A22212B
:104580002A32313A41494A597C1129580506040C0E
:10459000030B830A0109777E6C757D7B6B737479DD
:1045A00069727A7071FFFF6178075A144AFF11FF30
:1045B0006C757D6B7469727A7071FFFFFFFFFFFF8E
:1045C000FFFFFFFFFFFFFF1F272F000106075553C7
:1045D000423456432050726F746F636F6C20426F89
:1045E0006172640A49424D20504320436F6D7061EF
:1045F0007469626C650A64656B754E756B656D20D8
:1046000032303232000000000000000000010203DE
:10461000040607080900000000010203040000006E
:1046200040460008000000208C000000F22700082F
:10463000CC4600088C000020240900000228000855
:104640000000000002010000000000000000000067
:10465000000000000000000000000000000000005A
:10466000000000000000000000000000000000004A
:10467000000000000000000000000000000000003A
:10468000000000000000000000000000000000002A
:10469000000000000000000000000000000000001A
:1046A000000000000000000000000000000000000A
:1046B00000000000000000000000000000127A006E
:0C46C000000000000000000000000000EE
:04000005080000C12E
:00000001FF
