:020000040800F2
:10000000E0040020D5000008E90E00089D0D00085E
:1000100000000000000000000000000000000000E0
:10002000000000000000000000000000570F000862
:100030000000000000000000310F0008590F000808
:10004000E7000008E7000008E7000008E7000008F4
:10005000E7000008E7000008E7000008E7000008E4
:10006000E7000008E7000008E7000008E7000008D4
:10007000E7000008E7000008E7000008E7000008C4
:10008000E7000008E7000008E7000008E7000008B4
:10009000E7000008E7000008E7000008E7000008A4
:1000A000E7000008350F0008E7000008E700000837
:1000B000E7000008E7000008E7000008E700000884
:1000C0000348854600F02AF8004800474913000815
:1000D000E00400200448804704480047FEE7FEE7AC
:1000E000FEE7FEE7FEE7FEE7D10F0008C1000008CB
:1000F00030B50B46014600202022012409E00D46C0
:10010000D5409D4205D31D469540491B2546954047
:1001100040191546521E002DF1DC30BD064C01255C
:10012000064E05E0E36807CC2B430C3C984710349F
:10013000B442F7D3FFF7C8FF7813000898130008FC
:1001400070B50024014620314A78022A03D00421E8
:100150008163012416E0026813680E25AB43136027
:10016000026813685B085B0013600122056C13468C
:10017000AB40C56B6B604A7000220A70416B00296E
:1001800000D08847204670BDF8B5002393E0224692
:1001900001249C40A44622407ED04C68022C01D011
:1001A000122C0CD1DC08A40027183C6A5D07ED0E68
:1001B0000F26AE40B4430E69AE4026433E6205684A
:1001C0005E000324B4400F79A543BF07BF0FB740BB
:1001D0002F4307604D68012D05D0022D03D0112D4E
:1001E00001D0122D0ED18568CF68A543B7402F43AB
:1001F000876047686546AF430D79ED06ED0F9D407A
:100200003D434560C568A5438C68B4402C43C46039
:100210004C68E4004ED52B4CA56901263543A561F9
:10022000A4699D0834400094274CAD002F19BC6888
:100230009D072E0F0F25B540AC430925ED06A842BA
:1002400001D1002514E0214DA84201D101250FE084
:100250001F4DA84201D102250AE01E4DA84201D13E
:10026000032505E01C4DA84201D1042500E0052529
:10027000B5402543BD60194C25684E689543F6038B
:1002800000D51543256065684E689543B60300D5D3
:1002900015436560A56800E00CE04E689543F602E2
:1002A00000D51543A560E5684E689543B60200D5B4
:1002B0001543E5605B1C0A681446DA4000D066E727
:1002C000F8BD00000010024000000140000400489A
:1002D00000080048000C00480010004800040140DD
:1002E000002A01D08161704781627047014800682F
:1002F000704700000000002002480168491C0160AE
:10030000704700000000002010B506480168102268
:1003100011430160002000F007F800F017F80020FA
:1003200010BD00000020024010B5044600F078F92E
:100330007D21C900FFF7DCFE00F0B8FC0022214659
:10034000501E00F02FF8002010BD000008B50F4827
:100350008169012211438161816911400091C26963
:1003600001040A43C261C06900220840009011469E
:10037000501F00F017F800221146901E00F012F8EE
:1003800000221146501E00F00DF808BD001002407A
:10039000C106C90E0120884001490860704700006D
:1003A00000E100E010B500F0A1FD10BDF8B5044675
:1003B0000068434DC00352D5E8690026C00007D449
:1003C000E96928040143E961E969014001260091D6
:1003D0003C480168C90510D40168821511430160C9
:1003E000FFF784FF074604E0FFF780FFC01B642887
:1003F00024D834480068C005F6D5286A03273F0290
:10040000384020D06168394081421CD0286A2A6A6D
:10041000B843012109040A432A622A6A8A432A62EC
:100420002862C0070FD0FFF761FF009008E0FFF7D8
:100430005DFF0099411A2448814201D90320F8BD8B
:10044000286A8007F3D5286A6168B84308432862A0
:10045000002E04D0E869012109078843E86120786B
:10046000C00705D0286BA168800880000843286376
:100470002078800706D5286B032109048843E168AA
:10048000084328632078800605D5286B102188430F
:100490002169084328632068800305D5286B8021E3
:1004A0008843A169084328632088400505D5286B47
:1004B000402188436169084328630020F8BD00009B
:1004C000001002400070004088130000F8B5054697
:1004D0004E480E460068C007C00FB0420AD24B48D3
:1004E000016849084900314301600068C007C00F36
:1004F000B04270D12878464C800705D56068F0215D
:100500008843A968084360602878C00753D06868AA
:10051000012817D0022818D0032819D0216889078C
:10052000002958DA61688908890001436160FFF792
:10053000DDFE69680746012913D002291DD0032971
:1005400027D034E021688903EAE721688901E7E7D9
:10055000616BC903E4E7FFF7C9FEC11B2D48814267
:1005600023D860680007800F0128F4D123E0FFF74B
:10057000BDFEC11B2748814217D860680007800F65
:100580000228F4D117E0FFF7B1FEC11B21488142D8
:100590000BD860680007800F0328F4D10BE0FFF749
:1005A000A5FEC11B1B48814201D90320F8BD60682C
:1005B0000007800FF3D115480168C907C90FB14280
:1005C0000BD9016849084900314301600068C00740
:1005D000C00FB04201D00120F8BD2878400706D5F1
:1005E0006068072109028843E9680843606000F0F9
:1005F0002DF86168084A0906090F515CC84007498F
:1006000008600020FFF790FE0020F8BD00200240A7
:1006100000100240881300005E1300080400002050
:1006200001480068704700000400002004480549A4
:1006300000684968044A4905490F515CC840704741
:1006400004000020001002406E13000830B516A30D
:100650000FCB89B06C460FC417A30FCB0FC41A4938
:100660004A680C20144604401848042C05D0184B46
:10067000082C04D00C2C00D1184609B030BD9402CF
:10068000240F6D462C5DC96A04AD0907090FD2031A
:10069000695C920F022A02D0032A00D11846FFF7A4
:1006A00027FD6043E9E70000020304050607080987
:1006B0000A0B0C0D0E0F10100102030405060708AB
:1006C000090A0B0C0D0E0F100010024000127A00E8
:1006D000006CDC02FEB504460078F04EF04DC00719
:1006E00048D068680007800F01281FD0686800079D
:1006F000800F022804D16868C003800F022815D03B
:100700006168012919D001208004002901D0052940
:1007100017D02968B143296029688143296060683E
:1007200000281BD0FFF7E2FD074613E0286880038E
:1007300020D56068002876D01CE028683043286007
:10074000EDE7296801432960F7E7FFF7CFFDC01BFC
:10075000642869D828688003F7D50BE0FFF7C6FD49
:10076000074604E0FFF7C2FDC01B6428F1D82868E3
:100770008003F7D4207880073ED568680007800F93
:1007800014D068680007800F022804D16868C0038D
:10079000800F01280AD0E068002828681DD00121B8
:1007A00008432860FFF7A2FD07460BE02868800792
:1007B0000BD5E068012836D107E0FFF797FDC01B95
:1007C0000228C6D828688007F7D52868F82188430A
:1007D0002169C900084328600EE0400840002860F5
:1007E000FFF784FD074604E0FFF780FDC01B0228E9
:1007F000AFD828688007F7D42078000724D5E069AF
:100800000028686A11D0012108436862FFF76EFD75
:10081000074604E0FFF76AFDC01B022899D8686A02
:100820008007F7D510E036E1D1E04008400068626B
:10083000FFF75CFD074604E0FFF758FDC01B0228E8
:1008400087D8686A8007F7D42078042740070028F3
:1008500061DA00200190E869C00008D4E969B806AF
:100860000143E961E96901400120009101908D484F
:100870000168C90511D40168821511430160FFF7B1
:1008800035FD009005E0FFF731FD0099401A64281E
:1008900097D884480068C005F5D5A06801280AD01B
:1008A000002801D0052811D0286A4008400028629D
:1008B000286AB84302E0286A012108432862A06838
:1008C000002812D0FFF712FD00900AE0286A384392
:1008D0002862F0E7FFF70AFD0099411A7248814249
:1008E00075D8286A8007F5D50DE0FFF7FFFC00906A
:1008F00006E0FFF7FBFC0099411A6B48814266D87D
:10090000286A8007F5D40198002804D0E9690120FD
:1009100000078143E9612078C00635D56069012868
:100920000CD0401D686B24D038436863686B400866
:1009300040006863FFF7DAFC074622E0686B384343
:100940006863686B012108436863FFF7CFFC0746C3
:1009500004E0FFF7CBFCC01B022838D8686B800787
:10096000F7D5686BF8218843A169C900084368631B
:100970000AE0B8436863F4E7FFF7B8FCC01B02283D
:1009800025D8686B8007F7D42078800637D568684B
:100990000007800F032813D068680007800F022823
:1009A00004D16868C003800F032809D0206A00289A
:1009B000686B16D030436863FFF798FC06460CE07E
:1009C000686BC0031BD5206A012864D117E05BE087
:1009D000FFF78CFC801B022856D8686BC003F7D544
:1009E0000DE0B0436863FFF781FC064604E0FFF7C3
:1009F0007DFC801B022847D8686BC003F7D4606A6F
:100A0000002846D069680907890F022943D00126CA
:100A100036060228286805D0B0432860FFF766FC38
:100A2000044633E0B0432860FFF760FC074604E06B
:100A3000FFF75CFCC01B022826D828688001F7D489
:100A4000E86A216B000900010843E862A16AE06AD4
:100A5000084369687B22D203914308436860286891
:100A600030432860FFF742FC044604E0FFF73EFCF9
:100A7000001B022808D828688001F7D509E0FFF795
:100A800035FC001B022801D90320FEBD2868800127
:100A9000F5D40020FEBD0120FEBD000000000100D5
:100AA00000100240007000408813000070470000F2
:100AB000F8B504460068426881684B0605D4CB0748
:100AC00003D0530601D5E16C04E08B0705D513066E
:100AD00003D5216D20468847F8BDFF2361331942B5
:100AE000FAD09306F8D523464D064033002D09DA97
:100AF0005D7F032D3CD0256E042635432566C568F1
:100B0000856800958E060125002E08DA266E2E4394
:100B100026668668009606684027BE430660C805BC
:100B200006D5206E08210843206620688068009062
:100B3000206E0028D0D020684168E026B143416093
:100B40005D77900718D02068416889088900416066
:100B5000A06D0B4D002803D04563A06DFFF7F0FAA0
:100B6000606D0028B8D04563606DFFF7E9FAF8BD05
:100B7000C16880680090F8BD2046FFF797FFF8BD78
:100B8000450F0008F8B5040007D00026254640357B
:100B9000A662687F002802D005E00120F8BD2E770C
:100BA000204600F04BF802236B7720680168402252
:100BB000914301600721E0680902884201D90022BF
:100BC00001E0012212030F273F02B84202D08842FF
:100BD00000D0A662276B002F05D1884201D923637C
:100BE00001E001202063A16860686369084321690E
:100BF000194308430123A1695B0219400843E169D5
:100C00000843216A0843A16A084321680860616BB0
:100C1000606AA36908431B0C0427E1683B40194341
:100C200008432168104348602068C1697A029143F3
:100C3000C1612666012068770020F8BD00B5006814
:100C4000114987B088421DD11048826981140A4336
:100C50008261806908400590F02000900220019098
:100C60000021032003900291049109206946C006E7
:100C7000FFF78AFA002211461920FFF793FB19208B
:100C8000FFF786FB07B000BD0030014000100240B6
:100C9000042204490428086902D09043086170477F
:100CA0001043FBE700E000E070470000094910B581
:100CB000401E884201D9012010BD074C606103210C
:100CC000081F00F013F90020A06107202061002018
:100CD00010BD0000FFFFFF0000E000E010B5FFF7CF
:100CE000E3FF10BD70B5040005D025466035687A75
:100CF000002802D006E0012070BD002028722046A6
:100D000000F026F82420687220680168490849002C
:100D10000160204600F02AFA0128EDD0606A002820
:100D200002D0204600F082F9206841680922D202F0
:100D300091434160206881682A2291438160206844
:100D40000168012211430160204600F0D5F970BD11
:100D500000B500680F4987B0884218D10E488269F3
:100D6000012189030A4382618069084005900320BC
:100D70004002009002200190002002900320039086
:100D80000120049009206946C006FFF7FDF907B06D
:100D900000BD00000038014000100240FEE70000E6
:100DA000F0B5314887B042690121C9040A43426164
:100DB00042690A400592426989100A4342614269C8
:100DC0000A400592426949000A43426140694C1158
:100DD00008400590002221462448FFF781FAFF26AB
:100DE0002436012231462248FFF77AFAA70009206B
:100DF00000223946C006FFF773FA002208211C487A
:100E0000FFF76EFA009400240125019502946946CB
:100E100016480394FFF7B8F911200190029469462F
:100E2000009603941248FFF7AFF9812080000090EC
:100E300002200290019469460D48FFF7A5F90920A8
:100E400002946946C006009701950394FFF79CF948
:100E50000820009002946946019503940448FFF726
:100E600093F907B0F0BD00000010024000080048F0
:100E70000004004810B50D480B4901600021416095
:100E80008160016141618161072201621202416258
:100E9000C260816207220163C2624163FFF772FE92
:100EA000002800D0FEE710BD0030014008000020FF
:100EB00010B50C480A490160E12149024160002156
:100EC0008160C16001618161C1610C220162426186
:100ED0004162FFF707FF002800D0FEE710BD0000C9
:100EE000003801406C000020704700008307FF229B
:100EF000DB0E9A408907090E994000280BDA00079B
:100F0000000F0838830808489B001818C3699343EA
:100F10000B43C3617047830804489B001B18186883
:100F2000904308431860704700ED00E000E400E0E3
:100F30007047000010B50248FFF7BAFD10BD000071
:100F40000800002010B5406A002146221152C187D6
:100F5000FFF7ACFD10BD704710B5FFF7CDF9FFF7F7
:100F6000BDFE10BD30B599B02020012500240090B1
:100F7000089509946846FFF7ADFB002800D0FEE70E
:100F800007200D9003200E900F94012110940DA8BE
:100F9000FFF79CFA002800D0FEE7119511A81395E1
:100FA000FFF704FA002800D0FEE7FFF739FB7D21A8
:100FB000C900FFF79DF8FFF779FE0420FFF768FEF0
:100FC00000221146501EFFF7EDF919B030BD0000A8
:100FD000124801680122114301604168104A114022
:100FE000416001680F4A11400160016801229204CA
:100FF0009143016041683F22120491434160C16AFC
:1010000009090901C162016B074A11400163416B83
:101010004908490041630021816070470010024087
:101020000CB8FF08FFFFF6FE2CFEFCFF10B5818C0C
:10103000C90707D001684A6801235B049A43836AA1
:101040001A434A60818C890707D501684A680123E1
:101050001B049A43C36A1A434A60818C490707D527
:1010600001684A6801239B049A43036B1A434A6050
:10107000818C090707D501684A680123DB039A437D
:10108000436B1A434A60818CC90607D50268916890
:1010900001231B039943836B19439160818C89065B
:1010A00007D501688A6801235B039A43C36B1A431F
:1010B0008A60818C490612D503685A6801210905A6
:1010C000046C8A4322435A60026C8A4207D1026848
:1010D000516803235B059943436C19435160818C2C
:1010E000090607D501684A680123DB04806C9A432E
:1010F00002434A6010BD0000F8B500260446C666EB
:10110000FFF7F4F8054616492068884202D01549D1
:1011100088421DD10068144F000709D501212B46D4
:10112000002249052046009700F0CEF800280DD196
:101130002068006840070BD501212B460022890555
:101140002046009700F0C0F8002801D00320F8BD29
:10115000202060346072A07226720020F8BD00006A
:101160000038014000440040FFFFFF01F8B504468D
:101170002369A268E5691A43636910202B430021A3
:1011800025681A432B680E46474F3B4013432B609C
:1011900023685A6803252D03AA43E5682A435A6049
:1011A000236AA26925681A43AB680B273F02BB4339
:1011B0001343AB603D4F25683D4B0203BD420AD14E
:1011C0001B6B9B079B0F20D0012B14D0022B14D03C
:1011D000032B1BD10DE0374FBD4210D11B6B0327F2
:1011E0003F043B4011D09B1A05D09B1A05D0934277
:1011F0000CD102200AE0042008E0082006E02E4B73
:101200009D4202D02D4B9D4200D100200123E76971
:10121000DB039F4222D100280CD002280DD00428E5
:1012200013D0082817D001260A0912010807400F19
:1012300010432EE0FFF7FAF909E06168204A4808F8
:101240008018FEF755FF81B2EEE7FFF7FFF96168FE
:1012500040004A08F4E761684808F1E7002808D030
:10126000022809D004280CD0082815D001263046C1
:10127000F8BDFFF7DBF906E06168124A48088018FC
:101280000DE0FFF7E3F961684A088018FEF730FFC8
:1012900080B22168C860EAE761684808C018FEF7B4
:1012A00027FF80B2E860E2E7F369FFEF0038014012
:1012B000001002400044004000480040004C004044
:1012C0000024F40000127A00FFB581B017460E46E4
:1012D00004460A9D1DE0681C1BD0002D05D0FFF7B9
:1012E00005F80499401AA84213D920680168FF2222
:1012F000A1329143016020688168490849008160FA
:10130000202060346072A07200202072032005B09B
:10131000F0BD2068C1693046884304D00020B8423F
:10132000D9D00020F3E70120F9E702E008C8121F36
:1013300008C1002AFAD170477047002001E001C1BE
:10134000121F002AFBD17047FEF7DEFFFFF70AFEEF
:10135000FFF726FDFFF78EFDFFF7AAFDFEE7000071
:101360000000000000000102030406070809000055
:101370000000010203040000981300080000002090
:10138000080000002A130008A0130008080000202D
:10139000D80400003A1300080000000000127A0090
:04000005080000C12E
:00000001FF
