:020000040800F2
:10000000C8070020D500000875140008B5120008C4
:1000100000000000000000000000000000000000E0
:10002000000000000000000000000000B3170008FE
:100030000000000000000000BD140008B517000813
:100040000501000805010008050100080501000878
:100050000501000805010008050100080501000868
:100060000501000805010008050100080501000858
:100070000501000805010008050100080501000848
:100080000501000800000000000000000501000854
:100090000000000005010008050100080501000836
:1000A00000000000C1140008050100080501000857
:1000B0000501000800000000050100080501000816
:1000C0000348854600F0D4F80048004701250008A1
:1000D000C80700200C4880F308880C480168090E06
:1000E0000B4A914205D10B480B4901600B480C4962
:1000F00001600C4880470C480047FEE7FEE7FEE73A
:10010000FEE7FEE7FEE70000C8070020040000004D
:100110001F00000018100240010000000000014014
:10012000000000001D180008C100000830B50B4693
:10013000014600202022012409E00D46D5409D42C1
:1001400005D31D469540491B254695404019154647
:10015000521E002DF1DC30BD70B50024254600286C
:1001600001DA01244042002901DA01254942FFF762
:10017000DDFFAC4200D04042002C00D0494270BDAF
:1001800010B5202A04DB0846203AD040002110BDDB
:100190000B46D340D0402024A21A91400843194670
:1001A00010BD00000549064A08685043054A8018FA
:1001B0000860400870470149086070473C00002013
:1001C0006D4EC6413930000003460B439B0703D0F8
:1001D00009E008C9121F08C0042AFAD203E00B780C
:1001E0000370401C491C521EF9D27047D2B201E084
:1001F0000270401C491EFBD270470022F6E710B582
:1002000013460A4604461946FFF7F0FF204610BD84
:10021000F0B51FB40646002082B005464024019187
:1002200000901BE0019922460F463046FFF7A8FFD9
:10023000049A059B801A994110D31046194622460C
:1002400000F028F8361A8F4101972246012000213C
:10025000009F00F01FF838184D4100902046641EA2
:100260000028DFDC019B00982946324607B0F0BD2C
:10027000064C0125064E05E0E36807CC2B430C3CF9
:1002800098471034B442F7D3FFF71EFF182B00082D
:10029000382B000810B5202A04DB0146203A914093
:1002A000002010BD914020239C1A0346E3401943CF
:1002B000904010BD70B50024014620314A78022AD2
:1002C00003D004218163012416E0026813680E251F
:1002D000AB431360026813685B085B001360012284
:1002E000056C1346AB40C56B6B604A7000220A7008
:1002F000416B002900D08847204670BD31B500F021
:10030000B9F8009C0546601C00D0641C00F0B2F8EF
:10031000401BA042FAD338BDF8B5002389E0012480
:100320009C402A46A44622407ED04C68022C01D034
:10033000122C0CD1DC08A40027183C6A5D07ED0ED6
:100340000F26AE40B4430E69AE4026433E620568B8
:100350005E000324B4400F79A543BF07BF0FB74029
:100360002F4307604D68012D05D0022D03D0112DBC
:1003700001D0122D0ED18568CF68A543B7402F4319
:10038000876047686546AF430D79ED06ED0F9D40E8
:100390003D434560C568A5438C68B4402C43C460A8
:1003A0004C68E40044D5264CA56901263543A56177
:1003B000A4699D0834400094224CAD002F19BC68FC
:1003C0009D072E0F0F25B540AC430925ED06A84229
:1003D00001D100250AE01C4DA84201D1012505E00C
:1003E0001A4DA84201D1022500E00525B54025435C
:1003F000BD60174C25684E689543F60300D515433C
:10040000256065684E689543B60300D51543656061
:10041000A5684E689543F60200D51543A560E568CA
:100420004E689543B60200E002E000D51543E56052
:100430005B1C0A681546DA4000D070E7F8BD000082
:10044000001002400000014000040048000800487D
:10045000000401400069084000D001207047426953
:100460004A4042617047002A01D081617047816231
:100470007047000001480068704700003400002009
:1004800070B5040005D025466035687A002802D092
:1004900006E0012070BD00202872204600F082FE98
:1004A00024206872206801684908490001602046DC
:1004B00001F0F4FA0128EDD0606A002802D020464D
:1004C00001F053FA206841680922D2029143416049
:1004D0002068816822229143816020688168082217
:1004E00011438160206801680122114301602046A8
:1004F00001F0A0FA70BD000002480168491C0160CB
:10050000704700003400002010B506480168102232
:1005100011430160002000F007F800F017F80020F8
:1005200010BD00000020024010B5044600F0F0F8B5
:100530007D21C900FFF7FAFD00F044FD00222146AD
:10054000501E00F037F8002010BD000008B512481A
:100550008169012211438161816911400091C26961
:1005600001040A43C261C06900220840009011469C
:10057000501F00F01FF800221146901E00F01AF8DC
:1005800000221146501E00F015F8044801681022A0
:100590001143016008BD000000100240000001404E
:1005A000C106C90E0120884001490860704700005B
:1005B00000E100E010B500F05FFF10BDF8B50546A2
:1005C0004E480E460068C007C00FB0420AD24B48E2
:1005D000016849084900314301600068C007C00F45
:1005E000B04270D12878464C800705D56068F0216C
:1005F0008843A968084360602878C00753D06868BA
:10060000012817D0022818D0032819D0216889079B
:10061000002958DA61688908890001436160FFF7A1
:1006200029FF69680746012913D002291DD0032933
:1006300027D034E021688903EAE721688901E7E7E8
:10064000616BC903E4E7FFF715FFC11B2D48814229
:1006500023D860680007800F0128F4D123E0FFF75A
:1006600009FFC11B2748814217D860680007800F27
:100670000228F4D117E0FFF7FDFEC11B214881429B
:100680000BD860680007800F0328F4D10BE0FFF758
:10069000F1FEC11B1B48814201D90320F8BD6068EF
:1006A0000007800FF3D115480168C907C90FB1428F
:1006B0000BD9016849084900314301600068C0074F
:1006C000C00FB04201D00120F8BD2878400706D500
:1006D0006068072109028843E9680843606000F008
:1006E0002DF86168084A0906090F515CC84007499E
:1006F00008600020FFF718FF0020F8BD002002402E
:100700000010024088130000FF2A00083800002073
:10071000014800687047000038000020044805497F
:1007200000684968044A4905490F515CC840704750
:1007300038000020001002400F2B000830B516A32F
:100740000FCB89B06C460FC417A30FCB0FC41A4947
:100750004A680C20144604401848042C05D0184B55
:10076000082C04D00C2C00D1184609B030BD9402DE
:10077000240F6D462C5DC96A04AD0907090FD20329
:10078000695C920F022A02D0032A00D11846FFF7B3
:10079000CDFC6043E9E700000203040506070809F1
:1007A0000A0B0C0D0E0F10100102030405060708BA
:1007B000090A0B0C0D0E0F100010024000127A00F7
:1007C000006CDC02FEB504460078F04EF04DC00728
:1007D00048D068680007800F01281FD068680007AC
:1007E000800F022804D16868C003800F022815D04A
:1007F0006168012919D001208004002901D0052950
:1008000017D02968B143296029688143296060684D
:1008100000281BD0FFF72EFE074613E02868800350
:1008200020D56068002876D01CE028683043286016
:10083000EDE7296801432960F7E7FFF71BFEC01BBE
:10084000642869D828688003F7D50BE0FFF712FE0B
:10085000074604E0FFF70EFEC01B6428F1D82868A5
:100860008003F7D4207880073ED568680007800FA2
:1008700014D068680007800F022804D16868C0039C
:10088000800F01280AD0E068002828681DD00121C7
:1008900008432860FFF7EEFD07460BE02868800755
:1008A0000BD5E068012836D107E0FFF7E3FDC01B58
:1008B0000228C6D828688007F7D52868F821884319
:1008C0002169C900084328600EE040084000286004
:1008D000FFF7D0FD074604E0FFF7CCFDC01B022860
:1008E000AFD828688007F7D42078000724D5E069BE
:1008F0000028686A11D0012108436862FFF7BAFD39
:10090000074604E0FFF7B6FDC01B022899D8686AC5
:100910008007F7D510E036E1D1E04008400068627A
:10092000FFF7A8FD074604E0FFF7A4FDC01B02285F
:1009300087D8686A8007F7D4207804274007002802
:1009400061DA00200190E869C00008D4E969B806BE
:100950000143E961E96901400120009101908D485E
:100960000168C90511D40168821511430160FFF7C0
:1009700081FD009005E0FFF77DFD0099401A642895
:1009800097D884480068C005F5D5A06801280AD02A
:10099000002801D0052811D0286A400840002862AC
:1009A000286AB84302E0286A012108432862A06847
:1009B000002812D0FFF75EFD00900AE0286A384355
:1009C0002862F0E7FFF756FD0099411A724881420C
:1009D00075D8286A8007F5D50DE0FFF74BFD00902C
:1009E00006E0FFF747FD0099411A6B48814266D83F
:1009F000286A8007F5D40198002804D0E96901200D
:100A000000078143E9612078C00635D56069012877
:100A10000CD0401D686B24D038436863686B400875
:100A200040006863FFF726FD074622E0686B384305
:100A30006863686B012108436863FFF71BFD074685
:100A400004E0FFF717FDC01B022838D8686B800749
:100A5000F7D5686BF8218843A169C900084368632A
:100A60000AE0B8436863F4E7FFF704FDC01B0228FF
:100A700025D8686B8007F7D42078800637D568685A
:100A80000007800F032813D068680007800F022832
:100A900004D16868C003800F032809D0206A0028A9
:100AA000686B16D030436863FFF7E4FC06460CE041
:100AB000686BC0031BD5206A012864D117E05BE096
:100AC000FFF7D8FC801B022856D8686BC003F7D507
:100AD0000DE0B0436863FFF7CDFC064604E0FFF786
:100AE000C9FC801B022847D8686BC003F7D4606A32
:100AF000002846D069680907890F022943D00126DA
:100B000036060228286805D0B0432860FFF7B2FCFB
:100B1000044633E0B0432860FFF7ACFC074604E02E
:100B2000FFF7A8FCC01B022826D828688001F7D44C
:100B3000E86A216B000900010843E862A16AE06AE3
:100B4000084369687B22D2039143084368602868A0
:100B500030432860FFF78EFC044604E0FFF78AFC70
:100B6000001B022808D828688001F7D509E0FFF7A4
:100B700081FC001B022801D90320FEBD28688001EA
:100B8000F5D40020FEBD0120FEBD000000000100E4
:100B90000010024000700040881300007047000001
:100BA000F8B504460068426881684B0605D4CB0757
:100BB00003D0530601D5E16C04E08B0705D513067D
:100BC00003D5216D20468847F8BDFF2361331942C4
:100BD000FAD09306F8D523464D064033002D09DAA6
:100BE0005D7F032D3CD0256E042635432566C56800
:100BF000856800958E060125002E08DA266E2E43A4
:100C000026668668009606684027BE430660C805CB
:100C100006D5206E08210843206620688068009071
:100C2000206E0028D0D020684168E026B1434160A2
:100C30005D77900718D02068416889088900416075
:100C4000A06D0B4D002803D04563A06DFFF732FB6C
:100C5000606D0028B8D04563606DFFF72BFBF8BDD1
:100C6000C16880680090F8BD2046FFF797FFF8BD87
:100C700033160008F8B5040007D000262546403595
:100C8000A662687F002802D005E00120F8BD2E771B
:100C9000204600F04BF802236B7720680168402261
:100CA000914301600721E0680902884201D90022CE
:100CB00001E0012212030F273F02B84202D088420E
:100CC00000D0A662276B002F05D1884201D923638B
:100CD00001E001202063A16860686369084321691D
:100CE000194308430123A1695B0219400843E169E4
:100CF0000843216A0843A16A084321680860616BC0
:100D0000606AA36908431B0C0427E1683B40194350
:100D100008432168104348602068C1697A02914302
:100D2000C1612666012068770020F8BD00B5006823
:100D3000114987B088421DD11048826981140A4345
:100D40008261806908400590F020009002200190A7
:100D50000021032003900291049109206946C006F6
:100D6000FFF7DAFA002211461920FFF723FC1920B9
:100D7000FFF716FC07B000BD003001400010024034
:100D800070470000F0B504468C464034217F0025B2
:100D9000C768964601290CD001212177667F4168FA
:100DA000012E0CD0CA1FFD3A07D18168002904D159
:100DB00001E00220F0BD042E01D0022540E0614692
:100DC00000291BD07146002918D0002B16D0617F56
:100DD000042901D005216177002101666146816304
:100DE0008387C38771460164A380E38007210902DA
:100DF0008F4205D9144AC264144A04E001251FE059
:100E0000134AC264134A0265012212038F4202D8B8
:100E1000E188022903D301684B68934302E001682B
:100E20004B6813434B6001684A68E0231A434A60E9
:100E300000680168490603D401684022114301603B
:100E4000002020772846F0BDD11400086515000861
:100E50000715000899150008F8B501221602314659
:100E60004C48FFF700FB4C4C012720784B4DDE2807
:100E700000D06F704A4800780028A0780ED008286B
:100E80007CD1464AA87821790C3211540832A179D4
:100E90001154082872D2401CA8706FE0092808D0AD
:100EA000082829D003282ED0012833D002285CD06E
:100EB00064E06179207901F039FA374A2C321080E8
:100EC000E179A07901F032FA5080617A207A01F05C
:100ED0002DFA40429080607B9071A07B1072E07B85
:100EE000D071207C5072607C90722B492B482C3141
:100EF000001D01F00BFC41E02748A2792179203048
:100F000001F06BFA3AE0092000220221C006FFF747
:100F1000AAFA33E0204820212038FFF76EF91E4955
:100F2000CD20203908706078487080238B700220B3
:100F3000C87028780871002048718F7108220D460A
:100F4000C87158352C5C002C0BD0022C02D0012C1F
:100F500002D004E0885402E004461C438C54521C26
:100F6000D2B2401C1028EDDB08E00325605D0028AC
:100F700004D001F0FDF96D1C202DF7DB064A20237B
:100F8000D11A0848FFF7FEFE002231460148FFF75C
:100F90006AFAF8BD00040048800100201800002013
:100FA000020000204C0000200422044904280869A3
:100FB00002D09043086170471043FBE700E000E077
:100FC00070470000094910B5401E884201D9012030
:100FD00010BD074C60610321081F00F04DFA00208E
:100FE000A06107202061002010BD0000FFFFFF006E
:100FF00000E000E010B5FFF7E3FF10BD70B502465A
:101000002032137F012B1BD0012313770224547746
:10101000046865687026B5436560046865680E6895
:10102000354365600468A5688026B543A5600068FF
:10103000846849680C43846053770020107770BD42
:10104000022070BD70B5040005D025462035687FAC
:10105000002802D006E0012070BD0020287720463D
:1010600000F00AF802206877211D206800F004FCD7
:1010700001206877002070BD08B50068012189074C
:10108000884207D10448C16901221143C161C06986
:101090001040009008BD00000010024002220146EE
:1010A00020314A77026813680120034313604877B0
:1010B00000207047F8B5054604462035287F0128F2
:1010C00017D001272F77022068772268906877264B
:1010D000FF23B0431B02984390600868502837D024
:1010E0000EDC202857D006DC00284ED0102840D136
:1010F0004EE00220F8BD302850D0402839D13CE0E5
:1011000060282DD0702817D001221203801A0ED02B
:1011100090422ED1CB684A688968206800F0EEFBC7
:1011200020688168012292031143816021E02068D8
:101130008168C908C900F8E7CB684A6889682068EF
:1011400000F0DCFB21688868B0433043886010E021
:10115000CA684968206800F0E4FB5021206806E076
:10116000CA684968206800F0EDFB6021206800F043
:10117000D0FB6F7700202877F8BDCA6849682068DF
:1011800000F0CFFB40212068F1E700212068EEE766
:1011900010212068EBE720212068E8E73021206853
:1011A000E5E7000000B500680E4987B0884216D117
:1011B0000D48C269012149040A43C261C06908405F
:1011C000059004200090122001900121032003903B
:1011D0000291049109206946C006FFF79DF807B007
:1011E00000BD00000044004000100240FFB506466C
:1011F00004466036707A83B00D46202858D1002D01
:101200000CD00598002809D00120A1680003814274
:1012100007D12069002804D1E80702D0012007B0D7
:10122000F0BD307A012843D0012030720020E06602
:1012300021207072FFF71EF901902746403705986C
:1012400038820598788218E0788A401E788206985D
:101250000090002280212046019B00F0B7FC00286E
:1012600018D10120A1680003814202D12069002821
:1012700012D02168287808856D1C788A0028E3D16F
:1012800006980090002240212046019B00F09EFC21
:10129000002808D00320C2E728882168C005C00DB7
:1012A0000885AD1CE9E72020707200203072B6E797
:1012B0000220B4E7FEE70000F0B5384887B0426985
:1012C000012189040A43426142690A400592426948
:1012D00009010A43426142690A4005924269491183
:1012E0000A43426140694C120840059000222146A1
:1012F0002B48FFF7B8F82B4E002203213046FFF7AA
:10130000B2F8012209201146C006FFF7ACF8092007
:1013100000220221C006FFF7A6F801220221204880
:10132000FFF7A1F800940024012501950294694675
:101330001B480394FEF7F0FF0320009002946946D7
:10134000019503943046FEF7E7FF11270920029428
:101350006946C006019700950394FEF7DDFF02265B
:10136000092002946946C006009601950394FEF791
:10137000D3FF082000900C4801900920694602968E
:10138000C006FEF7C9FF029469460548019700961A
:101390000394FEF7C1FF07B0F0BD0000001002404B
:1013A00000040048001400480000211010B50D484A
:1013B0000B490160002141608160016141618161EF
:1013C0000722016212024162C26081620722016348
:1013D000C2624163FFF74EFC002800D0FEE710BD5B
:1013E000003001404C00002010B50121124886B0A9
:1013F0008907016000242F21846041600461611E1F
:101400008461C160FFF71EFE002800D0FEE70120C6
:101410000003009069460848FFF74CFE002800D002
:10142000FEE7049404A904480594FFF7E7FD0028AB
:1014300000D0FEE706B010BDB000002010B50C488B
:101440000A490160E1214902416000218160C160D7
:1014500001618161C1610822016242614162FFF75D
:101460000FF8002800D0FEE710BD00000044004047
:10147000F0000020704700008307FF22DB0E9A4037
:101480008907090E994000280BDA0007000F083879
:10149000830808489B001818C36993430B43C36132
:1014A0007047830804489B001B1818689043084342
:1014B0001860704700ED00E000E400E070470000B5
:1014C00010B50248FFF76CFB10BD00004C00002077
:1014D00010B50168C968026C1180016C891C016437
:1014E00001464031CA88521ECA80C988002909D1E4
:1014F00001684A6840239A434A60C18F002901D19C
:1015000000F06EF810BD10B501464031CC8803687C
:10151000026C012C11D9DB681380026C921C0264EE
:10152000CA88921ECA80CA88012A0DD102685368EF
:10153000012424032343536006E01C7B531C0364F3
:101540001470CA88521ECA80C988002909D101684E
:101550004A6860239A434A60C18F002901D100F094
:101560003FF810BD10B5816B02680988D160816BAE
:10157000891C8163C18F491EC187C18F00290AD18F
:1015800001684A6880239A434A604621095A002923
:1015900001D100F025F810BD10B5C38F0268816B32
:1015A000022B07D30988D160816B891C8163C18FAD
:1015B000891E05E04B1C836309781173C18F491E96
:1015C000C187C18F00290AD101684A6880239A43E4
:1015D0004A604621095A002901D100F001F810BDE6
:1015E00070B50446FEF746FF024620684168202594
:1015F000A94341606421204600F024F8002802D06D
:10160000206E28432066226E204601214030002AA9
:1016100004D041772046FFF7C1FA70BD427F417781
:10162000042A204602D0FFF717FC70BDFFF7A8FB85
:1016300070BD10B5406A002146221152C187FFF7E4
:10164000ADFA10BDF8B50F460B46154600920321C2
:1016500004460022C90200F01BF82026002812D1FF
:101660003B46002280212046009500F05CF80028CF
:1016700009D103213B46002249022046009500F093
:1016800007F8002803D0206E304320660320F8BD01
:10169000F8B51D4617460E4604463DE003214902B3
:1016A0008E4205D1002F03D1017B6846017000787E
:1016B000681C31D0002D05D0FEF7DCFE0699401ADB
:1016C000A84229D320684168E022914341606068C4
:1016D000C11FFD390CD10121A068C903884202D085
:1016E0004911884204D12068016840229143016079
:1016F0000120A16A4003814207D121680A68824320
:101700000A6021680A6802430A6001204034607759
:10171000002020770320F8BD206881683140B9425D
:10172000BCD10020F8BDF8B51D4617460E4604464C
:1017300033E0681C31D0002D05D0FEF79BFE0699E2
:10174000401AA84229D320684168E02291434160B1
:101750006068C11FFD390CD10121A068C90388420E
:1017600002D04911884204D1206801684022914387
:1017700001600120A16A4003814207D121680A6803
:1017800082430A6021680A6802430A6001204034EB
:101790006077002020770320F8BD206881683046FC
:1017A000884304D00020B842C3D10020F8BD0120F6
:1017B000F9E7704710B5FEF79FFEFFF71BFC10BD61
:1017C00010B592B0202000900120002408900994C8
:1017D0006846FEF7F7FF002800D0FEE707200D90CF
:1017E00003200E900F94012110940DA8FEF7E6FE41
:1017F000002800D0FEE7FEF78BFF7D21C900FEF731
:1018000095FCFFF7DFFB0420FFF7CEFB002211461B
:10181000501EFEF7CFFE12B010BD00001348016845
:101820000122114301604168114A11404160016881
:10183000104A114001600168012292049143016045
:1018400041683F22120491434160C16A09090901BC
:10185000C162016BFF22D43291430163416B49089D
:101860004900416300218160704700000010024080
:101870000CB8FF08FFFFF6FEF0B502681A4B012412
:10188000A4071A4D984203D0A04201D0A84203D128
:101890007026B2434E683243154E164F98420AD016
:1018A000A04208D0A84206D0134CA04203D0B042B8
:1018B00001D0B84204D103242402A243CC682243BD
:1018C0008024A2434C69224302608A68C2620A688B
:1018D0008262984203D0B04201D0B84201D1096976
:1018E000016301214161F0BD002C01400004004072
:1018F00000440140004801400020004030B58468A9
:10190000FF252D021B021343AC430B43234383608B
:1019100030BD826870239A430A4307210A438260DC
:10192000704730B5036A046A64086400046284691D
:10193000F025AC43120122430A24A3430B438261E6
:10194000036230BD30B5036A1024A3430362846987
:10195000036A0F252D031203AC432243A024A343A3
:10196000090119438261016230BD10B5818CC9073C
:1019700007D001684A6801235B049A43836A1A43CB
:101980004A60818C890707D501684A6801231B04D6
:101990009A43C36A1A434A60818C490707D5016894
:1019A0004A6801239B049A43036B1A434A60818C63
:1019B000090707D501684A680123DB039A43436B93
:1019C0001A434A60818CC90607D5026891680123D1
:1019D0001B039943836B19439160818C890607D55A
:1019E00001688A6801235B039A43C36B1A438A60C8
:1019F000818C490612D503685A6801210905046CD7
:101A00008A4322435A60026C8A4207D102685168B5
:101A100003235B059943436C19435160818C09068C
:101A200007D501684A680123DB04806C9A430243AE
:101A30004A6010BDF8B500260446C666FEF71AFDDA
:101A400005461449206888421DD10068124F0007DE
:101A500009D501212B46002249052046009700F0B8
:101A6000B5F800280DD12068006840070BD501218A
:101A70002B46002289052046009700F0A7F8002891
:101A800001D00320F8BD202060346072A07226725D
:101A90000020F8BD00380140FFFFFF01F8B5044603
:101AA0002369A268E5691A43636910202B4300216A
:101AB00025681A432B680E463E4F3B4013432B606C
:101AC00023685A6803252D03AA43E5682A435A6010
:101AD000236AA26925681A43AB680B273F02BB4300
:101AE0001343AB60344A2568954210D1334A126BD8
:101AF0009207920F0ED0012A05D0022A05D0032AA0
:101B000009D1022007E0042005E0082003E02C4A68
:101B1000954200D100200122E369D203934224D1EF
:101B200000280CD002280DD0042813D0082817D084
:101B300001260A0912010807400F10432FE0FEF7A3
:101B4000EDFD09E061681F4A48088018FEF7EEFACB
:101B500081B2EEE7FEF7F2FD616840004A08F4E763
:101B60006168012248081204EFE7002808D0022823
:101B700009D004280BD0082814D001263046F8BD1F
:101B8000FEF7CCFD05E061680F4A48080CE0FEF75F
:101B9000D5FD61684A088018FEF7C8FA80B221684E
:101BA000C860EBE7616848088018FEF7BFFA80B2AA
:101BB000E860E3E7F369FFEF0038014000100240FE
:101BC000004400400024F40000127A00FFB581B008
:101BD00017460E4604460A9D1DE0681C1BD0002DCA
:101BE00005D0FEF747FC0499401AA84213D9206893
:101BF0000168FF22A1329143016020688168490891
:101C000049008160202060346072A0720020207240
:101C1000032005B0F0BD2068C1693046884304D078
:101C20000020B842D9D00020F3E70120F9E70000F6
:101C30000FB410B503A9044B044A029800F018F839
:101C400010BC08BC04B0184759230008400000200D
:101C500002E008C8121F08C1002AFAD17047704775
:101C6000002001E001C1121F002AFBD170470000D3
:101C7000FFB58FB00F460446002606E025280AD09F
:101C8000129A11999047641C761C20780028F5D18F
:101C9000304613B0F0BD00250121A14A009500E0B7
:101CA0000543641C23780846203B98401042F7D136
:101CB00020782E2815D1042005436078641C2A283A
:101CC0000AD101CF641C00900BE000990A22514315
:101CD00030394018641C00902078014630390929B9
:101CE000F3D920786C280ED004DC4C2813D06A2855
:101CF00012D104E074280ED07A280DD10BE0012017
:101D00004005054307E00121090562780D43824241
:101D100001D16D18641C641C2078864669284AD05D
:101D200008DC0028B4D058286DD0632810D064286F
:101D300008D140E070286BD0732812D0752860D08D
:101D4000782860D0129A704611999047761CE5E089
:101D50003878694608720020487202A80190012074
:101D600003E0386801900020C0433F1D69070CD58F
:101D7000002500E06D1C00998D420FDA8542F9DBE9
:101D80000199495D0029F5D108E0002500E06D1CAE
:101D90008542FCDB0199495D0029F8D1761907E0FD
:101DA000019801990078491C0191129A1199904764
:101DB0006D1EF5D2B2E00A20029000216802400FA9
:101DC000039102280CD001CFC117844600290DDAF7
:101DD0006246084652420021814194462D2008E087
:101DE000FF1DFF08FF0003CF8446EFE7280504D559
:101DF0002B206A46107401203CE0E8073AD02020EE
:101E0000F7E70A2000E0102000210391029007E08C
:101E10001020029000210420054308200391009027
:101E20006802400F022810D001CF00218446002014
:101E30000D9028071FD5704670280CD0029A1020EC
:101E4000039B42401A430CD015E0FF1DFF08FF0022
:101E500003CF8446EBE740206A46107401200D90C2
:101E60000CE06046084306D030206A461074704685
:101E7000507402200D907046582804D029A001907B
:101E80000DA80E900DE02CA0F9E76046039B029A86
:101E9000FEF7BEF9019B84469B5C0E9A521E0E9281
:101EA000137060460843F0D10E9805A9081A203037
:101EB0000190680701D5009801E001200090019988
:101EC000884203DD01460198081A00E00020002541
:101ED000009006E004A8129A405D119990476D1C8D
:101EE000761C0D988542F5DB04E0129A302011999A
:101EF0009047761C0099481E00900029F5DC08E008
:101F00000E980E990078491C0E91129A11999047DB
:101F1000761C0199481E01900029F1DC641CB4E68E
:101F200009280100303132333435363738396162AF
:101F30006364656600000000303132333435363773
:101F400038394142434445460000000010B5044C76
:101F5000A260A380E060E18000F05CF910BD0000A9
:101F6000000000201CB5484C6A4601A9474800F013
:101F700072FA00282BD168460079BA280DD244495C
:101F8000085CFF2809D069460978002900D0802420
:101F90004006400C204300F049F93C4800F06BFA41
:101FA000684601793B486F2906D03A2910D01D298F
:101FB0001AD0612918D023E06946097800290188E0
:101FC00002D0012292030AE0334A0BE001801CBDDB
:101FD000694609780029018803D001225203114380
:101FE000F4E72E4A1140F1E76A461278002A028887
:101FF00003D00123DB021A4301E0294B1A4002807F
:102000002A2901D036290BD16A461278002A028883
:1020100003D001239B021A4301E0224B1A400280A5
:10202000382901D064290BD16A461278002A028827
:1020300003D001235B021A4301E01B4B1A400280CC
:102040007D2901D07E290BD16A461278002A0288A8
:1020500003D0FF2301331A4301E0144B1A400280DE
:10206000452909D04629B2D169460A784021002A7B
:10207000028805D00A4304E069460A788021F6E721
:102080008A4302801CBD000080800000A001002067
:10209000082A000810000020FFBF0000FFDF00003A
:1020A000FFF70000FFFB0000FFFD0000FFFE000047
:1020B000F8B50646002030801648C188C068FEF793
:1020C000C9F9012823D1144C204600F07BFC401CA8
:1020D0001DD0204600F076FC401C18D0204600F0B1
:1020E00071FC401C13D000252C460F2700F03EF851
:1020F00005280BD0391B88402843641C85B2102C5E
:10210000F4DB054800F05EFC35800020F8BD0520BA
:10211000F8BD0000000000201027000010B5124894
:1021200000F02FFB02001DD090790023002801D180
:102130000123DB03107A002801D180200343002013
:10214000105E00F03BF94406640E02201C43105E52
:1021500000F034F94006400C204300F067F80248D4
:1021600000F01AFB10BD00001C00002070B50D48E7
:10217000C188C068FEF76EF900280FD10A4D2846C5
:1021800000F020FC0446284600F01CFC611C05D031
:10219000411C03D0A04203DD012070BD052070BDAD
:1021A000002070BD0000002010270000F8B5064692
:1021B0000020307000F07AF9012806D10C4800F0B8
:1021C00001FC3238292801D30520F8BD00252C4612
:1021D0000727FFF7CBFF0528F7D0391B8840284396
:1021E000641CC5B2082CF4DB35700020F8BD00007B
:1021F0001027000010B5064C0122A188A068FEF748
:1022000032F90122E188E068FEF72DF910BD0000E7
:102210000000002010B50448022141700321017024
:10222000FFF7E8FF10BD00000000002070B5054674
:10223000174C0120A070C82000F07CF80022E18833
:10224000E068FEF710F9222000F074F80122E1881E
:10225000E068FEF708F9402000F06CF8284600F02E
:1022600019F8002506280FD00022E188E068FEF763
:10227000FAF8402000F05EF80122E188E068FEF7FD
:10228000F2F8A570002070BDA570062070BD00009A
:102290000000002010B50446000A00F009F80628E6
:1022A00005D0E0B200F004F8062800D0002010BDF0
:1022B000F8B500251C4C06460727791B3046C84058
:1022C000C00714D00022E188E068FEF7CCF8222095
:1022D00000F030F80122E188E068FEF7C4F8E188F8
:1022E000E068FEF7B7F8012814D1402015E000227D
:1022F000E188E068FEF7B7F8402000F01BF8012203
:10230000E188E068FEF7AFF8E188E068FEF7A2F840
:10231000012801D00620F8BD222000F00BF86D1C2A
:10232000082DCADB0020F8BD00000020090201438F
:1023300008B2704700B5014600F0E0F9411800F01E
:10234000DDF98842FBD300BD10B502490860FEF7F5
:10235000A5FE10BD1400002013B50A230122694612
:102360000248FEF743FF00981CBD0000F00000206B
:1023700070B54406C109640EC901102C0FD20E4D70
:10238000285D00280BD000290AD0022807D1032C91
:1023900001D0062C01D1FFF73DFF0120285570BD6B
:1023A0000128FCD102202855032C01D0062CF6D19F
:1023B000FFF730FF70BD0000B8010020C11C0629E6
:1023C00009D93E214010C9433F2801DB3F2002E0EC
:1023D000884200DC0846C0B2704770B515460E460C
:1023E000044600F02AF8002801D0012070BD2178B1
:1023F000606846542178A06845542078A178401C34
:10240000FDF794FE2170002070BD70B50D460446A6
:102410008170284600F03CF96060284600F038F9E9
:10242000A060204600F033F870BD4178007881420A
:1024300001D1012070470020704710B50446817813
:102440000078401CFDF772FE6078814201D10120C6
:1024500010BD002010BD10B543780478A34201D10F
:10246000012010BD4468E35C0B7081684078085C13
:102470001070002010BD10B50446407821788842C5
:1024800004D0A178401CFDF751FE617010BD10B55D
:102490000446002020706070A1786068FDF7ADFEF2
:1024A000A178A068FDF7A9FE10BD000070B5124C20
:1024B000E188E068FDF7CEFF104D012804D12846E1
:1024C00000F080FA401C10D00120A070284600F0D7
:1024D00079FA7D210901884209DC411C07D0FF21DE
:1024E000F531884205DA042070BDFF2070BD03205D
:1024F00070BD012070BD000000000020102700000A
:102500000EB5FEF701F8FFF75BF9FEF7D5FEFEF713
:102510004DFFFEF793FFFEF767FF002101204D4EB0
:10252000019100900B4632784B494CA0FFF780FB9D
:102530004F48FFF709FF00F0E5F94D481021F03052
:10254000FFF763FF1021301D00F0F9F80024092285
:1025500025460123D20602214648FFF7F7FC4448EE
:102560002021B030FDF749FE414A41482023D032B6
:10257000D11A6438FEF706FC7078002801D000F00C
:10258000E3F900F09FF909200821C006FDF762FF7A
:102590000028F1D0012211463748FDF764FF02A858
:1025A000FFF704FE0746002201213348FDF75BFFD9
:1025B00000203249032F087012D0002FDCD168466A
:1025C000007A07092A48F030FFF72FFF00280AD0C9
:1025D0002048001D00F0BFF800280CD0002410E0B7
:1025E000FFF718FEEBE726480078874201D0012468
:1025F00008E0002406E023480078874201D0012546
:1026000000E0002520462843070001D0012200E019
:10261000002202211848FDF726FF002F02D000F00B
:102620007FF902E0184800F0CDF96846007A00F022
:10263000BFF8052808D0022809D003289CD11348E8
:102640000088FFF7F3FD97E7FFF768FD94E7FFF7D2
:1026500089FC91E718000020C22A000825730A723D
:1026600065762564207625642E25642E25640A006F
:10267000B0000020000400480014004802000020C0
:1026800001000020000000201027000010000020A2
:10269000F0B50B30C108C900144F0026144A0FE0F2
:1026A00003688B420BD38B4205D95C1A43184568EB
:1026B00030C3083B00E04368136002C004E0021D21
:1026C00010680028ECD13046002803D13868002873
:1026D00001D00020F0BD064A06481060064A121AD2
:1026E000D208D20044C001203860D7E7480000205B
:1026F00044000020CC010020C803002002480068EC
:102700000068406A704700001400002070B50D4654
:10271000044600F028F8002801D0012070BD207880
:102720000C226168504308182946FDF74DFD2078BA
:10273000A178401CFDF7FAFC2170002070BD10B597
:10274000044681700C204843FFF7A2FF60602046DA
:1027500000F022F810BD41780078814201D10120BB
:1027600070470020704710B5044681780078401CFF
:10277000FDF7DCFC6078814201D1012010BD002012
:1027800010BD41780278914201D100207047406825
:102790000C2251434018704710B500210170417060
:1027A00081780C2251434068FDF727FD10BD0000E1
:1027B000F8B5010785070409890FAD0F002C53D028
:1027C0003C4E0329307802D0022928D070E0032D36
:1027D00002D0002D46D01DE084420BD1364FFDF7CC
:1027E000E1FC0F21FDF7B8FC0806010C3846084350
:1027F000FFF71CFD707884420CD12F4F3F1DFDF771
:10280000D1FC0F21FDF7A8FC0806010C384608434F
:10281000FFF70CFD002D29D0022D2CD048E0032D10
:1028200002D0022D2CD043E084420BD16846FFF742
:102830003FFC684600880106490E7F2902D1000549
:10284000000F30707078844232D16846FFF730FC58
:10285000684600880106490E7F2929D10005000F2E
:10286000707025E0844201D10520F8BD7078844263
:102870001ED10220F8BD7078844219D10320F8BD22
:102880007078844214D10D4C012202212046FDF7BC
:10289000EAFD6846FFF70CFC002202212046FDF706
:1028A000E2FD6846018806A0FFF7C2F90420F8BDE2
:1028B0000020F8BD00000020016000000014004866
:1028C00025780A00F8B50D4DA878002815D02E46B9
:1028D000002414362F460C3706E0325D395D084877
:1028E000FFF77BFD641CE4B2A8788442F5D3002096
:1028F000A870E86028616861A861F8BD1800002030
:10290000A001002005480021C16601674167816779
:1029100001216C30C1708171704700004C010020B2
:1029200010B5084C0022E188E068FDF79CFDFF200F
:102930002D30FFF7FFFC0122E188E068FDF793FDF1
:1029400010BD00000000002012A0FFF771F9144D27
:102950000024295D13A0FFF76BF9641C202CF8DB21
:1029600011A0FFF765F90024FF25134E0135294614
:102970003046FDF774FD6420FDF7C0FC641C642C38
:10298000F5DBBFF34F8F0E490C48C860BFF34F8F84
:1029900000BFFDE7535049204552524F520A0000F4
:1029A00080010020256420000A7265626F6F7469DF
:1029B0006E672E2E2E0A0000000400480400FA055F
:1029C00000ED00E0F8B50746FFF798FE0D4C0090CB
:1029D000E188E068FDF73EFD05460AE0FFF78EFE60
:1029E0000099461A002F04D0BE4202D90020C043ED
:1029F000F8BDE188E068FDF72DFDA842EED0304635
:102A0000F8BD000000000020FF3512131415171642
:102A10001A1C191D1B1833300C0D0E0F111020221B
:102A20001F23211E24360001020305042628252920
:102A3000273238FF060708090B2D2E2B2F2C7B433E
:102A40003A31397A78637660616264656D47FF591F
:102A50005B5C4E565758455354555241FFFF0A6729
:102A60006FFFFFFFFFFFFFFF4C7D4BFF7CFF733EBF
:102A7000743B3C773D797275FFFFFFFFFF51FFFF0D
:102A8000FFFFFFFFFF37FFFFFFFFFFFFFFFFFFFF1E
:102A9000FFFFFFFFFFFFFFFFFFFFFFFFFFFFFFFF46
:102AA000FFFFFFFFFFFFFFFFFFFFFFFFFFFFFFFF36
:102AB000FFFFFFFFFFFFFFFFFFFFFFFFFFFFFF69BC
:102AC0006B715553423456432050726F746F636F6D
:102AD0006C20426F6172640A4170706C65204465BD
:102AE000736B746F70204275732028414442290A29
:102AF00064656B754E756B656D2032303232000047
:102B0000000000000000000102030406070809009D
:102B10000000000102030400382B00080000002020
:102B20004C000000501C0008842B00084C000020C2
:102B30007C070000601C000800000000000000008E
:102B40000000000000000000000000000000000085
:102B50000000000000000000000000000000000075
:102B60000000000000000000000000000000000065
:102B700000127A00000000000000000000000000C9
:042B80000000000051
:04000005080000C12E
:00000001FF
