:020000040800F2
:10000000C8070020D5000008DD1300081D120008F5
:1000100000000000000000000000000000000000E0
:100020000000000000000000000000001B17000896
:100030000000000000000000251400081D17000843
:100040000501000805010008050100080501000878
:100050000501000805010008050100080501000868
:100060000501000805010008050100080501000858
:100070000501000805010008050100080501000848
:100080000501000800000000000000000501000854
:100090000000000005010008050100080501000836
:1000A00000000000291400080501000805010008EF
:1000B0000501000800000000050100080501000816
:1000C0000348854600F092F8004800475D2200088A
:1000D000C80700200C4880F308880C480168090E06
:1000E0000B4A914205D10B480B4901600B480C4962
:1000F00001600C4880470C480047FEE7FEE7FEE73A
:10010000FEE7FEE7FEE70000C8070020040000004D
:100110001F00000018100240010000000000014014
:100120000000000085170008C100000830B50B462C
:10013000014600202022012409E00D46D5409D42C1
:1001400005D31D469540491B254695404019154647
:10015000521E002DF1DC30BD70B50024254600286C
:1001600001DA01244042002901DA01254942FFF762
:10017000DDFFAC4200D04042002C00D0494270BDAF
:100180000549064A08685043054A80180860400837
:100190007047014908607047380000206D4EC64125
:1001A0003930000003460B439B0703D009E008C920
:1001B000121F08C0042AFAD203E00B780370401C17
:1001C000491C521EF9D27047D2B201E00270401CA5
:1001D000491EFBD270470022F6E710B513460A46C7
:1001E00004461946FFF7F0FF204610BD064C0125D6
:1001F000064E05E0E36807CC2B430C3C98471034CF
:10020000B442F7D3FFF760FF182800083828000829
:1002100070B50024014620314A78022A03D0042117
:100220008163012416E0026813680E25AB43136056
:10023000026813685B085B0013600122056C1346BB
:10024000AB40C56B6B604A7000220A70416B00299D
:1002500000D08847204670BD31B500F0B9F8009C49
:100260000546601C00D0641C00F0B2F8401BA042A0
:10027000FAD338BDF8B5002389E001249C402A4612
:10028000A44622407ED04C68022C01D0122C0CD106
:10029000DC08A40027183C6A5D07ED0E0F26AE406F
:1002A000B4430E69AE4026433E6205685E000324F7
:1002B000B4400F79A543BF07BF0FB7402F43076076
:1002C0004D68012D05D0022D03D0112D01D0122D26
:1002D0000ED18568CF68A543B7402F438760476834
:1002E0006546AF430D79ED06ED0F9D403D434560FA
:1002F000C568A5438C68B4402C43C4604C68E400D6
:1003000044D5264CA56901263543A561A4699D08FD
:1003100034400094224CAD002F19BC689D072E0F6D
:100320000F25B540AC430925ED06A84201D10025B3
:100330000AE01C4DA84201D1012505E01A4DA84252
:1003400001D1022500E00525B5402543BD60174CCD
:1003500025684E689543F60300D51543256065680A
:100360004E689543B60300D515436560A5684E6891
:100370009543F60200D51543A560E5684E689543A0
:10038000B60200E002E000D51543E5605B1C0A6898
:100390001546DA4000D070E7F8BD000000100240BA
:1003A000000001400004004800080048000401402B
:1003B0000069084000D00120704742694A4042610C
:1003C0007047002A01D08161704781627047000048
:1003D00001480068704700003000002070B504003C
:1003E00005D025466035687A002802D006E0012055
:1003F00070BD00202872204600F088FE242068721C
:1004000020680168490849000160204601F0FAFAB5
:100410000128EDD0606A002802D0204601F059FA88
:10042000206841680922D2029143416020688168B6
:1004300022229143816020688168082211438160F3
:1004400020680168012211430160204601F0A6FAEC
:1004500070BD000002480168491C0160704700003F
:100460003000002010B506480168102211430160D9
:10047000002000F007F800F017F8002010BD000081
:100480000020024010B5044600F0F0F87D21C900BC
:10049000FFF74CFE00F04AFD00222146501E00F0FE
:1004A00037F8002010BD000008B51248816901220C
:1004B00011438161816911400091C26901040A43BD
:1004C000C261C0690022084000901146501F00F030
:1004D0001FF800221146901E00F01AF80022114663
:1004E000501E00F015F80448016810221143016005
:1004F00008BD00000010024000000140C106C90E06
:1005000001208840014908607047000000E100E0D8
:1005100010B500F065FF10BDF8B505464E480E4613
:100520000068C007C00FB0420AD24B4801684908B2
:100530004900314301600068C007C00FB04270D16C
:100540002878464C800705D56068F0218843A96863
:10055000084360602878C00753D06868012817D026
:10056000022818D0032819D021688907002958DAF1
:1005700061688908890001436160FFF729FF6968A4
:100580000746012913D002291DD0032927D034E0C2
:1005900021688903EAE721688901E7E7616BC903FC
:1005A000E4E7FFF715FFC11B2D48814223D860689F
:1005B0000007800F0128F4D123E0FFF709FFC11BDA
:1005C0002748814217D860680007800F0228F4D1BD
:1005D00017E0FFF7FDFEC11B214881420BD8606880
:1005E0000007800F0328F4D10BE0FFF7F1FEC11BD9
:1005F0001B48814201D90320F8BD60680007800FC5
:10060000F3D115480168C907C90FB1420BD9016878
:1006100049084900314301600068C007C00FB0427B
:1006200001D00120F8BD2878400706D56068072171
:1006300009028843E9680843606000F02DF86168AA
:10064000084A0906090F515CC840074908600020A4
:10065000FFF718FF0020F8BD002002400010024004
:1006600088130000FF2700083400002001480068BC
:1006700070470000340000200448054900684968BC
:10068000044A4905490F515CC840704734000020B6
:10069000001002400F28000830B516A30FCB89B018
:1006A0006C460FC417A30FCB0FC41A494A680C201D
:1006B000144604401848042C05D0184B082C04D0CC
:1006C0000C2C00D1184609B030BD9402240F6D46A1
:1006D0002C5DC96A04AD0907090FD203695C920F4A
:1006E000022A02D0032A00D11846FFF71FFD6043FB
:1006F000E9E7000002030405060708090A0B0C0DD0
:100700000E0F10100102030405060708090A0B0C5E
:100710000D0E0F100010024000127A00006CDC0277
:10072000FEB504460078F04EF04DC00748D068682A
:100730000007800F01281FD068680007800F02287B
:1007400004D16868C003800F022815D061680129B0
:1007500019D001208004002901D0052917D029686B
:10076000B1432960296881432960606800281BD053
:10077000FFF72EFE074613E02868800320D5606847
:10078000002876D01CE0286830432860EDE729680F
:1007900001432960F7E7FFF71BFEC01B642869D8F7
:1007A00028688003F7D50BE0FFF712FE074604E048
:1007B000FFF70EFEC01B6428F1D828688003F7D429
:1007C000207880073ED568680007800F14D06868DD
:1007D0000007800F022804D16868C003800F012839
:1007E0000AD0E068002828681DD00121084328604D
:1007F000FFF7EEFD07460BE0286880070BD5E068A1
:10080000012836D107E0FFF7E3FDC01B0228C6D858
:1008100028688007F7D52868F82188432169C9002E
:10082000084328600EE0400840002860FFF7D0FD34
:10083000074604E0FFF7CCFDC01B0228AFD82868AC
:100840008007F7D42078000724D5E0690028686A7B
:1008500011D0012108436862FFF7BAFD074604E0A2
:10086000FFF7B6FDC01B022899D8686A8007F7D544
:1008700010E036E1D1E0400840006862FFF7A8FDD3
:10088000074604E0FFF7A4FDC01B022887D8686A6A
:100890008007F7D4207804274007002861DA002079
:1008A0000190E869C00008D4E969B8060143E9612C
:1008B000E96901400120009101908D480168C90556
:1008C00011D40168821511430160FFF781FD00908A
:1008D00005E0FFF77DFD0099401A642897D8844809
:1008E0000068C005F5D5A06801280AD0002801D00D
:1008F000052811D0286A400840002862286AB843B9
:1009000002E0286A012108432862A068002812D06A
:10091000FFF75EFD00900AE0286A38432862F0E79E
:10092000FFF756FD0099411A7248814275D8286A2E
:100930008007F5D50DE0FFF74BFD009006E0FFF7CF
:1009400047FD0099411A6B48814266D8286A8007A2
:10095000F5D40198002804D0E969012000078143FB
:10096000E9612078C00635D5606901280CD0401DAA
:10097000686B24D038436863686B40084000686344
:10098000FFF726FD074622E0686B38436863686B13
:10099000012108436863FFF71BFD074604E0FFF7EA
:1009A00017FDC01B022838D8686B8007F7D5686B25
:1009B000F8218843A169C900084368630AE0B84385
:1009C0006863F4E7FFF704FDC01B022825D8686BB5
:1009D0008007F7D42078800637D568680007800F35
:1009E000032813D068680007800F022804D16868C4
:1009F000C003800F032809D0206A0028686B16D036
:100A000030436863FFF7E4FC06460CE0686BC00304
:100A10001BD5206A012864D117E05BE0FFF7D8FC02
:100A2000801B022856D8686BC003F7D50DE0B04391
:100A30006863FFF7CDFC064604E0FFF7C9FC801BA6
:100A4000022847D8686BC003F7D4606A002846D0F4
:100A500069680907890F022943D001263606022852
:100A6000286805D0B0432860FFF7B2FC044633E0A5
:100A7000B0432860FFF7ACFC074604E0FFF7A8FC92
:100A8000C01B022826D828688001F7D4E86A216BA9
:100A9000000900010843E862A16AE06A0843696846
:100AA0007B22D20391430843686028683043286062
:100AB000FFF78EFC044604E0FFF78AFC001B0228C7
:100AC00008D828688001F7D509E0FFF781FC001BF2
:100AD000022801D90320FEBD28688001F5D400203A
:100AE000FEBD0120FEBD000000000100001002401C
:100AF000007000408813000070470000F8B50446FD
:100B00000068426881684B0605D4CB0703D05306C2
:100B100001D5E16C04E08B0705D5130603D5216DE3
:100B200020468847F8BDFF2361331942FAD0930667
:100B3000F8D523464D064033002D09DA5D7F032D9D
:100B40003CD0256E042635432566C568856800952A
:100B50008E060125002E08DA266E2E43266686684C
:100B6000009606684027BE430660C80506D5206E7D
:100B7000082108432066206880680090206E0028C5
:100B8000D0D020684168E026B14341605D7790078E
:100B900018D020684168890889004160A06D0B4D1C
:100BA000002803D04563A06DFFF732FB606D00287D
:100BB000B8D04563606DFFF72BFBF8BDC168806856
:100BC0000090F8BD2046FFF797FFF8BD9B15000881
:100BD000F8B5040007D0002625464035A662687F98
:100BE000002802D005E00120F8BD2E77204600F055
:100BF0004BF802236B772068016840229143016023
:100C00000721E0680902884201D9002201E001229F
:100C100012030F273F02B84202D0884200D0A662DA
:100C2000276B002F05D1884201D9236301E0012001
:100C30002063A16860686369084321691943084318
:100C40000123A1695B0219400843E1690843216A55
:100C50000843A16A084321680860616B606AA36960
:100C600008431B0C0427E1683B40194308432168F3
:100C7000104348602068C1697A029143C1612666C9
:100C8000012068770020F8BD00B50068114987B0E1
:100C900088421DD11048826981140A4382618069AB
:100CA00008400590F02000900220019000210320D0
:100CB00003900291049109206946C006FFF7DAFA11
:100CC000002211461920FFF723FC1920FFF716FC1C
:100CD00007B000BD00300140001002407047000026
:100CE000F0B504468C464034217F0025C7689646FF
:100CF00001290CD001212177667F4168012E0CD09B
:100D0000CA1FFD3A07D18168002904D101E0022001
:100D1000F0BD042E01D0022540E0614600291BD021
:100D20007146002918D0002B16D0617F042901D00C
:100D30000521617700210166614681638387C3874E
:100D400071460164A380E380072109028F4205D91F
:100D5000144AC264144A04E001251FE0134AC26425
:100D6000134A0265012212038F4202D8E188022948
:100D700003D301684B68934302E001684B68134357
:100D80004B6001684A68E0231A434A6000680168C2
:100D9000490603D4016840221143016000202077F6
:100DA0002846F0BD39140008CD1400086F1400085F
:100DB00001150008F8B50122160231464E48FFF72A
:100DC00000FB4E4C012720784D4DDE2800D06F707F
:100DD0004C4800780028A07811D008287FD1484AD4
:100DE000A87821790C3211540832A17911540828BD
:100DF00001D2401CA87001221146434838E009285E
:100E000008D0082829D003282ED0012833D0022862
:100E10005CD064E06179207901F038F9374A2C32EE
:100E20001080E179A07901F031F95080617A207A5F
:100E300001F02CF940429080607B9071A07B107291
:100E4000E07BD071207C5072607C90722B492C48E2
:100E50002C31001D01F0F2FA41E02848A2792179F5
:100E6000203001F06AF93AE0092000220221C00690
:100E7000FFF7A7FA33E0214820212038FFF7ABF92C
:100E80001E49CD20203908706078487080238B700F
:100E90000220C87028780871002048718F710822DC
:100EA0000D46C87158352C5C002C0BD0022C02D09A
:100EB000012C02D004E0885402E004461C438C5408
:100EC000521CD2B2401C1028EDDB08E00325605D07
:100ED000002804D001F0FCF86D1C202DF7DB074A38
:100EE0002023D11A0948FFF7FBFE002231460248B1
:100EF000FFF767FAF8BD0000000400487C010020FD
:100F000014000020020000200014004848000020C7
:100F1000042204490428086902D0904308617047FC
:100F20001043FBE700E000E070470000094910B5FE
:100F3000401E884201D9012010BD074C6061032189
:100F4000081F00F04DFA0020A0610720206100205A
:100F500010BD0000FFFFFF0000E000E010B5FFF74C
:100F6000E3FF10BD70B502462032137F012B1BD06A
:100F70000123137702245477046865687026B5430B
:100F80006560046865680E68354365600468A56837
:100F90008026B543A5600068846849680C43846076
:100FA00053770020107770BD022070BD70B504002B
:100FB00005D025462035687F002802D006E00120B4
:100FC00070BD00202877204600F00AF802206877DC
:100FD000211D206800F004FC01206877002070BD0E
:100FE00008B5006801218907884207D10448C16912
:100FF00001221143C161C0691040009008BD00008A
:10100000001002400222014620314A77026813682C
:10101000012003431360487700207047F8B5054668
:1010200004462035287F012817D001272F7702207A
:101030006877226890687726FF23B0431B029843A5
:1010400090600868502837D00EDC202857D006DC86
:1010500000284ED0102840D14EE00220F8BD3028A4
:1010600050D0402839D13CE060282DD0702817D0CE
:1010700001221203801A0ED090422ED1CB684A680A
:101080008968206800F0EEFB2068816801229203E5
:101090001143816021E020688168C908C900F8E730
:1010A000CB684A688968206800F0DCFB21688868A2
:1010B000B0433043886010E0CA684968206800F097
:1010C000E4FB5021206806E0CA684968206800F007
:1010D000EDFB6021206800F0D0FB6F7700202877BF
:1010E000F8BDCA684968206800F0CFFB402120683D
:1010F000F1E700212068EEE710212068EBE72021CE
:101100002068E8E730212068E5E7000000B50068C6
:101110000E4987B0884216D10D48C26901214904A1
:101120000A43C261C0690840059004200090122063
:101130000190012103200390029104910920694646
:10114000C006FFF797F807B000BD0000004400405C
:1011500000100240FFB5064604466036707A83B040
:101160000D46202858D1002D0CD00598002809D014
:101170000120A1680003814207D12069002804D121
:10118000E80702D0012007B0F0BD307A012843D033
:10119000012030720020E06621207072FFF718F9FC
:1011A000019027464037059838820598788218E0E4
:1011B000788A401E7882069800900022802120467E
:1011C000019B00F0B7FC002818D10120A1680003A2
:1011D000814202D12069002812D021682878088530
:1011E0006D1C788A0028E3D10698009000224021E7
:1011F0002046019B00F09EFC002808D00320C2E797
:1012000028882168C005C00D0885AD1CE9E72020AD
:10121000707200203072B6E70220B4E7FEE70000EB
:10122000F0B5384887B04269012189040A43426118
:1012300042690A400592426909010A4342614269D2
:101240000A400592426949110A43426140694C12C1
:1012500008400590002221462B48FFF7B2F82B4E9C
:10126000002203213046FFF7ACF801220920114685
:10127000C006FFF7A6F8092000220221C006FFF7EA
:10128000A0F8012202212048FFF79BF800940024D7
:1012900001250195029469461B480394FEF7EAFF75
:1012A0000320009002946946019503943046FEF7AE
:1012B000E1FF1127092002946946C00601970095B5
:1012C0000394FEF7D7FF0226092002946946C00660
:1012D000009601950394FEF7CDFF082000900C487E
:1012E0000190092069460296C006FEF7C3FF0294EA
:1012F00069460548019700960394FEF7BBFF07B0C7
:10130000F0BD000000100240000400480014004836
:101310000000211010B50D480B490160002141600B
:1013200081600161416181610722016212024162B3
:10133000C260816207220163C2624163FFF748FC19
:10134000002800D0FEE710BD00300140480000201A
:1013500010B50121124886B08907016000242F21B1
:10136000846041600461611E8461C160FFF71EFEFC
:10137000002800D0FEE701200003009069460848DD
:10138000FFF74CFE002800D0FEE7049404A90448AF
:101390000594FFF7E7FD002800D0FEE706B010BD7A
:1013A000AC00002010B50C480A490160E121490257
:1013B000416000218160C16001618161C1610822D9
:1013C000016242614162FFF709F8002800D0FEE7A0
:1013D00010BD000000440040EC00002070470000F9
:1013E0008307FF22DB0E9A408907090E99400028E7
:1013F0000BDA0007000F0838830808489B0018180C
:10140000C36993430B43C3617047830804489B003F
:101410001B181868904308431860704700ED00E0FF
:1014200000E400E07047000010B50248FFF766FBDB
:1014300010BD00004800002010B50168C968026CAA
:101440001180016C891C016401464031CA88521E1A
:10145000CA80C988002909D101684A6840239A4393
:101460004A60C18F002901D100F06EF810BD10B59F
:1014700001464031CC880368026C012C11D9DB682D
:101480001380026C921C0264CA88921ECA80CA88A9
:10149000012A0DD1026853680124240323435360B9
:1014A00006E01C7B531C03641470CA88521ECA8059
:1014B000C988002909D101684A6860239A434A60B3
:1014C000C18F002901D100F03FF810BD10B5816B2C
:1014D00002680988D160816B891C8163C18F491EB4
:1014E000C187C18F00290AD101684A6880239A43C5
:1014F0004A604621095A002901D100F025F810BDA3
:1015000010B5C38F0268816B022B07D30988D160A5
:10151000816B891C8163C18F891E05E04B1C83632D
:1015200009781173C18F491EC187C18F00290AD163
:1015300001684A6880239A434A604621095A002973
:1015400001D100F001F810BD70B50446FEF740FF70
:101550000246206841682025A94341606421204655
:1015600000F024F8002802D0206E28432066226E66
:10157000204601214030002A04D041772046FFF761
:10158000BBFA70BD427F4177042A204602D0FFF7A4
:1015900011FC70BDFFF7A2FB70BD10B5406A0021C1
:1015A00046221152C187FFF7A7FA10BDF8B50F46C2
:1015B0000B4615460092032104460022C90200F0A2
:1015C0001BF82026002812D13B460022802120460D
:1015D000009500F05CF8002809D103213B46002269
:1015E00049022046009500F007F8002803D0206E3D
:1015F000304320660320F8BDF8B51D4617460E4659
:1016000004463DE0032149028E4205D1002F03D15B
:10161000017B684601700078681C31D0002D05D030
:10162000FEF7D6FE0699401AA84229D320684168E1
:10163000E022914341606068C11FFD390CD1012156
:10164000A068C903884202D04911884204D12068A9
:1016500001684022914301600120A16A4003814258
:1016600007D121680A6882430A6021680A68024338
:101670000A60012040346077002020770320F8BD05
:10168000206881683140B942BCD10020F8BDF8B56E
:101690001D4617460E46044633E0681C31D0002D27
:1016A00005D0FEF795FE0699401AA84229D3206876
:1016B0004168E022914341606068C11FFD390CD14F
:1016C0000121A068C903884202D04911884204D18F
:1016D000206801684022914301600120A16A400313
:1016E000814207D121680A6882430A6021680A683A
:1016F00002430A60012040346077002020770320F5
:10170000F8BD206881683046884304D00020B84284
:10171000C3D10020F8BD0120F9E7704710B5FEF7EE
:1017200099FEFFF71BFC10BD10B592B02020009071
:1017300001200024089009946846FEF7F1FF002874
:1017400000D0FEE707200D9003200E900F9401219A
:1017500010940DA8FEF7E0FE002800D0FEE7FEF78B
:1017600085FF7D21C900FEF7E1FCFFF7DFFB0420C8
:10177000FFF7CEFB00221146501EFEF7C9FE12B045
:1017800010BD000013480168012211430160416847
:10179000114A114041600168104A1140016001681E
:1017A000012292049143016041683F221204914357
:1017B0004160C16A09090901C162016BFF22D4328B
:1017C00091430163416B49084900416300218160F5
:1017D00070470000001002400CB8FF08FFFFF6FE43
:1017E000F0B502681A4B0124A4071A4D984203D0A1
:1017F000A04201D0A84203D17026B2434E683243C2
:10180000154E164F98420AD0A04208D0A84206D0E2
:10181000134CA04203D0B04201D0B84204D10324FB
:101820002402A243CC6822438024A2434C69224371
:1018300002608A68C2620A688262984203D0B0423B
:1018400001D0B84201D10969016301214161F0BDB4
:10185000002C0140000400400044014000480140C9
:101860000020004030B58468FF252D021B02134381
:10187000AC430B432343836030BD826870239A439B
:101880000A4307210A438260704730B5036A046A3D
:101890006408640004628469F025AC4312012243A9
:1018A0000A24A3430B438261036230BD30B5036A4F
:1018B0001024A34303628469036A0F252D031203D6
:1018C000AC432243A024A34309011943826101626E
:1018D00030BD10B5818CC90707D001684A68012363
:1018E0005B049A43836A1A434A60818C890707D54F
:1018F00001684A6801231B049A43C36A1A434A6079
:10190000818C490707D501684A6801239B049A43E3
:10191000036B1A434A60818C090707D501684A683E
:101920000123DB039A43436B1A434A60818CC90647
:1019300007D50268916801231B039943836B194300
:101940009160818C890607D501688A6801235B0351
:101950009A43C36B1A438A60818C490612D5036887
:101960005A6801210905046C8A4322435A60026CBB
:101970008A4207D10268516803235B059943436C8F
:1019800019435160818C090607D501684A68012313
:10199000DB04806C9A4302434A6010BDF8B5002610
:1019A0000446C666FEF714FD0546144920688842C1
:1019B0001DD10068124F000709D501212B460022D6
:1019C00049052046009700F0B5F800280DD12068A1
:1019D000006840070BD501212B46002289052046CF
:1019E000009700F0A7F8002801D00320F8BD2020C0
:1019F00060346072A07226720020F8BD0038014089
:101A0000FFFFFF01F8B504462369A268E5691A43A0
:101A1000636910202B43002125681A432B680E466A
:101A20003E4F3B4013432B6023685A6803252D0328
:101A3000AA43E5682A435A60236AA26925681A43C3
:101A4000AB680B273F02BB431343AB60344A2568A6
:101A5000954210D1334A126B9207920F0ED0012A91
:101A600005D0022A05D0032A09D1022007E004206C
:101A700005E0082003E02C4A954200D10020012215
:101A8000E369D203934224D100280CD002280DD060
:101A9000042813D0082817D001260A0912010807C4
:101AA000400F10432FE0FEF7E7FD09E061681F4A91
:101AB00048088018FEF73AFB81B2EEE7FEF7ECFD2E
:101AC000616840004A08F4E761680122480812048E
:101AD000EFE7002808D0022809D004280BD00828F6
:101AE00014D001263046F8BDFEF7C6FD05E061685A
:101AF0000F4A48080CE0FEF7CFFD61684A088018DD
:101B0000FEF714FB80B22168C860EBE76168480803
:101B10008018FEF70BFB80B2E860E3E7F369FFEFA4
:101B20000038014000100240004400400024F4004E
:101B300000127A00FFB581B017460E4604460A9D92
:101B40001DE0681C1BD0002D05D0FEF741FC049958
:101B5000401AA84213D920680168FF22A13291439C
:101B60000160206881684908490081602020603454
:101B70006072A07200202072032005B0F0BD2068C2
:101B8000C1693046884304D00020B842D9D0002033
:101B9000F3E70120F9E700000FB410B503A9044BE7
:101BA000044A029800F018F810BC08BC04B01847AA
:101BB000B92000083C00002002E008C8121F08C13C
:101BC000002AFAD170477047002001E001C1121FBE
:101BD000002AFBD170470000FFB58DB00F460546C7
:101BE000002606E025280AD0109A0F9990476D1C10
:101BF000761C28780028F5D1304611B0F0BD0024BD
:101C00000121674A009400E004436D1C2B780846CC
:101C1000203B98401042F7D128782E2815D1042077
:101C2000044368786D1C2A280AD101CF6D1C0090EE
:101C30000BE000990A225143303940186D1C009086
:101C40002878014630390929F3D92878692843D002
:101C500006DC0028D0D063280BD0642804D13BE0F8
:101C600073280FD075284CD0109A0F999047761C86
:101C700094E03878694608720020487202A8019002
:101C8000012003E0386801900020C0433F1D610738
:101C90000CD5002400E0641C00998C420FDA8442C9
:101CA000F9DB0199095D0029F5D108E0002400E085
:101CB000641C8442FCDB0199095D0029F8D13619C6
:101CC00007E0019801990078491C0191109A0F9939
:101CD0009047641EF5D261E00A20019001CF0028F0
:101CE00002DA40422D2102E0210504D52B216A466B
:101CF0001172012103E0E10701D02021F7E70C91E7
:101D000004E00A20019001CF00210C910BA90B9156
:101D100008E00199FEF70AFA0A460B993032491E8B
:101D20000B910A700028F4D10B9803A9081A2030EF
:101D30000190600701D5009801E001200090019911
:101D4000884203DD01460198081A00E000200024C3
:101D5000009006E002A8109A005D0F999047641C5D
:101D6000761C0C988442F5DB04E0109A30200F9921
:101D70009047761C0099481E00900029F5DC08E089
:101D80000B980B990078491C0B91109A0F9990476A
:101D9000761C0199481E01900029F1DC6D1C28E792
:101DA0000928010010B5044CA260A380E060E18026
:101DB00000F0E0F810BD0000000000201CB501AAF2
:101DC00069460E4800F0F7F9002815D168460078FA
:101DD000BA280ED20A49085CFF280AD06A4612794E
:101DE0000849002A00D080214006400C084300F03A
:101DF000CDF8024800F0EFF91CBD00009C01002066
:101E00000827000880800000F8B5064600203080D2
:101E10001648C188C068FEF7CBFA012823D1144CBC
:101E2000204600F04FFC401C1DD0204600F04AFC2C
:101E3000401C18D0204600F045FC401C13D0002563
:101E40002C460F2700F03EF805280BD0391B8840A0
:101E50002843641C85B2102CF4DB054800F032FCEA
:101E600035800020F8BD0520F8BD000000000020EE
:101E70001027000010B5124800F01BFB02001DD017
:101E800090790023002801D10123DB03107A002878
:101E900001D1802003430020105E00F03FF944068A
:101EA000640E02201C43105E00F038F94006400C1E
:101EB000204300F06BF8024800F006FB10BD000064
:101EC0001800002070B50D48C188C068FEF770FA90
:101ED00000280FD10A4D284600F0F4FB044628469E
:101EE00000F0F0FB611C05D0411C03D0A04203DDD3
:101EF000012070BD052070BD002070BD00000020D5
:101F000010270000F8B506460020307000F07EF97A
:101F1000012808D10D4988700D4800F0D3FB3238F4
:101F2000292801D30520F8BD00252C460727FFF7F7
:101F3000C9FF0528F7D0391B88402843641CC5B267
:101F4000082CF4DB35700020F8BD000000000020F4
:101F50001027000010B5064C0122A188A068FEF7EA
:101F600030FA0122E188E068FEF72BFA10BD00008C
:101F70000000002010B504480221417003210170C7
:101F8000FFF7E8FF10BD00000000002070B5054617
:101F9000174C0120A070C82000F07CF80022E188D6
:101FA000E068FEF70EFA222000F074F80122E188C2
:101FB000E068FEF706FA402000F06CF8284600F0D2
:101FC00019F8002506280FD00022E188E068FEF706
:101FD000F8F9402000F05EF80122E188E068FEF7A1
:101FE000F0F9A570002070BDA570062070BD00003E
:101FF0000000002010B50446000A00F009F8062889
:1020000005D0E0B200F004F8062800D0002010BD92
:10201000F8B500251C4C06460727791B3046C840FA
:10202000C00714D00022E188E068FEF7CAF9222038
:1020300000F030F80122E188E068FEF7C2F9E1889B
:10204000E068FEF7B5F9012814D1402015E0002220
:10205000E188E068FEF7B5F9402000F01BF80122A6
:10206000E188E068FEF7ADF9E188E068FEF7A0F9E5
:10207000012801D00620F8BD222000F00BF86D1CCD
:10208000082DCADB0020F8BD000000200902014332
:1020900008B2704700B5014600F0C8F9411800F0D9
:1020A000C5F98842FBD300BD10B502490860FEF7B0
:1020B000A9FF10BD1000002013B50A2301226946B4
:1020C0000248FFF747F800981CBD0000EC00002014
:1020D00070B54406C109640EC901102C0FD20E4D13
:1020E000285D00280BD000290AD0022807D1032C34
:1020F00001D0062C01D1FFF73DFF0120285570BD0E
:102100000128FCD102202855032C01D0062CF6D141
:10211000FFF730FF70BD0000B4010020C11C06298C
:1021200009D93E214010C9433F2801DB3F2002E08E
:10213000884200DC0846C0B2704770B515460E46AE
:10214000044600F02AF8002801D0012070BD217853
:10215000606846542178A06845542078A178401CD6
:10216000FDF7E4FF2170002070BD70B50D460446F8
:102170008170284600F024F96060284600F020F9BC
:10218000A060204600F033F870BD417800788142AD
:1021900001D1012070470020704710B504468178B6
:1021A0000078401CFDF7C2FF6078814201D1012018
:1021B00010BD002010BD10B543780478A34201D1B2
:1021C000012010BD4468E35C0B7081684078085CB6
:1021D0001070002010BD10B5044640782178884268
:1021E00004D0A178401CFDF7A1FF617010BD10B5AF
:1021F0000446002020706070A1786068FDF7EBFF56
:10220000A178A068FDF7E7FF10BD000010B51148E8
:10221000C188C068FEF7CCF80F4C012804D12046D5
:1022200000F050FA401C0ED0204600F04BFA7D2101
:102230000901884209DC411C07D0FF21F5318842A1
:1022400005DA042010BDFF2010BD032010BD0120C1
:1022500010BD000000000020102700000EB5FEF7A2
:1022600001F9FFF761FAFEF7DBFFFFF753F8FFF71D
:1022700099F8FFF76DF800210120444F019100907B
:102280000B463A78424943A0FFF786FC4648FFF7E1
:102290000BFF00F0B7F944481021F030FFF765FF5D
:1022A0001021381D00F0E3F80024092226460123FE
:1022B000D20602213D48FFF775FD3B482021B03092
:1022C000FDF789FF384A38482023D032D11A6438C4
:1022D000FEF706FD7878002801D000F0B5F900F08F
:1022E00065F909200821C006FEF762F80028F1D040
:1022F00002A8FFF707FE00212D4A0328117011D014
:102300000028E7D16846007A05092748F030FFF732
:102310003CFF002809D01D48001D00F0B4F800283B
:102320000BD011E0FFF726FEECE72248007885424B
:1023300001D0012408E0002406E01F48007885420F
:1023400001D0012600E000262546354301D000F0EB
:1023500067F96846007A00F0C3F8032802D0022823
:1023600003D004E0FFF786FD01E0FFF727FD002220
:1023700001211248FEF725F8002D01D0012200E0CE
:10238000002202210D48FEF71CF8A3E714000020EC
:10239000C227000825730A726576256420762564B5
:1023A0002E25642E25640A00AC000020000400489D
:1023B000020000200100002000000020001400485E
:1023C000F0B50B30C108C900144F0026144A0FE0C5
:1023D00003688B420BD38B4205D95C1A43184568BE
:1023E00030C3083B00E04368136002C004E0021DF4
:1023F00010680028ECD13046002803D13868002846
:1024000001D00020F0BD064A06481060064A121AA4
:10241000D208D20044C001203860D7E74400002031
:1024200040000020CC010020C803002002480068C2
:102430000068406A704700001000002070B50D462B
:10244000044600F028F8002801D0012070BD207853
:102450000C226168504308182946FDF7A3FE207836
:10246000A178401CFDF762FE2170002070BD10B500
:10247000044681700C204843FFF7A2FF60602046AD
:1024800000F022F810BD41780078814201D101208E
:1024900070470020704710B5044681780078401CD2
:1024A000FDF744FE6078814201D1012010BD00207B
:1024B00010BD41780278914201D1002070474068F8
:1024C0000C2251434018704710B500210170417033
:1024D00081780C2251434068FDF77DFE10BD00005D
:1024E000F8B5010786070509890FB60F002D06D03C
:1024F0002C4C0329207804D0022928D050E0052054
:10250000F8BD032E02D0002E41D01DE085420BD134
:10251000254FFDF735FE0F21FDF71EFE0806010CC5
:1025200038460843FFF732FD607885420CD11E4FD4
:102530003F1DFDF725FE0F21FDF70EFE0806010CDD
:102540000F433846FFF722FD002E24D028E0032E4B
:1025500026D185420BD16846FFF756FC68460088B5
:102560000106490E7F2902D10005000F2070607816
:10257000854215D16846FFF747FC6846008801068A
:10258000490E7F290CD10005000F607008E08542DC
:1025900001D10320F8BD6078854201D10220F8BD49
:1025A0000020F8BD0000002001600000F8B5124DC9
:1025B000A87800281FD0012202211048FDF701FF52
:1025C0002E46002414362F460C3706E0325D395D66
:1025D0000B48FFF7B2FD641CE4B2A8788442F5D33F
:1025E0000020A870E860286168610246A8610221A5
:1025F0000248FDF7E6FEF8BD140000200014004874
:102600009C01002005480021C16601674167816780
:1026100001216C30C17081717047000048010020B9
:1026200010B5084C0022E188E068FDF7CAFEFF20E3
:102630002D30FFF72FFD0122E188E068FDF7C1FE94
:1026400010BD00000000002012A0FFF7A5FA144DF5
:102650000024295D13A0FFF79FFA641C202CF8DBEF
:1026600011A0FFF799FA0024FF25134E01352946E2
:102670003046FDF7A2FE6420FDF7EEFD641C642CDD
:10268000F5DBBFF34F8F0E490C48C860BFF34F8F87
:1026900000BFFDE7535049204552524F520A0000F7
:1026A0007C010020256420000A7265626F6F7469E6
:1026B0006E672E2E2E0A0000000400480400FA0562
:1026C00000ED00E0F8B50746FFF7B0FE0D4C0090B6
:1026D000E188E068FDF76CFE05460AE0FFF7A6FE1C
:1026E0000099461A002F04D0BE4202D90020C043F0
:1026F000F8BDE188E068FDF75BFEA842EED0304609
:10270000F8BD000000000020FF3512131415171645
:102710001A1C191D1B1833300C0D0E0F111020221E
:102720001F23211E24360001020305042628252923
:10273000273238FF060708090B2D2E2B2F2C7B4341
:102740003A31397A78637660616264656D47FF5922
:102750005B5C4E565758455354555241FFFF0A672C
:102760006FFFFFFFFFFFFFFF4C7D4BFF7CFF733EC2
:10277000743B3C773D797275FFFFFFFFFF51FFFF10
:10278000FFFFFFFFFF37FFFFFFFFFFFFFFFFFFFF21
:10279000FFFFFFFFFFFFFFFFFFFFFFFFFFFFFFFF49
:1027A000FFFFFFFFFFFFFFFFFFFFFFFFFFFFFFFF39
:1027B000FFFFFFFFFFFFFFFFFFFFFFFFFFFFFF69BF
:1027C0006B715553423456432050726F746F636F70
:1027D0006C20426F6172640A4170706C65204465C0
:1027E000736B746F70204275732028414442290A2C
:1027F00064656B754E756B656D203230323200004A
:1028000000000000000000010203040607080900A0
:102810000000000102030400382800080000002026
:1028200048000000B81B000880280008480000206D
:1028300080070000C81B0008000000000000000026
:102840000000000000000000000000000000000088
:102850000000000000000000000000000000000078
:1028600000000000000000000000000000127A00DC
:102870000000000000000000000000000000000058
:04000005080000C12E
:00000001FF
