:020000040800F2
:10000000E0070020D50000080D1400084912000880
:1000100000000000000000000000000000000000E0
:100020000000000000000000000000004B17000866
:100030000000000000000000551400084D170008E3
:100040000501000805010008050100080501000878
:100050000501000805010008050100080501000868
:100060000501000805010008050100080501000858
:100070000501000805010008050100080501000848
:100080000501000800000000000000000501000854
:100090000000000005010008050100080501000836
:1000A00000000000591400080501000805010008BF
:1000B0000501000800000000050100080501000816
:1000C0000348854600F080F80048004731240008C6
:1000D000E00700200C4880F308880C480168090EEE
:1000E0000B4A914205D10B480B4901600B480C4962
:1000F00001600C4880470C480047FEE7FEE7FEE73A
:10010000FEE7FEE7FEE70000E00700200400000035
:100110001F00000018100240010000000000014014
:1001200000000000B5170008C100000830B50B46FC
:10013000014600202022012409E00D46D5409D42C1
:1001400005D31D469540491B254695404019154647
:10015000521E002DF1DC30BD70B50024254600286C
:1001600001DA01244042002901DA01254942FFF762
:10017000DDFFAC4200D04042002C00D0494270BDAF
:100180000549064A08685043054A80180860400837
:1001900070470149086070472C0000206D4EC64131
:1001A00039300000D2B201E00270401C491EFBD27F
:1001B00070470022F6E710B513460A460446194672
:1001C000FFF7F0FF204610BD064C0125064E05E066
:1001D000E36807CC2B430C3C98471034B442F7D368
:1001E000FFF772FFB82A0008D82A000870B500246B
:1001F000014620314A78022A03D004218163012478
:1002000016E0026813680E25AB431360026813689A
:100210005B085B0013600122056C1346AB40C56BA5
:100220006B604A7000220A70416B002900D0884739
:10023000204670BD31B500F0B9F8009C0546601C41
:1002400000D0641C00F0B2F8401BA042FAD338BDC5
:10025000F8B5002389E001249C402A46A4462240A8
:100260007ED04C68022C01D0122C0CD1DC08A400EA
:1002700027183C6A5D07ED0E0F26AE40B4430E69A9
:10028000AE4026433E6205685E000324B4400F7909
:10029000A543BF07BF0FB7402F4307604D68012D2F
:1002A00005D0022D03D0112D01D0122D0ED185685D
:1002B000CF68A543B7402F43876047686546AF4383
:1002C0000D79ED06ED0F9D403D434560C568A543A2
:1002D0008C68B4402C43C4604C68E40044D5264C80
:1002E000A56901263543A561A4699D0834400094A1
:1002F000224CAD002F19BC689D072E0F0F25B5406D
:10030000AC430925ED06A84201D100250AE01C4DA9
:10031000A84201D1012505E01A4DA84201D10225CC
:1003200000E00525B5402543BD60174C25684E68A3
:100330009543F60300D51543256065684E689543DF
:10034000B60300D515436560A5684E689543F6026F
:1003500000D51543A560E5684E689543B60200E0F8
:1003600002E000D51543E5605B1C0A681546DA40DB
:1003700000D070E7F8BD000000100240000001400E
:1003800000040048000800480004014000690840DB
:1003900000D00120704742694A4042617047002AFC
:1003A00001D0816170478162704700000148006898
:1003B000704700002400002070B5040005D02546D9
:1003C0006035687A002802D006E0012070BD002068
:1003D0002872204600F0B0FE242068722068016870
:1003E000490849000160204601F024FB0128EDD0B6
:1003F000606A002802D0204601F083FA2068416834
:100400000922D202914341602068816822229143EF
:10041000816020688168082211438160206801683A
:10042000012211430160204601F0D0FA70BD0000A6
:1004300070B504000FD02168134808602168134884
:10044000086003CC41602068083C21688860FFF7A1
:10045000ADFF054608E0012070BDFFF7A7FF401B78
:10046000272801D9032070BD2068C0680028F4D176
:1004700020680269E1688A4201D0016101E0044913
:100480000160002070BD0000CCCC0000555500007C
:10049000AAAA00000068024901600020704700001D
:1004A000AAAA000002480168491C016070470000C8
:1004B0002400002010B50648016810221143016095
:1004C000002000F007F800F017F8002010BD000031
:1004D0000020024010B5044600F0F0F87D21C9006C
:1004E000FFF724FE00F038FD00222146501E00F0E8
:1004F00037F8002010BD000008B5124881690122BC
:1005000011438161816911400091C26901040A436C
:10051000C261C0690022084000901146501F00F0DF
:100520001FF800221146901E00F01AF80022114612
:10053000501E00F015F804480168102211430160B4
:1005400008BD00000010024000000140C106C90EB5
:1005500001208840014908607047000000E100E088
:1005600010B500F055FF10BDF8B505464E480E46D3
:100570000068C007C00FB0420AD24B480168490862
:100580004900314301600068C007C00FB04270D11C
:100590002878464C800705D56068F0218843A96813
:1005A000084360602878C00753D06868012817D0D6
:1005B000022818D0032819D021688907002958DAA1
:1005C00061688908890001436160FFF7EFFE69688F
:1005D0000746012913D002291DD0032927D034E072
:1005E00021688903EAE721688901E7E7616BC903AC
:1005F000E4E7FFF7DBFEC11B2D48814223D860688A
:100600000007800F0128F4D123E0FFF7CFFEC11BC4
:100610002748814217D860680007800F0228F4D16C
:1006200017E0FFF7C3FEC11B214881420BD8606869
:100630000007800F0328F4D10BE0FFF7B7FEC11BC2
:100640001B48814201D90320F8BD60680007800F74
:10065000F3D115480168C907C90FB1420BD9016828
:1006600049084900314301600068C007C00FB0422B
:1006700001D00120F8BD2878400706D56068072121
:1006800009028843E9680843606000F02DF861685A
:10069000084A0906090F515CC84007490860002054
:1006A000FFF718FF0020F8BD0020024000100240B4
:1006B000881300009F2A00082800002001480068D5
:1006C0007047000028000020044805490068496878
:1006D000044A4905490F515CC84070472800002072
:1006E00000100240AF2A000830B516A30FCB89B026
:1006F0006C460FC417A30FCB0FC41A494A680C20CD
:10070000144604401848042C05D0184B082C04D07B
:100710000C2C00D1184609B030BD9402240F6D4650
:100720002C5DC96A04AD0907090FD203695C920FF9
:10073000022A02D0032A00D11846FFF7F7FC6043D3
:10074000E9E7000002030405060708090A0B0C0D7F
:100750000E0F10100102030405060708090A0B0C0E
:100760000D0E0F100010024000127A00006CDC0227
:10077000FEB504460078F04EF04DC00748D06868DA
:100780000007800F01281FD068680007800F02282B
:1007900004D16868C003800F022815D06168012960
:1007A00019D001208004002901D0052917D029681B
:1007B000B1432960296881432960606800281BD003
:1007C000FFF7F4FD074613E02868800320D5606832
:1007D000002876D01CE0286830432860EDE72968BF
:1007E00001432960F7E7FFF7E1FDC01B642869D8E2
:1007F00028688003F7D50BE0FFF7D8FD074604E033
:10080000FFF7D4FDC01B6428F1D828688003F7D413
:10081000207880073ED568680007800F14D068688C
:100820000007800F022804D16868C003800F0128E8
:100830000AD0E068002828681DD0012108432860FC
:10084000FFF7B4FD07460BE0286880070BD5E0688A
:10085000012836D107E0FFF7A9FDC01B0228C6D842
:1008600028688007F7D52868F82188432169C900DE
:10087000084328600EE0400840002860FFF796FD1E
:10088000074604E0FFF792FDC01B0228AFD8286896
:100890008007F7D42078000724D5E0690028686A2B
:1008A00011D0012108436862FFF780FD074604E08C
:1008B000FFF77CFDC01B022899D8686A8007F7D52E
:1008C00010E036E1D1E0400840006862FFF76EFDBD
:1008D000074604E0FFF76AFDC01B022887D8686A54
:1008E0008007F7D4207804274007002861DA002029
:1008F0000190E869C00008D4E969B8060143E961DC
:10090000E96901400120009101908D480168C90505
:1009100011D40168821511430160FFF747FD009073
:1009200005E0FFF743FD0099401A642897D88448F2
:100930000068C005F5D5A06801280AD0002801D0BC
:10094000052811D0286A400840002862286AB84368
:1009500002E0286A012108432862A068002812D01A
:10096000FFF724FD00900AE0286A38432862F0E788
:10097000FFF71CFD0099411A7248814275D8286A18
:100980008007F5D50DE0FFF711FD009006E0FFF7B9
:100990000DFD0099411A6B48814266D8286A80078C
:1009A000F5D40198002804D0E969012000078143AB
:1009B000E9612078C00635D5606901280CD0401D5A
:1009C000686B24D038436863686B400840006863F4
:1009D000FFF7ECFC074622E0686B38436863686BFE
:1009E000012108436863FFF7E1FC074604E0FFF7D5
:1009F000DDFCC01B022838D8686B8007F7D5686B10
:100A0000F8218843A169C900084368630AE0B84334
:100A10006863F4E7FFF7CAFCC01B022825D8686B9F
:100A20008007F7D42078800637D568680007800FE4
:100A3000032813D068680007800F022804D1686873
:100A4000C003800F032809D0206A0028686B16D0E5
:100A500030436863FFF7AAFC06460CE0686BC003EE
:100A60001BD5206A012864D117E05BE0FFF79EFCEC
:100A7000801B022856D8686BC003F7D50DE0B04341
:100A80006863FFF793FC064604E0FFF78FFC801BCA
:100A9000022847D8686BC003F7D4606A002846D0A4
:100AA00069680907890F022943D001263606022802
:100AB000286805D0B0432860FFF778FC044633E08F
:100AC000B0432860FFF772FC074604E0FFF76EFCB6
:100AD000C01B022826D828688001F7D4E86A216B59
:100AE000000900010843E862A16AE06A08436968F6
:100AF0007B22D20391430843686028683043286012
:100B0000FFF754FC044604E0FFF750FC001B0228EA
:100B100008D828688001F7D509E0FFF747FC001BDB
:100B2000022801D90320FEBD28688001F5D40020E9
:100B3000FEBD0120FEBD00000000010000100240CB
:100B4000007000408813000070470000F8B50446AC
:100B50000068426881684B0605D4CB0703D0530672
:100B600001D5E16C04E08B0705D5130603D5216D93
:100B700020468847F8BDFF2361331942FAD0930617
:100B8000F8D523464D064033002D09DA5D7F032D4D
:100B90003CD0256E042635432566C56885680095DA
:100BA0008E060125002E08DA266E2E4326668668FC
:100BB000009606684027BE430660C80506D5206E2D
:100BC000082108432066206880680090206E002875
:100BD000D0D020684168E026B14341605D7790073E
:100BE00018D020684168890889004160A06D0B4DCC
:100BF000002803D04563A06DFFF7F8FA606D002868
:100C0000B8D04563606DFFF7F1FAF8BDC168806840
:100C10000090F8BD2046FFF797FFF8BDCB15000800
:100C2000F8B5040007D0002625464035A662687F47
:100C3000002802D005E00120F8BD2E77204600F004
:100C40004BF802236B7720680168402291430160D2
:100C50000721E0680902884201D9002201E001224F
:100C600012030F273F02B84202D0884200D0A6628A
:100C7000276B002F05D1884201D9236301E00120B1
:100C80002063A168606863690843216919430843C8
:100C90000123A1695B0219400843E1690843216A05
:100CA0000843A16A084321680860616B606AA36910
:100CB00008431B0C0427E1683B40194308432168A3
:100CC000104348602068C1697A029143C161266679
:100CD000012068770020F8BD00B50068114987B091
:100CE00088421DD11048826981140A43826180695B
:100CF00008400590F0200090022001900021032080
:100D000003900291049109206946C006FFF7A0FAFA
:100D1000002211461920FFF723FC1920FFF716FCCB
:100D200007B000BD003001400010024070470000D5
:100D3000F0B504468C464034217F0025C7689646AE
:100D400001290CD001212177667F4168012E0CD04A
:100D5000CA1FFD3A07D18168002904D101E00220B1
:100D6000F0BD042E01D0022540E0614600291BD0D1
:100D70007146002918D0002B16D0617F042901D0BC
:100D80000521617700210166614681638387C387FE
:100D900071460164A380E380072109028F4205D9CF
:100DA000144AC264144A04E001251FE0134AC264D5
:100DB000134A0265012212038F4202D8E1880229F8
:100DC00003D301684B68934302E001684B68134307
:100DD0004B6001684A68E0231A434A600068016872
:100DE000490603D4016840221143016000202077A6
:100DF0002846F0BD69140008FD1400089F1400087F
:100E000031150008F8B50122170239464648FFF7A8
:100E1000C6FA012211464548FFF7C1FA444C207832
:100E2000DE2802D0434901200870A078092806D0A6
:100E3000082824D0012829D0022851D059E061790E
:100E4000207901F0B7F93A4A2C321060E179A079A3
:100E500001F0B0F95060207A354940421072607B51
:100E60005072A07BD072E07B9072207C1073607C0B
:100E7000507330482C31001D01F038FC39E02C480B
:100E8000A2792179203001F041FA32E0284820216E
:100E90002038FFF78EF92648CD212038017061787F
:100EA0004170802383700221C170002242718171E0
:100EB000C2710822002106466C36755C002D0BD0ED
:100EC000022D02D0012D02D004E0815402E00D4633
:100ED0001D438554521CD2B2491C1029EDDB08E099
:100EE0000325605D002804D001F0CEF96D1C202D93
:100EF000F7DBA078032805D1092000220221C006D3
:100F0000FFF74DFA0A4A2023D11A0B48FFF710FFCA
:100F1000002239460448FFF742FA00220121034823
:100F2000FFF73DFAF8BD0000000400480014004837
:100F300080010020180000204C00002004220449F9
:100F40000428086902D09043086170471043FBE70A
:100F500000E000E070470000094910B5401E8842DB
:100F600001D9012010BD074C60610321081F00F06A
:100F70004FFA0020A06107202061002010BD000072
:100F8000FFFFFF0000E000E010B5FFF7E3FF10BD3A
:100F900070B502462032137F012B1BD0012313773B
:100FA00002245477046865687026B5436560046858
:100FB00065680E68354365600468A5688026B5439A
:100FC000A5600068846849680C43846053770020FA
:100FD000107770BD022070BD70B5040005D02546A5
:100FE0002035687F002802D006E0012070BD002077
:100FF0002877204600F00AF802206877211D206833
:1010000000F006FC01206877002070BD08B500687C
:1010100001218907884207D10448C169012211438F
:10102000C161C0691040009008BD0000001002407E
:101030000222014620314A770268136801200343E7
:101040001360487700207047F8B505460446203500
:10105000287F012817D001272F7702206877226880
:1010600090687726FF23B0431B029843906008687E
:10107000502837D00EDC202857D006DC00284ED070
:10108000102840D14EE00220F8BD302850D0402832
:1010900039D13CE060282DD0702817D001221203EE
:1010A000801A0ED090422ED1CB684A688968206899
:1010B00000F0F0FB206881680122920311438160F7
:1010C00021E020688168C908C900F8E7CB684A6850
:1010D0008968206800F0DEFB21688868B0433043EF
:1010E000886010E0CA684968206800F0E6FB50217B
:1010F000206806E0CA684968206800F0EFFB6021BC
:10110000206800F0D2FB6F7700202877F8BDCA680E
:101110004968206800F0D1FB40212068F1E70021F8
:101120002068EEE710212068EBE720212068E8E73F
:1011300030212068E5E7000000B500680E4987B05F
:10114000884216D10D48C269012149040A43C2618F
:10115000C0690840059004200090122001900121F0
:10116000032003900291049109206946C006FFF70D
:101170006FF807B000BD00000044004000100240BE
:10118000FFB5064604466036707A83B00D462028C7
:1011900058D1002D0CD00598002809D00120A16855
:1011A0000003814207D12069002804D1E80702D05A
:1011B000012007B0F0BD307A012843D00120307201
:1011C0000020E06621207072FFF7F0F801902746BA
:1011D0004037059838820598788218E0788A401E52
:1011E000788206980090002280212046019B00F022
:1011F000B9FC002818D10120A1680003814202D166
:101200002069002812D02168287808856D1C788A0A
:101210000028E3D106980090002240212046019B3F
:1012200000F0A0FC002808D00320C2E7288821682D
:10123000C005C00D0885AD1CE9E7202070720020B4
:101240003072B6E70220B4E7FEE70000F0B5384898
:1012500087B04269012189040A43426142690A4018
:101260000592426909010A43426142690A400592B6
:10127000426949110A43426140694C120840059095
:10128000002221462B48FFF78AF82B4E002203212B
:101290003046FFF784F8012209201146C006FFF707
:1012A0007EF8264F092000223946C006FFF777F85E
:1012B000012202211F48FFF772F800940024012543
:1012C0000195029469461B480394FEF7C1FF032071
:1012D000009002946946019503943046FEF7B8FFEA
:1012E0001126092002946946C006019600950394D0
:1012F000FEF7AEFF092002946946C00600970195EB
:101300000394FEF7A5FF082000900D4801900225E8
:10131000092069460295C006FEF79AFF02946946C5
:101320000448019600950394FEF792FF07B0F0BDC4
:101330000010024000040048001400480218000099
:101340000000211010B50D480B49016000214160DB
:101350008160016141618161072201621202416283
:10136000C260816207220163C2624163FFF758FCD9
:10137000002800D0FEE710BD003001404C000020E6
:1013800010B50121124886B08907016000242F2181
:10139000846041600461611E8461C160FFF71CFECE
:1013A000002800D0FEE701200003009069460848AD
:1013B000FFF74AFE002800D0FEE7049404A9044881
:1013C0000594FFF7E5FD002800D0FEE706B010BD4C
:1013D000B000002010B50C480A490160E121490223
:1013E000416000218160C16001618161C1610822A9
:1013F000016242614162FEF7DFFF002800D0FEE794
:1014000010BD000000440040F000002070470000C4
:101410008307FF22DB0E9A408907090E99400028B6
:101420000BDA0007000F0838830808489B001818DB
:10143000C36993430B43C3617047830804489B000F
:101440001B181868904308431860704700ED00E0CF
:1014500000E400E07047000010B50248FFF776FB9B
:1014600010BD00004C00002010B50168C968026C76
:101470001180016C891C016401464031CA88521EEA
:10148000CA80C988002909D101684A6840239A4363
:101490004A60C18F002901D100F06EF810BD10B56F
:1014A00001464031CC880368026C012C11D9DB68FD
:1014B0001380026C921C0264CA88921ECA80CA8879
:1014C000012A0DD102685368012424032343536089
:1014D00006E01C7B531C03641470CA88521ECA8029
:1014E000C988002909D101684A6860239A434A6083
:1014F000C18F002901D100F03FF810BD10B5816BFC
:1015000002680988D160816B891C8163C18F491E83
:10151000C187C18F00290AD101684A6880239A4394
:101520004A604621095A002901D100F025F810BD72
:1015300010B5C38F0268816B022B07D30988D16075
:10154000816B891C8163C18F891E05E04B1C8363FD
:1015500009781173C18F491EC187C18F00290AD133
:1015600001684A6880239A434A604621095A002943
:1015700001D100F001F810BD70B50446FEF716FF6A
:101580000246206841682025A94341606421204625
:1015900000F024F8002802D0206E28432066226E36
:1015A000204601214030002A04D041772046FFF731
:1015B000CBFA70BD427F4177042A204602D0FFF764
:1015C00021FC70BDFFF7B2FB70BD10B5406A002171
:1015D00046221152C187FFF7B7FA10BDF8B50F4682
:1015E0000B4615460092032104460022C90200F072
:1015F0001BF82026002812D13B46002280212046DD
:10160000009500F05CF8002809D103213B46002238
:1016100049022046009500F007F8002803D0206E0C
:10162000304320660320F8BDF8B51D4617460E4628
:1016300004463DE0032149028E4205D1002F03D12B
:10164000017B684601700078681C31D0002D05D000
:10165000FEF7ACFE0699401AA84229D320684168DB
:10166000E022914341606068C11FFD390CD1012126
:10167000A068C903884202D04911884204D1206879
:1016800001684022914301600120A16A4003814228
:1016900007D121680A6882430A6021680A68024308
:1016A0000A60012040346077002020770320F8BDD5
:1016B000206881683140B942BCD10020F8BDF8B53E
:1016C0001D4617460E46044633E0681C31D0002DF7
:1016D00005D0FEF76BFE0699401AA84229D3206870
:1016E0004168E022914341606068C11FFD390CD11F
:1016F0000121A068C903884202D04911884204D15F
:10170000206801684022914301600120A16A4003E2
:10171000814207D121680A6882430A6021680A6809
:1017200002430A60012040346077002020770320C4
:10173000F8BD206881683046884304D00020B84254
:10174000C3D10020F8BD0120F9E7704710B5FEF7BE
:10175000A9FEFFF719FC10BD10B592B0282000902B
:10176000012008900024079009946846FFF700F8CC
:10177000002800D0FEE707200D9003200E900F9464
:10178000012110940DA8FEF7EFFE002800D0FEE71F
:10179000FEF794FF7D21C900FEF7C8FCFFF7DCFBD4
:1017A0000420FFF7CBFB00221146501EFEF7D8FEA7
:1017B00012B010BD13480168012211430160416855
:1017C000114A114041600168104A114001600168EE
:1017D000012292049143016041683F221204914327
:1017E0004160C16A09090901C162016BFF22D4325B
:1017F00091430163416B49084900416300218160C5
:1018000070470000001002400CB8FF08FFFFF6FE12
:10181000F0B502681A4B0124A4071A4D984203D070
:10182000A04201D0A84203D17026B2434E68324391
:10183000154E164F98420AD0A04208D0A84206D0B2
:10184000134CA04203D0B04201D0B84204D10324CB
:101850002402A243CC6822438024A2434C69224341
:1018600002608A68C2620A688262984203D0B0420B
:1018700001D0B84201D10969016301214161F0BD84
:10188000002C014000040040004401400048014099
:101890000020004030B58468FF252D021B02134351
:1018A000AC430B432343836030BD826870239A436B
:1018B0000A4307210A438260704730B5036A046A0D
:1018C0006408640004628469F025AC431201224379
:1018D0000A24A3430B438261036230BD30B5036A1F
:1018E0001024A34303628469036A0F252D031203A6
:1018F000AC432243A024A34309011943826101623E
:1019000030BD10B5818CC90707D001684A68012332
:101910005B049A43836A1A434A60818C890707D51E
:1019200001684A6801231B049A43C36A1A434A6048
:10193000818C490707D501684A6801239B049A43B3
:10194000036B1A434A60818C090707D501684A680E
:101950000123DB039A43436B1A434A60818CC90617
:1019600007D50268916801231B039943836B1943D0
:101970009160818C890607D501688A6801235B0321
:101980009A43C36B1A438A60818C490612D5036857
:101990005A6801210905046C8A4322435A60026C8B
:1019A0008A4207D10268516803235B059943436C5F
:1019B00019435160818C090607D501684A680123E3
:1019C000DB04806C9A4302434A6010BDF8B50026E0
:1019D0000446C666FEF7EAFC0546144920688842BC
:1019E0001DD10068124F000709D501212B460022A6
:1019F00049052046009700F0B5F800280DD1206871
:101A0000006840070BD501212B460022890520469E
:101A1000009700F0A7F8002801D00320F8BD20208F
:101A200060346072A07226720020F8BD0038014058
:101A3000FFFFFF01F8B504462369A268E5691A4370
:101A4000636910202B43002125681A432B680E463A
:101A50003E4F3B4013432B6023685A6803252D03F8
:101A6000AA43E5682A435A60236AA26925681A4393
:101A7000AB680B273F02BB431343AB60344A256876
:101A8000954210D1334A126B9207920F0ED0012A61
:101A900005D0022A05D0032A09D1022007E004203C
:101AA00005E0082003E02C4A954200D100200122E5
:101AB000E369D203934224D100280CD002280DD030
:101AC000042813D0082817D001260A091201080794
:101AD000400F10432FE0FEF7F7FD09E061681F4A51
:101AE00048088018FEF722FB81B2EEE7FEF7FCFD06
:101AF000616840004A08F4E761680122480812045E
:101B0000EFE7002808D0022809D004280BD00828C5
:101B100014D001263046F8BDFEF7D6FD05E0616819
:101B20000F4A48080CE0FEF7DFFD61684A0880189C
:101B3000FEF7FCFA80B22168C860EBE761684808EC
:101B40008018FEF7F3FA80B2E860E3E7F369FFEF8D
:101B50000038014000100240004400400024F4001E
:101B600000127A00FFB581B017460E4604460A9D62
:101B70001DE0681C1BD0002D05D0FEF717FC049952
:101B8000401AA84213D920680168FF22A13291436C
:101B90000160206881684908490081602020603424
:101BA0006072A07200202072032005B0F0BD206892
:101BB000C1693046884304D00020B842D9D0002003
:101BC000F3E70120F9E700000FB410B503A9044BB7
:101BD000044A029800F018F810BC08BC04B018477A
:101BE000F92100083000002002E008C8121F08C1D7
:101BF000002AFAD170477047002001E001C1121F8E
:101C0000002AFBD170470000FFB58DB00F46054696
:101C1000002606E025280AD0109A0F9990476D1CDF
:101C2000761C28780028F5D1304611B0F0BD00248C
:101C30000121674A009400E004436D1C2B7808469C
:101C4000203B98401042F7D128782E2815D1042047
:101C5000044368786D1C2A280AD101CF6D1C0090BE
:101C60000BE000990A225143303940186D1C009056
:101C70002878014630390929F3D92878692843D0D2
:101C800006DC0028D0D063280BD0642804D13BE0C8
:101C900073280FD075284CD0109A0F999047761C56
:101CA00094E03878694608720020487202A80190D2
:101CB000012003E0386801900020C0433F1D610708
:101CC0000CD5002400E0641C00998C420FDA844299
:101CD000F9DB0199095D0029F5D108E0002400E055
:101CE000641C8442FCDB0199095D0029F8D1361996
:101CF00007E0019801990078491C0191109A0F9909
:101D00009047641EF5D261E00A20019001CF0028BF
:101D100002DA40422D2102E0210504D52B216A463A
:101D20001172012103E0E10701D02021F7E70C91B6
:101D300004E00A20019001CF00210C910BA90B9126
:101D400008E00199FEF7F2F90A460B993032491E74
:101D50000B910A700028F4D10B9803A9081A2030BF
:101D60000190600701D5009801E0012000900199E1
:101D7000884203DD01460198081A00E00020002493
:101D8000009006E002A8109A005D0F999047641C2D
:101D9000761C0C988442F5DB04E0109A30200F99F1
:101DA0009047761C0099481E00900029F5DC08E059
:101DB0000B980B990078491C0B91109A0F9990473A
:101DC000761C0199481E01900029F1DC6D1C28E762
:101DD0000928010010B5044CE26023812061618173
:101DE00000F05CF910BD0000000000201CB5454C5F
:101DF0006A4601A9444800F0C7FA002844D1684661
:101E00000079BA281BD24149095CFF2917D039292A
:101E10000BD168460078012811D13D4A5078401C0A
:101E20005070C007C00F6A461070684600780028DE
:101E300000D080244806400C204300F03BF9324893
:101E400000F0B2FA6846017932486F2906D03A2983
:101E50000ED01D2919D0612917D01EE069460978D6
:101E60000029018801D02C4A08E00122920309E0F0
:101E7000694609780029018802D0284A114002E009
:101E800001225203114301801CBD6A461278002AC8
:101E9000028807D0224B1A4002802A2906D0362910
:101EA00004D00BE00123DB021A43F5E76A461278FF
:101EB000002A028807D01B4B1A400280382906D01E
:101EC000642904D00BE001239B021A43F5E76A461C
:101ED0001278002A02880DD0134B1A4002807D2907
:101EE00001D07E29D0D1694609780029018805D022
:101EF0000E4AC3E701235B021A43EFE7FF220132D8
:101F0000C0E7000080800000A0010020A829000890
:101F10001800002006000020FFBF0000FFDF0000C7
:101F2000FFF70000FFFB0000FFFD0000FFFE0000C8
:101F3000F8B5064600203080164841890069FEF752
:101F400025FA012823D1144C204600F00BFD401C3B
:101F50001DD0204600F006FD401C18D0204600F0A1
:101F600001FD401C13D000252C460F2700F042F83D
:101F700005280BD0391B88402843641C85B2102CDF
:101F8000F4DB054800F0EEFC35800020F8BD0520AC
:101F9000F8BD0000000000201027000010B5134815
:101FA00000F0D8FB00281FD01149104800F030F98C
:101FB0000F4B0022587A002801D10122D203D87A8F
:101FC000002801D180200243188800B200F084F973
:101FD00044069888640E144300B200F07DF9400670
:101FE000400C204300F066F810BD00001C000020EB
:101FF000BC01002070B50D4841890069FEF7C6F9A3
:1020000000280FD10A4D284600F0ACFC04462846B3
:1020100000F0A8FC611C05D0411C03D0A04203DDE8
:10202000012070BD052070BD002070BD00000020A3
:1020300010270000F8B506460020307000F0CEF9F9
:10204000012806D10C4800F08DFC3238292801D334
:102050000520F8BD00252C460727FFF7CBFF0528F4
:10206000F7D0391B88402843641CC5B2082CF4DB28
:1020700035700020F8BD00001027000010B5064C98
:1020800001222189E068FEF78AF90122618920692D
:10209000FEF785F910BD00000000002010B50448CF
:1020A0000221417003210170FFF7E8FF10BD00001D
:1020B0000000002070B50546174C0120A070C82014
:1020C00000F087F8002261892069FEF768F9222074
:1020D00000F07FF8012261892069FEF760F9402055
:1020E00000F077F8284600F019F8002506280FD0F0
:1020F000002261892069FEF752F9402000F069F85A
:10210000012261892069FEF74AF9A570002070BD9F
:10211000A570062070BD00000000002010B5044628
:10212000000A00F009F8062805D0E0B200F004F833
:10213000062800D0002010BDF8B500251C4C06462E
:102140000727791B3046C840C00714D00022618998
:102150002069FEF724F9222000F03BF80122618972
:102160002069FEF71CF961892069FEF70FF9012843
:1021700014D1402015E0002261892069FEF70FF993
:10218000402000F026F8012261892069FEF707F956
:1021900061892069FEF7FAF8012801D00620F8BD10
:1021A000222000F016F86D1C082DCADB0020F8BDB7
:1021B000000000200902014308B2704702687F2A2C
:1021C00001DD7F2103E07E21C9438A4200DA0160FC
:1021D000704700B5014600F081FA411800F07EFA20
:1021E0008842FBD300BD000010B502490860FEF72D
:1021F0001FFF10BD1400002013B50A2301226946F9
:102200000248FEF7BDFF00981CBD0000F000002052
:1022100070B5054600200860486008724872C872B0
:10222000887208730C464873284600F093FA002819
:1022300023D0216802688918216061684268891882
:102240006160217A027A89182172617A427A114397
:102250006172E17AC27A1143E172A17A827A114302
:10226000A172217B027B11432173617B407B01437F
:102270006173284600F078FAD6E72046FFF79EFF04
:10228000201DFFF79BFF70BD70B54406C109640EA9
:10229000C901102C1AD20E4D285D002816D0002935
:1022A00010D0022812D1032C02D0062C08D104E051
:1022B00007482C3800F084F802E0064800F05DFA88
:1022C000012002E0012801D10220285570BD000044
:1022D000CC0100201C000020C11C062909D93E2188
:1022E0004010C9433F2801DB3F2002E0884200DC68
:1022F0000846C0B270470000102803D20249085CAB
:10230000012800D000207047CC01002070B5154690
:102310000E46044600F02AF8002801D0012070BDC6
:102320002178606846542178A06845542078A178C7
:10233000401CFDF7FBFE2170002070BD70B50D46FE
:1023400004468170284600F093F96060284600F04A
:102350008FF9A060204600F033F870BD4178007816
:10236000814201D1012070470020704710B504461A
:1023700081780078401CFDF7D9FE6078814201D158
:10238000012010BD002010BD10B543780478A34291
:1023900001D1012010BD4468E35C0B708168407876
:1023A000085C1070002010BD10B5044640782178FC
:1023B000884204D0A178401CFDF7B8FE617010BDC2
:1023C00010B50446002020706070A1786068FDF7A9
:1023D000F0FEA178A068FDF7ECFE10BD70B5124CC0
:1023E00061892069FDF7D2FF104D012804D12846EC
:1023F00000F0B8FA401C10D00120A070284600F070
:10240000B1FA7D210901884209DC411C07D0FF2176
:10241000F531884205DA042070BDFF2070BD03202D
:1024200070BD012070BD00000000002010270000DA
:102430001CB5FEF73FF8FFF78FF9FEF707FFFEF731
:1024400081FFFEF7C7FFFEF79BFF784876490160E2
:10245000032141607649C1608160FDF7E9FF0028F2
:1024600000D0FEE70020024600900223714972A0CE
:10247000FFF7AAFB6D48FEF70DF86C487430FFF7C4
:10248000B3FE00F00FFA08216F48FFF757FF6F48BF
:1024900000F042F909250024ED06264601232A46CC
:1024A00002216B48FFF796FC674820214038FDF772
:1024B00080FE654A5D482023203AD11A1030FEF78D
:1024C00037FC624F3F1F5948FDF7E4FF01212846C2
:1024D000FDF75CFFB8703878002801D000F004FAEE
:1024E00008212846FDF752FF0028ECD00320FFF713
:1024F00003FF584A10700620FFF7FEFE5649087089
:102500001178014319D001A8FFF794FD0021534A27
:102510000328117014D00028D5D16846007900092D
:1025200000904948FFF71AFF00280CD0474800F0F8
:10253000FEF8002810D0002415E0FFF7AFFDC2E739
:10254000FFF7ACFDE9E7464900980978884201D0D9
:10255000012409E0002407E04249009809788842F4
:1025600001D0012600E000262046304301D00122A0
:1025700000E000220121C9022846FDF710FF002CCF
:1025800003D034480078002805D1002E06D0324808
:102590000078002802D000F093F902E0324800F001
:1025A000E1F96846007900F0F3F8052819D002280F
:1025B0001ED0032823D0042885D123482021403869
:1025C000FDF7F7FD2049CD20403908708120887043
:1025D00026480088420701D40122CA70C20717D0DA
:1025E00018E01D4800780028A9D0FFF7D7FC6AE75B
:1025F000184800780028A2D0FFF7F8FB63E71548D9
:10260000007800289BD019480088FFF753FD5AE74F
:1026100001220A71800701D40120487101220221A0
:102620002846FDF7BCFE4EE7003000403C0000208D
:10263000FF0F0000622A000825730A207625642E09
:1026400025642E25640A0000A00100201C00002043
:1026500000040048030000200400002002000020C5
:1026600001000020000000201027000006000020CC
:10267000F0B50B30C108C900144F0026144A0FE012
:1026800003688B420BD38B4205D95C1A431845680B
:1026900030C3083B00E04368136002C004E0021D41
:1026A00010680028ECD13046002803D13868002893
:1026B00001D00020F0BD064A06481060064A121AF2
:1026C000D208D20044C001203860D7E7380000208B
:1026D00034000020E4010020E003002002480068EC
:1026E0000068406A704700001400002030B50B46B7
:1026F000024600F024F8002801D0012030BD1178F6
:102700005068090140183ACB3AC01078401C0007C5
:10271000000F1070002030BD10B50446FF200130BE
:10272000FFF7A6FF6060204600F027F810BD417853
:102730000078814201D10120704700207047417824
:102740000078401C0007000F814201D10120704732
:102750000020704741780278914201D100207047F3
:10276000406809014018704741780278914203D0CF
:10277000491C0907090F4170704710B5002101700D
:102780004170FF2140680131FDF713FD10BD0000CD
:10279000F8B5010786070509890FB60F002D58D037
:1027A0003E4C0329207802D002292DD073E0032E5D
:1027B00002D0002E4BD022E085420ED12079002895
:1027C0000BD0374FFDF7DCFC0F21FDF7C5FC0806E9
:1027D000010C38460843FFF76DFC607885420ED146
:1027E000E07800280BD02E4F3F1DFDF7C9FC0F21CC
:1027F000FDF7B2FC0806000C3843FFF75BFC002E27
:1028000029D0022E2CD046E0032E02D0022E2CD04E
:1028100041E085420BD16846FFF78AFB6846008895
:102820000106490E7F2902D10005000F2070607853
:10283000854230D16846FFF77BFB68460088010679
:10284000490E7F2927D10005000F607023E08542E3
:1028500001D10520F8BD607885421CD10220F8BD69
:102860006078854217D10320F8BD6078854212D187
:1028700001220925D402ED0621462846FDF78FFDE9
:102880000648801DFFF754FB002221462846FDF72D
:1028900086FD0420F8BD0020F8BD000000000020E7
:1028A0000160000005480021016141618161C16151
:1028B00001211030C170817170470000BC010020FF
:1028C00010B5084C002261892069FDF768FDFF20E2
:1028D0002D30FFF77EFC012261892069FDF75FFD45
:1028E00010BD00000000002012A0FFF76DF9144D8C
:1028F0000024295D13A0FFF767F9641C202CF8DB86
:1029000011A0FFF761F90024FF25134E0135294678
:102910003046FDF740FD6420FDF78CFC641C642C00
:10292000F5DBBFF34F8F0E490C48C860BFF34F8FE4
:1029300000BFFDE7535049204552524F520A000054
:1029400080010020256420000A7265626F6F74693F
:102950006E672E2E2E0A0000000400480400FA05BF
:1029600000ED00E0F8B50746FFF7B8FE0D4C00900B
:1029700061892069FDF70AFD05460AE0FFF7AEFE12
:102980000099461A002F04D0BE4202D90020C0434D
:10299000F8BD61892069FDF7F9FCA842EED0304608
:1029A000F8BD000000000020FF35121314151716A3
:1029B0001A1C191D1B1833300C0D0E0F111020227C
:1029C0001F23211E24360001020305042628252981
:1029D000273238FF060708090B2D2E2B2F2C7B439F
:1029E0003A31397A78637660616264656D47FF5980
:1029F0005B5C4E565758455354555241FFFF0A678A
:102A00006FFFFFFFFFFFFFFF4C7D4BFF7CFF733E1F
:102A1000743B3C773D797275FFFFFFFFFF51FFFF6D
:102A2000FFFFFFFFFF37FFFFFFFFFFFFFFFFFFFF7E
:102A3000FFFFFFFFFFFFFFFFFFFFFFFFFFFFFFFFA6
:102A4000FFFFFFFFFFFFFFFFFFFFFFFFFFFFFFFF96
:102A5000FFFFFFFFFFFFFFFFFFFFFFFFFFFFFF691C
:102A60006B715553423456432050726F746F636FCD
:102A70006C20426F6172640A4170706C652044651D
:102A8000736B746F70204275732028414442290A89
:102A900064656B754E756B656D20323032320000A7
:102AA00000000000000000010203040607080900FE
:102AB0000000000102030400D82A000800000020E2
:102AC0003C000000E81B0008142B00083C0000201C
:102AD000A4070000F81B0008000000000000FFFF32
:102AE00000000000000000000000000000000000E6
:102AF00000000000000000000000000000000000D6
:102B000000127A0000000000000000000000000039
:042B100000000000C1
:04000005080000C12E
:00000001FF
