:020000040800F2
:1000000050050020D5000008D51100086510000833
:1000100000000000000000000000000000000000E0
:100020000000000000000000000000004312000873
:1000300000000000000000001D120008451200082A
:100040000501000805010008050100080501000878
:100050000501000805010008050100080501000868
:100060000501000805010008050100080501000858
:100070000501000805010008050100080501000848
:100080000501000800000000000000000501000854
:100090000000000005010008050100080501000836
:1000A00000000000211200080501000805010008F9
:1000B0000501000800000000050100080501000816
:1000C0000348854600F05AF80048004745180008E4
:1000D000500500200C4880F308880C480168090E80
:1000E0000B4A914205D10B480B4901600B480C4962
:1000F00001600C4880470C480047FEE7FEE7FEE73A
:10010000FEE7FEE7FEE700005005002004000000C7
:100110001F00000018100240010000000000014014
:1001200000000000BD120008C100000830B50B46F9
:10013000014600202022012409E00D46D5409D42C1
:1001400005D31D469540491B254695404019154647
:10015000521E002DF1DC30BDD2B201E00270401C15
:10016000491EFBD270470022F6E710B513460A4637
:1001700004461946FFF7F0FF204610BD064C012546
:10018000064E05E0E36807CC2B430C3C984710343F
:10019000B442F7D3FFF798FF281900084819000860
:1001A00070B50024014620314A78022A03D0042188
:1001B0008163012416E0026813680E25AB431360C7
:1001C000026813685B085B0013600122056C13462C
:1001D000AB40C56B6B604A7000220A70416B00290E
:1001E00000D08847204670BD31B500F0B5F8009CBE
:1001F0000546601C00D0641C00F0AEF8401BA04215
:10020000FAD338BDF8B5002389E001249C402A4682
:10021000A44622407ED04C68022C01D0122C0CD176
:10022000DC08A40027183C6A5D07ED0E0F26AE40DF
:10023000B4430E69AE4026433E6205685E00032467
:10024000B4400F79A543BF07BF0FB7402F430760E6
:100250004D68012D05D0022D03D0112D01D0122D96
:100260000ED18568CF68A543B7402F4387604768A4
:100270006546AF430D79ED06ED0F9D403D4345606A
:10028000C568A5438C68B4402C43C4604C68E40046
:1002900044D5264CA56901263543A561A4699D086E
:1002A00034400094224CAD002F19BC689D072E0FDE
:1002B0000F25B540AC430925ED06A84201D1002524
:1002C0000AE01C4DA84201D1012505E01A4DA842C3
:1002D00001D1022500E00525B5402543BD60174C3E
:1002E00025684E689543F60300D51543256065687B
:1002F0004E689543B60300D515436560A5684E6802
:100300009543F60200D51543A560E5684E68954310
:10031000B60200E002E000D51543E5605B1C0A6808
:100320001546DA4000D070E7F8BD0000001002402A
:10033000000001400004004800080048000401409B
:100340000069084000D001207047002A01D0816177
:1003500070478162704700000148006870470000E4
:100360001000002002480168491C0160704700002D
:100370001000002010B506480168102211430160EA
:10038000002000F007F800F017F8002010BD000072
:100390000020024010B5044600F06EF97D21C9002E
:1003A000FFF7C4FE00F0AEFC00222146501E00F014
:1003B0002FF8002010BD000008B50F488169012208
:1003C00011438161816911400091C26901040A43AE
:1003D000C261C0690022084000901146501F00F021
:1003E00017F800221146901E00F012F80022114664
:1003F000501E00F00DF808BD00100240C106C90EE5
:1004000001208840014908607047000000E100E0D9
:1004100010B500F0E1FE10BDF8B5044600683E4D91
:10042000C00352D5E8690026C00007D4E969280452
:100430000143E961E96901400126009137480168FB
:10044000C90510D40168821511430160FFF784FFCC
:10045000074604E0FFF780FFC01B642824D82F481C
:100460000068C005F6D5286A03273F02384020D02F
:100470006168394081421CD0286A2A6AB843012148
:1004800009040A432A622A6A8A432A622862C00748
:100490000FD0FFF761FF009008E0FFF75DFF0099C4
:1004A000411A1F48814201D90320F8BD286A8007FC
:1004B000F3D5286A6168B84308432862002E04D047
:1004C000E969012000078143E9612078C00705D070
:1004D000286BA16880088000084328632078800684
:1004E00005D5286B10218843E168084328632068FC
:1004F000800305D5286B8021884361690843286300
:100500002088400505D5286B402188432169084390
:1005100028630020F8BD0000001002400070004079
:1005200088130000F8B505464E480E460068C0071F
:10053000C00FB0420AD24B48016849084900314314
:1005400001600068C007C00FB04270D12878464CE7
:10055000800705D56068F0218843A968084360607A
:100560002878C00753D06868012817D0022818D00F
:10057000032819D021688907002958DA6168890899
:10058000890001436160FFF7E7FE696807460129BA
:1005900013D002291DD0032927D034E02168890314
:1005A000EAE721688901E7E7616BC903E4E7FFF740
:1005B000D3FEC11B2D48814223D860680007800FFD
:1005C0000128F4D123E0FFF7C7FEC11B2748814271
:1005D00017D860680007800F0228F4D117E0FFF7F2
:1005E000BBFEC11B214881420BD860680007800F09
:1005F0000328F4D10BE0FFF7AFFEC11B1B4881427B
:1006000001D90320F8BD60680007800FF3D11548B9
:100610000168C907C90FB1420BD9016849084900EF
:10062000314301600068C007C00FB04201D0012013
:10063000F8BD2878400706D560680721090288437D
:10064000E9680843606000F02DF86168084A09060F
:10065000090F515CC840074908600020FFF79AFE67
:100660000020F8BD00200240001002408813000066
:1006700010190008140000200148006870470000AD
:10068000140000200448054900684968044A4905E7
:10069000490F515CC8407047140000200010024010
:1006A0002019000830B516A30FCB89B06C460FC4D3
:1006B00017A30FCB0FC41A494A680C2014460440F4
:1006C0001848042C05D0184B082C04D00C2C00D151
:1006D000184609B030BD9402240F6D462C5DC96ADE
:1006E00004AD0907090FD203695C920F022A02D0F8
:1006F000032A00D11846FFF719FD6043E9E700001F
:1007000002030405060708090A0B0C0D0E0F101052
:100710000102030405060708090A0B0C0D0E0F1051
:100720000010024000127A00006CDC02FEB50446A4
:100730000078F04EF04DC00748D068680007800F81
:1007400001281FD068680007800F022804D168685C
:10075000C003800F022815D06168012919D001203B
:100760008004002901D0052917D02968B1432960E8
:10077000296881432960606800281BD0FFF7ECFDE1
:10078000074613E02868800320D56068002876D0EB
:100790001CE0286830432860EDE7296801432960A0
:1007A000F7E7FFF7D9FDC01B642869D828688003E4
:1007B000F7D50BE0FFF7D0FD074604E0FFF7CCFDCF
:1007C000C01B6428F1D828688003F7D420788007FC
:1007D0003ED568680007800F14D068680007800F56
:1007E000022804D16868C003800F01280AD0E0689D
:1007F000002828681DD0012108432860FFF7ACFDC0
:1008000007460BE0286880070BD5E068012836D141
:1008100007E0FFF7A1FDC01B0228C6D828688007A3
:10082000F7D52868F82188432169C9000843286062
:100830000EE0400840002860FFF78EFD074604E008
:10084000FFF78AFDC01B0228AFD828688007F7D4BD
:100850002078000724D5E0690028686A11D00121BA
:1008600008436862FFF778FD074604E0FFF774FD70
:10087000C01B022899D8686A8007F7D510E036E1D6
:10088000D1E0400840006862FFF766FD074604E0DB
:10089000FFF762FDC01B022887D8686A8007F7D47B
:1008A000207804274007002861DA00200190E869D9
:1008B000C00008D4E969B8060143E961E96901406B
:1008C0000120009101908D480168C90511D401688B
:1008D000821511430160FFF73FFD009005E0FFF72F
:1008E0003BFD0099401A642897D884480068C005E9
:1008F000F5D5A06801280AD0002801D0052811D01C
:10090000286A400840002862286AB84302E0286A42
:10091000012108432862A068002812D0FFF71CFDBF
:1009200000900AE0286A38432862F0E7FFF714FDD8
:100930000099411A7248814275D8286A8007F5D516
:100940000DE0FFF709FD009006E0FFF705FD0099B7
:10095000411A6B48814266D8286A8007F5D401980D
:10096000002804D0E969012000078143E96120786B
:10097000C00635D5606901280CD0401D686B24D0B5
:1009800038436863686B400840006863FFF7E4FC25
:10099000074622E0686B38436863686B01210843AF
:1009A0006863FFF7D9FC074604E0FFF7D5FCC01BDE
:1009B000022838D8686B8007F7D5686BF821884320
:1009C000A169C900084368630AE0B8436863F4E7B3
:1009D000FFF7C2FCC01B022825D8686B8007F7D43C
:1009E0002078800637D568680007800F032813D069
:1009F00068680007800F022804D16868C003800F70
:100A0000032809D0206A0028686B16D03043686339
:100A1000FFF7A2FC06460CE0686BC0031BD5206AFA
:100A2000012864D117E05BE0FFF796FC801B0228E9
:100A300056D8686BC003F7D50DE0B0436863FFF785
:100A40008BFC064604E0FFF787FC801B022847D892
:100A5000686BC003F7D4606A002846D0696809074C
:100A6000890F022943D0012636060228286805D0BE
:100A7000B0432860FFF770FC044633E0B0432860C1
:100A8000FFF76AFC074604E0FFF766FCC01B02287C
:100A900026D828688001F7D4E86A216B0009000194
:100AA0000843E862A16AE06A084369687B22D203CE
:100AB000914308436860286830432860FFF74CFC86
:100AC000044604E0FFF748FC001B022808D8286809
:100AD0008001F7D509E0FFF73FFC001B022801D990
:100AE0000320FEBD28688001F5D40020FEBD012052
:100AF000FEBD000000000100001002400070004038
:100B00008813000070470000F8B50446006842688A
:100B100081684B0605D4CB0703D0530601D5E16CA1
:100B200004E08B0705D5130603D5216D20468847C1
:100B3000F8BDFF2361331942FAD09306F8D5234656
:100B40004D064033002D09DA5D7F032D3CD0256E24
:100B5000042635432566C568856800958E060125FF
:100B6000002E08DA266E2E432666866800960668F2
:100B70004027BE430660C80506D5206E08210843FD
:100B80002066206880680090206E0028D0D0206801
:100B90004168E026B14341605D77900718D0206836
:100BA0004168890889004160A06D0B4D002803D081
:100BB0004563A06DFFF7F4FA606D0028B8D0456377
:100BC000606DFFF7EDFAF8BDC16880680090F8BD70
:100BD0002046FFF797FFF8BD31120008F8B5040072
:100BE00007D0002625464035A662687F002802D03F
:100BF00005E00120F8BD2E77204600F04BF80223D7
:100C00006B77206801684022914301600721E0680A
:100C10000902884201D9002201E0012212030F27B4
:100C20003F02B84202D0884200D0A662276B002F54
:100C300005D1884201D9236301E001202063A16826
:100C40006068636908432169194308430123A16966
:100C50005B0219400843E1690843216A0843A16A1D
:100C6000084321680860616B606AA36908431B0C34
:100C70000427E1683B40194308432168104348605A
:100C80002068C1697A029143C161266601206877B4
:100C90000020F8BD00B50068114987B088421DD119
:100CA0001048826981140A43826180690840059076
:100CB000F020009002200190002103200390029177
:100CC000049109206946C006FFF79CFA00221146EC
:100CD0001920FFF79DFB1920FFF790FB07B000BD1F
:100CE0000030014000100240042204490428086931
:100CF00002D09043086170471043FBE700E000E03A
:100D000070470000094910B5401E884201D90120F2
:100D100010BD074C60610321081F00F05DFA002040
:100D2000A06107202061002010BD0000FFFFFF0030
:100D300000E000E010B5FFF7E3FF10BD70B502461C
:100D40002032137F012B1BD0012313770224547709
:100D5000046865687026B5436560046865680E6858
:100D6000354365600468A5688026B543A5600068C2
:100D7000846849680C43846053770020107770BD05
:100D8000022070BD70B5040005D025462035687F6F
:100D9000002802D006E0012070BD00202877204600
:100DA00000F00AF802206877211D206800F0B4FAEC
:100DB00001206877002070BD08B50068012189070F
:100DC000884207D10448C16901221143C161C06949
:100DD0001040009008BD00000010024002220146B1
:100DE00020314A7702681368012003431360487773
:100DF00000207047F8B5054604462035287F0128B5
:100E000017D001272F77022068772268906877260D
:100E1000FF23B0431B02984390600868502837D0E6
:100E20000EDC202857D006DC00284ED0102840D1F8
:100E30004EE00220F8BD302850D0402839D13CE0A7
:100E400060282DD0702817D001221203801A0ED0EE
:100E500090422ED1CB684A688968206800F09EFADB
:100E600020688168012292031143816021E020689B
:100E70008168C908C900F8E7CB684A6889682068B2
:100E800000F08CFA21688868B0433043886010E035
:100E9000CA684968206800F094FA5021206806E08A
:100EA000CA684968206800F09DFA6021206800F057
:100EB00080FA6F7700202877F8BDCA6849682068F3
:100EC00000F07FFA40212068F1E700212068EEE77A
:100ED00010212068EBE720212068E8E73021206816
:100EE000E5E770B5040005D025466035687A00282E
:100EF00002D006E0012070BD00202872204600F0DC
:100F000027F82420687220680168490849000160B8
:100F1000204600F013FB0128EDD0606A002802D0C3
:100F2000204600F072FA206841680922D2029143FB
:100F30004160206881682A229143816020680168AD
:100F4000012211430160204600F0C4FA70BD000088
:100F500000B500680F4987B0884218D10E488269F1
:100F6000012189030A4382618069084005900320BA
:100F70004002009002200190002002900320039084
:100F80000120049009206946C006FFF73BF907B02D
:100F900000BD00000038014000100240FFB50646C9
:100FA00004466036707A83B00D46202858D1002D53
:100FB0000CD00598002809D00120A16800038142C7
:100FC00007D12069002804D1E80702D0012007B02A
:100FD000F0BD307A012843D0012030720020E06655
:100FE00021207072FFF7B8F9019027464037059825
:100FF00038820598788218E0788A401E78820698B0
:101000000090002280212046019B00F02FFB002849
:1010100018D10120A1680003814202D12069002873
:1010200012D02168287808856D1C788A0028E3D1C1
:1010300006980090002240212046019B00F016FBFC
:10104000002808D00320C2E728882168C005C00D09
:101050000885AD1CE9E72020707200203072B6E7E9
:101060000220B4E7FEE70000F0B5254887B04269EA
:10107000012189050A43426142690A400592426999
:1010800049110A43426142690A4005924269490096
:101090000A43426140691B4D08400590012203212B
:1010A0002846FFF752F90926F60600220F2130469E
:1010B000FFF74BF9144F002202213846FFF745F99C
:1010C00003200090112000240190029469460394AB
:1010D0002846FFF797F80F200125009002946946F3
:1010E000019503943046FFF78DF80220009002949A
:1010F0006946019503943846FFF784F807B0F0BDC0
:1011000000100240001400480004004810B50D48CB
:101110000B49016000214160816001614161816191
:101120000722016212024162C260816207220163EA
:10113000C2624163FFF752FD002800D0FEE710BDF8
:10114000003001401C00002010B50121124886B07B
:101150008907016000242F21846041600461611EC1
:101160008461C160FFF70EFE002800D0FEE7012079
:101170000003009069460848FFF73CFE002800D0B5
:10118000FEE7049404A904480594FFF7D7FD00285E
:1011900000D0FEE706B010BD8000002010B50C485E
:1011A0000A490160E1214902416000218160C1607A
:1011B00001618161C1610C22016242614162FFF7FC
:1011C00090FE002800D0FEE710BD0000003801406E
:1011D000C0000020704700008307FF22DB0E9A400A
:1011E0008907090E994000280BDA0007000F08381C
:1011F000830808489B001818C36993430B43C361D5
:101200007047830804489B001B18186890430843E4
:101210001860704700ED00E000E400E07047000057
:1012200010B50248FFF770FC10BD00001C00002044
:1012300010B5406A002146221152C187FFF762FCB7
:1012400010BD704710B5FFF78DF8FFF773FD10BDA7
:1012500030B597B02020012500240090089509940E
:101260006846FFF763FA002800D0FEE707200D90DC
:1012700003200E900F94012110940DA8FFF752F94E
:10128000002800D0FEE711A811951394FFF7C4F8C9
:10129000002800D0FEE7FFF7EFF97D21C900FEF737
:1012A00045FFFFF72FFD0420FFF71EFD002211462A
:1012B000501EFFF7ADF817B030BD000013480168AD
:1012C0000122114301604168114A114041600168E7
:1012D000104A1140016001680122920491430160AB
:1012E00041683F22120491434160C16A0909090122
:1012F000C162016BFF22D43291430163416B490803
:1013000049004163002181607047000000100240E5
:101310000CB8FF08FFFFF6FEF0B502681A4B012477
:10132000A4071A4D984203D0A04201D0A84203D18D
:101330007026B2434E683243154E164F98420AD07B
:10134000A04208D0A84206D0134CA04203D0B0421D
:1013500001D0B84204D103242402A243CC68224322
:101360008024A2434C69224302608A68C2620A68F0
:101370008262984203D0B04201D0B84201D10969DB
:10138000016301214161F0BD002C014000040040D7
:1013900000440140004801400020004030B584680E
:1013A000FF252D021B021343AC430B4323438360F1
:1013B00030BD826870239A430A4307210A43826042
:1013C000704730B5036A046A640864000462846983
:1013D000F025AC43120122430A24A3430B4382614C
:1013E000036230BD30B5036A1024A34303628469ED
:1013F000036A0F252D031203AC432243A024A34309
:10140000090119438261016230BD10B5818CC907A1
:1014100007D001684A6801235B049A43836A1A4330
:101420004A60818C890707D501684A6801231B043B
:101430009A43C36A1A434A60818C490707D50168F9
:101440004A6801239B049A43036B1A434A60818CC8
:10145000090707D501684A680123DB039A43436BF8
:101460001A434A60818CC90607D502689168012336
:101470001B039943836B19439160818C890607D5BF
:1014800001688A6801235B039A43C36B1A438A602D
:10149000818C490612D503685A6801210905046C3C
:1014A0008A4322435A60026C8A4207D1026851681B
:1014B00003235B059943436C19435160818C0906F2
:1014C00007D501684A680123DB04806C9A43024314
:1014D0004A6010BDF8B500260446C666FEF73CFF1C
:1014E00005461449206888421DD10068124F000744
:1014F00009D501212B46002249052046009700F01E
:10150000B5F800280DD12068006840070BD50121EF
:101510002B46002289052046009700F0A7F80028F6
:1015200001D00320F8BD202060346072A0722672C2
:101530000020F8BD00380140FFFFFF01F8B5044668
:101540002369A268E5691A43636910202B430021CF
:1015500025681A432B680E463E4F3B4013432B60D1
:1015600023685A6803252D03AA43E5682A435A6075
:10157000236AA26925681A43AB680B273F02BB4365
:101580001343AB60344A2568954210D1334A126B3D
:101590009207920F0ED0012A05D0022A05D0032A05
:1015A00009D1022007E0042005E0082003E02C4ACE
:1015B000954200D100200122E369D203934224D155
:1015C00000280CD002280DD0042813D0082817D0EA
:1015D00001260A0912010807400F10432FE0FFF708
:1015E00051F809E061681F4A48088018FEF79EFD1F
:1015F00081B2EEE7FFF756F8616840004A08F4E769
:101600006168012248081204EFE7002808D0022888
:1016100009D004280BD0082814D001263046F8BD84
:10162000FFF730F805E061680F4A48080CE0FFF763
:1016300039F861684A088018FEF778FD80B22168A1
:10164000C860EBE7616848088018FEF76FFD80B25C
:10165000E860E3E7F369FFEF003801400010024063
:10166000004400400024F40000127A00FFB581B06D
:1016700017460E4604460A9D1DE0681C1BD0002D2F
:1016800005D0FEF769FE0499401AA84213D92068D4
:101690000168FF22A13291430160206881684908F6
:1016A00049008160202060346072A07200202072A6
:1016B000032005B0F0BD2068C1693046884304D0DE
:1016C0000020B842D9D00020F3E70120F9E700005C
:1016D00010B5024A024900F014F810BDE9170008DD
:1016E0001800002002E008C8121F08C1002AFAD121
:1016F00070477047002001E001C1121F002AFBD192
:101700007047F8B516460F460446002503E03946F3
:10171000B047641C6D1C20780028F8D12846F8BD1D
:1017200010B5044C62602380A060618000F044F832
:1017300010BD00000400002070B50D48418880688D
:10174000FEF7FEFD00280FD10A4D284600F0BEF836
:101750000446284600F0BAF8611C05D0411C03D0AD
:10176000A04203DD012070BD042070BD002070BDCB
:10177000040000201027000070B5054600F040F876
:10178000002807D10B4E304600F0A0F83238292847
:1017900001D3042070BD0024FFF7CEFF0428F9D048
:1017A000641C082CF8DB002D02D1304600F08EF8C6
:1017B000002070BD1027000010B5064C01222188C2
:1017C0006068FEF7C2FD01226188A068FEF7BDFDDA
:1017D00010BD00000400002010B502490860FFF7AA
:1017E000FDFA10BD0000002013B5642301226946F4
:1017F0000248FFF7D3FB00981CBD0000C00000208A
:1018000010B50E4841888068FEF79AFD012802D184
:10181000002000F05BF80A4800F058F87D2109012B
:10182000884207DC411C05D04B21C900884203DAFD
:10183000032010BD022010BD002010BD04000020B8
:1018400010270000FEF796FDFFF702FDFFF70CFCE6
:10185000FFF7A4FCFFF75AFCFFF776FC1148FFF7EF
:10186000BBFF10482021B030FEF77DFC0E4801235D
:1018700002460221FFF754FF0CA0FFF729FF0924BD
:10188000E406012211462046FEF75FFD0020FFF727
:1018900073FF002201212046FEF757FD0620FEF7C8
:1018A000A3FCEEE7800000200014004868656C6C23
:1018B0006F20776F726C640A0000000002480068B5
:1018C0000068406A7047000000000020F8B5074635
:1018D000FFF7F4FF0D4C00906188A068FEF730FD23
:1018E00005460AE0FFF7EAFF0099461A002F04D0E8
:1018F000BE4202D90020C043F8BD6188A068FEF74F
:101900001FFDA842EED03046F8BD000004000020C4
:10191000000000000000000001020304060708099F
:101920000000000001020304481900080000002024
:101930001C000000E4160008641900081C000020C8
:1019400034050000F416000800000000000000004C
:1019500000000000000000000000000000127A00FB
:041960000000000083
:04000005080000C12E
:00000001FF
