:020000040800F2
:1000000090070020D50000083D120008E11000080C
:1000100000000000000000000000000000000000E0
:100020000000000000000000000000007B15000838
:100030000000000000000000851200087D15000887
:100040000501000805010008050100080501000878
:100050000501000805010008050100080501000868
:100060000501000805010008050100080501000858
:100070000501000805010008050100080501000848
:100080000501000800000000000000000501000854
:100090000000000005010008050100080501000836
:1000A0000000000089120008050100080501000891
:1000B0000501000800000000050100080501000816
:1000C0000348854600F05AF800480047A91C00087C
:1000D000900700200C4880F308880C480168090E3E
:1000E0000B4A914205D10B480B4901600B480C4962
:1000F00001600C4880470C480047FEE7FEE7FEE73A
:10010000FEE7FEE7FEE70000900700200400000085
:100110001F00000018100240010000000000014014
:1001200000000000E5150008C100000830B50B46CE
:10013000014600202022012409E00D46D5409D42C1
:1001400005D31D469540491B254695404019154647
:10015000521E002DF1DC30BDD2B201E00270401C15
:10016000491EFBD270470022F6E710B513460A4637
:1001700004461946FFF7F0FF204610BD064C012546
:10018000064E05E0E36807CC2B430C3C984710343F
:10019000B442F7D3FFF798FF981E0008B81E000876
:1001A00070B50024014620314A78022A03D0042188
:1001B0008163012416E0026813680E25AB431360C7
:1001C000026813685B085B0013600122056C13462C
:1001D000AB40C56B6B604A7000220A70416B00290E
:1001E00000D08847204670BD31B500F0B3F8009CC0
:1001F0000546601C00D0641C00F0ACF8401BA04217
:10020000FAD338BDF8B5002389E001249C402A4682
:10021000A44622407ED04C68022C01D0122C0CD176
:10022000DC08A40027183C6A5D07ED0E0F26AE40DF
:10023000B4430E69AE4026433E6205685E00032467
:10024000B4400F79A543BF07BF0FB7402F430760E6
:100250004D68012D05D0022D03D0112D01D0122D96
:100260000ED18568CF68A543B7402F4387604768A4
:100270006546AF430D79ED06ED0F9D403D4345606A
:10028000C568A5438C68B4402C43C4604C68E40046
:1002900044D5264CA56901263543A561A4699D086E
:1002A00034400094224CAD002F19BC689D072E0FDE
:1002B0000F25B540AC430925ED06A84201D1002524
:1002C0000AE01C4DA84201D1012505E01A4DA842C3
:1002D00001D1022500E00525B5402543BD60174C3E
:1002E00025684E689543F60300D51543256065687B
:1002F0004E689543B60300D515436560A5684E6802
:100300009543F60200D51543A560E5684E68954310
:10031000B60200E002E000D51543E5605B1C0A6808
:100320001546DA4000D070E7F8BD0000001002402A
:10033000000001400004004800080048000401409B
:1003400042694A4042617047002A01D0816170478A
:100350008162704701480068704700000C0000206F
:1003600070B5040005D025466035687A002802D0B3
:1003700006E0012070BD00202872204600F028FE13
:1003800024206872206801684908490001602046FD
:1003900001F068FA0128EDD0606A002802D02046FA
:1003A00001F0C7F9206841680922D20291434160F7
:1003B0002068816822229143816020688168082238
:1003C00011438160206801680122114301602046C9
:1003D00001F014FA70BD000002480168491C016078
:1003E000704700000C00002010B50648016810227C
:1003F00011430160002000F007F800F017F800201A
:1004000010BD00000020024010B5044600F0E8F8DE
:100410007D21C900FFF78AFE00F0EAFC0022214698
:10042000501E00F02FF8002010BD000008B50F4846
:100430008169012211438161816911400091C26982
:1004400001040A43C261C0690022084000901146BD
:10045000501F00F017F800221146901E00F012F80D
:1004600000221146501E00F00DF808BD0010024099
:10047000C106C90E0120884001490860704700008C
:1004800000E100E010B500F0DBFE10BDF8B5054658
:100490004E480E460068C007C00FB0420AD24B4813
:1004A000016849084900314301600068C007C00F76
:1004B000B04270D12878464C800705D56068F0219D
:1004C0008843A968084360602878C00753D06868EB
:1004D000012817D0022818D0032819D021688907CD
:1004E000002958DA61688908890001436160FFF7D3
:1004F00031FF69680746012913D002291DD003295D
:1005000027D034E021688903EAE721688901E7E719
:10051000616BC903E4E7FFF71DFFC11B2D48814252
:1005200023D860680007800F0128F4D123E0FFF78B
:1005300011FFC11B2748814217D860680007800F50
:100540000228F4D117E0FFF705FFC11B21488142C3
:100550000BD860680007800F0328F4D10BE0FFF789
:10056000F9FEC11B1B48814201D90320F8BD606818
:100570000007800FF3D115480168C907C90FB142C0
:100580000BD9016849084900314301600068C00780
:10059000C00FB04201D00120F8BD2878400706D531
:1005A0006068072109028843E9680843606000F039
:1005B0002DF86168084A0906090F515CC8400749CF
:1005C00008600020FFF720FF0020F8BD0020024057
:1005D0000010024088130000801E00081000002058
:1005E00001480068704700001000002004480549D9
:1005F00000684968044A4905490F515CC840704782
:100600001000002000100240901E000830B516A314
:100610000FCB89B06C460FC417A30FCB0FC41A4978
:100620004A680C20144604401848042C05D0184B86
:10063000082C04D00C2C00D1184609B030BD94020F
:10064000240F6D462C5DC96A04AD0907090FD2035A
:10065000695C920F022A02D0032A00D11846FFF7E4
:1006600065FD6043E9E70000020304050607080989
:100670000A0B0C0D0E0F10100102030405060708EB
:10068000090A0B0C0D0E0F100010024000127A0028
:10069000006CDC02FEB504460078F04EF04DC00759
:1006A00048D068680007800F01281FD068680007DD
:1006B000800F022804D16868C003800F022815D07B
:1006C0006168012919D001208004002901D0052981
:1006D00017D02968B143296029688143296060687F
:1006E00000281BD0FFF736FE074613E0286880037A
:1006F00020D56068002876D01CE028683043286048
:10070000EDE7296801432960F7E7FFF723FEC01BE7
:10071000642869D828688003F7D50BE0FFF71AFE34
:10072000074604E0FFF716FEC01B6428F1D82868CE
:100730008003F7D4207880073ED568680007800FD3
:1007400014D068680007800F022804D16868C003CD
:10075000800F01280AD0E068002828681DD00121F8
:1007600008432860FFF7F6FD07460BE0286880077E
:100770000BD5E068012836D107E0FFF7EBFDC01B81
:100780000228C6D828688007F7D52868F82188434A
:100790002169C900084328600EE040084000286035
:1007A000FFF7D8FD074604E0FFF7D4FDC01B022881
:1007B000AFD828688007F7D42078000724D5E069EF
:1007C0000028686A11D0012108436862FFF7C2FD62
:1007D000074604E0FFF7BEFDC01B022899D8686AEF
:1007E0008007F7D510E036E1D1E0400840006862AC
:1007F000FFF7B0FD074604E0FFF7ACFDC01B022881
:1008000087D8686A8007F7D4207804274007002833
:1008100061DA00200190E869C00008D4E969B806EF
:100820000143E961E96901400120009101908D488F
:100830000168C90511D40168821511430160FFF7F1
:1008400089FD009005E0FFF785FD0099401A6428B6
:1008500097D884480068C005F5D5A06801280AD05B
:10086000002801D0052811D0286A400840002862DD
:10087000286AB84302E0286A012108432862A06878
:10088000002812D0FFF766FD00900AE0286A38437E
:100890002862F0E7FFF75EFD0099411A7248814235
:1008A00075D8286A8007F5D50DE0FFF753FD009055
:1008B00006E0FFF74FFD0099411A6B48814266D868
:1008C000286A8007F5D40198002804D0E96901203E
:1008D00000078143E9612078C00635D560690128A9
:1008E0000CD0401D686B24D038436863686B4008A7
:1008F00040006863FFF72EFD074622E0686B38432F
:100900006863686B012108436863FFF723FD0746AE
:1009100004E0FFF71FFDC01B022838D8686B800772
:10092000F7D5686BF8218843A169C900084368635B
:100930000AE0B8436863F4E7FFF70CFDC01B022828
:1009400025D8686B8007F7D42078800637D568688B
:100950000007800F032813D068680007800F022863
:1009600004D16868C003800F032809D0206A0028DA
:10097000686B16D030436863FFF7ECFC06460CE06A
:10098000686BC0031BD5206A012864D117E05BE0C7
:10099000FFF7E0FC801B022856D8686BC003F7D530
:1009A0000DE0B0436863FFF7D5FC064604E0FFF7AF
:1009B000D1FC801B022847D8686BC003F7D4606A5B
:1009C000002846D069680907890F022943D001260B
:1009D00036060228286805D0B0432860FFF7BAFC25
:1009E000044633E0B0432860FFF7B4FC074604E058
:1009F000FFF7B0FCC01B022826D828688001F7D476
:100A0000E86A216B000900010843E862A16AE06A14
:100A1000084369687B22D2039143084368602868D1
:100A200030432860FFF796FC044604E0FFF792FC91
:100A3000001B022808D828688001F7D509E0FFF7D5
:100A400089FC001B022801D90320FEBD2868800113
:100A5000F5D40020FEBD0120FEBD00000000010015
:100A60000010024000700040881300007047000032
:100A7000F8B504460068426881684B0605D4CB0788
:100A800003D0530601D5E16C04E08B0705D51306AE
:100A900003D5216D20468847F8BDFF2361331942F5
:100AA000FAD09306F8D523464D064033002D09DAD7
:100AB0005D7F032D3CD0256E042635432566C56831
:100AC000856800958E060125002E08DA266E2E43D5
:100AD00026668668009606684027BE430660C805FD
:100AE00006D5206E082108432066206880680090A3
:100AF000206E0028D0D020684168E026B1434160D4
:100B00005D77900718D020684168890889004160A6
:100B1000A06D0B4D002803D04563A06DFFF740FB8F
:100B2000606D0028B8D04563606DFFF739FBF8BDF4
:100B3000C16880680090F8BD2046FFF797FFF8BDB8
:100B4000FB130008F8B5040007D000262546403501
:100B5000A662687F002802D005E00120F8BD2E774C
:100B6000204600F04BF802236B7720680168402292
:100B7000914301600721E0680902884201D90022FF
:100B800001E0012212030F273F02B84202D088423F
:100B900000D0A662276B002F05D1884201D92363BC
:100BA00001E001202063A16860686369084321694E
:100BB000194308430123A1695B0219400843E16915
:100BC0000843216A0843A16A084321680860616BF1
:100BD000606AA36908431B0C0427E1683B40194382
:100BE00008432168104348602068C1697A02914334
:100BF000C1612666012068770020F8BD00B5006855
:100C0000114987B088421DD11048826981140A4376
:100C10008261806908400590F020009002200190D8
:100C20000021032003900291049109206946C00627
:100C3000FFF7E8FA002211461920FFF723FC1920DC
:100C4000FFF716FC07B000BD003001400010024065
:100C500070470000F0B504468C464034217F0025E3
:100C6000C768964601290CD001212177667F41682B
:100C7000012E0CD0CA1FFD3A07D18168002904D18A
:100C800001E00220F0BD042E01D0022540E06146C3
:100C900000291BD07146002918D0002B16D0617F87
:100CA000042901D005216177002101666146816335
:100CB0008387C38771460164A380E380072109020B
:100CC0008F4205D9144AC264144A04E001251FE08A
:100CD000134AC264134A0265012212038F4202D8EA
:100CE000E188022903D301684B68934302E001685D
:100CF0004B6813434B6001684A68E0231A434A601B
:100D000000680168490603D401684022114301606C
:100D1000002020772846F0BD991200082D13000806
:100D2000CF1200086113000870B501221102254896
:100D3000FFF70AFBFFF70EFB23491E30234C4860E8
:100D400020780125DE2800D00D70A078082802D078
:100D5000012807D02EE01D48A2792179203000F02B
:100D600065FF27E0194820212038FFF7FCF91748D4
:100D7000CD21203801706178417080268670052170
:100D8000C17000214171817108220446C5714C3443
:100D9000635C002B0BD0022B02D0012B02D004E0AD
:100DA000815402E00B4633438354521CD2B2491C97
:100DB0001029EDDB054A2023D11A0548FFF74AFF29
:100DC00070BD000000040048040000205401002011
:100DD00020000020042204490428086902D090431E
:100DE000086170471043FBE700E000E07047000037
:100DF000094910B5401E884201D9012010BD074C99
:100E000060610321081F00F01BFA0020A061072089
:100E10002061002010BD0000FFFFFF0000E000E0A7
:100E200010B5FFF7E3FF10BD70B502462032137F07
:100E3000012B1BD0012313770224547704686568C3
:100E40007026B5436560046865680E683543656063
:100E50000468A5688026B543A56000688468496871
:100E60000C43846053770020107770BD022070BD62
:100E700070B5040005D025462035687F002802D0D3
:100E800006E0012070BD00202877204600F00AF817
:100E900002206877211D206800F0D2FB01206877CE
:100EA000002070BD08B5006801218907884207D17C
:100EB0000448C16901221143C161C069104000901A
:100EC00008BD0000001002400222014620314A778E
:100ED00002681368012003431360487700207047BD
:100EE000F8B5054604462035287F012817D001278C
:100EF0002F7702206877226890687726FF23B04317
:100F00001B02984390600868502837D00EDC2028D8
:100F100057D006DC00284ED0102840D14EE00220E9
:100F2000F8BD302850D0402839D13CE060282DD081
:100F3000702817D001221203801A0ED090422ED1B1
:100F4000CB684A688968206800F0BCFB206881682B
:100F5000012292031143816021E020688168C90861
:100F6000C900F8E7CB684A688968206800F0AAFBE6
:100F700021688868B0433043886010E0CA684968D7
:100F8000206800F0B2FB5021206806E0CA6849687A
:100F9000206800F0BBFB6021206800F09EFB6F77AB
:100FA00000202877F8BDCA684968206800F09DFBDA
:100FB00040212068F1E700212068EEE71021206839
:100FC000EBE720212068E8E730212068E5E7000012
:100FD00000B500680E4987B0884216D10D48C26935
:100FE000012149040A43C261C069084005900420F8
:100FF000009012200190012103200390029104919E
:1010000009206946C006FFF7FDF807B000BD0000E3
:101010000044004000100240FFB50646044660361A
:10102000707A83B00D46202858D1002D0CD0059839
:10103000002809D00120A1680003814207D120695E
:10104000002804D1E80702D0012007B0F0BD307AB3
:10105000012843D0012030720020E0662120707208
:10106000FFF778F9019027464037059838820598B0
:10107000788218E0788A401E7882069800900022D4
:1010800080212046019B00F085FC002818D101201A
:10109000A1680003814202D12069002812D0216892
:1010A000287808856D1C788A0028E3D1069800907E
:1010B000002240212046019B00F06CFC002808D053
:1010C0000320C2E728882168C005C00D0885AD1C33
:1010D000E9E72020707200203072B6E70220B4E702
:1010E000FEE70000F0B5214887B04269012189047C
:1010F0000A43426142690A400592426949100A4323
:10110000426140691A4E08404C1205900022214667
:101110003046FFF719F90921CF0601223846FFF7BB
:1011200013F900940120002401900294694630468E
:101130000394FFF767F809200090112001900294B2
:10114000694603943846FFF75DF802250095694625
:10115000384602950194FFF755F8019469463046E8
:1011600000950294FFF74EF807B0F0BD0010024062
:101170000004004810B50D480B4901600021416092
:101180008160016141618161072201621202416255
:10119000C260816207220163C2624163FFF7D2FC31
:1011A000002800D0FEE710BD0030014020000020E4
:1011B00010B50121124886B08907016000242F2153
:1011C000846041600461611E8461C160FFF750FE6C
:1011D000002800D0FEE7012000030090694608487F
:1011E000FFF77EFE002800D0FEE7049404A904481F
:1011F0000594FFF719FE002800D0FEE706B010BDE9
:101200008400002010B50C480A490160E121490220
:10121000416000218160C16001618161C16108227A
:10122000016242614162FFF79BF8002800D0FEE7AF
:1012300010BD000000440040C400002070470000C2
:101240008307FF22DB0E9A408907090E9940002888
:101250000BDA0007000F0838830808489B001818AD
:10126000C36993430B43C3617047830804489B00E1
:101270001B181868904308431860704700ED00E0A1
:1012800000E400E07047000010B50248FFF7F0FBF3
:1012900010BD00002000002010B50168C968026C74
:1012A0001180016C891C016401464031CA88521EBC
:1012B000CA80C988002909D101684A6840239A4335
:1012C0004A60C18F002901D100F06EF810BD10B541
:1012D00001464031CC880368026C012C11D9DB68CF
:1012E0001380026C921C0264CA88921ECA80CA884B
:1012F000012A0DD10268536801242403234353605B
:1013000006E01C7B531C03641470CA88521ECA80FA
:10131000C988002909D101684A6860239A434A6054
:10132000C18F002901D100F03FF810BD10B5816BCD
:1013300002680988D160816B891C8163C18F491E55
:10134000C187C18F00290AD101684A6880239A4366
:101350004A604621095A002901D100F025F810BD44
:1013600010B5C38F0268816B022B07D30988D16047
:10137000816B891C8163C18F891E05E04B1C8363CF
:1013800009781173C18F491EC187C18F00290AD105
:1013900001684A6880239A434A604621095A002915
:1013A00001D100F001F810BD70B50446FEF7D2FF80
:1013B0000246206841682025A943416064212046F7
:1013C00000F024F8002802D0206E28432066226E08
:1013D000204601214030002A04D041772046FFF703
:1013E00045FB70BD427F4177042A204602D0FFF7BB
:1013F0009BFC70BDFFF72CFC70BD10B5406A00214E
:1014000046221152C187FFF731FB10BDF8B50F46D8
:101410000B4615460092032104460022C90200F043
:101420001BF82026002812D13B46002280212046AE
:10143000009500F05CF8002809D103213B4600220A
:1014400049022046009500F007F8002803D0206EDE
:10145000304320660320F8BDF8B51D4617460E46FA
:1014600004463DE0032149028E4205D1002F03D1FD
:10147000017B684601700078681C31D0002D05D0D2
:10148000FEF768FF0699401AA84229D320684168F0
:10149000E022914341606068C11FFD390CD10121F8
:1014A000A068C903884202D04911884204D120684B
:1014B00001684022914301600120A16A40038142FA
:1014C00007D121680A6882430A6021680A680243DA
:1014D0000A60012040346077002020770320F8BDA7
:1014E000206881683140B942BCD10020F8BDF8B510
:1014F0001D4617460E46044633E0681C31D0002DC9
:1015000005D0FEF727FF0699401AA84229D3206884
:101510004168E022914341606068C11FFD390CD1F0
:101520000121A068C903884202D04911884204D130
:10153000206801684022914301600120A16A4003B4
:10154000814207D121680A6882430A6021680A68DB
:1015500002430A6001204034607700202077032096
:10156000F8BD206881683046884304D00020B84226
:10157000C3D10020F8BD0120F9E7704710B5FEF790
:101580002BFFFFF74DFC10BD10B592B0202000904E
:1015900001200024089009946846FFF77BF8002892
:1015A00000D0FEE707200D9003200E900F9401213C
:1015B00010940DA8FEF76AFF002800D0FEE7FFF7A1
:1015C0000FF87D21C900FEF7B1FDFFF711FC0420E3
:1015D000FFF700FC00221146501EFEF753FF12B029
:1015E00010BD0000134801680122114301604168E9
:1015F000114A114041600168104A114001600168C0
:10160000012292049143016041683F2212049143F8
:101610004160C16A09090901C162016BFF22D4322C
:1016200091430163416B4908490041630021816096
:1016300070470000001002400CB8FF08FFFFF6FEE4
:10164000F0B502681A4B0124A4071A4D984203D042
:10165000A04201D0A84203D17026B2434E68324363
:10166000154E164F98420AD0A04208D0A84206D084
:10167000134CA04203D0B04201D0B84204D103249D
:101680002402A243CC6822438024A2434C69224313
:1016900002608A68C2620A688262984203D0B042DD
:1016A00001D0B84201D10969016301214161F0BD56
:1016B000002C01400004004000440140004801406B
:1016C0000020004030B58468FF252D021B02134323
:1016D000AC430B432343836030BD826870239A433D
:1016E0000A4307210A438260704730B5036A046ADF
:1016F0006408640004628469F025AC43120122434B
:101700000A24A3430B438261036230BD30B5036AF0
:101710001024A34303628469036A0F252D03120377
:10172000AC432243A024A34309011943826101620F
:1017300030BD10B5818CC90707D001684A68012304
:101740005B049A43836A1A434A60818C890707D5F0
:1017500001684A6801231B049A43C36A1A434A601A
:10176000818C490707D501684A6801239B049A4385
:10177000036B1A434A60818C090707D501684A68E0
:101780000123DB039A43436B1A434A60818CC906E9
:1017900007D50268916801231B039943836B1943A2
:1017A0009160818C890607D501688A6801235B03F3
:1017B0009A43C36B1A438A60818C490612D5036829
:1017C0005A6801210905046C8A4322435A60026C5D
:1017D0008A4207D10268516803235B059943436C31
:1017E00019435160818C090607D501684A680123B5
:1017F000DB04806C9A4302434A6010BDF8B50026B2
:101800000446C666FEF7A6FD0546144920688842D0
:101810001DD10068124F000709D501212B46002277
:1018200049052046009700F0B5F800280DD1206842
:10183000006840070BD501212B4600228905204670
:10184000009700F0A7F8002801D00320F8BD202061
:1018500060346072A07226720020F8BD003801402A
:10186000FFFFFF01F8B504462369A268E5691A4342
:10187000636910202B43002125681A432B680E460C
:101880003E4F3B4013432B6023685A6803252D03CA
:10189000AA43E5682A435A60236AA26925681A4365
:1018A000AB680B273F02BB431343AB60344A256848
:1018B000954210D1334A126B9207920F0ED0012A33
:1018C00005D0022A05D0032A09D1022007E004200E
:1018D00005E0082003E02C4A954200D100200122B7
:1018E000E369D203934224D100280CD002280DD002
:1018F000042813D0082817D001260A091201080766
:10190000400F10432FE0FEF771FE09E061681F4AA7
:1019100048088018FEF70AFC81B2EEE7FEF776FE73
:10192000616840004A08F4E761680122480812042F
:10193000EFE7002808D0022809D004280BD0082897
:1019400014D001263046F8BDFEF750FE05E0616870
:101950000F4A48080CE0FEF759FE61684A088018F3
:10196000FEF7E4FB80B22168C860EBE761684808D5
:101970008018FEF7DBFB80B2E860E3E7F369FFEF76
:101980000038014000100240004400400024F400F0
:1019900000127A00FFB581B017460E4604460A9D34
:1019A0001DE0681C1BD0002D05D0FEF7D3FC049968
:1019B000401AA84213D920680168FF22A13291433E
:1019C00001602068816849084900816020206034F6
:1019D0006072A07200202072032005B0F0BD206864
:1019E000C1693046884304D00020B842D9D00020D5
:1019F000F3E70120F9E700000FB410B503A9044B89
:101A0000044A029800F018F810BC08BC04B018474B
:101A1000151C00081400002002E008C8121F08C1AD
:101A2000002AFAD170477047002001E001C1121F5F
:101A3000002AFBD170470000FFB58DB00F46054668
:101A4000002606E025280AD0109A0F9990476D1CB1
:101A5000761C28780028F5D1304611B0F0BD00245E
:101A60000121674A009400E004436D1C2B7808466E
:101A7000203B98401042F7D128782E2815D1042019
:101A8000044368786D1C2A280AD101CF6D1C009090
:101A90000BE000990A225143303940186D1C009028
:101AA0002878014630390929F3D92878692843D0A4
:101AB00006DC0028D0D063280BD0642804D13BE09A
:101AC00073280FD075284CD0109A0F999047761C28
:101AD00094E03878694608720020487202A80190A4
:101AE000012003E0386801900020C0433F1D6107DA
:101AF0000CD5002400E0641C00998C420FDA84426B
:101B0000F9DB0199095D0029F5D108E0002400E026
:101B1000641C8442FCDB0199095D0029F8D1361967
:101B200007E0019801990078491C0191109A0F99DA
:101B30009047641EF5D261E00A20019001CF002891
:101B400002DA40422D2102E0210504D52B216A460C
:101B50001172012103E0E10701D02021F7E70C9188
:101B600004E00A20019001CF00210C910BA90B91F8
:101B700008E00199FEF7DAFA0A460B993032491E5D
:101B80000B910A700028F4D10B9803A9081A203091
:101B90000190600701D5009801E0012000900199B3
:101BA000884203DD01460198081A00E00020002465
:101BB000009006E002A8109A005D0F999047641CFF
:101BC000761C0C988442F5DB04E0109A30200F99C3
:101BD0009047761C0099481E00900029F5DC08E02B
:101BE0000B980B990078491C0B91109A0F9990470C
:101BF000761C0199481E01900029F1DC6D1C28E734
:101C00000928010010B502490860FFF75DF910BD11
:101C10000000002013B50A23012269460248FFF79D
:101C2000FBF900981CBD0000C400002010B50C4654
:101C3000034600F01FF8002801D0012010BD1978DC
:101C4000586844541978986842541878401C4007E2
:101C5000400F1870002010BD10B50446082000F099
:101C600073F86060082000F06FF8A060204600F074
:101C70000CF810BD41780078401C4007400F8142AD
:101C800001D1012070470020704710B504460020A4
:101C90002070607008216068FEF765FA0821A0686E
:101CA000FEF761FA10BD000008B5FEF79DFBFFF7D7
:101CB0006BFCFFF717FAFFF75DFAFFF7A3FAFFF7E0
:101CC00077FA0120002300901A46174917A0FFF762
:101CD00093FE1A48FFF796FF00F06CF81748F030B3
:101CE000FFF7BAFF15482021B030FEF73CFA134A3F
:101CF00012482023D032D11A6438FEF7ABFF104CC3
:101D0000FF25104E01352078002801D000F060F842
:101D1000FEF720FB61688842F5D90022294630464B
:101D2000FEF712FBEFE700004C1E0008257320763B
:101D300025642E25642E25640A00000084000020FE
:101D40000400002000040048F0B50B30C108C900B1
:101D5000144F0026144A0FE003688B420BD38B42CA
:101D600005D95C1A4318456830C3083B00E0436856
:101D7000136002C004E0021D10680028ECD1304658
:101D8000002803D13868002801D00020F0BD064AA1
:101D900006481060064A121AD208D20044C0012038
:101DA0003860D7E71C0000201800002094010020B4
:101DB0009003002005480021016641668166C166E6
:101DC000024901206031C8737047000020010020E3
:101DD00012A0FFF711FE144D0024295D13A0FFF798
:101DE0000BFE641C202CF8DB11A0FFF705FE00247D
:101DF000FF25134E013529463046FEF7A1FA64202F
:101E0000FEF7F2F9641C642CF5DBBFF34F8F0E492B
:101E10000C48C860BFF34F8F00BFFDE75350492007
:101E20004552524F520A0000540100202564200000
:101E30000A7265626F6F74696E672E2E2E0A00003B
:101E4000000400480400FA0500ED00E05553423458
:101E500056432050726F746F636F6C2043617264DD
:101E60000A5452532D3830204D6F64656C20494917
:101E70000A64656B754E756B656D203230323200C9
:101E8000000000000000000001020304060708092A
:101E90000000000001020304B81E0008000000203A
:101EA00020000000181A0008D81E0008200000209A
:101EB00070070000281A0008000000000000000061
:101EC000000000000000000000127A000000000086
:081ED00000000000000000000A
:04000005080000C12E
:00000001FF
