:020000040800F2
:10000000B8080020D5000008D91300081512000810
:1000100000000000000000000000000000000000E0
:10002000000000000000000000000000171700089A
:10003000000000000000000021140008191700084B
:10004000E7000008E7000008E7000008E7000008F4
:10005000E7000008E700000889010008E700000841
:10006000E7000008E7000008E7000008E7000008D4
:10007000E7000008E7000008E7000008E7000008C4
:10008000E7000008E7000008E7000008E7000008B4
:10009000E7000008E7000008E7000008E7000008A4
:1000A000E700000825140008E7000008E700000842
:1000B000E7000008E7000008E7000008E700000884
:1000C0000348854600F04EF800480047311D0008FF
:1000D000B80800200448804704480047FEE7FEE7D0
:1000E000FEE7FEE7FEE7FEE79D170008C1000008F7
:1000F00030B50B46014600202022012409E00D46C0
:10010000D5409D4205D31D469540491B2546954047
:1001100040191546521E002DF1DC30BD03460B433D
:100120009B0703D009E008C9121F08C0042AFAD2AD
:1001300003E00B780370401C491C521EF9D2704733
:10014000D2B201E00270401C491EFBD2704700226F
:10015000F6E710B513460A4604461946FFF7F0FFC6
:10016000204610BD064C0125064E05E0E36807CC8D
:100170002B430C3C98471034B442F7D3FFF7A4FF4D
:100180007C1E00089C1E000810B5042000F050F8EA
:1001900010BD70B50024014620314A78022A03D0F0
:1001A00004218163012416E0026813680E25AB4325
:1001B0001360026813685B085B0013600122056C22
:1001C0001346AB40C56B6B604A7000220A70416BEE
:1001D000002900D08847204670BD0000F0B50126F8
:1001E0000921104DF603104FC90610487202036929
:1001F0005B045C0E63076406240F2C5D5B0F002C10
:100200000CD08661FB5C002B03D0FF2301338B6194
:1002100000E08A6103695B07E9D5F0BD0123DB07D4
:100220008361F6E7A40200200700002000040048D4
:1002300010B504494A69024202D04861FFF7CEFF77
:1002400010BD000000040140F8B5002393E02246F1
:1002500001249C40A44622407ED04C68022C01D050
:10026000122C0CD1DC08A40027183C6A5D07ED0EA7
:100270000F26AE40B4430E69AE4026433E62056889
:100280005E000324B4400F79A543BF07BF0FB740FA
:100290002F4307604D68012D05D0022D03D0112D8D
:1002A00001D0122D0ED18568CF68A543B7402F43EA
:1002B000876047686546AF430D79ED06ED0F9D40B9
:1002C0003D434560C568A5438C68B4402C43C46079
:1002D0004C68E4004ED52B4CA56901263543A56139
:1002E000A4699D0834400094274CAD002F19BC68C8
:1002F0009D072E0F0F25B540AC430925ED06A842FA
:1003000001D1002514E0214DA84201D101250FE0C3
:100310001F4DA84201D102250AE01E4DA84201D17D
:10032000032505E01C4DA84201D1042500E0052568
:10033000B5402543BD60194C25684E689543F603CA
:1003400000D51543256065684E689543B60300D512
:1003500015436560A56800E00CE04E689543F60221
:1003600000D51543A560E5684E689543B60200D5F3
:100370001543E5605B1C0A681446DA4000D066E766
:10038000F8BD0000001002400000014000040048D9
:1003900000080048000C004800100048000401401C
:1003A000002A01D08161704781627047014800686E
:1003B000704700001000002070B5040005D02546ED
:1003C0006035687A002802D006E0012070BD002068
:1003D0002872204600F096FE24206872206801688A
:1003E000490849000160204601F026FB0128EDD0B4
:1003F000606A002802D0204601F07FFA2068416838
:100400000922D202914341602068816822229143EF
:10041000816020688168082211438160206801683A
:10042000012211430160204601F0CCFA70BD0000AA
:1004300002480168491C016070470000100000205C
:1004400010B506480168102211430160002000F039
:1004500007F800F017F8002010BD0000002002404F
:1004600010B5044600F078F97D21C900FFF740FE81
:1004700000F058FD00222146501E00F02FF8002009
:1004800010BD000008B50F48816901221143816148
:10049000816911400091C26901040A43C261C069C7
:1004A0000022084000901146501F00F017F800226B
:1004B0001146901E00F012F800221146501E00F066
:1004C0000DF808BD00100240C106C90E0120884089
:1004D000014908607047000000E100E010B500F03D
:1004E0007DFF10BDF8B504460068434DC00352D5EA
:1004F000E8690026C00007D4E96928040143E961DE
:10050000E9690140012600913C480168C90510D401
:100510000168821511430160FFF748FF074604E0B8
:10052000FFF744FFC01B642824D834480068C00586
:10053000F6D5286A03273F02384020D06168394049
:1005400081421CD0286A2A6AB843012109040A435F
:100550002A622A6A8A432A622862C0070FD0FFF7FC
:1005600025FF009008E0FFF721FF0099411A244879
:10057000814201D90320F8BD286A8007F3D5286A93
:100580006168B84308432862002E04D0E86901215D
:1005900009078843E8612078C00705D0286BA16867
:1005A00080088000084328632078800706D5286BE0
:1005B000032109048843E168084328632078800602
:1005C00005D5286B102188432169084328632068DA
:1005D000800305D5286B80218843A16908432863DF
:1005E0002088400505D5286B402188436169084370
:1005F00028630020F8BD0000001002400070004099
:1006000088130000F8B505464E480E460068C0073E
:10061000C00FB0420AD24B48016849084900314333
:1006200001600068C007C00FB04270D12878464C06
:10063000800705D56068F0218843A9680843606099
:100640002878C00753D06868012817D0022818D02E
:10065000032819D021688907002958DA61688908B8
:10066000890001436160FFF7A1FE6968074601291F
:1006700013D002291DD0032927D034E02168890333
:10068000EAE721688901E7E7616BC903E4E7FFF75F
:100690008DFEC11B2D48814223D860680007800F62
:1006A0000128F4D123E0FFF781FEC11B27488142D6
:1006B00017D860680007800F0228F4D117E0FFF711
:1006C00075FEC11B214881420BD860680007800F6E
:1006D0000328F4D10BE0FFF769FEC11B1B488142E0
:1006E00001D90320F8BD60680007800FF3D11548D9
:1006F0000168C907C90FB1420BD90168490849000F
:10070000314301600068C007C00FB04201D0012032
:10071000F8BD2878400706D560680721090288439C
:10072000E9680843606000F02DF86168084A09062E
:10073000090F515CC840074908600020FFF790FE90
:100740000020F8BD00200240001002408813000085
:10075000641E000814000020014800687047000073
:10076000140000200448054900684968044A490506
:10077000490F515CC840704714000020001002402F
:10078000741E000830B516A30FCB89B06C460FC499
:1007900017A30FCB0FC41A494A680C201446044013
:1007A0001848042C05D0184B082C04D00C2C00D170
:1007B000184609B030BD9402240F6D462C5DC96AFD
:1007C00004AD0907090FD203695C920F022A02D017
:1007D000032A00D11846FFF78BFC6043E9E70000CD
:1007E00002030405060708090A0B0C0D0E0F101072
:1007F0000102030405060708090A0B0C0D0E0F1071
:100800000010024000127A00006CDC02FEB50446C3
:100810000078F04EF04DC00748D068680007800FA0
:1008200001281FD068680007800F022804D168687B
:10083000C003800F022815D06168012919D001205A
:100840008004002901D0052917D02968B143296007
:10085000296881432960606800281BD0FFF7A6FD46
:10086000074613E02868800320D56068002876D00A
:100870001CE0286830432860EDE7296801432960BF
:10088000F7E7FFF793FDC01B642869D82868800349
:10089000F7D50BE0FFF78AFD074604E0FFF786FD7A
:1008A000C01B6428F1D828688003F7D4207880071B
:1008B0003ED568680007800F14D068680007800F75
:1008C000022804D16868C003800F01280AD0E068BC
:1008D000002828681DD0012108432860FFF766FD25
:1008E00007460BE0286880070BD5E068012836D161
:1008F00007E0FFF75BFDC01B0228C6D82868800709
:10090000F7D52868F82188432169C9000843286081
:100910000EE0400840002860FFF748FD074604E06D
:10092000FFF744FDC01B0228AFD828688007F7D422
:100930002078000724D5E0690028686A11D00121D9
:1009400008436862FFF732FD074604E0FFF72EFD1B
:10095000C01B022899D8686A8007F7D510E036E1F5
:10096000D1E0400840006862FFF720FD074604E040
:10097000FFF71CFDC01B022887D8686A8007F7D4E0
:10098000207804274007002861DA00200190E869F8
:10099000C00008D4E969B8060143E961E96901408A
:1009A0000120009101908D480168C90511D40168AA
:1009B000821511430160FFF7F9FC009005E0FFF795
:1009C000F5FC0099401A642897D884480068C0054F
:1009D000F5D5A06801280AD0002801D0052811D03B
:1009E000286A400840002862286AB84302E0286A62
:1009F000012108432862A068002812D0FFF7D6FC26
:100A000000900AE0286A38432862F0E7FFF7CEFC3E
:100A10000099411A7248814275D8286A8007F5D535
:100A20000DE0FFF7C3FC009006E0FFF7BFFC009964
:100A3000411A6B48814266D8286A8007F5D401982C
:100A4000002804D0E969012000078143E96120788A
:100A5000C00635D5606901280CD0401D686B24D0D4
:100A600038436863686B400840006863FFF79EFC8A
:100A7000074622E0686B38436863686B01210843CE
:100A80006863FFF793FC074604E0FFF78FFCC01B89
:100A9000022838D8686B8007F7D5686BF82188433F
:100AA000A169C900084368630AE0B8436863F4E7D2
:100AB000FFF77CFCC01B022825D8686B8007F7D4A1
:100AC0002078800637D568680007800F032813D088
:100AD00068680007800F022804D16868C003800F8F
:100AE000032809D0206A0028686B16D03043686359
:100AF000FFF75CFC06460CE0686BC0031BD5206A60
:100B0000012864D117E05BE0FFF750FC801B02284E
:100B100056D8686BC003F7D50DE0B0436863FFF7A4
:100B200045FC064604E0FFF741FC801B022847D83D
:100B3000686BC003F7D4606A002846D0696809076B
:100B4000890F022943D0012636060228286805D0DD
:100B5000B0432860FFF72AFC044633E0B043286026
:100B6000FFF724FC074604E0FFF720FCC01B022827
:100B700026D828688001F7D4E86A216B00090001B3
:100B80000843E862A16AE06A084369687B22D203ED
:100B9000914308436860286830432860FFF706FCEB
:100BA000044604E0FFF702FC001B022808D828686E
:100BB0008001F7D509E0FFF7F9FB001B022801D9F6
:100BC0000320FEBD28688001F5D40020FEBD012071
:100BD000FEBD000000000100001002400070004057
:100BE0008813000070470000F8B5044600684268AA
:100BF00081684B0605D4CB0703D0530601D5E16CC1
:100C000004E08B0705D5130603D5216D20468847E0
:100C1000F8BDFF2361331942FAD09306F8D5234675
:100C20004D064033002D09DA5D7F032D3CD0256E43
:100C3000042635432566C568856800958E0601251E
:100C4000002E08DA266E2E43266686680096066811
:100C50004027BE430660C80506D5206E082108431C
:100C60002066206880680090206E0028D0D0206820
:100C70004168E026B14341605D77900718D0206855
:100C80004168890889004160A06D0B4D002803D0A0
:100C90004563A06DFFF77DFA606D0028B8D045630D
:100CA000606DFFF776FAF8BDC16880680090F8BD06
:100CB0002046FFF797FFF8BD97150008F8B5040028
:100CC00007D0002625464035A662687F002802D05E
:100CD00005E00120F8BD2E77204600F04BF80223F6
:100CE0006B77206801684022914301600721E0682A
:100CF0000902884201D9002201E0012212030F27D4
:100D00003F02B84202D0884200D0A662276B002F73
:100D100005D1884201D9236301E001202063A16845
:100D20006068636908432169194308430123A16985
:100D30005B0219400843E1690843216A0843A16A3C
:100D4000084321680860616B606AA36908431B0C53
:100D50000427E1683B401943084321681043486079
:100D60002068C1697A029143C161266601206877D3
:100D70000020F8BD00B50068114987B088421DD138
:100D80001048826981140A43826180690840059095
:100D9000F020009002200190002103200390029196
:100DA000049109206946C006FFF74EFA0022114659
:100DB0001920FFF793FB1920FFF786FB07B000BD52
:100DC000003001400010024070470000F0B50446BA
:100DD0008C464034217F0025C768964601290CD0F7
:100DE00001212177667F4168012E0CD0CA1FFD3A90
:100DF00007D18168002904D101E00220F0BD042E52
:100E000001D0022540E0614600291BD0714600292F
:100E100018D0002B16D0617F042901D005216177FD
:100E200000210166614681638387C387714601643F
:100E3000A380E380072109028F4205D9144AC264C6
:100E4000144A04E001251FE0134AC264134A0265F4
:100E5000012212038F4202D8E188022903D30168DC
:100E60004B68934302E001684B6813434B60016891
:100E70004A68E0231A434A6000680168490603D4BF
:100E80000168402211430160002020772846F0BD10
:100E900035140008C91400086B140008FD1400087C
:100EA00070B5012209251403ED0621462846FFF7F7
:100EB00077FA12492022881AFFF730F90F4B203BAE
:100EC0001878DE2803D00E490120087008E09878D1
:100ED000082805D109489A791979203000F0D2FE06
:100EE000064A2023114640390648FFF76FFF0022CB
:100EF00021462846FFF754FA70BD00007801002013
:100F00000400002024000020042204490428086969
:100F100002D09043086170471043FBE700E000E017
:100F200070470000094910B5401E884201D90120D0
:100F300010BD074C60610321081F00F04FFA00202C
:100F4000A06107202061002010BD0000FFFFFF000E
:100F500000E000E010B5FFF7E3FF10BD70B50246FA
:100F60002032137F012B1BD00123137702245477E7
:100F7000046865687026B5436560046865680E6836
:100F8000354365600468A5688026B543A5600068A0
:100F9000846849680C43846053770020107770BDE3
:100FA000022070BD70B5040005D025462035687F4D
:100FB000002802D006E0012070BD002028772046DE
:100FC00000F00AF802206877211D206800F014FC68
:100FD00001206877002070BD08B5006801218907ED
:100FE000884207D10448C16901221143C161C06927
:100FF0001040009008BD000000100240022201468F
:1010000020314A7702681368012003431360487750
:1010100000207047F8B5054604462035287F012892
:1010200017D001272F7702206877226890687726EB
:10103000FF23B0431B02984390600868502837D0C4
:101040000EDC202857D006DC00284ED0102840D1D6
:101050004EE00220F8BD302850D0402839D13CE085
:1010600060282DD0702817D001221203801A0ED0CC
:1010700090422ED1CB684A688968206800F006FC4F
:1010800020688168012292031143816021E0206879
:101090008168C908C900F8E7CB684A688968206890
:1010A00000F0F4FB21688868B0433043886010E0AA
:1010B000CA684968206800F0FCFB5021206806E0FF
:1010C000CA684968206800F005FC6021206800F0CB
:1010D000E8FB6F7700202877F8BDCA684968206868
:1010E00000F0E7FB40212068F1E700212068EEE7EF
:1010F00010212068EBE720212068E8E730212068F4
:10110000E5E7000000B500680E4987B0884216D1B7
:101110000D488269012189030A4382618069084080
:1011200005904811009012200190012103200390A6
:101130000291049109206946C006FFF785F807B0BF
:1011400000BD00000038014000100240FFB5064617
:1011500004466036707A83B00D46202858D1002DA1
:101160000CD00598002809D00120A1680003814215
:1011700007D12069002804D1E80702D0012007B078
:10118000F0BD307A012843D0012030720020E066A3
:1011900021207072FFF70AF9019027464037059821
:1011A00038820598788218E0788A401E78820698FE
:1011B0000090002280212046019B00F0EBFC0028DB
:1011C00018D10120A1680003814202D120690028C2
:1011D00012D02168287808856D1C788A0028E3D110
:1011E00006980090002240212046019B00F0D2FC8E
:1011F000002808D00320C2E728882168C005C00D58
:101200000885AD1CE9E72020707200203072B6E737
:101210000220B4E7FEE70000F0B5384887B0426925
:10122000012189050A43426142690A4005924269E7
:1012300049110A43426142690A40059242694900E4
:101240000A43426140692E4F084005900022022166
:101250003846FFF7A5F80126F60300223146294853
:10126000FFF79EF81D21092000220902C006FFF7A2
:1012700097F8022000240125009002946946019508
:1012800003943846FEF7E0FF1F480090019469463A
:1012900002941C48FEF7D8FF042000901B480190E0
:1012A000694602941748FEF7CFFF00961126029474
:1012B0006946144801960394FEF7C6FF2802009081
:1012C00009200294694601960394C006FEF7BCFF0C
:1012D000072080020090092002946946019503943A
:1012E000C006FEF7B1FF002201210620FFF7F6F845
:1012F0000620FFF7E9F807B0F0BD0000001002403B
:101300000014004800040048027F00000000211083
:1013100010B50D480B4901600021416081600161F9
:10132000416181610722016212024162C2608162F1
:1013300007220163C2624163FFF7C0FC002800D0AE
:10134000FEE710BD003001402400002010B501214F
:10135000124886B08907016000242F218460416013
:101360000461611E8461C160FFF71CFE002800D08B
:10137000FEE701200003009069460848FFF74AFE97
:10138000002800D0FEE7049404A904480594FFF760
:10139000E5FD002800D0FEE706B010BD8800002063
:1013A00010B50C480A490160E12149024160002161
:1013B0008160C16001618161C1610C220162426191
:1013C0004162FEF7F9FF002800D0FEE710BD0000E3
:1013D00000380140C8000020704700008307FF224A
:1013E000DB0E9A408907090E994000280BDA0007A6
:1013F000000F0838830808489B001818C3699343F6
:101400000B43C3617047830804489B001B1818688E
:10141000904308431860704700ED00E000E400E0EE
:101420007047000010B50248FFF7DEFB10BD00005A
:101430002400002010B50168C968026C1180016C9D
:10144000891C016401464031CA88521ECA80C9887D
:10145000002909D101684A6840239A434A60C18F34
:10146000002901D100F06EF810BD10B501464031E1
:10147000CC880368026C012C11D9DB681380026CE4
:10148000921C0264CA88921ECA80CA88012A0DD1A1
:1014900002685368012424032343536006E01C7B45
:1014A000531C03641470CA88521ECA80C98800295C
:1014B00009D101684A6860239A434A60C18F0029B4
:1014C00001D100F03FF810BD10B5816B02680988AA
:1014D000D160816B891C8163C18F491EC187C18F17
:1014E00000290AD101684A6880239A434A6046214C
:1014F000095A002901D100F025F810BD10B5C38F9D
:101500000268816B022B07D30988D160816B891C2B
:101510008163C18F891E05E04B1C836309781173B9
:10152000C18F491EC187C18F00290AD101684A684D
:1015300080239A434A604621095A002901D100F0CC
:1015400001F810BD70B50446FEF730FF0246206872
:1015500041682025A94341606421204600F024F819
:10156000002802D0206E28432066226E20460121EA
:101570004030002A04D041772046FFF733FB70BD8E
:10158000427F4177042A204602D0FFF789FC70BDD4
:10159000FFF71AFC70BD10B5406A002146221152B7
:1015A000C187FFF71FFB10BDF8B50F460B46154668
:1015B0000092032104460022C90200F01BF82026F5
:1015C000002812D13B46002280212046009500F0E1
:1015D0005CF8002809D103213B460022490220463D
:1015E000009500F007F8002803D0206E30432066F5
:1015F0000320F8BDF8B51D4617460E4604463DE0EB
:10160000032149028E4205D1002F03D1017B684698
:1016100001700078681C31D0002D05D0FEF7C6FEA1
:101620000699401AA84229D320684168E0229143D4
:1016300041606068C11FFD390CD10121A068C90358
:10164000884202D04911884204D1206801684022B2
:10165000914301600120A16A4003814207D12168C2
:101660000A6882430A6021680A6802430A6001200E
:1016700040346077002020770320F8BD206881681F
:101680003140B942BCD10020F8BDF8B51D4617461F
:101690000E46044633E0681C31D0002D05D0FEF71D
:1016A00085FE0699401AA84229D320684168E022A5
:1016B000914341606068C11FFD390CD10121A068D0
:1016C000C903884202D04911884204D120680168C8
:1016D0004022914301600120A16A4003814207D169
:1016E00021680A6882430A6021680A6802430A6026
:1016F000012040346077002020770320F8BD206867
:1017000081683046884304D00020B842C3D100200D
:10171000F8BD0120F9E7704710B5FEF789FEFFF725
:1017200019FC10BD30B599B0022410200994049022
:101730000094C0020A9007200125C0040B90039575
:101740000C956846FFF762F8002800D0FEE70720F6
:101750000D9000200F9010900E9401210DA8FEF71F
:1017600051FF002800D0FEE7119511A81395FEF750
:10177000B9FE002800D0FEE7FEF7EEFF7D21C9008C
:10178000FEF7B6FCFFF7CEFB0420FFF7BDFB0022FF
:101790001146501EFEF7A2FE19B030BD1248016876
:1017A0000122114301604168104A11404160016803
:1017B0000F4A1140016001680122920491430160C7
:1017C00041683F22120491434160C16A090909013D
:1017D000C162016B074A11400163416B490849002E
:1017E0004163002181607047001002400CB8FF087F
:1017F000FFFFF6FE2CFEFCFFF0B502681D4B012436
:10180000A4071D4D984203D0A04201D0A84203D1A5
:101810007026B2434E683243184E194F98420DD08D
:10182000A0420BD0A84209D0164CA04206D0B0422C
:1018300004D0B84202D0144CA04204D103242402A4
:10184000A243CC6822438024A2434C692243026015
:101850008A68C2620A688262984206D0B04204D0A6
:10186000B84202D0084A904201D1096901630121BE
:101870004161F0BD002C01400004004000400140E7
:1018800000440140002000400048014030B5846819
:10189000FF252D021B021343AC430B4323438360FC
:1018A00030BD826870239A430A4307210A4382604D
:1018B000704730B5036A046A64086400046284698E
:1018C000F025AC43120122430A24A3430B43826157
:1018D000036230BD30B5036A1024A34303628469F8
:1018E000036A0F252D031203AC432243A024A34314
:1018F000090119438261016230BD10B5818CC907AD
:1019000007D001684A6801235B049A43836A1A433B
:101910004A60818C890707D501684A6801231B0446
:101920009A43C36A1A434A60818C490707D5016804
:101930004A6801239B049A43036B1A434A60818CD3
:10194000090707D501684A680123DB039A43436B03
:101950001A434A60818CC90607D502689168012341
:101960001B039943836B19439160818C890607D5CA
:1019700001688A6801235B039A43C36B1A438A6038
:10198000818C490612D503685A6801210905046C47
:101990008A4322435A60026C8A4207D10268516826
:1019A00003235B059943436C19435160818C0906FD
:1019B00007D501684A680123DB04806C9A4302431F
:1019C0004A6010BDF8B500260446C666FEF7EEFC78
:1019D000054616492068884202D0154988421DD123
:1019E0000068144F000709D501212B460022490544
:1019F0002046009700F0CEF800280DD1206800683E
:101A000040070BD501212B4600228905204600976F
:101A100000F0C0F8002801D00320F8BD2020603479
:101A20006072A07226720020F8BD000000380140EC
:101A300000440040FFFFFF01F8B504462369A26897
:101A4000E5691A43636910202B43002125681A4376
:101A50002B680E46474F3B4013432B6023685A6860
:101A600003252D03AA43E5682A435A60236AA26925
:101A700025681A43AB680B273F02BB431343AB6097
:101A80003D4F25683D4B0203BD420AD11B6B9B07AE
:101A90009B0F20D0012B14D0022B14D0032B1BD171
:101AA0000DE0374FBD4210D11B6B03273F043B4075
:101AB00011D09B1A05D09B1A05D093420CD102205D
:101AC0000AE0042008E0082006E02E4B9D4202D0E8
:101AD0002D4B9D4200D100200123E769DB039F428B
:101AE00022D100280CD002280DD0042813D00828B9
:101AF00017D001260A0912010807400F10432EE0F3
:101B0000FEF730FE09E06168204A48088018FEF7B9
:101B1000EFFA81B2EEE7FEF735FE616840004A0851
:101B2000F4E761684808F1E7002808D0022809D0E6
:101B300004280CD0082815D001263046F8BDFEF741
:101B400011FE06E06168124A480880180DE0FEF7B1
:101B500019FE61684A088018FEF7CAFA80B2216847
:101B6000C860EAE761684808C018FEF7C1FA80B2A9
:101B7000E860E2E7F369FFEF00380140001002403F
:101B80000044004000480040004C00400024F400A5
:101B900000127A00FFB581B017460E4604460A9D32
:101BA0001DE0681C1BD0002D05D0FEF7FFFB04993B
:101BB000401AA84213D920680168FF22A13291433C
:101BC00001602068816849084900816020206034F4
:101BD0006072A07200202072032005B0F0BD206862
:101BE000C1693046884304D00020B842D9D00020D3
:101BF000F3E70120F9E7000010B5024A024900F0BE
:101C000014F810BD6D1C00081800002002E008C880
:101C1000121F08C1002AFAD170477047002001E066
:101C200001C1121F002AFBD17047F8B516460F46B6
:101C30000446002503E03946B047641C6D1C20783B
:101C40000028F8D12846F8BD00B5014600F002F999
:101C5000411800F0FFF88842FBD300BD10B50249DF
:101C60000860FFF7CBF910BD0000002013B5642316
:101C7000012269460248FFF769FA00981CBD00007E
:101C8000C800002010B50C46034600F01FF80028DD
:101C900001D0012010BD197858684454197898680B
:101CA00042541878401C4007400F1870002010BDA7
:101CB00010B50446082000F097F86060082000F096
:101CC00093F8A060204600F025F810BD4178007818
:101CD000401C4007400F814201D101207047002085
:101CE000704710B543780478A34201D1012010BD9C
:101CF0004468E35C0B7081684078085C10700020D9
:101D000010BD41780278914203D0491C4907490F20
:101D10004170704710B504460020207060700821A3
:101D20006068FEF714FA0821A068FEF710FA10BDEB
:101D3000FEF786FBFFF7F6FCFFF76EFAFFF7E8FA0F
:101D4000FFF72EFBFFF702FB2048FFF7B1FF20480B
:101D5000FFF784FF1FA0FFF74FFF01261F4CF60778
:101D6000A661A0030921C9068861184820216038AE
:101D7000FEF7EDF9154A1648203A1146202340395E
:101D80006438FFF723F8164D164F154A0F48921C7A
:101D9000511EFFF7A6FF0028F7D1A878012808D127
:101DA0000F497870C91C0871C003A0610120FFF7BA
:101DB0004BFFA878002803D109497870C91C087125
:101DC000A6610248FFF79DFFDFE7000098010020B1
:101DD0008800002068656C6C6F0A000000040048F1
:101DE00004000020A4020020F0B50B30C108C90097
:101DF000144F0026144A0FE003688B420BD38B422A
:101E000005D95C1A4318456830C3083B00E04368B5
:101E1000136002C004E0021D10680028ECD13046B7
:101E2000002803D13868002801D00020F0BD064A00
:101E300006481060064A121AD208D20044C0012097
:101E40003860D7E7200000201C000020BC020020E2
:101E5000B8040020024800680068406A704700002B
:101E60000000002000000000000000000102030448
:101E70000607080900000000010203049C1E000878
:101E800000000020240000000C1C0008C01E0008F8
:101E900024000020940800001C1C00080000000022
:101EA0000000000000000000000000000000000032
:101EB00000127A0000000000000000000000000096
:04000005080000C12E
:00000001FF
