:020000040800F2
:10000000E0070020D5000008411200083F12000858
:1000100000000000000000000000000000000000E0
:10002000000000000000000000000000371500087C
:10003000000000000000000043120008391500080D
:10004000E7000008E7000008E7000008E7000008F4
:10005000E7000008E700000889010008E700000841
:10006000E7000008E7000008E7000008E7000008D4
:10007000E7000008E7000008E7000008E7000008C4
:10008000E7000008E7000008E7000008E7000008B4
:10009000E7000008E7000008E7000008E7000008A4
:1000A000E700000845120008E7000008E700000824
:1000B000E7000008E7000008E7000008E700000884
:1000C0000348854600F04EF80048004761190008D3
:1000D000E00700200448804704480047FEE7FEE7A9
:1000E000FEE7FEE7FEE7FEE745150008C100000851
:1000F00030B50B46014600202022012409E00D46C0
:10010000D5409D4205D31D469540491B2546954047
:1001100040191546521E002DF1DC30BD03460B433D
:100120009B0703D009E008C9121F08C0042AFAD2AD
:1001300003E00B780370401C491C521EF9D2704733
:10014000D2B201E00270401C491EFBD2704700226F
:10015000F6E710B513460A4604461946FFF7F0FFC6
:10016000204610BD064C0125064E05E0E36807CC8D
:100170002B430C3C98471034B442F7D3FFF7A4FF4D
:100180004C1E00086C1E000810B5042000F062F838
:1001900010BD70B50024014620314A78022A03D0F0
:1001A00004218163012416E0026813680E25AB4325
:1001B0001360026813685B085B0013600122056C22
:1001C0001346AB40C56B6B604A7000220A70416BEE
:1001D000002900D08847204670BD0000F0B40121FE
:1001E0001848C90781610923174A184FDB068503A0
:1001F00001694904490E4C074906090F565C640F12
:10020000002E10D00126F6038661C900C919095DC8
:10021000002906D0F11199610D494C68641C4C60AD
:1002200005E09D6103E00121C90781619D610169CC
:100230004907DDD50121C9078161C80D9861F0BC6E
:1002400070470000000400484401002054010020D1
:10025000D401002004494A69024204D010B5486123
:10026000FFF7BCFF10BD7047000401400B6800227F
:10027000002B6FD0F8B401270B6897403B406AD041
:100280004C68022C01D0122C0ED1D408A4002418E2
:10029000A446246A5507ED0E0F26AE40B4430E69FE
:1002A000AE40264364462662056856000324B440E7
:1002B000A446A5430C79A407A40FB4402C430460C2
:1002C0004C68012C05D0022C03D0112C01D0122C2B
:1002D0000FD185686446A5432C46CD68B5402543BB
:1002E000856045680C79BD43E406E40F94402C43D7
:1002F0004460C4686546AC438D68B5402543C5601D
:100300004C68E4004ED52B4CA56901263543A56108
:10031000A469950834400094274CAD002F19BC689F
:1003200095072E0F0F25B540AC430925ED06A842D1
:1003300001D1002516E0214DA84201D1012511E08F
:100340001F4DA84201D102250CE01E4DA84203D149
:10035000032507E02DE025E01B4DA84201D104252F
:1003600000E00525B5402543BD60184D2C684E685A
:100370009C43F60300D51C432C606C684E689C437C
:10038000B60300D51C436C60AC684E689C43F60213
:1003900000D51C43AC60EC684E689C43B60200D5A7
:1003A0001C43EC600B68521CD34000D063E7F8BCE0
:1003B00070477047001002400000014000040048F0
:1003C00000080048000C00480010004800040140EC
:1003D000002A01D08161704781627047014800683E
:1003E000704700001400002002480168491C0160A9
:1003F000704700001400002010B506480168102264
:1004000011430160002000F007F800F017F8002009
:1004100010BD00000020024010B5044600F052F963
:100420007D21C900FFF764FE00F0B0FD00222146E7
:10043000501E00F02FF8002010BD000008B50F4836
:100440008169012211438161816911400091C26972
:1004500001040A43C261C0690022084000901146AD
:10046000501F00F017F800221146901E00F012F8FD
:1004700000221146501E00F00DF808BD0010024089
:10048000C106C90E0120884001490860704700007C
:1004900000E100E08207D30EFF229A408907090E8F
:1004A000994000280BDA0007000F08388308084835
:1004B0009B001818C36993430B43C36170478308BB
:1004C00004489B001B181868904308431860704745
:1004D00000ED00E000E400E0F0B50646704889B0A9
:1004E00000680F46C007C00FB8420AD26C480168C6
:1004F00049084900394301600068C007C00FB8428D
:1005000070D13078674D800705D56868F021884341
:10051000B168084368603078C00768D07068012807
:1005200022D0022824D0032826D0296889076ED536
:1005300069688908890001436960FFF74FFF7168A6
:10054000044601291CD002292BD00329696839D01F
:100550000907890F4BD0FFF741FF011B5248814229
:1005600041D9032009B0F0BD296889034FD5DFE7E1
:10057000296889014BD5DBE7696BC90347D5D7E704
:1005800069680907890F012931D0FFF727FF011B8F
:1005900045488142E5D868680007800F0128F4D1FA
:1005A00025E069680907890F022920D0FFF716FFA7
:1005B000011B3D488142D4D868680007800F02289B
:1005C000F4D114E00907890F032910D0FFF706FFC3
:1005D000011B35488142C4D868680007800F032892
:1005E000F4D104E013E068680007800FB3D12C4811
:1005F0000168C907C90FB9420CD901684908490007
:10060000394301600068C007C00FB84202D0012022
:1006100009B0F0BD3078400706D5686807210902A7
:100620008843F16808436860204B6C460FCB0FC4C9
:100630001F4B0FCB0FC46A680C20114601401D48A8
:1006400004291ED01C4B082902D00C2919D117E00F
:100650009102090F6C46645CE96A04AE0907090F50
:10066000D203715C920F022A01D0032A03D0FFF754
:100670003FFD604305E01846FFF73AFD604300E0A8
:10068000184669680D4A0906090F515CC8400C49B3
:1006900008600020FFF7C0FE002009B0F0BD000098
:1006A00000200240001002408813000038070008B4
:1006B0004807000800127A00006CDC023A1E0008AD
:1006C0001800002001480068704700001800002052
:1006D00030B519A30FCB89B06C460FC41AA30FCB4A
:1006E0000FC41D494A680C20144604401B48042CC2
:1006F00005D01B4B082C04D00C2C00D1184609B097
:1007000030BD9402240F6D462C5DC96A04AD090703
:10071000090FD203695C920F022A01D0032A04D088
:10072000FFF7E6FC604309B030BD1846FFF7E0FC78
:10073000604309B030BD0000020304050607080944
:100740000A0B0C0D0E0F101001020304050607081A
:10075000090A0B0C0D0E0F100010024000127A0057
:10076000006CDC02F8B504460078FF4DC00754D099
:1007700068680007800F01282CD068680007800F88
:10078000022804D16868C003800F022822D0616863
:10079000012926D001208004002901D0052925D077
:1007A0002A68012109048A432A6029688143296053
:1007B0006068002823D0FFF711FE064628688003F2
:1007C0002BD4FFF70BFE801B64287DD8286880039C
:1007D000F7D522E0286880031FD56068002874D010
:1007E0001BE02968012000040143E0E72968014378
:1007F000296028680121090408432860D8E7FFF729
:10080000EDFD06462868800307D5FFF7E7FD801B4E
:10081000642859D828688003F7D42078800749D500
:1008200068680007800F26D068680007800F0228DC
:1008300004D16868C003800F01281CD0E06800283C
:10084000286826D0012108432860FFF7C7FD064627
:100850002868800707D4FFF7C1FD801B022833D822
:1008600028688007F7D52968F82081432069C000EF
:10087000014329601EE02868800702D5E06801284E
:1008800023D12868F82188432169C90008432860DA
:1008900010E0400840002860FFF7A0FD06462868E9
:1008A000800707D5FFF79AFD801B02280CD828681F
:1008B0008007F7D42078000729D5E0690028686A06
:1008C00014D00121084301E07FE073E16862FFF783
:1008D00085FD0646686A800719D4FFF77FFD801BF7
:1008E000022872D8686A8007F7D510E040084000F7
:1008F0006862FFF773FD0646686A800707D5FFF751
:100900006DFD801B022860D8686A8007F7D42078C4
:10091000400771D500200090E869C00008D4E9695B
:10092000012000070143E961E969014001200090CD
:100930008E4F3868C00511D43868B915084338603F
:10094000FFF74CFD06463868C00507D4FFF746FDA3
:10095000801B642839D83868C005F7D5A0680128FD
:100960001ED0002821D00528286A27D04008400042
:100970002862286A042188432862A0687C4E0028E7
:1009800024D0FFF72BFD0746286A80072CD4FFF7F9
:1009900025FDC01BB04218D8286A8007F7D523E090
:1009A000296A012001432962E7E7286A40084000DC
:1009B0002862286A042188432862DEE7042108436C
:1009C0002862286A01210843D6E77FE0FFF706FD89
:1009D0000746286A800707D5FFF700FDC01BB04215
:1009E00074D8286A8007F7D40098002804D0E869F2
:1009F000012109078843E8612078C0061AD560699B
:100A0000012825D0401D686B40D00421084368634D
:100A1000686B400840006863FFF7E0FC0646686BBF
:100A2000800707D5FFF7DAFC801B02284ED8686BD9
:100A30008007F7D42078800663D568680007800FA8
:100A4000032844D068680007800F022822D026E0DF
:100A5000686B042108436863686B0121084368637D
:100A6000FFF7BCFC0646686B800707D4FFF7B6FCAF
:100A7000801B02285FD8686B8007F7D5686BF82168
:100A80008843A169C90008436863D3E70421884308
:100A90006863F3E76868C003800F032817D0206AF3
:100AA00000281BD0686B0121090408436863FFF725
:100AB00095FC0646686BC00323D4FFF78FFC801BB0
:100AC000022838D8686BC003F7D51AE033E0686BAA
:100AD000C00316D5206A01286CD112E0696B012091
:100AE000000481436963FFF779FC0646686BC00325
:100AF00007D5FFF773FC801B02281CD8686BC00366
:100B0000F7D4606A002853D069680907890F022961
:100B100050D001273F06022828680ED0B84328602D
:100B2000FFF75CFC04462868800141D5FFF756FCBE
:100B3000001B022839D90320F8BDB8432860FFF70D
:100B40004DFC06462868800107D5FFF747FC801B4F
:100B50000228F0D828688001F7D4E86A216B0009E0
:100B600000010843E86205E0001002400070004008
:100B700088130000E26AA06A696802437B20C00310
:100B800081430A436A60286838432860FFF726FCDF
:100B90000446286880010BD4FFF720FC001B0228C4
:100BA000C9D828688001F7D502E028688001BDD443
:100BB0000020F8BD0120F8BD70470000F8B50446DC
:100BC0000068426881684B0607D4CB0705D05306FE
:100BD00003D5E16C20468847F8BD8B0705D5130681
:100BE00003D5216D20468847F8BDFF2361331942A4
:100BF000FAD09306F8D523464D064033002D09DA86
:100C00005D7F032D3CD0256E042635432566C568DF
:100C1000856800958E060125002E08DA266E2E4383
:100C200026668668009606684027BE430660C805AB
:100C300006D5206E08210843206620688068009051
:100C4000206E0028D0D020684168E026B143416082
:100C50005D77900718D02068416889088900416055
:100C6000A06D0B4D002803D04563A06DFFF791FAEE
:100C7000606D0028B8D04563606DFFF78AFAF8BD53
:100C8000C16880680090F8BD2046FFF795FFF8BD69
:100C9000BD130008002801D101207047F8B50026D7
:100CA0000546044640358662687F002803D12E77CA
:100CB000204600F04BF802236B7720680168402241
:100CC000914301600721E0680902884201D90022AE
:100CD00001E0012212030F273F02B84202D08842EE
:100CE00000D0A662276B002F05D1884201D923636B
:100CF00001E001202063A1686068636908432169FD
:100D0000194308430123A1695B0219400843E169C3
:100D10000843216A0843A16A084321680860616B9F
:100D2000606AA36908431B0C0427E1683B40194330
:100D300008432168104348602068C1697A029143E2
:100D4000C1612666012068770020F8BD00B5006803
:100D5000114987B088421DD11048826981140A4325
:100D60008261806908400590F02000900220019087
:100D70000021032003900291049109206946C006D6
:100D8000FFF774FA002211461920FFF783FB1920A0
:100D9000FFF776FB07B000BD0030014000100240B5
:100DA00070470000F0B4044694464034227F00258A
:100DB000012A0CD001222277667F4768012E0DD0D0
:100DC000FA1FFD3A08D18268002A05D102E0F0BC82
:100DD00002207047042E01D002253FE000291BD0DD
:100DE0006246002A18D0002B16D0627F042A01D058
:100DF000052262770022026681638387C38761468A
:100E00000164A380E3800721C36809028B4205D9EE
:100E1000154AC264154A04E001251FE0144AC26461
:100E2000144A0265012212038B4202D8E18802298A
:100E300003D301684B68934302E001684B68134396
:100E40004B6001684A68E0231A434A600068016801
:100E5000490603D401684022114301600020207735
:100E60002846F0BC7047000055120008EB1200083D
:100E70008D12000821130008F8B50122140309207F
:100E80002146C006FFF7A4FA3148304A01466431D2
:100E9000E8C9E8C2856F436FC06FC96855601360C9
:100EA000D1609060294801230178543ADE2902D0AC
:100EB000284803703CE08178082904D00C290AD026
:100EC000012922D034E08279012A31D801792248DF
:100ED00000F0FFFC2CE0027A2049D307DB0F0B70F7
:100EE0009307DB0F4B705307DB0F12078B70D20F8A
:100EF000CA70827A0A72C27A4A72027B8A72407B14
:100F0000C872174800F0BDFC12E0002151629162E6
:100F1000D162116351639163D16311641148CD2291
:100F20000270802282700422C27041718171C3718B
:100F300020230D4A0B490D48FFF734FF09200022FA
:100F40002146C006FFF744FAF8BD0000EC0000207F
:100F5000A8000020040000202C01002038010020FF
:100F60000C000020CC0000200C01002028000020F4
:100F7000042204490428086902D09043086170479C
:100F80001043FBE700E000E0704700000B4910B49D
:100F9000401E884202D910BC0120704708494861B0
:100FA00008480722C3691B021B0A4C042343C36180
:100FB000002088610A6110BC70470000FFFFFF003D
:100FC00000E000E004ED00E010B5FFF7DDFF10BD2C
:100FD00002462032137F012B01D10220704770B4EA
:100FE0000123137702245477046865687026B5439B
:100FF0006560046865680E68354365600468A568C7
:101000008026B543A5600068846849680C43846005
:1010100053770020107770BC7047002801D1012061
:10102000704770B5054604462035687F002803D117
:101030002877204600F00AF802206877211D2068F2
:1010400000F0AEFA01206877002070BD0068012131
:10105000890781B0884207D10448C1690122114340
:10106000C161C0691040009001B07047001002409B
:101070000222014620314A770268136801200343A7
:101080001360487700207047F0B5054620352A7F69
:10109000012A19D001222A7702226A7703689A6806
:1010A0007724A243FF242402A2439A600E68702290
:1010B0000723502E42D00EDC202E7DD006DC002EE1
:1010C0007BD0102E57D19EE00220F0BD302E75D07F
:1010D000402E50D173E0602E4ED0702E1CD00122D5
:1010E0001203B31A13D0934245D10268CF688E68B9
:1010F0004B689168A1433C021C4334430C43946009
:1011000000688168012292031143816092E00068C7
:101110008168C908C900F8E70268CF688E684B6823
:101120009168A1433C021C4334430C439460026821
:10113000906877218843084390607BE004684E689C
:10114000CF68216AB646BC46266A760876002662D3
:10115000A669F027BE4367463F0137430A26B143DD
:1011600076463143A761216204685021A06890430C
:1011700008431843A0605DE04E680468B646CE6838
:10118000216A1027B9432162A169276A3603BC4648
:101190000F273F03B9430E436746A0218F43714693
:1011A00009013943A661216201686024886890437F
:1011B0002043184388603DE02DE01EE033E00468E2
:1011C0004E68CF68216AB646BC46266A7608760025
:1011D0002662A669F027BE4367463F0137430A26C9
:1011E000B14376463143A761216201684024886893
:1011F00090432043184388601CE00168886890434E
:101200001843886016E001681024886890432043E2
:10121000184388600EE001682024886890432043CA
:101220001843886006E004683021A06890430843B2
:101230001843A0600120687700202877F0BDFEE702
:101240007047704710B50248FFF7B8FC10BD0000AA
:10125000280000200168C968026C1180016C891C9B
:10126000016401464031CA88521ECA80C9880029DB
:101270000BD101684A6840239A434A60C18F002914
:1012800003D110B500F071F810BD704710B50146DC
:101290004031CC880368026C012C11D9DB681380C3
:1012A000026C921C0264CA88921ECA80CA88012AF3
:1012B0000DD102685368012424032343536006E0E0
:1012C0001C7B531C03641470CA88521ECA80C988D0
:1012D000002909D101684A6860239A434A60C18F96
:1012E000002901D100F041F810BD816B0268098826
:1012F000D160816B891C8163C18F491EC187C18FF9
:1013000000290CD101684A6880239A434A6046212B
:10131000095A002903D110B500F027F810BD704715
:10132000C38F0268816B022B07D30988D160816B60
:10133000891C8163C18F891E05E04B1C836309787A
:101340001173C18F491EC187C18F00290CD101685B
:101350004A6880239A434A604621095A002903D1EA
:1013600010B500F002F810BD704770B50446FFF7E5
:1013700035F821684B682025AB434B600246642159
:10138000204600F024F8002802D0206E2843206672
:10139000226E204601214030002A04D041772046A9
:1013A000FFF70AFC70BD427F4177042A204602D035
:1013B000FFF762FD70BDFFF7F3FC70BD10B5406A2A
:1013C000002146221152C187FFF7F6FB10BDF8B588
:1013D0000F460B4615460092032104460022C9021F
:1013E00000F01BF82026002812D13B460022802165
:1013F0002046009500F05CF8002809D103213B4607
:10140000002249022046009500F007F8002803D08A
:10141000206E304320660320F8BDF8B5044600680E
:101420001D4680680E46304240D003277F02BE42F0
:1014300004D12068017B684601700078681C31D0B7
:10144000002D05D0FEF7CAFF0699401AA84229D3FD
:1014500020684168E022914341606068C11FFD3906
:101460000CD10121A068C903884202D049118842E9
:1014700004D1206801684022914301600121A06AE3
:101480004903884207D1206802688A4302602068C5
:1014900002680A4302600120403460770020207710
:1014A0000320F8BD206880683042C0D10020F8BD1C
:1014B00070B504460068049E80681D46C04300065F
:1014C00037D4681C30D0002D04D0FEF787FF801B76
:1014D000A84229D320684168E022914341606068B6
:1014E000C11FFD390CD10121A068C903884202D077
:1014F0004911884204D1206801684022914301606B
:101500000120A16A4003814207D121680A68824311
:101510000A6021680A6802430A600120403460774B
:1015200000202077032070BD20688068C04300063B
:10153000C7D5002070BD704710B5FEF755FFFFF707
:1015400043FD10BD1248016801221143016041684A
:10155000104A1140416001680F4A11400160016862
:10156000012292049143016041683F221204914399
:101570004160C16A09090901C162016B074A114052
:101580000163416B49084900416300218160704754
:10159000001002400CB8FF08FFFFF6FE2CFEFCFF17
:1015A000F0B402681E4B0124A4071E4D984203D0DC
:1015B000A04201D0A84203D17026B2434E68324304
:1015C000194E1A4F98420DD0A0420BD0A84209D014
:1015D000174CA04206D0B04204D0B84202D0154CFD
:1015E000A04204D103242402A243CC6822438024D5
:1015F000A2434C69224302608A68C2620A6882621E
:10160000984206D0B04204D0B84202D0094A904273
:1016100001D10969016301214161F0BC70470000FB
:10162000002C014000040040004001400044014003
:1016300000200040004801400FB410B503A9044B3E
:10164000044A029800F022F810BC08BC04B0184705
:10165000811800081C000020002101704170817079
:10166000C170017141718171C171704702E008C898
:10167000121F08C1002AFAD170477047002001E00C
:1016800001C1121F002AFBD170470000FFB58DB0C9
:101690000F460546002606E025280AD0109A0F9925
:1016A00090476D1C761C28780028F5D1304611B083
:1016B000F0BD00240121674A009400E004436D1C42
:1016C0002B780846203B98401042F7D128782E28E6
:1016D00015D10420044368786D1C2A280AD101CF53
:1016E0006D1C00900BE000990A22514330394018DC
:1016F0006D1C00902878014630390929F3D92878E3
:10170000692843D006DC0028D0D063280BD0642899
:1017100004D13BE073280FD075284CD0109A0F9954
:101720009047761C94E03878694608720020487229
:1017300002A80190012003E0386801900020C04316
:101740003F1D61070CD5002400E0641C00998C4209
:101750000FDA8442F9DB0199095D0029F5D108E02F
:10176000002400E0641C8442FCDB0199095D00292F
:10177000F8D1361907E0019801990078491C0191C8
:10178000109A0F999047641EF5D261E00A200190EB
:1017900001CF002802DA40422D2102E0210504D5C4
:1017A0002B216A461172012103E0E10701D02021BB
:1017B000F7E70C9104E00A20019001CF00210C9181
:1017C0000BA90B9108E00199FEF792FC0A460B99D0
:1017D0003032491E0B910A700028F4D10B9803A9EE
:1017E000081A20300190600701D5009801E001201F
:1017F00000900199884203DD01460198081A00E033
:1018000000200024009006E002A8109A005D0F99C5
:101810009047641C761C0C988442F5DB04E0109A17
:1018200030200F999047761C0099481E009000299F
:10183000F5DC08E00B980B990078491C0B91109A85
:101840000F999047761C0199481E01900029F1DC00
:101850006D1C28E7092801000449096809684A6ADB
:1018600010184A6A8242FCD3704700000000002032
:1018700010B502490860FFF7FBFB10BD0000002017
:10188000704710B5044643780078421C5207520F47
:10189000934201D1012010BD0C23626858431018F7
:1018A0001A46FEF73BFC2078401C4007400F207092
:1018B000002010BD10B50446602000F025FA024655
:1018C000606000202070607060211046FEF73FFCD1
:1018D00010BD30B4037845785C1C6407640FA542E2
:1018E00002D130BC012070474468E154037881681C
:1018F000CA540178491C4907490F017030BC0020C7
:10190000704710B50446082000F0FEF9606008201A
:1019100000F0FAF9A0600020207060706068FFF7A6
:101920009BFEA068FFF798FE10BD10B443780478C2
:10193000A34202D110BC012070474468E35C0B70E5
:1019400081684078085C107010BC002070474178B6
:101950000278914203D0491C4907490F41707047F2
:1019600092B0FEF749FD02271020099704900097D6
:10197000C0020A9007200126C0040B9003960C9623
:101980006846FEF7EFFE002800D0FEE7072000259E
:101990000E90109501210F9711950EA8FEF79CFD52
:1019A000002800D0FEE7FEF78DFE7D21C900FEF77E
:1019B0009FFBFFF7EBFA0420FFF7DAFA002211464B
:1019C000501EFEF767FDB3484069012189050843B1
:1019D000B049486148690121890508400590AD4832
:1019E000406949110843AB494861486901214904EC
:1019F00008400590A74842694800A64902434A6149
:101A000049690022014005910221A348FEF7E0FC4C
:101A10000924FF21E40601220D312046FEF7D8FCFF
:101A200000229E499E48FEF7D3FC0F210022490266
:101A30002046FEF7CDFC029569469748009701962F
:101A40000395FEF713FCFF200D301127009002953F
:101A50006946019703952046FEF708FC009602951B
:101A600069468F4801960395FEF700FC8D4800906B
:101A70000195694602958A48FEF7F8FB042000901C
:101A800089480190694602958548FEF7EFFB0120E1
:101A9000C003009002956946019703958048FEF7C0
:101AA000E5FB0F20400200900295694601960395E0
:101AB0002046FEF7DBFB002201210620FEF7EAFCB0
:101AC0000620FEF7DDFC7A487849456085600160B4
:101AD00005614561856105620721456209028562EC
:101AE000C160056307214563C162FFF7D3F8002891
:101AF00000D0FEE701216F48890701603F21856022
:101B0000416000210561C9438561C160FFF785FA25
:101B1000002800D0FEE701200003009069466548D8
:101B2000FFF7B2FA002800D0FEE7049504A9614847
:101B30000595FFF74DFA002800D0FEE75E48FFF755
:101B4000E0FE5E48FFF7B6FE5A48FFF791FE00231D
:101B50001A465B495BA00096FFF76EFD0120504FCF
:101B6000C007B861C00DA0615A4820234562856254
:101B7000C562056345638563C5630564564A574975
:101B80008038FFF70FF980215548FEF7E0FA5548F5
:101B9000554CC56105624562856200F0EBF806466A
:101BA000524A53494448FFF7C0FE00283FD1514DE7
:101BB00000226B7811461046802B0AD24E48C05C3A
:101BC00001090007000F102900D31146082800D38F
:101BD0001046AB78002B17D0484D2B7A002B26D11E
:101BE00001236354CF003E4979180B546A602B726D
:101BF00000F0C0F828603048FFF7A9FE01208002FD
:101C00000921C906886112E06254CB003449591891
:101C10000A542948FFF79BFE012040020925ED06E2
:101C2000A8613748FFF718FE01204006A861334D30
:101C3000287A002812D0696803200002814206D861
:101C400000F098F82968401A2E49884206D90020E9
:101C50002872012080060921C90688610020215CC4
:101C6000002903D12118497800290FD0214F786825
:101C7000301A142891D90120094DC003A861012010
:101C8000FFF7EAFD6805A8617E6086E7801C1028E2
:101C9000E5DB82E7001002400014004801800000EC
:101CA00000040048027F00000000211000300140C5
:101CB000280000208C0000202C0100200C000020B7
:101CC000841D000825730A7625642E25642E25645C
:101CD0000A000000A80000200C010020CC00002019
:101CE00054010020280100204401002006000020AB
:101CF0000500002004000020BA1D0008D4010020C7
:101D000010270000204E0000F0B50B30C108C900BC
:101D1000144F0026144A0FE003688B420BD38B420A
:101D200005D95C1A4318456830C3083B00E0436896
:101D3000136002C004E0021D10680028ECD1304698
:101D4000002803D13868002801D00020F0BD064AE1
:101D500006481060064A121AD208D20044C0012078
:101D60003860D7E72400002020000020E401002094
:101D7000E0030020024800680068406A70470000E5
:101D8000000000205553423456432050726F746F48
:101D9000636F6C20426F6172640A424243204D6956
:101DA00063726F2F4D61737465720A64656B754E53
:101DB000756B656D2032303232000007031311213C
:101DC00031434251627200009506011222333244BF
:101DD000535263738385941014152334354554642A
:101DE000658400000087162425364655566676869B
:101DF0000000002604172737414757616777020024
:101E000000000000000000000000000000000000D2
:101E100000000000000000000000001000000000B2
:101E20000093009197009200000000000000000065
:101E300000000000000000000000000000000000A2
:101E40000000010203040607080900006C1E0008D8
:101E500000000020280000006C160008941E0008F6
:101E600028000020B80700007C16000800000000D1
:101E70000000000000000000000000000000000062
:101E80000000000000127A000000000000000000C6
:041E9000000000004E
:04000005080000C12E
:00000001FF
