:020000040800F2
:10000000F0080020D5000008B51D0008E918000818
:1000100000000000000000000000000000000000E0
:10002000000000000000000000000000F3200008B5
:100030000000000000000000FD1D0008F520000881
:10004000E7000008E7000008E7000008E7000008F4
:10005000E700000889010008E7000008E700000841
:10006000E7000008E7000008E7000008E7000008D4
:10007000E7000008E7000008E7000008E7000008C4
:10008000E7000008E7000008E7000008E7000008B4
:10009000E7000008E7000008E7000008E7000008A4
:1000A000E7000008011E0008E7000008E70000085C
:1000B000E7000008F5260008E7000008E700000850
:1000C0000348854600F04EF800480047052C00081C
:1000D000F00800200448804704480047FEE7FEE798
:1000E000FEE7FEE7FEE7FEE76D210008C10000081D
:1000F00030B50B46014600202022012409E00D46C0
:10010000D5409D4205D31D469540491B2546954047
:1001100040191546521E002DF1DC30BD03460B433D
:100120009B0703D009E008C9121F08C0042AFAD2AD
:1001300003E00B780370401C491C521EF9D2704733
:10014000D2B201E00270401C491EFBD2704700226F
:10015000F6E710B513460A4604461946FFF7F0FFC6
:10016000204610BD064C0125064E05E0E36807CC8D
:100170002B430C3C98471034B442F7D3FFF7A4FF4D
:10018000A4380008C438000810B5022000F03CF87C
:1001900010BD70B50024014620314A78022A03D0F0
:1001A00004218163012416E0026813680E25AB4325
:1001B0001360026813685B085B0013600122056C22
:1001C0001346AB40C56B6B604A7000220A70416BEE
:1001D000002900D08847204670BD31B500F0DCF81A
:1001E000009C0546601C00D0641C00F0D5F8401B44
:1001F000A042FAD338BD0000022802D101490120F3
:10020000087270473800002010B504494A6902425C
:1002100002D04861FFF7F0FF10BD0000000401406C
:10022000F8B5002393E0224601249C40A4462240D6
:100230007ED04C68022C01D0122C0CD1DC08A4001A
:1002400027183C6A5D07ED0E0F26AE40B4430E69D9
:10025000AE4026433E6205685E000324B4400F7939
:10026000A543BF07BF0FB7402F4307604D68012D5F
:1002700005D0022D03D0112D01D0122D0ED185688D
:10028000CF68A543B7402F43876047686546AF43B3
:100290000D79ED06ED0F9D403D434560C568A543D2
:1002A0008C68B4402C43C4604C68E4004ED52B4CA1
:1002B000A56901263543A561A4699D0834400094D1
:1002C000274CAD002F19BC689D072E0F0F25B54098
:1002D000AC430925ED06A84201D1002514E0214DCB
:1002E000A84201D101250FE01F4DA84201D10225EE
:1002F0000AE01E4DA84201D1032505E01C4DA8428D
:1003000001D1042500E00525B5402543BD60194C09
:1003100025684E689543F60300D51543256065684A
:100320004E689543B60300D515436560A56800E0A7
:100330000CE04E689543F60200D51543A560E568CC
:100340004E689543B60200D51543E5605B1C0A680C
:100350001446DA4000D066E7F8BD00000010024005
:10036000000001400004004800080048000C00485C
:1003700000100048000401400069084000D001203E
:10038000704742694A4042617047002A01D081614A
:1003900070478162704700000148006870470000A4
:1003A0006C00002070B5024640325378202B1CD1DF
:1003B0001378012B19D0012313702424547004687E
:1003C00025689D432560046825681E03B5432560A4
:1003D000046825680D4325600068016819430160C1
:1003E000202050700020107070BD022070BD70B5CC
:1003F000024640325378202B1BD11378012B18D0A2
:10040000012414702423537003681D68A5431D60E4
:1004100005682B680F263602B34309021943296089
:100420000068016821430160202050700020107096
:1004300070BD022070BD000070B5040006D02546D6
:10044000403568780026002802D005E0012070BD04
:100450002E70204600F082F9242068702068016820
:100460004908490001600F21606809068843216836
:10047000086121688A680120C00382438A60E168BC
:100480000129A16808D021229202114322689160BB
:10049000E168022902D005E00143F7E70121226863
:1004A000C902516021684A680F4B1A434A602168AB
:1004B000CA688243CA60616920690843A169090268
:1004C00008432168C860216AE06908432168086020
:1004D0002068016801221143016066642020687071
:1004E0002663AE70002070BD00800002FFB5044698
:1004F000002083B02546403501906A78202A7FD1BC
:1005000022689269D24312047AD52A78012A77D0D8
:1005100001222A7024226A7060648F05BF0DE06892
:1005200001280BD00520C002012138188902884318
:1005300021684860FFF730FF064612E03148F3E7D4
:100540000698401C0DD00698002805D0FFF724FF20
:10055000811B0698814204D92020687000202870F1
:1005600043E020688169C943890606D58069C04394
:10057000C00602D56878A028E2D120688069069B71
:10058000C043C00600960ED500222021204601F06F
:100590003FFA002829D121682020C8616870002016
:1005A000287007B0F0BD00222021204601F030FA6B
:1005B00000281AD120681021C16120682021C16162
:1005C0000198411C01910599884214D12068416825
:1005D000012292031143416000960022202120460F
:1005E000069B01F015FA002802D00320D9E707E0A6
:1005F00021682020C8610199059881428FD3ABE71B
:100600000220CEE700200002FFB505460446403533
:10061000687883B0202876D10C98002874D00D9883
:10062000002871D0287801286DD001202870FFF7AC
:10063000B3FE0746012200901923D103204601F0A2
:10064000E7F9002853D1212068704020A8700026C7
:1006500066640C9860620D98608566630E980090E1
:10066000019704A90EC9204601F08AF9002804D098
:10067000606C2E7004286AD039E0608DFF2805D99F
:10068000FF22228501231B06009606E0608D20854F
:100690000096208D0123C2B25B062046049901F02A
:1006A000A5F93A4620460E9901F0FDF9002803D03D
:1006B000606C04284BD01AE0606A411C61622168BA
:1006C00000788862608D401E6085208D401E000489
:1006D000000C208524D1608D002821D000970022B5
:1006E000802120460E9B01F093F9002802D00320C0
:1006F00007B0F0BD608DFF2807D9FF2222850123B6
:100700001B06009608E024E021E0608D208500961D
:10071000208D0123C2B25B062046049901F066F9E0
:10072000608D0028BDD13A4620460E9901F094F91B
:100730000028BDD120682021C16120684268064B95
:100740001A4042606970AE702E700020D0E7012020
:10075000CEE70220CCE7000000E800FE00B500680C
:100760000E4987B0884217D1032040030090122021
:100770000190002002900320039005200490694618
:100780000748FFF74DFD0748C269012189050A4363
:10079000C261C0690840059007B000BD0058004024
:1007A000000400480010024002480168491C016032
:1007B000704700006C00002010B506480168102248
:1007C00011430160002000F007F800F017F8002046
:1007D00010BD00000020024010B5044600F078F97A
:1007E0007D21C900FFF784FC00F0E2FD00222146D4
:1007F000501E00F02FF8002010BD000008B50F4873
:100800008169012211438161816911400091C269AE
:1008100001040A43C261C0690022084000901146E9
:10082000501F00F017F800221146901E00F012F839
:1008300000221146501E00F00DF808BD00100240C5
:10084000C106C90E012088400149086070470000B8
:1008500000E100E010B501F0AFFA10BDF8B50446B4
:100860000068434DC00352D5E8690026C00007D494
:10087000E96928040143E961E96901400126009121
:100880003C480168C90510D4016882151143016014
:10089000FFF782FD074604E0FFF77EFDC01B6428DA
:1008A00024D834480068C005F6D5286A03273F02DB
:1008B000384020D06168394081421CD0286A2A6AB9
:1008C000B843012109040A432A622A6A8A432A6238
:1008D0002862C0070FD0FFF75FFD009008E0FFF728
:1008E0005BFD0099411A2448814201D90320F8BDDB
:1008F000286A8007F3D5286A6168B84308432862EC
:10090000002E04D0E869012109078843E8612078B6
:10091000C00705D0286BA1688008800008432863C1
:100920002078800706D5286B032109048843E168F5
:10093000084328632078800605D5286B102188435A
:100940002169084328632068800305D5286B80212E
:100950008843A169084328632088400505D5286B92
:10096000402188436169084328630020F8BD0000E6
:10097000001002400070004088130000F8B50546E2
:100980004E480E460068C007C00FB0420AD24B481E
:10099000016849084900314301600068C007C00F81
:1009A000B04270D12878464C800705D56068F021A8
:1009B0008843A968084360602878C00753D06868F6
:1009C000012817D0022818D0032819D021688907D8
:1009D000002958DA61688908890001436160FFF7DE
:1009E000DBFC69680746012913D002291DD00329C1
:1009F00027D034E021688903EAE721688901E7E725
:100A0000616BC903E4E7FFF7C7FCC11B2D488142B6
:100A100023D860680007800F0128F4D123E0FFF796
:100A2000BBFCC11B2748814217D860680007800FB4
:100A30000228F4D117E0FFF7AFFCC11B2148814227
:100A40000BD860680007800F0328F4D10BE0FFF794
:100A5000A3FCC11B1B48814201D90320F8BD60687B
:100A60000007800FF3D115480168C907C90FB142CB
:100A70000BD9016849084900314301600068C0078B
:100A8000C00FB04201D00120F8BD2878400706D53C
:100A90006068072109028843E9680843606000F044
:100AA0002DF86168084A0906090F515CC8400749DA
:100AB00008600020FFF790FE0020F8BD00200240F3
:100AC00000100240881300008B38000870000020DE
:100AD0000148006870470000700000200448054984
:100AE00000684968044A4905490F515CC84070478D
:100AF00070000020001002409B38000830B516A39B
:100B00000FCB89B06C460FC417A30FCB0FC41A4983
:100B10004A680C20144604401848042C05D0184B91
:100B2000082C04D00C2C00D1184609B030BD94021A
:100B3000240F6D462C5DC96A04AD0907090FD20365
:100B4000695C920F022A02D0032A00D11846FFF7EF
:100B5000CFFA6043E9E7000002030405060708092D
:100B60000A0B0C0D0E0F10100102030405060708F6
:100B7000090A0B0C0D0E0F100010024000127A0033
:100B8000006CDC02FEB504460078F04EF04DC00764
:100B900048D068680007800F01281FD068680007E8
:100BA000800F022804D16868C003800F022815D086
:100BB0006168012919D001208004002901D005298C
:100BC00017D02968B143296029688143296060688A
:100BD00000281BD0FFF7E0FB074613E028688003DE
:100BE00020D56068002876D01CE028683043286053
:100BF000EDE7296801432960F7E7FFF7CDFBC01B4C
:100C0000642869D828688003F7D50BE0FFF7C4FB98
:100C1000074604E0FFF7C0FBC01B6428F1D8286832
:100C20008003F7D4207880073ED568680007800FDE
:100C300014D068680007800F022804D16868C003D8
:100C4000800F01280AD0E068002828681DD0012103
:100C500008432860FFF7A0FB07460BE028688007E1
:100C60000BD5E068012836D107E0FFF795FBC01BE4
:100C70000228C6D828688007F7D52868F821884355
:100C80002169C900084328600EE040084000286040
:100C9000FFF782FB074604E0FFF77EFBC01B02283C
:100CA000AFD828688007F7D42078000724D5E069FA
:100CB0000028686A11D0012108436862FFF76CFBC5
:100CC000074604E0FFF768FBC01B022899D8686A52
:100CD0008007F7D510E036E1D1E0400840006862B7
:100CE000FFF75AFB074604E0FFF756FBC01B02283C
:100CF00087D8686A8007F7D420780427400700283F
:100D000061DA00200190E869C00008D4E969B806FA
:100D10000143E961E96901400120009101908D489A
:100D20000168C90511D40168821511430160FFF7FC
:100D300033FB009005E0FFF72FFB0099401A642871
:100D400097D884480068C005F5D5A06801280AD066
:100D5000002801D0052811D0286A400840002862E8
:100D6000286AB84302E0286A012108432862A06883
:100D7000002812D0FFF710FB00900AE0286A3843E1
:100D80002862F0E7FFF708FB0099411A7248814298
:100D900075D8286A8007F5D50DE0FFF7FDFA0090B9
:100DA00006E0FFF7F9FA0099411A6B48814266D8CC
:100DB000286A8007F5D40198002804D0E969012049
:100DC00000078143E9612078C00635D560690128B4
:100DD0000CD0401D686B24D038436863686B4008B2
:100DE00040006863FFF7D8FA074622E0686B384393
:100DF0006863686B012108436863FFF7CDFA074613
:100E000004E0FFF7C9FAC01B022838D8686B8007D6
:100E1000F7D5686BF8218843A169C9000843686366
:100E20000AE0B8436863F4E7FFF7B6FAC01B02288C
:100E300025D8686B8007F7D42078800637D5686896
:100E40000007800F032813D068680007800F02286E
:100E500004D16868C003800F032809D0206A0028E5
:100E6000686B16D030436863FFF796FA06460CE0CD
:100E7000686BC0031BD5206A012864D117E05BE0D2
:100E8000FFF78AFA801B022856D8686BC003F7D593
:100E90000DE0B0436863FFF77FFA064604E0FFF712
:100EA0007BFA801B022847D8686BC003F7D4606ABE
:100EB000002846D069680907890F022943D0012616
:100EC00036060228286805D0B0432860FFF764FA88
:100ED000044633E0B0432860FFF75EFA074604E0BB
:100EE000FFF75AFAC01B022826D828688001F7D4D9
:100EF000E86A216B000900010843E862A16AE06A20
:100F0000084369687B22D2039143084368602868DC
:100F100030432860FFF740FA044604E0FFF73CFA4C
:100F2000001B022808D828688001F7D509E0FFF7E0
:100F300033FA001B022801D90320FEBD2868800176
:100F4000F5D40020FEBD0120FEBD00000000010020
:100F5000001002400070004088130000704700003D
:100F6000F8B504460068426881684B0605D4CB0793
:100F700003D0530601D5E16C04E08B0705D51306B9
:100F800003D5216D20468847F8BDFF236133194200
:100F9000FAD09306F8D523464D064033002D09DAE2
:100FA0005D7F032D3CD0256E042635432566C5683C
:100FB000856800958E060125002E08DA266E2E43E0
:100FC00026668668009606684027BE430660C80508
:100FD00006D5206E082108432066206880680090AE
:100FE000206E0028D0D020684168E026B1434160DF
:100FF0005D77900718D020684168890889004160B2
:10100000A06D0B4D002803D04563A06DFFF7C1F81C
:10101000606D0028B8D04563606DFFF7BAF8F8BD81
:10102000C16880680090F8BD2046FFF797FFF8BDC3
:10103000731F0008F8B5040007D000262546403588
:10104000A662687F002802D005E00120F8BD2E7757
:10105000204600F04BF802236B772068016840229D
:10106000914301600721E0680902884201D900220A
:1010700001E0012212030F273F02B84202D088424A
:1010800000D0A662276B002F05D1884201D92363C7
:1010900001E001202063A168606863690843216959
:1010A000194308430123A1695B0219400843E16920
:1010B0000843216A0843A16A084321680860616BFC
:1010C000606AA36908431B0C0427E1683B4019438D
:1010D00008432168104348602068C1697A0291433F
:1010E000C1612666012068770020F8BD00B5006860
:1010F000114987B088421DD11048826981140A4382
:101100008261806908400590F020009002200190E3
:101110000021032003900291049109206946C00632
:10112000FFF77EF8002211461920FFF793FB1920E4
:10113000FFF786FB07B000BD003001400010024001
:1011400070470000F0B504468C464034217F0025EE
:10115000C768964601290CD001212177667F416836
:10116000012E0CD0CA1FFD3A07D18168002904D195
:1011700001E00220F0BD042E01D0022540E06146CE
:1011800000291BD07146002918D0002B16D0617F92
:10119000042901D005216177002101666146816340
:1011A0008387C38771460164A380E3800721090216
:1011B0008F4205D9144AC264144A04E001251FE095
:1011C000134AC264134A0265012212038F4202D8F5
:1011D000E188022903D301684B68934302E0016868
:1011E0004B6813434B6001684A68E0231A434A6026
:1011F00000680168490603D4016840221143016078
:10120000002020772846F0BD111E0008A51E00080A
:10121000471E0008D91E0008F8B501220920D10395
:10122000C006FFF7B2F857492022881AFEF776FF6A
:10123000544C0126203C2078534FDE2801D07E728A
:1012400090E0A07808280BD0092810D000250B28A2
:1012500031D003284BD0012850D0022879D081E02A
:101260004848A2792179203001F06CFC7AE061795C
:10127000207901F059FB434A2C321080E179A079A2
:1012800001F052FB40425080617A207A01F04CFB21
:1012900040429080607B9071A07B1072E07BD071A7
:1012A000207C5072607C9072364937482C31103067
:1012B00001F0ACFD56E03348217938300170617996
:1012C0004170A1798170E179C170057145718571B5
:1012D000C571217A0172617A4172A17A8172E17AD3
:1012E000C17201462848183001F040FB3AE0012164
:1012F000002249032548FFF748F833E02148202120
:101300004038FEF724FF1F48CD2140380170617836
:10131000417080238370C670397801714571867180
:10132000C5710822002105468D356C5C002C0CD05F
:10133000022C02D0012C03D005E0815403E008E028
:101340000C461C438454521CD2B2491C1029ECDBBD
:1013500008E00325605D002804D001F0AFFB6D1CA0
:10136000202DF7DB074A2023114640390848FFF7B4
:10137000E9FE012109200022C903C006FFF705F894
:10138000F8BD00009002002038000020000800484E
:10139000CC000020042204490428086902D09043AC
:1013A000086170471043FBE700E000E07047000071
:1013B000094910B5401E884201D9012010BD074CD3
:1013C00060610321081F00F0F7FC0020A0610720E6
:1013D0002061002010BD0000FFFFFF0000E000E0E2
:1013E00010B5FFF7E3FF10BD70B502462032137F42
:1013F000012B1BD0012313770224547704686568FE
:101400007026B5436560046865680E68354365609D
:101410000468A5688026B543A560006884684968AB
:101420000C43846053770020107770BD022070BD9C
:1014300070B5040005D025462035687F002802D00D
:1014400006E0012070BD00202877204600F00AF851
:1014500002206877211D206800F0B6FE0120687721
:10146000002070BD08B5006801218907884207D1B6
:101470000448C16901221143C161C0691040009054
:1014800008BD0000001002400222014620314A77C8
:1014900002681368012003431360487700207047F7
:1014A000F8B5054604462035287F012817D00127C6
:1014B0002F7702206877226890687726FF23B04351
:1014C0001B02984390600868502837D00EDC202813
:1014D00057D006DC00284ED0102840D14EE0022024
:1014E000F8BD302850D0402839D13CE060282DD0BC
:1014F000702817D001221203801A0ED090422ED1EC
:10150000CB684A688968206800F0A8FE2068816876
:10151000012292031143816021E020688168C9089B
:10152000C900F8E7CB684A688968206800F096FE31
:1015300021688868B0433043886010E0CA68496811
:10154000206800F09EFE5021206806E0CA684968C5
:10155000206800F0A7FE6021206800F08AFE6F7707
:1015600000202877F8BDCA684968206800F089FE25
:1015700040212068F1E700212068EEE71021206873
:10158000EBE720212068E8E730212068E5E7704795
:1015900070470000F8B503680446D8691968050764
:1015A0002D0F07D1820605D58A0603D5204600F007
:1015B00051FFF8BD9A68002D64D0D507ED0FFF26C6
:1015C00021360E402E435DD0C60706D0CE0504D589
:1015D00001261E62E36E3343E36687070223042677
:1015E000002F06DAD70704D027683B62E76E37433F
:1015F000E766470706D5D20704D022681662E26E76
:101600001A43E266020709D520220A402A4305D080
:10161000236808221A62E36E1343E366E26E002A2F
:10162000C7D0800604D5880602D5204600F012FFF8
:10163000E06E000703D42068806840061CD5204671
:1016400000F0ECFE20688168490611D581684022CF
:1016500091438160606E00280AD01A494163606E30
:10166000FEF797FD0028A4D0606E416B8847F8BD57
:101670002046FFF78DFFF8BD2046FFF789FF0020C9
:10168000E066F8BDC5020DD552020BD5012000055C
:101690001862202120466030417281722046FFF797
:1016A00076FFF8BD020605D50A0603D5204600F0F0
:1016B000BDFFF8BD4006FCD54806FAD5204600F02F
:1016C000BCFEF8BD0924000870B5040005D025460D
:1016D0006035687A002802D006E0012070BD002045
:1016E0002872204600F026F82420687220680168DD
:1016F000490849000160204600F0EAFE0128EDD0CB
:10170000606A002802D0204600F0DFFD20684168B2
:101710000922D20291434160206881682A229143C4
:10172000816020680168012211430160204600F0B9
:1017300031FE70BD30B51F4D046800211E480222E5
:10174000032387B0AC4214D18569540325438561D6
:101750008069029120400590580200900120049079
:101760000920039301926946C006FEF759FD07B0B0
:1017700030BD124DAC42FAD1C5690124A404254301
:10178000C561C0690291204005900320800200904D
:10179000042004900393019269460948FEF740FD36
:1017A000002201211D20FFF755F81D20FFF748F802
:1017B000DDE7000000380140001002400048004012
:1017C000000400487047FFB5064604466036707A4C
:1017D00083B00D46202858D1002D0CD00598002844
:1017E00009D00120A1680003814207D120690028A7
:1017F00004D1E80702D0012007B0F0BD307A0128FB
:1018000043D0012030720020E06621207072FEF784
:10181000C3FD0190274640370598388205987882A5
:1018200018E0788A401E7882069800900022802175
:101830002046019B00F02DFF002818D10120A1684F
:101840000003814202D12069002812D02168287843
:1018500008856D1C788A0028E3D106980090002244
:1018600040212046019B00F014FF002808D00320EF
:10187000C2E728882168C005C00D0885AD1CE9E7CE
:101880002020707200203072B6E70220B4E730B535
:10189000034660335C7A202C23D100290BD0002A28
:1018A00009D0012584682D03AC4206D10469002CBF
:1018B00003D1CC0701D0012030BD1C7A012C10D0FF
:1018C000C164014640310A824A820021C166212258
:1018D0005A72197200680168802211430160002069
:1018E00030BD022030BD7047FEE701688A69D243EF
:1018F000920701D400228A6200688169C943C9073E
:1019000003D081690122114381617047F7B5044614
:1019100000680E468069C043C0062CD420272546A7
:10192000403520688069C04380060FD5701CF8D010
:10193000002E05D0FEF730FD0299401AB042F0D9D2
:101940006F700020A87028700320FEBD2168102051
:10195000C8612068C7612046FFF7C7FF206841685B
:10196000064A11404160042060646F700020A87036
:1019700028700120FEBD0020FEBD000000E800FE32
:10198000F8B504460120164640031D46DAB2C302EC
:101990000090079F204600F029F83A462046069915
:1019A00000F081F8002803D0606C04281BD018E0F8
:1019B0002846F5B2012809D02168300A88623A46E3
:1019C0002046069900F06FF80028EDD12068856266
:1019D0000097002280212046069B00F019F800287D
:1019E00000D00320F8BD0120F8BD000070B50568E7
:1019F000049C68688905890D1204044E114319433B
:101A0000304021430143696070BD0000009800FC34
:101A1000F8B51C4617460E46054611E0601C0FD06F
:101A2000002C05D0FEF7B8FC0699401AA04207D951
:101A30002020403568700020A87028700320F8BD71
:101A4000286881693046884304D00020B842E5D038
:101A50000020F8BD0120F9E770B516460D46044692
:101A60001AE0324629462046FFF750FF002801D0F1
:101A7000012070BD002D04D0FEF78EFC801BA84213
:101A80000AD9616C202001436164403460700020F9
:101A9000A0702070032070BD20688069C04380065C
:101AA000DFD4002070BD70B516460D4604461CE01C
:101AB000324629462046FFF729FF002801D00120A1
:101AC00070BD681C11D0002D04D0FEF765FC801B92
:101AD000A8420AD9616C20200143616440346070DF
:101AE0000020A0702070032070BD20688069C04372
:101AF0008007DDD4002070BDF0B5504887B0416943
:101B00000120C0044D4A01435161516901400591D2
:101B10005169C0000143516151690140059151690A
:101B200040110143516151690140104605914169DD
:101B30000120800401435161516944110140404F2B
:101B40000591002221463846FEF71FFC0326B60306
:101B5000012231463846FEF718FC0122032139489C
:101B6000FEF713FCCD21012289003748FEF70DFC5A
:101B700009200022A100C006FEF707FC0022082170
:101B80003148FEF702FC00940024012501950294DF
:101B9000694638460394FEF743FB009611260294EB
:101BA0006946384601960394FEF73AFB03200090FD
:101BB00002946946019603942248FEF731FB2348BC
:101BC000022701906946009702941F48FEF728FB00
:101BD000CD208000009002946946019603941A4833
:101BE000FEF71EFBE8036A4691C269461648FEF7F7
:101BF00017FB28026A4691C209206946C006FEF713
:101C00000FFBE803009009200294694601950394B4
:101C1000C006FEF705FB0820009002946946019576
:101C200003940948FEF7FCFA002202210520FEF782
:101C300011FE0520FEF704FE07B0F0BD00100240C3
:101C4000000800480014004800040048000021106B
:101C500010B51248104901601149416000218160AE
:101C60000161416181610122C161C2600162FEF7CF
:101C7000E3FB002800D0FEE700210848FEF792FBB6
:101C8000002800D0FEE700210448FEF7B0FB002842
:101C900000D0FEE710BD000000580040800000208A
:101CA0005D3E302010B50D480B49016000214160B8
:101CB000816001614161816107220162120241621A
:101CC000C260816207220163C2624163FFF7B2F919
:101CD000002800D0FEE710BD00300140CC000020FD
:101CE00010B50121124886B08907016000242F2118
:101CF000846041600461611E8461C160FFF798FBEC
:101D0000002800D0FEE70120000300906946084843
:101D1000FFF7C6FB002800D0FEE7049404A904489E
:101D20000594FFF761FB002800D0FEE706B010BD68
:101D30003001002010B50C480A490160E121490238
:101D4000416000218160C16001618161C1610C223B
:101D5000016242614162FFF7B7FC002800D0FEE754
:101D600010BD0000003801407001002010B510487F
:101D70000E4901604B210901416001210907816081
:101D80000021C160016181610C22C1614261016277
:101D9000302141620121090381634900C163FFF7DA
:101DA00093FC002800D0FEE710BD00000048004072
:101DB000E0010020704700008307FF22DB0E9A40FD
:101DC0008907090E994000280BDA0007000F083830
:101DD000830808489B001818C36993430B43C361E9
:101DE0007047830804489B001B18186890430843F9
:101DF0001860704700ED00E000E400E0704700006C
:101E000010B50248FFF7ACF810BD0000CC00002070
:101E100010B50168C968026C1180016C891C0164ED
:101E200001464031CA88521ECA80C988002909D19A
:101E300001684A6840239A434A60C18F002901D152
:101E400000F06EF810BD10B501464031CC88036833
:101E5000026C012C11D9DB681380026C921C0264A5
:101E6000CA88921ECA80CA88012A0DD102685368A6
:101E7000012424032343536006E01C7B531C0364AA
:101E80001470CA88521ECA80C988002909D1016805
:101E90004A6860239A434A60C18F002901D100F04B
:101EA0003FF810BD10B5816B02680988D160816B65
:101EB000891C8163C18F491EC187C18F00290AD146
:101EC00001684A6880239A434A604621095A0029DA
:101ED00001D100F025F810BD10B5C38F0268816BE9
:101EE000022B07D30988D160816B891C8163C18F64
:101EF000891E05E04B1C836309781173C18F491E4D
:101F0000C187C18F00290AD101684A6880239A439A
:101F10004A604621095A002901D100F001F810BD9C
:101F200070B50446FEF738FA02462068416820255D
:101F3000A94341606421204600F024F8002802D023
:101F4000206E28432066226E204601214030002A60
:101F500004D041772046FFF701F870BD427F4177FA
:101F6000042A204602D0FFF757F970BDFFF7E8F8C2
:101F700070BD10B5406A002146221152C187FEF79C
:101F8000EDFF10BDF8B50F460B4615460092032134
:101F900004460022C90200F01BF82026002812D1B6
:101FA0003B46002280212046009500F05CF8002886
:101FB00009D103213B46002249022046009500F04A
:101FC00007F8002803D0206E304320660320F8BDB8
:101FD000F8B51D4617460E4604463DE0032149026A
:101FE0008E4205D1002F03D1017B68460170007835
:101FF000681C31D0002D05D0FEF7CEF90699401AA5
:10200000A84229D320684168E0229143416060687A
:10201000C11FFD390CD10121A068C903884202D03B
:102020004911884204D1206801684022914301602F
:102030000120A16A4003814207D121680A688243D6
:102040000A6021680A6802430A6001204034607710
:10205000002020770320F8BD206881683140B94214
:10206000BCD10020F8BDF8B51D4617460E46044603
:1020700033E0681C31D0002D05D0FEF78DF90699AC
:10208000401AA84229D320684168E0229143416068
:102090006068C11FFD390CD10121A068C9038842C5
:1020A00002D04911884204D120680168402291433E
:1020B00001600120A16A4003814207D121680A68BA
:1020C00082430A6021680A6802430A6001204034A2
:1020D0006077002020770320F8BD206881683046B3
:1020E000884304D00020B842C3D10020F8BD0120AD
:1020F000F9E7704710B5FEF757FBFFF771F910BD10
:1021000030B599B02020012500240090089509944D
:102110006846FEF737FD002800D0FEE707200D9047
:1021200003200E900F94012110940DA8FEF726FCB9
:10213000002800D0FEE7119511A81395FEF78EFB3D
:10214000002800D0FEE7FEF7C3FC7D21C900FDF7A3
:10215000CFFFFFF72DF90420FFF71CF900221146ED
:10216000501EFEF777FB19B030BD00001248016821
:102170000122114301604168104A11404160016829
:102180000F4A1140016001680122920491430160ED
:1021900041683F22120491434160C16A0909090163
:1021A000C162016B074A11400163416B4908490054
:1021B0004163002181607047001002400CB8FF08A5
:1021C000FFFFF6FE2CFEFCFFF0B502681D4B01245C
:1021D000A4071D4D984203D0A04201D0A84203D1CC
:1021E0007026B2434E683243184E194F98420DD0B4
:1021F000A0420BD0A84209D0164CA04206D0B04253
:1022000004D0B84202D0144CA04204D103242402CA
:10221000A243CC6822438024A2434C69224302603B
:102220008A68C2620A688262984206D0B04204D0CC
:10223000B84202D0084A904201D1096901630121E4
:102240004161F0BD002C014000040040004001400D
:1022500000440140002000400048014030B584683F
:10226000FF252D021B021343AC430B432343836022
:1022700030BD826870239A430A4307210A43826073
:10228000704730B5036A046A6408640004628469B4
:10229000F025AC43120122430A24A3430B4382617D
:1022A000036230BD30B5036A1024A343036284691E
:1022B000036A0F252D031203AC432243A024A3433A
:1022C000090119438261016230BD10B5818CC907D3
:1022D00007D001684A6801235B049A43836A1A4362
:1022E0004A60818C890707D501684A6801231B046D
:1022F0009A43C36A1A434A60818C490707D501682B
:102300004A6801239B049A43036B1A434A60818CF9
:10231000090707D501684A680123DB039A43436B29
:102320001A434A60818CC90607D502689168012367
:102330001B039943836B19439160818C890607D5F0
:1023400001688A6801235B039A43C36B1A438A605E
:10235000818C490612D503685A6801210905046C6D
:102360008A4322435A60026C8A4207D1026851684C
:1023700003235B059943436C19435160818C090623
:1023800007D501684A680123DB04806C9A43024345
:102390004A6010BDF8B500260446C666FDF7FCFF8E
:1023A000054616492068884202D0154988421DD149
:1023B0000068144F000709D501212B46002249056A
:1023C0002046009700F065F900280DD120680068CC
:1023D00040070BD501212B46002289052046009796
:1023E00000F057F9002801D00320F8BD2020603408
:1023F0006072A07226720020F8BD00000038014013
:1024000000440040FFFFFF0110B5406A0022014672
:1024100040314A834A82FFF7BBF810BD01680A6861
:10242000FF2321339A430A6001688A6852085200E8
:102430008A60202160308172704710B501680A6897
:1024400040239A430A60202269210A54FFF74BFA7D
:10245000002010BD70B50246403203466033948BB5
:102460009D7A0168222D05D0886908221043886171
:10247000022070BD898C012685683603B54202D1E1
:102480000569002D0BD02140446D651C4565217008
:10249000518B491E0904090C518307D015E0456D85
:1024A00021402980416D891C4165F1E701680A6876
:1024B000FF242134A2430A6001688A68520852004E
:1024C0008A6020219972FFF77DF9002070BD00001D
:1024D000F8B504462369A268E5691A4363691020C8
:1024E0002B43002125681A432B680E46474F3B407B
:1024F00013432B6023685A6803252D03AA43E5681C
:102500002A435A60236AA26925681A43AB680B27DD
:102510003F02BB431343AB603D4F25683D4B020375
:10252000BD420AD11B6B9B079B0F20D0012B14D0FF
:10253000022B14D0032B1BD10DE0374FBD4210D11D
:102540001B6B03273F043B4011D09B1A05D09B1AFD
:1025500005D093420CD102200AE0042008E00820B4
:1025600006E02E4B9D4202D02D4B9D4200D1002013
:102570000123E769DB039F4222D100280CD0022807
:102580000DD0042813D0082817D001260A091201FB
:102590000807400F10432EE0FEF7A0FA09E061683B
:1025A000204A48088018FDF7A3FD81B2EEE7FEF748
:1025B000A5FA616840004A08F4E761684808F1E755
:1025C000002808D0022809D004280CD0082815D0EB
:1025D00001263046F8BDFEF781FA06E06168124A2E
:1025E000480880180DE0FEF789FA61684A088018EB
:1025F000FDF77EFD80B22168C860EAE7616848089F
:10260000C018FDF775FD80B2E860E2E7F369FFEFFF
:1026100000380140001002400044004000480040E3
:10262000004C00400024F40000127A006921095C8B
:10263000212901D00220704702464032518A0029E8
:1026400012D0012381681B03994202D1016900293C
:1026500015D0C16C4B1CC364006809780185508A91
:10266000401E50820020704701680A6880239A4308
:102670000A6000680168402211430160F2E7C16C02
:1026800003680988C905C90D1985C16C891CC16415
:10269000E5E7FFB581B017460E4604460A9D1DE0EA
:1026A000681C1BD0002D05D0FDF776FE0499401A5A
:1026B000A84213D920680168FF22A132914301602A
:1026C0002068816849084900816020206034607278
:1026D000A07200202072032005B0F0BD2068C169FF
:1026E0003046884304D00020B842D9D00020F3E718
:1026F0000120F9E710B50248FEF74CFF10BD0000BD
:10270000E00100200FB410B503A9044B044A02985D
:1027100000F024F810BC08BC04B018475529000884
:102720007400002030B47446641E2578641CAB42EB
:1027300000D21D46635D5B00E31830BC184702E021
:1027400008C8121F08C1002AFAD17047704700203C
:1027500001E001C1121F002AFBD17047FFB58DB007
:102760000F460546002606E025280AD0109A0F9944
:1027700090476D1C761C28780028F5D1304611B0A2
:10278000F0BD00240121674A009400E004436D1C61
:102790002B780846203B98401042F7D128782E2805
:1027A00015D10420044368786D1C2A280AD101CF72
:1027B0006D1C00900BE000990A22514330394018FB
:1027C0006D1C00902878014630390929F3D9287802
:1027D000692843D006DC0028D0D063280BD06428B9
:1027E00004D13BE073280FD075284CD0109A0F9974
:1027F0009047761C94E03878694608720020487249
:1028000002A80190012003E0386801900020C04335
:102810003F1D61070CD5002400E0641C00998C4228
:102820000FDA8442F9DB0199095D0029F5D108E04E
:10283000002400E0641C8442FCDB0199095D00294E
:10284000F8D1361907E0019801990078491C0191E7
:10285000109A0F999047641EF5D261E00A2001900A
:1028600001CF002802DA40422D2102E0210504D5E3
:102870002B216A461172012103E0E10701D02021DA
:10288000F7E70C9104E00A20019001CF00210C91A0
:102890000BA90B9108E00199FDF72AFC0A460B9958
:1028A0003032491E0B910A700028F4D10B9803A90D
:1028B000081A20300190600701D5009801E001203E
:1028C00000900199884203DD01460198081A00E052
:1028D00000200024009006E002A8109A005D0F99E5
:1028E0009047641C761C0C988442F5DB04E0109A37
:1028F00030200F999047761C0099481E00900029BF
:10290000F5DC08E00B980B990078491C0B91109AA4
:102910000F999047761C0199481E01900029F1DC1F
:102920006D1C28E7092801000902014308B270471D
:1029300000B5014600F062FA411800F05FFA8842E3
:10294000FBD300BD10B502490860FEF79DFD10BD28
:102950000000002013B56423012269460248FEF7F7
:1029600032FF00981CBD00007001002070B50D46BC
:10297000044600F020F8002801D0012070BD207826
:102980000C226168504308182946FDF7C7FB2078E0
:10299000A178401CFDF7ACFB2170002070BD10B584
:1029A000044681700C20484300F0B0F96060204676
:1029B00000F026F810BD10B5044681780078401C60
:1029C000FDF796FB6078814201D1012010BD002007
:1029D00010BD41780278914201D1002070474068D3
:1029E0000C2251434018704710B5044640782178B6
:1029F000884204D0A178401CFDF77AFB617010BDBD
:102A000010B500210170417081780C22514340685B
:102A1000FDF79DFB10BD000070B52548FFF7D9FFFD
:102A200004003BD02078002839D00022214E02211A
:102A30003046FDF7AAFC6078002832D000221E4DF7
:102A40000121C9032846FDF7A0FCA07800282AD060
:102A5000002201213046FDF798FCE078002824D0C0
:102A60000022012189032846FDF78FFC207AFF25EB
:102A7000291A032000F0A6F9607A291A002000F034
:102A8000A1F9A07A291A022000F09CF9E07A291A0B
:102A9000012000F097F90648FFF7A6FF70BD01225C
:102AA000C4E70122CBE70122D3E70122D9E70000E6
:102AB00050000020001400480008004870B541068E
:102AC000C209490ED201102907D21B48435C002BD2
:102AD00003D0002A02D00122425470BD0222425487
:102AE0000B00FFF71FFE08050605050B0505100581
:102AF000F3E700F0F1F900F0FFF970BD00F0F0FB32
:102B000000F0DEFB70BD0D4C012202212046FDF7D6
:102B10003CFC0B4D0122D1032846FDF736FC012277
:102B200011462046FDF731FC012291032846FDF7AE
:102B30002CFC00F031F970BDDD02002000140048CB
:102B40000008004870B515460E46044600F022F80D
:102B5000002801D0012070BD21786068465421789A
:102B6000A06845542078A178401CFDF7C1FA217077
:102B7000002070BD70B50D4604468170284600F0F7
:102B8000C5F86060284600F0C1F8A060204600F05B
:102B90002BF870BD10B5044681780078401CFDF715
:102BA000A7FA6078814201D1012010BD002010BD3C
:102BB00010B543780478A34201D1012010BD4468C8
:102BC000E35C0B7081684078085C1070002010BDD9
:102BD00010B5044640782178884204D0A178401C82
:102BE000FDF786FA617010BD10B504460020207014
:102BF0006070A1786068FDF7AAFAA178A068FDF777
:102C0000A6FA10BD1CB5FDF7D7FDFFF779FAFEF760
:102C100073FFFFF71DF8FFF745F8FFF761F8FFF7BF
:102C200089F8FFF7A3F82F48FFF78CFE2E4CFF23FF
:102C3000013322465900104600F050FD2246102371
:102C40002021104600F0B2FA10212848FFF792FF29
:102C50001021274800F0F3F8254810210830FFF72D
:102C60009EFE00F029F9214820216038FDF76FFA17
:102C700000F092F800F080F81D4C0125103C00286F
:102C800000D12570194A1748203A114620234039AF
:102C90006438FEF757FA0020019003460095227829
:102CA000144915A0FFF72EFD104D2D352879012868
:102CB00003D06879012803D004E000F043FB01E071
:102CC00000F03CFCA878012801D100F043FDE87930
:102CD000012801D1FFF7A0FE607A0028E6D000F0BD
:102CE00087FC00003001002000040048B0020020F2
:102CF000480000205438000825730A726576256460
:102D0000207625642E25642E25640A00F0B50B304C
:102D1000C108C900144F0026144A0FE003688B4213
:102D20000BD38B4205D95C1A4318456830C3083B66
:102D300000E04368136002C004E0021D1068002830
:102D4000ECD13046002803D13868002801D000209B
:102D5000F0BD064A06481060064A121AD208D20090
:102D600044C001203860D7E77C00002078000020B4
:102D7000F4020020F004002010B564230122582141
:102D80000448FDF7B3FB002801D0002010BD01204E
:102D900010BD00008000002010B5094C0022042165
:102DA0002046FDF7F2FA0120FDF717FA012204216F
:102DB0002046FDF7EAFA0120FDF70FFA10BD0000EA
:102DC0000004004803B583B0042802D3FF2005B0F7
:102DD00000BD08496423085C01210007020E04A815
:102DE0000293019100900B4658210348FDF70CFC1B
:102DF000EDE700005038000880000020024800681D
:102E00000068406A704700000000002070B50D4661
:102E1000044600F020F8002801D0012070BD207881
:102E20000C226168504308182946FDF777F920788D
:102E3000A178401CFDF75CF92170002070BD10B531
:102E4000044681700C204843FFF760FF6060204615
:102E500000F026F810BD10B5044681780078401CBB
:102E6000FDF746F96078814201D1012010BD0020B4
:102E700010BD41780278914201D10020704740682E
:102E80000C2251434018704710B504464078217811
:102E9000884204D0A178401CFDF72AF9617010BD6A
:102EA00010B500210170417081780C2251434068B7
:102EB000FDF74DF910BD000010B510210548FDF7D4
:102EC00046F9044801214170817001714171C1715D
:102ED00010BD0000DD02002010B5064C0122618803
:102EE000A068FDF752FA0122A188E068FDF74DFACB
:102EF00010BD0000040000200248022101700121E1
:102F0000417070470400002010B5164CE1896069DB
:102F1000FDF732FA012805D1A1892069FDF72CFAC5
:102F2000012806D0E1896069FDF726FA012802D060
:102F300007E0032010BDA1892069FDF71DFA0028D4
:102F400006D0E1896069FDF717FA002802D007E092
:102F5000022010BDA1892069FDF70EFA0128F8D0E2
:102F6000002010BD1800002070B5294E0546B0792C
:102F70000C4601283BD0022838D03078002844D0B5
:102F80000821601CFDF7E3F8032020700820607022
:102F9000A879002801D009206070287A002803D081
:102FA0006078022108436070E9790420002902D08A
:102FB0006178014361700021695E002903DA61785C
:102FC0001022114361700221695E002903DA6178E1
:102FD0002022114361702978A170A978E1702979C4
:102FE00021717179002900D02070002070BD2878EF
:102FF000317A40183072A878717A40187072287946
:10300000B17A4018B072012070BD032070BD00007D
:1030100018000020F8B500250E46FF2814D0624C99
:10302000EC281ED0A17902291DD0E6380127030023
:10303000FFF778FB11ACB29E716E6964645F6459EE
:10304000643A23211E1B640000F04AF91421FA207F
:1030500000F0CAF9FA21AA2000F0B9F914210020E1
:103060003EE0E07947E014213AE000F045F945E020
:103070000020207040E027703EE01421FA2000F08C
:10308000B3F900F053FA48489621401C00F09CF830
:10309000002827D144492079183162780A5407283A
:1030A0002CD2401C207129E000F040FA1421FA20B3
:1030B00000F09AF900206071217902290ED93A486E
:1030C000183040182038C17F502907D1817F6429EA
:1030D00004D1407FC82801D1032060711421607998
:1030E00000F075F9F8BD00F021FAA079E071A77140
:1030F00004E0E1710220A07100F018FA1421FA2016
:1031000000F072F9F8BD1421FA2000F06DF93AE0F0
:10311000E1710020EFE71421FA2000F065F9A079B1
:10312000012800D140252078002801D02020054327
:10313000E078022801D110200543B079002801D0A1
:1031400004200543F079002801D002200543307A9D
:10315000002800D03D431421284600F038F91421FE
:10316000A07800F034F91421607800F030F90AE01A
:103170001421FA2000F038F90B489621801C00F049
:1031800023F80028BFD000F0D1F9F8BD1421FA20AF
:1031900000F02AF9E770F8BD1421FA2000F024F9B4
:1031A0000220E070F8BD00001800002010B5054CAA
:1031B0002061A1816261E38100F092F800F080F863
:1031C00010BD000018000020F3B581B00F460025A7
:1031D0000126FDF7E1F8044606E0FDF7DDF8001BE7
:1031E000B84201D30120FEBDFFF78EFE0128F4D1C5
:1031F0001220FFF79DFB314C0022A1892069FDF7C9
:10320000C4F82420FFF794FB0122A1892069FDF76F
:10321000BCF81220FFF78CFBE1896069FDF7ACF880
:10322000012800D135437004060C1220FFF780FB03
:103230000022A1892069FDF7A8F82420FFF778FB78
:103240000122A1892069FDF7A0F81220FFF770FB89
:10325000FF2EE1D91220FFF76BFB0022A189206924
:10326000FDF793F82420FFF763FB0122A189206971
:10327000FDF78BF81220FFF75BFB1220FFF758FBDE
:103280000022E1896069FDF780F80022A1892069A8
:10329000FDF77BF82420FFF74BFB0122A189206971
:1032A000FDF773F81220FFF743FB0122E189606903
:1032B000FDF76BF8019805700020FEBD1800002096
:1032C00010B5064C0122A1892069FDF75EF80122A4
:1032D000E1896069FDF759F810BD00001800002071
:1032E00000B500F009F80349002008718861C86141
:1032F000487100BD1800002000B5074864214170E6
:10330000022181700121C170002101708171C171A0
:1033100000F00CF900BD00001800002070B5054653
:10332000002409E028194078022100F050F8002814
:1033300001D0012070BD641C2878A042F2DC00207E
:1033400070BD000010B5FFF7DFFD154C022860715D
:103350000DD001280ED020461030FFF78AFD00283E
:1033600007D01049FFF700FE002813D10DE0FFF74A
:10337000A7FF10BD0A480A21801CFFF725FF094955
:10338000A0781839FFF746FE10BD0648FFF7C6FFC4
:103390000028F9D102481030FFF776FD10BD00007B
:1033A00038000020D402002070B50546FCF7F4FF79
:1033B000044606E0FCF7F0FF001BA84201D3012001
:1033C00070BDFFF7A1FD0328F4D1002070BD10B53A
:1033D00004460846FFF7E8FF002801D0012010BD91
:1033E000204600F013F810BD10B504460846FFF75C
:1033F000DBFF002801D0012010BDAF208000FFF7C7
:1034000097FA204600F002F810BD0000F8B5464CCF
:10341000054601260022E1896069FCF7B6FF12200B
:10342000FFF786FA0022A1892069FCF7AEFF24206D
:10343000FFF77EFA0122A1892069FCF7A6FF12207E
:10344000FFF776FAA1892069FCF796FF002868D07B
:103450000027E80701D0012200E00022E18960692D
:10346000FCF793FF1220FFF763FA0022A18920697D
:10347000FCF78BFF2420FFF75BFA0122A18920696A
:10348000FCF783FF1220FFF753FAA1892069FCF7AC
:1034900073FF002845D0E807C00F46406D087F1C29
:1034A000082FD6DB002E01D0012200E00022E189A6
:1034B0006069FCF76AFF1220FFF73AFA0022A1893F
:1034C0002069FCF762FF2420FFF732FA0122A1896C
:1034D0002069FCF75AFF1220FFF72AFAA189206918
:1034E000FCF74AFF00281CD00122E1896069FCF743
:1034F0004CFF1220FFF71CFA0022A1892069FCF77B
:1035000044FF2420FFF714FA0122A1892069FCF767
:103510003CFF1220FFF70CFAFA20FFF709FA00200F
:10352000F8BD0120F8BD000018000020024800216D
:1035300001724172817270471800002070B52A4DE7
:10354000287A0024002807D04D20E8710122E91DC7
:103550002648FEF79CF92C7223481030FFF789FCAF
:1035600000283FD02049C0220A310C808C700A709C
:103570008279002A01D0E0220A70027A002A03D060
:103580000A7810231A430A7082785242D2B2130684
:1035900003D50B78082423430B70530603D50B780F
:1035A000042423430B7003781B0603D50B780224F5
:1035B00023430B7003785B0603D50B780124234368
:1035C0000B7000788006800E48709006800E887020
:1035D00005481030FFF758FC034903220A3103481D
:1035E000FEF755F970BD000038000020E001002012
:1035F00011A0FFF787F8134D0024295D12A0FFF7F3
:1036000081F8641C202CF8DB10A0FFF77BF8134D29
:10361000002408212846FCF7B4FE6420FCF7DDFDF9
:10362000641C642CF5DBBFF34F8F0E490C48C86057
:10363000BFF34F8F00BFFDE7535049204552524F13
:10364000520A000070020020256420000A726562A0
:103650006F6F74696E672E2E2E0A000000040048FA
:103660000400FA0500ED00E070B50646FCF794FE94
:103670000446084D06E0FCF78FFE001BB04201D95E
:10368000012070BD29886868FCF776FE0028F2D01A
:10369000002070BD5800002010B50F4C21886068D4
:1036A000FCF76AFE012802D1FCF776FEE060FCF729
:1036B00073FEE168401A14280CD9FF20F530FFF79B
:1036C000D3FF1420FCF789FDAA2000F061F80A203E
:1036D000FCF783FD10BD00005800002010B5054C1C
:1036E00060602180A260638000F024F8FCF754FE43
:1036F000E06010BD5800002070B5044653280BD878
:10370000022902D000290DD00EE0FCF745FE084D3D
:103710002969401A502801D8002070BDFCF73CFEF2
:10372000286101E080200443204600F031F870BD9C
:103730005800002010B5064C012221886068FCF773
:1037400024FE00226188A068FCF71FFE10BD000067
:103750005800002010B5FFF79FFF0B4A0B48511E81
:10376000FFF726FA002809D10748001F0179C07821
:10377000FFF7C2FF002802D0FFF7DCFF10BD0348AF
:10378000FFF726FA10BD00003C000020B002002028
:1037900070B52E4C054621886068FCF7EDFD0028C9
:1037A0002AD0002221886068FCF7EFFD0520FFF792
:1037B000BFF801226188A068FCF7E7FD6E20FFF7E3
:1037C000B7F86188A068FCF7D7FD002816D0012261
:1037D00021886068FCF7D9FD4120FFF7A9F8002295
:1037E00021886068FCF7D1FD1E20FFF7A1F80026B4
:1037F000E80705D0012204E0012070BD022070BD61
:1038000000226188A068FCF7C0FD01222188606861
:10381000FCF7BBFD4120FFF78BF800222188606890
:10382000FCF7B3FD1E20FFF783F86D08761C082E09
:10383000DEDB012221886068FCF7A7FD0022618899
:10384000A068FCF7A2FD002070BD00005800002019
:10385000000106075553423456432050726F746F6F
:10386000636F6C20426F6172640A49424D2050437D
:1038700020436F6D70617469626C650A64656B7575
:103880004E756B656D203230323200000000000052
:1038900000000001020304060708090000000001FF
:1038A00002030400C438000800000020800000006B
:1038B0003E270008443900088000002070080000FE
:1038C0004E27000800000000020100000000000078
:1038D00000000000000000000000000000000000E8
:1038E00000000000000000000000000000000000D8
:1038F00000000000000000000000000000000000C8
:1039000000000000000000000000000000000000B7
:1039100000000000000000000000000000000000A7
:103920000000000000000000000000000000000097
:103930000000000000127A000000000000000000FB
:043940000000000083
:04000005080000C12E
:00000001FF
