:020000040800F2
:10000000B8080020D500000891180008F515000870
:1000100000000000000000000000000000000000E0
:10002000000000000000000000000000CF1B0008DE
:100030000000000000000000D9180008D11B0008D3
:10004000E7000008E7000008E7000008E7000008F4
:10005000E700000889010008E7000008E700000841
:10006000E7000008E7000008E7000008E7000008D4
:10007000E7000008E7000008E7000008E7000008C4
:10008000E7000008E7000008E7000008E7000008B4
:10009000E7000008E7000008E7000008E7000008A4
:1000A000E7000008DD180008E7000008E700000886
:1000B000E7000008D1210008E7000008E700000879
:1000C0000348854600F04EF80048004745230008E5
:1000D000B80800200448804704480047FEE7FEE7D0
:1000E000FEE7FEE7FEE7FEE7491C0008C100000846
:1000F00030B50B46014600202022012409E00D46C0
:10010000D5409D4205D31D469540491B2546954047
:1001100040191546521E002DF1DC30BD03460B433D
:100120009B0703D009E008C9121F08C0042AFAD2AD
:1001300003E00B780370401C491C521EF9D2704733
:10014000D2B201E00270401C491EFBD2704700226F
:10015000F6E710B513460A4604461946FFF7F0FFC6
:10016000204610BD064C0125064E05E0E36807CC8D
:100170002B430C3C98471034B442F7D3FFF7A4FF4D
:10018000642C0008842C000810B5022000F03CF814
:1001900010BD70B50024014620314A78022A03D0F0
:1001A00004218163012416E0026813680E25AB4325
:1001B0001360026813685B085B0013600122056C22
:1001C0001346AB40C56B6B604A7000220A70416BEE
:1001D000002900D08847204670BD31B500F0DCF81A
:1001E000009C0546601C00D0641C00F0D5F8401B44
:1001F000A042FAD338BD0000022802D101490120F3
:10020000C87170473800002010B504494A6902429D
:1002100002D04861FFF7F0FF10BD0000000401406C
:10022000F8B5002393E0224601249C40A4462240D6
:100230007ED04C68022C01D0122C0CD1DC08A4001A
:1002400027183C6A5D07ED0E0F26AE40B4430E69D9
:10025000AE4026433E6205685E000324B4400F7939
:10026000A543BF07BF0FB7402F4307604D68012D5F
:1002700005D0022D03D0112D01D0122D0ED185688D
:10028000CF68A543B7402F43876047686546AF43B3
:100290000D79ED06ED0F9D403D434560C568A543D2
:1002A0008C68B4402C43C4604C68E4004ED52B4CA1
:1002B000A56901263543A561A4699D0834400094D1
:1002C000274CAD002F19BC689D072E0F0F25B54098
:1002D000AC430925ED06A84201D1002514E0214DCB
:1002E000A84201D101250FE01F4DA84201D10225EE
:1002F0000AE01E4DA84201D1032505E01C4DA8428D
:1003000001D1042500E00525B5402543BD60194C09
:1003100025684E689543F60300D51543256065684A
:100320004E689543B60300D515436560A56800E0A7
:100330000CE04E689543F60200D51543A560E568CC
:100340004E689543B60200D51543E5605B1C0A680C
:100350001446DA4000D066E7F8BD00000010024005
:10036000000001400004004800080048000C00485C
:1003700000100048000401400069084000D001203E
:10038000704742694A4042617047002A01D081614A
:1003900070478162704700000148006870470000A4
:1003A0004C00002070B5024640325378202B1CD1FF
:1003B0001378012B19D0012313702424547004687E
:1003C00025689D432560046825681E03B5432560A4
:1003D000046825680D4325600068016819430160C1
:1003E000202050700020107070BD022070BD70B5CC
:1003F000024640325378202B1BD11378012B18D0A2
:10040000012414702423537003681D68A5431D60E4
:1004100005682B680F263602B34309021943296089
:100420000068016821430160202050700020107096
:1004300070BD022070BD000070B5040006D02546D6
:10044000403568780026002802D005E0012070BD04
:100450002E70204600F04AF8242068702068016859
:100460004908490001600F21606809068843216836
:10047000086121688A680120C00382438A60E168BC
:100480000129A16808D021229202114322689160BB
:10049000E168022902D005E00143F7E70121226863
:1004A000C902516021684A680F4B1A434A602168AB
:1004B000CA688243CA60616920690843A169090268
:1004C00008432168C860216AE06908432168086020
:1004D0002068016801221143016066642020687071
:1004E0002663AE70002070BD0080000200B5006879
:1004F0000E4987B0884217D1032040030090122094
:100500000190012002900320039005200490694689
:100510000748FFF785FE0748C269012189050A439C
:10052000C261C0690840059007B000BD0058004096
:10053000000400480010024002480168491C0160A4
:10054000704700004C00002010B5064801681022DA
:1005500011430160002000F007F800F017F80020B8
:1005600010BD00000020024010B5044600F086F9DE
:100570007D21C900FFF7BCFD00F0A0FD002221464F
:10058000501E00F02FF8002010BD000008B50F48E5
:100590008169012211438161816911400091C26921
:1005A00001040A43C261C06900220840009011465C
:1005B000501F00F017F800221146901E00F012F8AC
:1005C00000221146501E00F00DF808BD0010024038
:1005D000C106C90E0120884001490860704700002B
:1005E00000E100E010B501F055F910BDBFF34F8FE9
:1005F00004490348C860BFF34F8F00BFFDE7000008
:100600000400FA0500ED00E0F8B504460068434D2B
:10061000C00352D5E8690026C00007D4E969280460
:100620000143E961E9690140012600913C48016804
:10063000C90510D40168821511430160FFF7ACFEB3
:10064000074604E0FFF7A8FEC01B642824D83448FE
:100650000068C005F6D5286A03273F02384020D03D
:100660006168394081421CD0286A2A6AB843012156
:1006700009040A432A622A6A8A432A622862C00756
:100680000FD0FFF789FE009008E0FFF785FE009984
:10069000411A2448814201D90320F8BD286A800705
:1006A000F3D5286A6168B84308432862002E04D055
:1006B000E869012109078843E8612078C00705D06F
:1006C000286BA16880088000084328632078800791
:1006D00006D5286B032109048843E1680843286391
:1006E0002078800605D5286B1021884321690843AE
:1006F00028632068800305D5286B80218843A16981
:10070000084328632088400505D5286B402188438D
:100710006169084328630020F8BD00000010024012
:100720000070004088130000F8B505464E480E469C
:100730000068C007C00FB0420AD24B4801684908A0
:100740004900314301600068C007C00FB04270D15A
:100750002878464C800705D56068F0218843A96851
:10076000084360602878C00753D06868012817D014
:10077000022818D0032819D021688907002958DADF
:1007800061688908890001436160FFF705FE6968B7
:100790000746012913D002291DD0032927D034E0B0
:1007A00021688903EAE721688901E7E7616BC903EA
:1007B000E4E7FFF7F1FDC11B2D48814223D86068B3
:1007C0000007800F0128F4D123E0FFF7E5FDC11BEE
:1007D0002748814217D860680007800F0228F4D1AB
:1007E00017E0FFF7D9FDC11B214881420BD8606893
:1007F0000007800F0328F4D10BE0FFF7CDFDC11BEC
:100800001B48814201D90320F8BD60680007800FB2
:10081000F3D115480168C907C90FB1420BD9016866
:1008200049084900314301600068C007C00FB04269
:1008300001D00120F8BD2878400706D5606807215F
:1008400009028843E9680843606000F02DF8616898
:10085000084A0906090F515CC84007490860002092
:10086000FFF782FE0020F8BD002002400010024089
:1008700088130000492C000850000020014800683F
:10088000704700005000002004480549006849688E
:10089000044A4905490F515CC84070475000002088
:1008A00000100240592C000830B516A30FCB89B0B8
:1008B0006C460FC417A30FCB0FC41A494A680C200B
:1008C000144604401848042C05D0184B082C04D0BA
:1008D0000C2C00D1184609B030BD9402240F6D468F
:1008E0002C5DC96A04AD0907090FD203695C920F38
:1008F000022A02D0032A00D11846FFF7F9FB604311
:10090000E9E7000002030405060708090A0B0C0DBD
:100910000E0F10100102030405060708090A0B0C4C
:100920000D0E0F100010024000127A00006CDC0265
:10093000FEB504460078F04EF04DC00748D0686818
:100940000007800F01281FD068680007800F022869
:1009500004D16868C003800F022815D0616801299E
:1009600019D001208004002901D0052917D0296859
:10097000B1432960296881432960606800281BD041
:10098000FFF70AFD074613E02868800320D560685A
:10099000002876D01CE0286830432860EDE72968FD
:1009A00001432960F7E7FFF7F7FCC01B642869D80B
:1009B00028688003F7D50BE0FFF7EEFC074604E05C
:1009C000FFF7EAFCC01B6428F1D828688003F7D43D
:1009D000207880073ED568680007800F14D06868CB
:1009E0000007800F022804D16868C003800F012827
:1009F0000AD0E068002828681DD00121084328603B
:100A0000FFF7CAFC07460BE0286880070BD5E068B3
:100A1000012836D107E0FFF7BFFCC01B0228C6D86B
:100A200028688007F7D52868F82188432169C9001C
:100A3000084328600EE0400840002860FFF7ACFC47
:100A4000074604E0FFF7A8FCC01B0228AFD82868BF
:100A50008007F7D42078000724D5E0690028686A69
:100A600011D0012108436862FFF796FC074604E0B5
:100A7000FFF792FCC01B022899D8686A8007F7D557
:100A800010E036E1D1E0400840006862FFF784FCE6
:100A9000074604E0FFF780FCC01B022887D8686A7D
:100AA0008007F7D4207804274007002861DA002067
:100AB0000190E869C00008D4E969B8060143E9611A
:100AC000E96901400120009101908D480168C90544
:100AD00011D40168821511430160FFF75DFC00909D
:100AE00005E0FFF759FC0099401A642897D884481C
:100AF0000068C005F5D5A06801280AD0002801D0FB
:100B0000052811D0286A400840002862286AB843A6
:100B100002E0286A012108432862A068002812D058
:100B2000FFF73AFC00900AE0286A38432862F0E7B1
:100B3000FFF732FC0099411A7248814275D8286A41
:100B40008007F5D50DE0FFF727FC009006E0FFF7E2
:100B500023FC0099411A6B48814266D8286A8007B5
:100B6000F5D40198002804D0E969012000078143E9
:100B7000E9612078C00635D5606901280CD0401D98
:100B8000686B24D038436863686B40084000686332
:100B9000FFF702FC074622E0686B38436863686B26
:100BA000012108436863FFF7F7FB074604E0FFF7FE
:100BB000F3FBC01B022838D8686B8007F7D5686B39
:100BC000F8218843A169C900084368630AE0B84373
:100BD0006863F4E7FFF7E0FBC01B022825D8686BC9
:100BE0008007F7D42078800637D568680007800F23
:100BF000032813D068680007800F022804D16868B2
:100C0000C003800F032809D0206A0028686B16D023
:100C100030436863FFF7C0FB06460CE0686BC00317
:100C20001BD5206A012864D117E05BE0FFF7B4FB15
:100C3000801B022856D8686BC003F7D50DE0B0437F
:100C40006863FFF7A9FB064604E0FFF7A5FB801BDE
:100C5000022847D8686BC003F7D4606A002846D0E2
:100C600069680907890F022943D001263606022840
:100C7000286805D0B0432860FFF78EFB044633E0B8
:100C8000B0432860FFF788FB074604E0FFF784FBCA
:100C9000C01B022826D828688001F7D4E86A216B97
:100CA000000900010843E862A16AE06A0843696834
:100CB0007B22D20391430843686028683043286050
:100CC000FFF76AFB044604E0FFF766FB001B0228FF
:100CD00008D828688001F7D509E0FFF75DFB001B05
:100CE000022801D90320FEBD28688001F5D4002028
:100CF000FEBD0120FEBD000000000100001002400A
:100D0000007000408813000070470000F8B50446EA
:100D10000068426881684B0605D4CB0703D05306B0
:100D200001D5E16C04E08B0705D5130603D5216DD1
:100D300020468847F8BDFF2361331942FAD0930655
:100D4000F8D523464D064033002D09DA5D7F032D8B
:100D50003CD0256E042635432566C5688568009518
:100D60008E060125002E08DA266E2E43266686683A
:100D7000009606684027BE430660C80506D5206E6B
:100D8000082108432066206880680090206E0028B3
:100D9000D0D020684168E026B14341605D7790077C
:100DA00018D020684168890889004160A06D0B4D0A
:100DB000002803D04563A06DFFF7EBF9606D0028B4
:100DC000B8D04563606DFFF7E4F9F8BDC16880688D
:100DD0000090F8BD2046FFF797FFF8BD4F1A0008B6
:100DE000F8B5040007D0002625464035A662687F86
:100DF000002802D005E00120F8BD2E77204600F043
:100E00004BF802236B772068016840229143016010
:100E10000721E0680902884201D9002201E001228D
:100E200012030F273F02B84202D0884200D0A662C8
:100E3000276B002F05D1884201D9236301E00120EF
:100E40002063A16860686369084321691943084306
:100E50000123A1695B0219400843E1690843216A43
:100E60000843A16A084321680860616B606AA3694E
:100E700008431B0C0427E1683B40194308432168E1
:100E8000104348602068C1697A029143C1612666B7
:100E9000012068770020F8BD00B50068114987B0CF
:100EA00088421DD11048826981140A438261806999
:100EB00008400590F02000900220019000210320BE
:100EC00003900291049109206946C006FFF7A8F932
:100ED000002211461920FFF785FB1920FFF778FB48
:100EE00007B000BD00300140001002407047000014
:100EF000F0B504468C464034217F0025C7689646ED
:100F000001290CD001212177667F4168012E0CD088
:100F1000CA1FFD3A07D18168002904D101E00220EF
:100F2000F0BD042E01D0022540E0614600291BD00F
:100F30007146002918D0002B16D0617F042901D0FA
:100F40000521617700210166614681638387C3873C
:100F500071460164A380E380072109028F4205D90D
:100F6000144AC264144A04E001251FE0134AC26413
:100F7000134A0265012212038F4202D8E188022936
:100F800003D301684B68934302E001684B68134345
:100F90004B6001684A68E0231A434A6000680168B0
:100FA000490603D4016840221143016000202077E4
:100FB0002846F0BDED180008811900082319000823
:100FC000B5190008F8B50122D50309202946C00645
:100FD000FFF7DBF92D492022881AFFF79FF82B4AEB
:100FE0002023114640392A48FFF782FF274C203C36
:100FF0002078DE280DD0274F002608213846FFF73D
:10100000C0F96420FFF7E9F8761C142EF5DBFFF732
:10101000EDFAA078012805D11C48227AA179203068
:1010200001F01EFAA078022821D16179207901F01F
:101030000CF9164A2C321080E179A07901F005F9FB
:1010400040425080617A207A01F0FFF8404290805F
:10105000607B9071A07B1072E07BD071207C50721D
:10106000607C0A4990722C310B4801F0BBFCA078DF
:10107000042804D1C10200220848FFF786F909209C
:1010800000222946C006FFF780F9F8BD7002002053
:10109000AC00002000040048440000200008004884
:1010A000042204490428086902D09043086170476B
:1010B0001043FBE700E000E070470000094910B56D
:1010C000401E884201D9012010BD074C60610321F8
:1010D000081F00F0DFFB0020A06107202061002036
:1010E00010BD0000FFFFFF0000E000E010B5FFF7BB
:1010F000E3FF10BD70B502462032137F012B1BD0D9
:101100000123137702245477046865687026B54379
:101110006560046865680E68354365600468A568A5
:101120008026B543A5600068846849680C438460E4
:1011300053770020107770BD022070BD70B5040099
:1011400005D025462035687F002802D006E0012022
:1011500070BD00202877204600F00AF8022068774A
:10116000211D206800F09EFD01206877002070BDE1
:1011700008B5006801218907884207D10448C16980
:1011800001221143C161C0691040009008BD0000F8
:10119000001002400222014620314A77026813689B
:1011A000012003431360487700207047F8B50546D7
:1011B00004462035287F012817D001272F770220E9
:1011C0006877226890687726FF23B0431B02984314
:1011D00090600868502837D00EDC202857D006DCF5
:1011E00000284ED0102840D14EE00220F8BD302813
:1011F00050D0402839D13CE060282DD0702817D03D
:1012000001221203801A0ED090422ED1CB684A6878
:101210008968206800F090FD2068816801229203AF
:101220001143816021E020688168C908C900F8E79E
:10123000CB684A688968206800F07EFD216888686C
:10124000B0433043886010E0CA684968206800F005
:1012500086FD5021206806E0CA684968206800F0D1
:101260008FFD6021206800F072FD6F7700202877E5
:10127000F8BDCA684968206800F071FD4021206807
:10128000F1E700212068EEE710212068EBE720213C
:101290002068E8E730212068E5E7704770470000E4
:1012A000F8B503680446D869196805072D0F07D1FA
:1012B000820605D58A0603D5204600F039FEF8BD22
:1012C0009A68002D64D0D507ED0FFF2621360E4019
:1012D0002E435DD0C60706D0CE0504D501261E627A
:1012E000E36E3343E366870702230426002F06DA02
:1012F000D70704D027683B62E76E3743E7664707A6
:1013000006D5D20704D022681662E26E1A43E2665E
:10131000020709D520220A402A4305D02368082263
:101320001A62E36E1343E366E26E002AC7D08006BA
:1013300004D5880602D5204600F0FAFDE06E0007CD
:1013400003D42068806840061CD5204600F0D4FDF8
:1013500020688168490611D58168402291438160E7
:10136000606E00280AD01A494163606EFEF711FFD3
:101370000028A4D0606E416B8847F8BD2046FFF777
:101380008DFFF8BD2046FFF789FF0020E066F8BD1D
:10139000C5020DD552020BD501200005186220218F
:1013A00020466030417281722046FFF776FFF8BD1B
:1013B000020605D50A0603D5204600F0A5FEF8BDB5
:1013C0004006FCD54806FAD5204600F0A4FDF8BD3D
:1013D000E51E000870B5040005D025466035687A22
:1013E000002802D006E0012070BD002028722046AF
:1013F00000F026F824206872206801684908490036
:101400000160204600F0D2FD0128EDD0606A00287E
:1014100002D0204600F0C7FC206841680922D202B1
:1014200091434160206881682A229143816020684D
:101430000168012211430160204600F019FD70BDD2
:1014400030B51F4D046800211E480222032387B0D7
:10145000AC4214D1856954032543856180690291AA
:101460002040059058020090012004900920039329
:1014700001926946C006FEF7D3FE07B030BD124D9B
:10148000AC42FAD1C5690124A4042543C561C069F1
:1014900002912040059003208002009004200490D7
:1014A0000393019269460948FEF7BAFE0022012122
:1014B0001D20FFF797F81D20FFF78AF8DDE70000F1
:1014C000003801400010024000480040000400487D
:1014D0007047FFB5064604466036707A83B00D4605
:1014E000202858D1002D0CD00598002809D00120C3
:1014F000A1680003814207D12069002804D1E807D0
:1015000002D0012007B0F0BD307A012843D001207D
:1015100030720020E06621207072FEF73DFF0190DE
:1015200027464037059838820598788218E0788AEF
:10153000401E788206980090002280212046019B60
:1015400000F015FE002818D10120A1680003814297
:1015500002D12069002812D02168287808856D1CE6
:10156000788A0028E3D10698009000224021204686
:10157000019B00F0FCFD002808D00320C2E728886A
:101580002168C005C00D0885AD1CE9E720207072F8
:1015900000203072B6E70220B4E730B5034660336E
:1015A0005C7A202C23D100290BD0002A09D00125F8
:1015B00084682D03AC4206D10469002C03D1CC070A
:1015C00001D0012030BD1C7A012C10D0C16401462D
:1015D00040310A824A820021C16621225A72197260
:1015E00000680168802211430160002030BD0220A4
:1015F00030BD7047FEE70000F0B5474887B042694C
:101600000121C9040A43426142690A4005924269C4
:10161000C9000A43426142690A4005924269491180
:101620000A43426142690A400592426949000A43FD
:10163000426140694C11084005900022214637481C
:10164000FEF7A3FE0326B603012231463348FEF718
:101650009CFE012203213248FEF797FECD21012294
:1016600089003048FEF791FEA70009200022394684
:10167000C006FEF78AFE002208212A48FEF785FEF2
:10168000009400240125019502946946234803949F
:10169000FEF7C6FD00961126029469461F48019682
:1016A0000394FEF7BDFD0320009002946946019665
:1016B00003941B48FEF7B4FD022000901A480190E5
:1016C000694602941748FEF7ABFD0C200090029487
:1016D0006946019503941348FEF7A2FD0920029480
:1016E0006946C006009701950394FEF799FD3320E3
:1016F0000001009002946946019603940948FEF7A0
:101700008FFD002202210520FEF76CFF0520FEF769
:101710005FFF07B0F0BD0000001002400008004865
:1017200000140048000400480000211010B51248C1
:1017300010490160114941600021816001614161EE
:1017400081610122C161C2600162FEF775FE00285D
:1017500000D0FEE700210848FEF724FE002800D054
:10176000FEE700210448FEF742FE002800D0FEE715
:1017700010BD000000580040600000205D3E302099
:1017800010B50D480B490160002141608160016185
:10179000416181610722016212024162C26081627D
:1017A00007220163C2624163FFF71AFB002800D0E1
:1017B000FEE710BD00300140AC00002010B5012153
:1017C000124886B08907016000242F21846041609F
:1017D0000461611E8461C160FFF7B0FC002800D085
:1017E000FEE701200003009069460848FFF7DEFC91
:1017F000002800D0FEE7049404A904480594FFF7EC
:1018000079FC002800D0FEE706B010BD10010020D2
:1018100010B50C480A490160E121490241600021EC
:101820008160C16001618161C1610C22016242611C
:101830004162FFF7CFFD002800D0FEE710BD000099
:10184000003801405001002010B510480E490160D9
:101850004B21090141600121090781600021C1601C
:10186000016181610C22C1614261016230214162EA
:101870000121090381634900C163FFF7ABFD002823
:1018800000D0FEE710BD000000480040C00100206D
:10189000704700008307FF22DB0E9A408907090E7C
:1018A000994000280BDA0007000F08388308084821
:1018B0009B001818C36993430B43C36170478308A7
:1018C00004489B001B181868904308431860704731
:1018D00000ED00E000E400E07047000010B50248B1
:1018E000FFF714FA10BD0000AC00002010B501682D
:1018F000C968026C1180016C891C01640146403189
:10190000CA88521ECA80C988002909D101684A685C
:1019100040239A434A60C18F002901D100F06EF83C
:1019200010BD10B501464031CC880368026C012C13
:1019300011D9DB681380026C921C0264CA88921E63
:10194000CA80CA88012A0DD1026853680124240381
:101950002343536006E01C7B531C03641470CA8845
:10196000521ECA80C988002909D101684A686023CB
:101970009A434A60C18F002901D100F03FF810BDA1
:1019800010B5816B02680988D160816B891C816305
:10199000C18F491EC187C18F00290AD101684A68D9
:1019A00080239A434A604621095A002901D100F058
:1019B00025F810BD10B5C38F0268816B022B07D3C9
:1019C0000988D160816B891C8163C18F891E05E004
:1019D0004B1C836309781173C18F491EC187C18F66
:1019E00000290AD101684A6880239A434A60462147
:1019F000095A002901D100F001F810BD70B5044664
:101A0000FEF7CAFC0246206841682025A9434160D0
:101A10006421204600F024F8002802D0206E2843DC
:101A20002066226E204601214030002A04D04177F2
:101A30002046FFF769F970BD427F4177042A2046AE
:101A400002D0FFF7BFFA70BDFFF750FA70BD10B5B6
:101A5000406A002146221152C187FFF755F910BD97
:101A6000F8B50F460B4615460092032104460022A6
:101A7000C90200F01BF82026002812D13B460022A4
:101A800080212046009500F05CF8002809D1032150
:101A90003B46002249022046009500F007F8002846
:101AA00003D0206E304320660320F8BDF8B51D46F4
:101AB00017460E4604463DE0032149028E4205D1F9
:101AC000002F03D1017B684601700078681C31D07B
:101AD000002D05D0FEF760FC0699401AA84229D3D4
:101AE00020684168E022914341606068C11FFD3970
:101AF0000CD10121A068C903884202D04911884253
:101B000004D1206801684022914301600120A16A4C
:101B10004003814207D121680A6882430A60216834
:101B20000A6802430A600120403460770020207771
:101B30000320F8BD206881683140B942BCD1002043
:101B4000F8BDF8B51D4617460E46044633E0681C3E
:101B500031D0002D05D0FEF71FFC0699401AA8428F
:101B600029D320684168E022914341606068C11F29
:101B7000FD390CD10121A068C903884202D0491166
:101B8000884204D12068016840229143016001200D
:101B9000A16A4003814207D121680A6882430A6032
:101BA00021680A6802430A600120403460770020FF
:101BB00020770320F8BD206881683046884304D030
:101BC0000020B842C3D10020F8BD0120F9E77047DA
:101BD00010B5FEF7B1FCFFF789FA10BD30B599B02A
:101BE0002020012500240090089509946846FEF7FE
:101BF0009FFE002800D0FEE707200D9003200E90E6
:101C00000F94012110940DA8FEF78EFD002800D03E
:101C1000FEE7119511A81395FEF7F6FC002800D0F9
:101C2000FEE7FEF72BFE7D21C900FEF761FAFFF704
:101C300045FA0420FFF734FA00221146501EFEF741
:101C4000D1FC19B030BD00001248016801221143D7
:101C500001604168104A1140416001680F4A11401B
:101C600001600168012292049143016041683F22B2
:101C7000120491434160C16A09090901C162016B03
:101C8000074A11400163416B490849004163002143
:101C900081607047001002400CB8FF08FFFFF6FE9D
:101CA0002CFEFCFFF0B502681D4B0124A4071D4D5E
:101CB000984203D0A04201D0A84203D17026B2437B
:101CC0004E683243184E194F98420DD0A0420BD0A7
:101CD000A84209D0164CA04206D0B04204D0B84267
:101CE00002D0144CA04204D103242402A243CC68A5
:101CF00022438024A2434C69224302608A68C26264
:101D00000A688262984206D0B04204D0B84202D03B
:101D1000084A904201D10969016301214161F0BD86
:101D2000002C0140000400400040014000440140FC
:101D3000002000400048014030B58468FF252D0296
:101D40001B021343AC430B432343836030BD8268C3
:101D500070239A430A4307210A438260704730B5D3
:101D6000036A046A6408640004628469F025AC4371
:101D7000120122430A24A3430B438261036230BD54
:101D800030B5036A1024A34303628469036A0F25F4
:101D90002D031203AC432243A024A343090119439A
:101DA0008261016230BD10B5818CC90707D001681E
:101DB0004A6801235B049A43836A1A434A60818C10
:101DC000890707D501684A6801231B049A43C36A3F
:101DD0001A434A60818C490707D501684A68012384
:101DE0009B049A43036B1A434A60818C090707D509
:101DF00001684A680123DB039A43436B1A434A6034
:101E0000818CC90607D50268916801231B03994399
:101E1000836B19439160818C890607D501688A68B4
:101E200001235B039A43C36B1A438A60818C490682
:101E300012D503685A6801210905046C8A432243BC
:101E40005A60026C8A4207D10268516803235B051D
:101E50009943436C19435160818C090607D5016889
:101E60004A680123DB04806C9A4302434A6010BD38
:101E7000F8B500260446C666FEF78EFA05461649F2
:101E80002068884202D0154988421DD10068144F4D
:101E9000000709D501212B4600224905204600975D
:101EA00000F065F900280DD12068006840070BD5C7
:101EB00001212B46002289052046009700F057F9A2
:101EC000002801D00320F8BD202060346072A07289
:101ED00026720020F8BD0000003801400044004098
:101EE000FFFFFF0110B5406A0022014640314A83DE
:101EF0004A82FFF7D3F910BD01680A68FF23213336
:101F00009A430A6001688A68520852008A60202158
:101F100060308172704710B501680A6840239A43A7
:101F20000A60202269210A54FFF763FB002010BDDC
:101F300070B50246403203466033948B9D7A016847
:101F4000222D05D08869082210438861022070BDC7
:101F5000898C012685683603B54202D10569002DBA
:101F60000BD02140446D651C45652170518B491E85
:101F70000904090C518307D015E0456D21402980E3
:101F8000416D891C4165F1E701680A68FF2421342D
:101F9000A2430A6001688A68520852008A602021C0
:101FA0009972FFF795FA002070BD0000F8B504465D
:101FB0002369A268E5691A43636910202B43002155
:101FC00025681A432B680E46474F3B4013432B604E
:101FD00023685A6803252D03AA43E5682A435A60FB
:101FE000236AA26925681A43AB680B273F02BB43EB
:101FF0001343AB603D4F25683D4B0203BD420AD100
:102000001B6B9B079B0F20D0012B14D0022B14D0ED
:10201000032B1BD10DE0374FBD4210D11B6B0327A3
:102020003F043B4011D09B1A05D09B1A05D0934228
:102030000CD102200AE0042008E0082006E02E4B24
:102040009D4202D02D4B9D4200D100200123E76923
:10205000DB039F4222D100280CD002280DD0042897
:1020600013D0082817D001260A0912010807400FCB
:1020700010432EE0FEF708FC09E06168204A48089A
:102080008018FEF735F881B2EEE7FEF70DFC6168C7
:1020900040004A08F4E761684808F1E7002808D0E2
:1020A000022809D004280CD0082815D00126304673
:1020B000F8BDFEF7E9FB06E06168124A480880189F
:1020C0000DE0FEF7F1FB61684A088018FEF710F892
:1020D00080B22168C860EAE761684808C018FEF766
:1020E00007F880B2E860E2E7F369FFEF00380140EB
:1020F000001002400044004000480040004C0040F6
:102100000024F40000127A006921095C212901D021
:102110000220704702464032518A002912D0012322
:1021200081681B03994202D10169002915D0C16C55
:102130004B1CC364006809780185508A401E508298
:102140000020704701680A6880239A430A6000688B
:102150000168402211430160F2E7C16C03680988FD
:10216000C905C90D1985C16C891CC164E5E7FFB5B6
:1021700081B017460E4604460A9D1DE0681C1BD020
:10218000002D05D0FEF708F90499401AA84213D98A
:1021900020680168FF22A1329143016020688168B4
:1021A000490849008160202060346072A0720020DC
:1021B0002072032005B0F0BD2068C1693046884315
:1021C00004D00020B842D9D00020F3E70120F9E77D
:1021D00010B50248FFF764F810BD0000C0010020F0
:1021E00010B5024A024900F021F810BD792200081A
:1021F0005400002030B47446641E2578641CAB4241
:1022000000D21D46635D5B00E31830BC184702E056
:1022100008C8121F08C1002AFAD170477047002071
:1022200001E001C1121F002AFBD17047F8B5164624
:102230000F460446002503E03946B047641C6D1C78
:1022400020780028F8D12846F8BD0902014308B2D9
:10225000704700B5014600F0FBF8411800F0F8F8AF
:102260008842FBD300BD000010B502490860FEF7AC
:1022700091FF10BD0000002013B5642301226946C0
:102280000248FFF726F900981CBD0000500100200D
:1022900038B5ED380D462A4C0300FFF7ABFF13416C
:1022A0003B2425242D251D164C24242424242424B9
:1022B0004C0B240014220121FA2000F0E1FA00F076
:1022C0008FFAFA220021AA2027E014220121FA2005
:1022D00000F0D6FA002005E014220121FA2000F0D7
:1022E000CFFA0120607038BD14220121FA2000F0DD
:1022F000C7FA1E2168461AE014220121FA2000F0D4
:10230000BFFA14220021AB2000F0BAFA14220021F7
:10231000832002E014220121EE2000F0B1FA38BD42
:1023200014220121FA2000F0ABFA1E21284600F009
:10233000C9F90028F3D114220121FA20EDE70000A9
:1023400004000020FEF700F9FFF748FCFFF754F9FE
:10235000FFF7ECF9FFF714FAFFF730FAFFF758FA36
:10236000FFF772FA1748FFF77FFF174CFF2301337F
:1023700022465900104600F0F5F82246102320218D
:10238000104600F085FB1021104800F081F8102164
:102390000F4800F040FB0D4820216038FDF7D7FEC4
:1023A0000A4A0848203A1146202340396438FEF78B
:1023B0009FFD08A0FFF714FF00F0AEFB00F018FA35
:1023C000FAE70000100100200004004890020020FD
:1023D0004400002068656C6C6F20776F726C640A33
:1023E00000000000F0B50B30C108C900144F0026F2
:1023F000144A0FE003688B420BD38B4205D95C1A59
:102400004318456830C3083B00E04368136002C0CE
:1024100004E0021D10680028ECD13046002803D1EA
:102420003868002801D00020F0BD064A0648106038
:10243000064A121AD208D20044C001203860D7E7F9
:102440005C00002058000020BC020020B8040020DE
:10245000024800680068406A7047000000000020E1
:1024600070B515460E46044600F022F8002801D04B
:10247000012070BD2178606846542178A0684554D9
:102480002078A178401CFDF733FE2170002070BD3C
:1024900070B50D46044681702846FFF7A3FF6060C3
:1024A0002846FFF79FFFA060204600F02BF870BD84
:1024B00010B5044681780078401CFDF719FE60785D
:1024C000814201D1012010BD002010BD10B543781C
:1024D0000478A34201D1012010BD4468E35C0B7075
:1024E00081684078085C1070002010BD10B504466B
:1024F00040782178884204D0A178401CFDF7F8FD8F
:10250000617010BD10B50446002020706070A17885
:102510006068FDF71CFEA178A068FDF718FE10BDED
:1025200070B50F4D6988A868FDF726FF0446A98895
:10253000E868FDF721FF012802D0002809D00AE051
:10254000012C02D0002C02D005E0032070BD022037
:1025500070BD012C01D0002070BD012070BD0000B5
:102560000400002010B5054CA0606180E260A380EB
:1025700000F026F900F034F910BD0000040000203E
:1025800010B54E4A5278002A0AD0592810D24C4A27
:10259000145CFF2C7ED0002904D0142200211FE0FF
:1025A000012010BD14220021F02000F069F9F4E7A9
:1025B000632817D077284AD00246603A1F2A7AD873
:1025C0003F4A5932101860380478FF2C6BD000292C
:1025D0006BD014220021E02000F052F914220121D6
:1025E000204630E0002912D014220021E02000F023
:1025F00047F914220021122000F042F91422002190
:10260000E02000F03DF9142200217C201BE0142280
:102610000021E02000F034F914220021F02000F025
:102620002FF9142200217C2000F02AF91422002125
:10263000E02000F025F914220021F02000F020F91C
:1026400014220021122000F01BF9002010BD0029E7
:10265000B6D014220021E12000F012F9142200214A
:10266000104600F00DF914220021772000F008F93F
:1026700014220021E12000F003F914220021F020AF
:1026800000F0FEF814220021104600F0F9F81422A0
:10269000002101E007E00EE0F02000F0F1F8142244
:1026A00000217720CFE7022010BD14220021E02076
:1026B00000F0E6F876E7032010BD000004000020DB
:1026C000D02B0008F3B581B00F4600250126FDF799
:1026D00063FE3A4C206107E0FDF75EFE2169401A77
:1026E000B84201D30120FEBDFFF71AFF0128F3D144
:1026F0001220FFF7AEFD00226188A068FDF745FEBD
:102700002420FFF7A6FD01226188A068FDF73DFEA9
:102710001220FFF79EFDA188E068FDF72DFE01283D
:1027200000D135437004060C1220FFF792FD002201
:102730006188A068FDF729FE2420FFF78AFD0122A9
:102740006188A068FDF721FE1220FFF782FDFF2EB1
:10275000E1D91220FFF77DFD00226188A068FDF716
:1027600014FE2420FFF775FD01226188A068FDF7A3
:102770000CFE1220FFF76DFD1220FFF76AFD00220C
:10278000A188E068FDF701FE00226188A068FDF7DE
:10279000FCFD2420FFF75DFD01226188A068FDF7A4
:1027A000F4FD1220FFF755FD0122A188E068FDF736
:1027B000ECFD019805700020FEBD00000400002023
:1027C00010B5064C01226188A068FDF7DEFD0122EC
:1027D000A188E068FDF7D9FD10BD000004000020CD
:1027E000024802210170012141707047040000205D
:1027F00038B5FFF795FE1F4C0228607102D0012802
:1028000003D024E0FFF7DCFF38BDFF2168460170EC
:102810000A211848FFF756FF69462078FFF738FD70
:1028200068460578FF2D12D020211348FDF78FFC54
:102830001148CD21017001462031497841700121B4
:102840008170C5700A4649030C48FDF79EFD094A90
:102850000948D21C511E6030FFF738FE0028D3D142
:10286000E178A078FFF78CFE03486030FFF73EFE6A
:1028700038BD000038000020300200200008004869
:10288000F8B515460E460746FDF786FD0C4C20614F
:1028900007E0FDF781FD2169401AA84201D301201C
:1028A000F8BDFFF73DFE0328F3D1002E03D0AF2083
:1028B0008000FFF7CEFC384600F004F8F8BD0000B9
:1028C00004000020F8B5464C054601260022A188E8
:1028D000E068FDF75AFD1220FFF7BBFC002261887B
:1028E000A068FDF752FD2420FFF7B3FC01226188A8
:1028F000A068FDF74AFD1220FFF7ABFC6188A068D5
:10290000FDF73AFD002868D00027E80701D0012232
:1029100000E00022A188E068FDF737FD1220FFF7F4
:1029200098FC00226188A068FDF72FFD2420FFF7A6
:1029300090FC01226188A068FDF727FD1220FFF7B7
:1029400088FC6188A068FDF717FD002845D0E807DE
:10295000C00F46406D087F1C082FD6DB002E01D02B
:10296000012200E00022A188E068FDF70EFD1220A0
:10297000FFF76FFC00226188A068FDF706FD2420A8
:10298000FFF767FC01226188A068FDF7FEFC1220BA
:10299000FFF75FFC6188A068FDF7EEFC00281CD003
:1029A0000122A188E068FDF7F0FC1220FFF751FC3E
:1029B00000226188A068FDF7E8FC2420FFF749FCAD
:1029C00001226188A068FDF7E0FC1220FFF741FCBE
:1029D000C820FFF73EFC0020F8BD0120F8BD000034
:1029E0000400002070B50D46044600F020F80028D1
:1029F00001D0012070BD20780C2261685043081876
:102A00002946FDF78BFB2078A178401CFDF770FB71
:102A10002170002070BD10B5044681700C20484321
:102A2000FFF7E0FC6060204600F026F810BD10B50E
:102A3000044681780078401CFDF75AFB607881429B
:102A400001D1012010BD002010BD417802789142D3
:102A500001D10020704740680C2251434018704754
:102A600010B5044640782178884204D0A178401CF3
:102A7000FDF73EFB617010BD10B500210170417083
:102A800081780C2251434068FDF761FB10BD0000C6
:102A900010B5054C2061A1816261E38100F016F858
:102AA00000F004F810BD00001800002010B5064C1E
:102AB0000122A1892069FDF768FC0122E189606992
:102AC000FDF763FC10BD00001800002000B500F009
:102AD00009F80349002008718861C861487100BD88
:102AE0001800002000B50748642141700221817060
:102AF0000121C170002101708171C17100F004F8E1
:102B000000BD00001800002002480021017241723F
:102B1000817270471800002010B52B4CE079002816
:102B200008D04D20A0710122A11D2848FEF735FDD7
:102B30000020E07124480C30FFF787FF040042D0EA
:102B4000214803210830FDF702FB1F49C02008314E
:102B50000870A079002801D0E0200870207A0028B1
:102B600003D00878102210430870A0784042C0B209
:102B7000020603D50A7808231A430A70420603D5D1
:102B80000A7804231A430A702278120603D50A78B9
:102B900002231A430A702278520603D50A780123C9
:102BA0001A430A70227880069206920E4A70800EAE
:102BB000887005480C30FFF753FF034903220831A2
:102BC0000248FEF7EAFC10BD38000020C0010020DA
:102BD000FF76161E26252E363D3E46454E55660D81
:102BE000151D242D2C353C43444D545B5A141C1B9D
:102BF000232B34333B424B4C520E125D1A22212AB6
:102C000032313A41494A597C1129580506040C03CE
:102C10000B830A0109777E6C757D7B6B7374796910
:102C2000727A7071FFFF6178075A144AFF11FF6CC6
:102C3000757D6B7469727A7071FFFFFFFFFFFFFF94
:102C4000FFFFFFFFFFFF1F272F0000000000000015
:102C50000001020304060708090000000001020346
:102C600004000000842C0008000000206000000028
:102C70000E220008E42C0008600000205808000024
:102C80001E220008000000000201000000000000F9
:102C90000000000000000000000000000000000034
:102CA0000000000000000000000000000000000024
:102CB0000000000000000000000000000000000014
:102CC0000000000000000000000000000000000004
:102CD0000000000000127A00000000000000000068
:042CE00000000000F0
:04000005080000C12E
:00000001FF
