:020000040800F2
:1000000018090020D50000085D16000895140008A6
:1000100000000000000000000000000000000000E0
:100020000000000000000000000000009B19000814
:100030000000000000000000A51600089D1900083F
:10004000E7000008E7000008E7000008E7000008F4
:10005000E7000008E7000008E7000008E7000008E4
:10006000E7000008E7000008E7000008E7000008D4
:10007000E7000008E7000008E7000008E7000008C4
:10008000E7000008E7000008E7000008711A000810
:10009000E7000008811A0008911A0008E70000082C
:1000A000E7000008A9160008E7000008E7000008BC
:1000B000E7000008E7000008E7000008E700000884
:1000C0000348854600F062F800480047752C000898
:1000D000180900200448804704480047FEE7FEE76F
:1000E000FEE7FEE7FEE7FEE7151A0008C10000087C
:1000F00030B50B46014600202022012409E00D46C0
:10010000D5409D4205D31D469540491B2546954047
:1001100040191546521E002DF1DC30BD70B500248B
:100120002546002801DA01244042002901DA012590
:100130004942FFF7DDFFAC4200D04042002C00D026
:10014000494270BD0549064A08685043054A80186F
:100150000860400870470149086070476C00002043
:100160006D4EC64139300000D2B201E00270401C31
:10017000491EFBD270470022F6E710B513460A4627
:1001800004461946FFF7F0FF204610BD064C012536
:10019000064E05E0E36807CC2B430C3C984710342F
:1001A000B442F7D3FFF790FF303900085039000808
:1001B00070B50024014620314A78022A03D0042178
:1001C0008163012416E0026813680E25AB431360B7
:1001D000026813685B085B0013600122056C13461C
:1001E000AB40C56B6B604A7000220A70416B0029FE
:1001F00000D08847204670BDF8B5002393E0224622
:1002000001249C40A44622407ED04C68022C01D0A0
:10021000122C0CD1DC08A40027183C6A5D07ED0EF7
:100220000F26AE40B4430E69AE4026433E620568D9
:100230005E000324B4400F79A543BF07BF0FB7404A
:100240002F4307604D68012D05D0022D03D0112DDD
:1002500001D0122D0ED18568CF68A543B7402F433A
:10026000876047686546AF430D79ED06ED0F9D4009
:100270003D434560C568A5438C68B4402C43C460C9
:100280004C68E4004ED52B4CA56901263543A56189
:10029000A4699D0834400094274CAD002F19BC6818
:1002A0009D072E0F0F25B540AC430925ED06A8424A
:1002B00001D1002514E0214DA84201D101250FE014
:1002C0001F4DA84201D102250AE01E4DA84201D1CE
:1002D000032505E01C4DA84201D1042500E00525B9
:1002E000B5402543BD60194C25684E689543F6031B
:1002F00000D51543256065684E689543B60300D563
:1003000015436560A56800E00CE04E689543F60271
:1003100000D51543A560E5684E689543B60200D543
:100320001543E5605B1C0A681446DA4000D066E7B6
:10033000F8BD000000100240000001400004004829
:1003400000080048000C004800100048000401406C
:100350000069084000D001207047002A01D0816167
:1003600070478162704700000148006870470000D4
:100370006400002002480168491C016070470000C9
:100380006400002010B50648016810221143016086
:10039000002000F007F800F017F8002010BD000062
:1003A0000020024010B5044600F078F97D21C90014
:1003B000FFF79EFE00F056FD00222146501E00F081
:1003C0002FF8002010BD000008B50F4881690122F8
:1003D00011438161816911400091C26901040A439E
:1003E000C261C0690022084000901146501F00F011
:1003F00017F800221146901E00F012F80022114654
:10040000501E00F00DF808BD00100240C106C90ED4
:1004100001208840014908607047000000E100E0C9
:1004200010B501F01DF910BDF8B504460068434D44
:10043000C00352D5E8690026C00007D4E969280442
:100440000143E961E9690140012600913C480168E6
:10045000C90510D40168821511430160FFF784FFBC
:10046000074604E0FFF780FFC01B642824D8344807
:100470000068C005F6D5286A03273F02384020D01F
:100480006168394081421CD0286A2A6AB843012138
:1004900009040A432A622A6A8A432A622862C00738
:1004A0000FD0FFF761FF009008E0FFF75DFF0099B4
:1004B000411A2448814201D90320F8BD286A8007E7
:1004C000F3D5286A6168B84308432862002E04D037
:1004D000E869012109078843E8612078C00705D051
:1004E000286BA16880088000084328632078800773
:1004F00006D5286B032109048843E1680843286373
:100500002078800605D5286B10218843216908438F
:1005100028632068800305D5286B80218843A16962
:10052000084328632088400505D5286B402188436F
:100530006169084328630020F8BD000000100240F4
:100540000070004088130000F8B505464E480E467E
:100550000068C007C00FB0420AD24B480168490882
:100560004900314301600068C007C00FB04270D13C
:100570002878464C800705D56068F0218843A96833
:10058000084360602878C00753D06868012817D0F6
:10059000022818D0032819D021688907002958DAC1
:1005A00061688908890001436160FFF7DDFE6968C1
:1005B0000746012913D002291DD0032927D034E092
:1005C00021688903EAE721688901E7E7616BC903CC
:1005D000E4E7FFF7C9FEC11B2D48814223D86068BC
:1005E0000007800F0128F4D123E0FFF7BDFEC11BF7
:1005F0002748814217D860680007800F0228F4D18D
:1006000017E0FFF7B1FEC11B214881420BD860689B
:100610000007800F0328F4D10BE0FFF7A5FEC11BF4
:100620001B48814201D90320F8BD60680007800F94
:10063000F3D115480168C907C90FB1420BD9016848
:1006400049084900314301600068C007C00FB0424B
:1006500001D00120F8BD2878400706D56068072141
:1006600009028843E9680843606000F02DF861687A
:10067000084A0906090F515CC84007490860002074
:10068000FFF790FE0020F8BD00200240001002405D
:100690008813000015390008680000200148006830
:1006A0007047000068000020044805490068496858
:1006B000044A4905490F515CC84070476800002052
:1006C000001002402539000830B516A30FCB89B0C1
:1006D0006C460FC417A30FCB0FC41A494A680C20ED
:1006E000144604401848042C05D0184B082C04D09C
:1006F0000C2C00D1184609B030BD9402240F6D4671
:100700002C5DC96A04AD0907090FD203695C920F19
:10071000022A02D0032A00D11846FFF7E9FC604301
:10072000E9E7000002030405060708090A0B0C0D9F
:100730000E0F10100102030405060708090A0B0C2E
:100740000D0E0F100010024000127A00006CDC0247
:10075000FEB504460078F04EF04DC00748D06868FA
:100760000007800F01281FD068680007800F02284B
:1007700004D16868C003800F022815D06168012980
:1007800019D001208004002901D0052917D029683B
:10079000B1432960296881432960606800281BD023
:1007A000FFF7E2FD074613E02868800320D5606864
:1007B000002876D01CE0286830432860EDE72968DF
:1007C00001432960F7E7FFF7CFFDC01B642869D814
:1007D00028688003F7D50BE0FFF7C6FD074604E065
:1007E000FFF7C2FDC01B6428F1D828688003F7D446
:1007F000207880073ED568680007800F14D06868AD
:100800000007800F022804D16868C003800F012808
:100810000AD0E068002828681DD00121084328601C
:10082000FFF7A2FD07460BE0286880070BD5E068BC
:10083000012836D107E0FFF797FDC01B0228C6D874
:1008400028688007F7D52868F82188432169C900FE
:10085000084328600EE0400840002860FFF784FD50
:10086000074604E0FFF780FDC01B0228AFD82868C8
:100870008007F7D42078000724D5E0690028686A4B
:1008800011D0012108436862FFF76EFD074604E0BE
:10089000FFF76AFDC01B022899D8686A8007F7D560
:1008A00010E036E1D1E0400840006862FFF75CFDEF
:1008B000074604E0FFF758FDC01B022887D8686A86
:1008C0008007F7D4207804274007002861DA002049
:1008D0000190E869C00008D4E969B8060143E961FC
:1008E000E96901400120009101908D480168C90526
:1008F00011D40168821511430160FFF735FD0090A6
:1009000005E0FFF731FD0099401A642897D8844824
:100910000068C005F5D5A06801280AD0002801D0DC
:10092000052811D0286A400840002862286AB84388
:1009300002E0286A012108432862A068002812D03A
:10094000FFF712FD00900AE0286A38432862F0E7BA
:10095000FFF70AFD0099411A7248814275D8286A4A
:100960008007F5D50DE0FFF7FFFC009006E0FFF7EC
:10097000FBFC0099411A6B48814266D8286A8007BF
:10098000F5D40198002804D0E969012000078143CB
:10099000E9612078C00635D5606901280CD0401D7A
:1009A000686B24D038436863686B40084000686314
:1009B000FFF7DAFC074622E0686B38436863686B30
:1009C000012108436863FFF7CFFC074604E0FFF707
:1009D000CBFCC01B022838D8686B8007F7D5686B42
:1009E000F8218843A169C900084368630AE0B84355
:1009F0006863F4E7FFF7B8FCC01B022825D8686BD2
:100A00008007F7D42078800637D568680007800F04
:100A1000032813D068680007800F022804D1686893
:100A2000C003800F032809D0206A0028686B16D005
:100A300030436863FFF798FC06460CE0686BC00320
:100A40001BD5206A012864D117E05BE0FFF78CFC1E
:100A5000801B022856D8686BC003F7D50DE0B04361
:100A60006863FFF781FC064604E0FFF77DFC801B0E
:100A7000022847D8686BC003F7D4606A002846D0C4
:100A800069680907890F022943D001263606022822
:100A9000286805D0B0432860FFF766FC044633E0C1
:100AA000B0432860FFF760FC074604E0FFF75CFCFA
:100AB000C01B022826D828688001F7D4E86A216B79
:100AC000000900010843E862A16AE06A0843696816
:100AD0007B22D20391430843686028683043286032
:100AE000FFF742FC044604E0FFF73EFC001B02282F
:100AF00008D828688001F7D509E0FFF735FC001B0E
:100B0000022801D90320FEBD28688001F5D4002009
:100B1000FEBD0120FEBD00000000010000100240EB
:100B2000007000408813000070470000F8B50446CC
:100B30000068426881684B0605D4CB0703D0530692
:100B400001D5E16C04E08B0705D5130603D5216DB3
:100B500020468847F8BDFF2361331942FAD0930637
:100B6000F8D523464D064033002D09DA5D7F032D6D
:100B70003CD0256E042635432566C56885680095FA
:100B80008E060125002E08DA266E2E43266686681C
:100B9000009606684027BE430660C80506D5206E4D
:100BA000082108432066206880680090206E002895
:100BB000D0D020684168E026B14341605D7790075E
:100BC00018D020684168890889004160A06D0B4DEC
:100BD000002803D04563A06DFFF7EAFA606D002896
:100BE000B8D04563606DFFF7E3FAF8BDC16880686F
:100BF0000090F8BD2046FFF797FFF8BD1B180008CE
:100C0000F8B5040007D0002625464035A662687F67
:100C1000002802D005E00120F8BD2E77204600F024
:100C20004BF802236B7720680168402291430160F2
:100C30000721E0680902884201D9002201E001226F
:100C400012030F273F02B84202D0884200D0A662AA
:100C5000276B002F05D1884201D9236301E00120D1
:100C60002063A168606863690843216919430843E8
:100C70000123A1695B0219400843E1690843216A25
:100C80000843A16A084321680860616B606AA36930
:100C900008431B0C0427E1683B40194308432168C3
:100CA000104348602068C1697A029143C161266699
:100CB000012068770020F8BD00B50068114987B0B1
:100CC00088421DD11048826981140A43826180697B
:100CD00008400590F02000900220019000210320A0
:100CE00003900291049109206946C006FFF784FA37
:100CF000002211461920FFF793FB1920FFF786FB0E
:100D000007B000BD003001400010024070470000F5
:100D1000F0B504468C464034217F0025C7689646CE
:100D200001290CD001212177667F4168012E0CD06A
:100D3000CA1FFD3A07D18168002904D101E00220D1
:100D4000F0BD042E01D0022540E0614600291BD0F1
:100D50007146002918D0002B16D0617F042901D0DC
:100D60000521617700210166614681638387C3871E
:100D700071460164A380E380072109028F4205D9EF
:100D8000144AC264144A04E001251FE0134AC264F5
:100D9000134A0265012212038F4202D8E188022918
:100DA00003D301684B68934302E001684B68134327
:100DB0004B6001684A68E0231A434A600068016892
:100DC000490603D4016840221143016000202077C6
:100DD0002846F0BDB91600084D170008EF160008A8
:100DE0008117000870B501220920D103C006FFF762
:100DF000B4FA104C2078DE2801D0012000E0002059
:100E00000D4DE8700B4802F07DF9A078032805D15C
:100E10000121002249030948FFF79FFA054A2023D0
:100E2000D11A0748FFF774FF02F096F805494018F9
:100E3000286170BDC802002028000020000800487A
:100E4000D400002010270000042204490428086967
:100E500002D09043086170471043FBE700E000E0D8
:100E600070470000094910B5401E884201D9012091
:100E700010BD074C60610321081F00F0F1FB00204A
:100E8000A06107202061002010BD0000FFFFFF00CF
:100E900000E000E010B5FFF7E3FF10BD70477047BA
:100EA00070B502462032137F012B1BD0012313772C
:100EB00002245477046865687026B5436560046849
:100EC00065680E68354365600468A5688026B5438B
:100ED000A5600068846849680C43846053770020EB
:100EE000107770BD022070BD70B5040005D0254696
:100EF0002035687F002802D006E0012070BD002068
:100F00002877204600F00AF802206877211D206823
:100F100000F0C6FD01206877002070BD08B50122F1
:100F2000016892072048914207D1C169012211430B
:100F3000C161C0691040009008BD1C4A91420DD1AA
:100F4000C26989150A43C261C06900220840009045
:100F500003211320FFF764FA132010E0144A914292
:100F600010D18269012149040A438261806900220B
:100F70000840009003211520FFF752FA1520FFF7D3
:100F800045FA08BD0B4A9142FBD1826901218904CF
:100F90000A438261806900220840009002211620E5
:100FA000FFF73EFA1620EAE700100240002000405A
:100FB00000440140004801400222014620314A77A6
:100FC00002681368012003431360487700207047CC
:100FD0000268D36801210B43D360006802680A43AA
:100FE000026000207047F8B5054604462035287F8A
:100FF000012817D001272F77022068772268906890
:101000007726FF23B0431B0298439060086850285E
:1010100037D00EDC202857D006DC00284ED0102810
:1010200040D14EE00220F8BD302850D0402839D1C0
:101030003CE060282DD0702817D001221203801ABE
:101040000ED090422ED1CB684A688968206800F0A3
:1010500071FD20688168012292031143816021E0C3
:1010600020688168C908C900F8E7CB684A688968C0
:10107000206800F05FFD21688868B04330438860D5
:1010800010E0CA684968206800F067FD50212068B8
:1010900006E0CA684968206800F070FD6021206899
:1010A00000F053FD6F7700202877F8BDCA684968C3
:1010B000206800F052FD40212068F1E700212068FF
:1010C000EEE710212068EBE720212068E8E73021D7
:1010D0002068E5E7704770B504460068016900259F
:1010E000C9438907002915DBC168C943890711D4A1
:1010F000E91E016101202077206880698007204671
:1011000002D0FFF7E7FF04E000F096F8204600F079
:1011100094F8257720680169C943490717D4C16845
:10112000C943490713D40421C94301610220207730
:10113000206880698005800F204602D0FFF7CAFF33
:1011400004E000F079F8204600F077F82577206871
:101150000169C943090716D4C168C943090712D4F4
:101160000821C9430161042020772068C0698007F5
:10117000204602D0FFF7AEFF04E000F05DF8204605
:1011800000F05BF8257720680169C943C90617D4C8
:10119000C168C943C90613D41021C943016108209D
:1011A00020772068C0698005800F204602D0FFF7B5
:1011B00091FF04E000F040F8204600F03EF825776B
:1011C00020680169C943C90708D1C168C943C90773
:1011D00004D1891E0161204600F030F820680169C1
:1011E000C943090609D4C168C943090605D4802149
:1011F000C94301612046FFF751FE20680169C943D8
:10120000490609D4C168C943490605D44021C943E8
:101210000161204600F07CF820680169C943890615
:1012200009D4C168C943890605D42021C943016195
:101230002046FFF734FE70BD70477047F8B52F4C5D
:1012400007462078002855D060682D4E874238D157
:101250002C49206901F0CDF92A4D0090288801B26F
:10126000304601F069F9A88801B230461C3001F01F
:1012700063F9304601F0AEF9B06130461C3001F040
:10128000A9F932461C329061B06901F067F9A16892
:101290000968C862906901F061F9E1680968C8628B
:1012A000009800280DD02A7A012149031648002A07
:1012B00002D1AA7A002A01D0002200E00122FFF721
:1012C0004CF8A068874209D1B069002806D00C48C4
:1012D00002DD01F0D3FF01E001F090FFE0688742FA
:1012E00008D107481C308069002803D0074802DD78
:1012F00001F0C4FFF8BD01F081FFF8BD040000203B
:101300007C000020B4000020000400489800002069
:10131000704770B5040005D025466035687A00280E
:1013200002D006E0012070BD00202872204600F0A7
:1013300027F8242068722068016849084900016084
:10134000204600F0CDFC0128EDD0606A002802D0D4
:10135000204600F026FC206841680922D202914311
:101360004160206881682A22914381602068016879
:10137000012211430160204600F078FC70BD00009E
:1013800000B500680F4987B0884218D10E488269BD
:10139000012189030A438261806908400590032086
:1013A0004002009002200190002002900320039050
:1013B0000120049009206946C006FEF71DFF07B012
:1013C00000BD00000038014000100240FFB5064695
:1013D00004466036707A83B00D46202858D1002D1F
:1013E0000CD00598002809D00120A1680003814293
:1013F00007D12069002804D1E80702D0012007B0F6
:10140000F0BD307A012843D0012030720020E06620
:1014100021207072FEF7A8FF0190274640370598FB
:1014200038820598788218E0788A401E788206987B
:101430000090002280212046019B00F0FFFC002844
:1014400018D10120A1680003814202D1206900283F
:1014500012D02168287808856D1C788A0028E3D18D
:1014600006980090002240212046019B00F0E6FCF7
:10147000002808D00320C2E728882168C005C00DD5
:101480000885AD1CE9E72020707200203072B6E7B5
:101490000220B4E7FEE70000F0B5384887B04269A3
:1014A0000121C9040A43426142690A400592426926
:1014B00089100A43426142690A4005924269490023
:1014C0000A43426140694C110840059000222146C0
:1014D0002B48FEF742FF2B4E092000223146C00662
:1014E000FEF73BFFFF270937092001223946C006D6
:1014F000FEF733FF012224492448FEF72EFF002285
:1015000008212248FEF729FF0094002401250195B7
:10151000029469461A480394FEF76EFE092002946D
:101520006946C006009601950394FEF765FE1126F4
:10153000092002946946C006009701960394FEF7BD
:101540005BFE1348009002200290019469460F4808
:10155000FEF752FE0C4800900294694601960394EF
:101560000A48FEF749FE082000900294694601955A
:1015700003940648FEF740FE07B0F0BD001002409D
:10158000000800480180000024F500000004004825
:10159000110A000010B50D480B490160002141609F
:1015A0008160016141618161072201621202416231
:1015B000C260816207220163C2624163FFF720FBC0
:1015C000002800D0FEE710BD00300140D40000200C
:1015D00010B50121124886B08907016000242F212F
:1015E000846041600461611E8461C160FFF77CFC1E
:1015F000002800D0FEE7012000030090694608485B
:10160000FFF7F1FC002800D0FEE7049404A9044889
:101610000594FFF745FC002800D0FEE706B010BD9A
:101620003801002010B50C480A490160E121490247
:10163000416000218160C16001618161C1610C2252
:10164000016242614162FFF764FE002800D0FEE7BC
:1016500010BD000000380140380200207047000033
:101660008307FF22DB0E9A408907090E9940002864
:101670000BDA0007000F0838830808489B00181889
:10168000C36993430B43C3617047830804489B00BD
:101690001B181868904308431860704700ED00E07D
:1016A00000E400E07047000010B50248FFF73EFA82
:1016B00010BD0000D400002010B50168C968026C9C
:1016C0001180016C891C016401464031CA88521E98
:1016D000CA80C988002909D101684A6840239A4311
:1016E0004A60C18F002901D100F06EF810BD10B51D
:1016F00001464031CC880368026C012C11D9DB68AB
:101700001380026C921C0264CA88921ECA80CA8826
:10171000012A0DD102685368012424032343536036
:1017200006E01C7B531C03641470CA88521ECA80D6
:10173000C988002909D101684A6860239A434A6030
:10174000C18F002901D100F03FF810BD10B5816BA9
:1017500002680988D160816B891C8163C18F491E31
:10176000C187C18F00290AD101684A6880239A4342
:101770004A604621095A002901D100F025F810BD20
:1017800010B5C38F0268816B022B07D30988D16023
:10179000816B891C8163C18F891E05E04B1C8363AB
:1017A00009781173C18F491EC187C18F00290AD1E1
:1017B00001684A6880239A434A604621095A0029F1
:1017C00001D100F001F810BD70B50446FEF7CCFD64
:1017D0000246206841682025A943416064212046D3
:1017E00000F024F8002802D0206E28432066226EE4
:1017F000204601214030002A04D041772046FFF7DF
:1018000093F970BD427F4177042A204602D0FFF74A
:10181000E9FA70BDFFF77AFA70BD10B5406A002191
:1018200046221152C187FFF77FF910BDF8B50F4668
:101830000B4615460092032104460022C90200F01F
:101840001BF82026002812D13B460022802120468A
:10185000009500F05CF8002809D103213B460022E6
:1018600049022046009500F007F8002803D0206EBA
:10187000304320660320F8BDF8B51D4617460E46D6
:1018800004463DE0032149028E4205D1002F03D1D9
:10189000017B684601700078681C31D0002D05D0AE
:1018A000FEF762FD0699401AA84229D320684168D4
:1018B000E022914341606068C11FFD390CD10121D4
:1018C000A068C903884202D04911884204D1206827
:1018D00001684022914301600120A16A40038142D6
:1018E00007D121680A6882430A6021680A680243B6
:1018F0000A60012040346077002020770320F8BD83
:10190000206881683140B942BCD10020F8BDF8B5EB
:101910001D4617460E46044633E0681C31D0002DA4
:1019200005D0FEF721FD0699401AA84229D3206868
:101930004168E022914341606068C11FFD390CD1CC
:101940000121A068C903884202D04911884204D10C
:10195000206801684022914301600120A16A400390
:10196000814207D121680A6882430A6021680A68B7
:1019700002430A6001204034607700202077032072
:10198000F8BD206881683046884304D00020B84202
:10199000C3D10020F8BD0120F9E7704710B5FEF76C
:1019A000E9FCFFF777FA10BD30B599B0202001258A
:1019B00000240090089509946846FEF7C9FE0028A7
:1019C00000D0FEE707200D9003200E900F94012118
:1019D00010940DA8FEF7B8FD002800D0FEE7119581
:1019E00011A81395FEF720FD002800D0FEE7FEF7B2
:1019F00055FE7D21C900FEF77BFBFFF733FA04207B
:101A0000FFF722FA00221146501EFEF709FD19B019
:101A100030BD000012480168012211430160416895
:101A2000104A1140416001680F4A1140016001688D
:101A3000012292049143016041683F2212049143C4
:101A40004160C16A09090901C162016B074A11407D
:101A50000163416B4908490041630021816070477F
:101A6000001002400CB8FF08FFFFF6FE2CFEFCFF42
:101A700010B50248FFF72FFB10BD000078010020D1
:101A800010B50248FFF727FB10BD0000B801002089
:101A900010B50248FFF71FFB10BD0000F801002041
:101AA000F0B502681D4B0124A4071D4D984203D0D8
:101AB000A04201D0A84203D17026B2434E683243FF
:101AC000184E194F98420DD0A0420BD0A84209D011
:101AD000164CA04206D0B04204D0B84202D0144CFA
:101AE000A04204D103242402A243CC6822438024D0
:101AF000A2434C69224302608A68C2620A68826219
:101B0000984206D0B04204D0B84202D0084A90426F
:101B100001D10969016301214161F0BD002C01403F
:101B2000000400400040014000440140002000400B
:101B30000048014030B58468FF252D021B02134385
:101B4000AC430B432343836030BD826870239A43C8
:101B50000A4307210A438260704730B5036A046A6A
:101B60006408640004628469F025AC4312012243D6
:101B70000A24A3430B438261036230BD30B5036A7C
:101B80001024A34303628469036A0F252D03120303
:101B9000AC432243A024A34309011943826101629B
:101BA00030BD10B5818CC90707D001684A68012390
:101BB0005B049A43836A1A434A60818C890707D57C
:101BC00001684A6801231B049A43C36A1A434A60A6
:101BD000818C490707D501684A6801239B049A4311
:101BE000036B1A434A60818C090707D501684A686C
:101BF0000123DB039A43436B1A434A60818CC90675
:101C000007D50268916801231B039943836B19432D
:101C10009160818C890607D501688A6801235B037E
:101C20009A43C36B1A438A60818C490612D50368B4
:101C30005A6801210905046C8A4322435A60026CE8
:101C40008A4207D10268516803235B059943436CBC
:101C500019435160818C090607D501684A68012340
:101C6000DB04806C9A4302434A6010BDF8B500263D
:101C70000446C666FEF778FB05461649206888428A
:101C800002D0154988421DD10068144F000709D5BC
:101C900001212B46002249052046009700F0CEF88E
:101CA00000280DD12068006840070BD501212B4684
:101CB000002289052046009700F0C0F8002801D0D6
:101CC0000320F8BD202060346072A07226720020CC
:101CD000F8BD00000038014000440040FFFFFF0154
:101CE000F8B504462369A268E5691A4363691020C0
:101CF0002B43002125681A432B680E46474F3B4073
:101D000013432B6023685A6803252D03AA43E56813
:101D10002A435A60236AA26925681A43AB680B27D5
:101D20003F02BB431343AB603D4F25683D4B02036D
:101D3000BD420AD11B6B9B079B0F20D0012B14D0F7
:101D4000022B14D0032B1BD10DE0374FBD4210D115
:101D50001B6B03273F043B4011D09B1A05D09B1AF5
:101D600005D093420CD102200AE0042008E00820AC
:101D700006E02E4B9D4202D02D4B9D4200D100200B
:101D80000123E769DB039F4222D100280CD00228FF
:101D90000DD0042813D0082817D001260A091201F3
:101DA0000807400F10432EE0FEF77EFC09E0616853
:101DB000204A48088018FEF79BF981B2EEE7FEF74B
:101DC00083FC616840004A08F4E761684808F1E76D
:101DD000002808D0022809D004280CD0082815D0E3
:101DE00001263046F8BDFEF75FFC06E06168124A46
:101DF000480880180DE0FEF767FC61684A08801803
:101E0000FEF776F980B22168C860EAE761684808A1
:101E1000C018FEF76DF980B2E860E2E7F369FFEF02
:101E200000380140001002400044004000480040DB
:101E3000004C00400024F40000127A00FFB581B08D
:101E400017460E4604460A9D1DE0681C1BD0002D57
:101E500005D0FEF789FA0499401AA84213D92068E0
:101E60000168FF22A132914301602068816849081E
:101E700049008160202060346072A07200202072CE
:101E8000032005B0F0BD2068C1693046884304D006
:101E90000020B842D9D00020F3E70120F9E7000084
:101EA0000FB410B503A9044B044A029800F024F8BB
:101EB00010BC08BC04B01847BD2500087000002005
:101EC00030B47446641E2578641CAB4200D21D46B3
:101ED000635D5B00E31830BC184702E008C8121FBE
:101EE00008C1002AFAD170477047002001E001C103
:101EF000121F002AFBD17047FFB58DB00F46054673
:101F0000002606E025280AD0109A0F9990476D1CEC
:101F1000761C28780028F5D1304611B0F0BD002499
:101F20000121674A009400E004436D1C2B780846A9
:101F3000203B98401042F7D128782E2815D1042054
:101F4000044368786D1C2A280AD101CF6D1C0090CB
:101F50000BE000990A225143303940186D1C009063
:101F60002878014630390929F3D92878692843D0DF
:101F700006DC0028D0D063280BD0642804D13BE0D5
:101F800073280FD075284CD0109A0F999047761C63
:101F900094E03878694608720020487202A80190DF
:101FA000012003E0386801900020C0433F1D610715
:101FB0000CD5002400E0641C00998C420FDA8442A6
:101FC000F9DB0199095D0029F5D108E0002400E062
:101FD000641C8442FCDB0199095D0029F8D13619A3
:101FE00007E0019801990078491C0191109A0F9916
:101FF0009047641EF5D261E00A20019001CF0028CD
:1020000002DA40422D2102E0210504D52B216A4647
:102010001172012103E0E10701D02021F7E70C91C3
:1020200004E00A20019001CF00210C910BA90B9133
:1020300008E00199FEF75CF80A460B993032491E18
:102040000B910A700028F4D10B9803A9081A2030CC
:102050000190600701D5009801E0012000900199EE
:10206000884203DD01460198081A00E000200024A0
:10207000009006E002A8109A005D0F999047641C3A
:10208000761C0C988442F5DB04E0109A30200F99FE
:102090009047761C0099481E00900029F5DC08E066
:1020A0000B980B990078491C0B91109A0F99904747
:1020B000761C0199481E01900029F1DC6D1C28E76F
:1020C0000928010010B5044CE26023812061618180
:1020D00000F074F910BD0000500000201CB5454C04
:1020E0006A4601A9444800F04CFB002844D16846E8
:1020F0000079BA281BD24149095CFF2917D0392938
:102100000BD168460078012811D13D4AD079401C96
:10211000D071C007C00F6A4610706846007800286A
:1021200000D080244806400C204300F053F9324888
:1021300000F037FB6846017932486F2906D03A290A
:102140000ED01D2919D0612917D01EE069460978E3
:102150000029018801D02C4A08E00122920309E0FD
:10216000694609780029018802D0284A114002E016
:1021700001225203114301801CBD6A461278002AD5
:10218000028807D0224B1A4002802A2906D036291D
:1021900004D00BE00123DB021A43F5E76A4612780C
:1021A000002A028807D01B4B1A400280382906D02B
:1021B000642904D00BE001239B021A43F5E76A4629
:1021C0001278002A02880DD0134B1A4002807D2914
:1021D00001D07E29D0D1694609780029018805D02F
:1021E0000E4AC3E701235B021A43EFE7FF220132E5
:1021F000C0E7000080800000E80200205B38000893
:102200002800002056000020FFBF0000FFDF000074
:10221000FFF70000FFFB0000FFFD0000FFFE0000D5
:10222000F8B50646002030801C4841890069FEF759
:102230008FF801282FD11A4C204600F00FF9401CCE
:1022400029D0204600F00AF9401C24D0204600F096
:1022500005F9401C1FD00122092000251146C006A7
:10226000FEF77BF800240F2700F048F8052811D06E
:10227000391B88402843641C85B2102CF4DB0920EC
:1022800000220121C006FEF768F8054800F0E6F8D4
:1022900035800020F8BD0520F8BD0000500000206A
:1022A000A861000010B5134800F092FE00281FD06E
:1022B0001149104800F09DF90F4B0022187A0028B0
:1022C00001D10122D203987A002801D18020024353
:1022D000188800B200F004FA44069888640E14438B
:1022E00000B200F0FDF94006400C204300F072F807
:1022F00010BD000048000020B400002070B50D485B
:1023000041890069FEF724F800280FD10A4D2846BC
:1023100000F0A4F80446284600F0A0F8611C05D09F
:10232000411C03D0A04203DD012070BD052070BD1B
:10233000002070BD50000020A8610000F8B50646DE
:102340000020307000F0FAFA012806D1124800F09F
:1023500085F83238292801D30520F8BD012209204B
:1023600000251146C006FDF7F8FF00240727FFF7F8
:10237000C5FF0528F1D0391B88402843641CC5B22D
:10238000082CF4DB092000220121C006FDF7E5FF3F
:1023900035700020F8BD0000A861000010B5064CA3
:1023A00001222189E068FDF7D8FF012261892069B7
:1023B000FDF7D3FF10BD00005000002010B5044809
:1023C0000221417003210170FFF7E8FF10BD0000FA
:1023D0005000002070B5092506460122ED06114681
:1023E0002846FDF7BAFF1C4C0120A070C82000F061
:1023F000D1F8002261892069FDF7AFFF222000F0AB
:10240000C9F8012261892069FDF7A7FF402000F08B
:10241000C1F8304600F044F80026062814D0002207
:1024200061892069FDF799FF402000F0B3F801228F
:1024300061892069FDF791FFA670002201212846DD
:10244000FDF78BFF002070BDA670002201212846F9
:10245000FDF783FF062070BD50000020F8B5074649
:1024600000F07AFD0D4C009061892069FDF770FF46
:1024700005460AE000F070FD0099461A002F04D0CE
:10248000BE4202D90020C043F8BD61892069FDF732
:102490005FFFA842EED03046F8BD0000500000209B
:1024A00010B50446000A00F009F8062805D0E0B28D
:1024B00000F004F8062800D0002010BDF8B5002573
:1024C0001C4C06460727791B3046C840C00714D06D
:1024D000002261892069FDF740FF222000F05AF8B0
:1024E000012261892069FDF738FF61892069FDF7C4
:1024F0002FFF012814D1402015E0002261892069B6
:10250000FDF72BFF402000F045F80122618920698A
:10251000FDF723FF61892069FDF71AFF012801D02B
:102520000620F8BD222000F035F86D1C082DCADB0E
:102530000020F8BD50000020027D520012181182C8
:10254000017D491CC9B20175022901D30021017521
:1025500070470902014308B270470000002800DA02
:102560004042002801DD402802DBFF20F5307047A3
:1025700001494000085A7047A835000802687F2AC0
:1025800001DD7F2103E07E21C9438A4200DA016038
:10259000704700000449096809684A6A10184A6AC5
:1025A0008242FCD3704700000000002010B50249B1
:1025B0000860FEF701FD10BD0000002013B50A23DE
:1025C000012269460248FEF701FF00981CBD000089
:1025D0003802002010B500210A4653001C181023B1
:1025E000E35E521C5918022AF7DBC80F401840104E
:1025F00010BD30B500240C604C600C720B460546D3
:102600008C72284600F0E4FC002815D01968026896
:10261000891819605968426889185960197A027ACC
:1026200011431972997A807A01439972284600F011
:10263000D9FC641CE4B2E4E71846FFF79FFF181DBD
:10264000FFF79CFF204630BDF8B54406C609640E6E
:10265000F6010746102C3ED21F4D285D00283AD0C7
:1026600028461C3800F0A6F81C4800F0C4FC780688
:10267000400EC01E295D002E16D002292BD103006A
:10268000FFF71EFC0910101010101006090E1000A4
:1026900000F0E4FD06E01148083800F05DFA01E0C2
:1026A00000F0C2F8012015E0012914D10300FFF762
:1026B00007FC0910101010101006090E100000F091
:1026C000A7FD06E00548083800F046FA01E000F0F2
:1026D000ABF802202855F8BD040300204800002074
:1026E000C11C062909D93E214010C9433F2801DBFE
:1026F0003F2002E0884200DC0846C0B2704700007C
:10270000102803D20249085C012800D0002070473D
:102710000403002010B50C46034600F027F80028FB
:1027200001D0012010BD1978586844541978986870
:1027300042541878401C4007400F1870002010BD0C
:1027400010B50446082000F0D1FB6060082000F0BE
:10275000CDFBA060204600F02DF810BD4178007838
:10276000814201D1012070470020704741780078F4
:10277000401C4007400F814201D1012070470020DA
:10278000704710B543780478A34201D1012010BDF1
:102790004468E35C0B7081684078085C107000202E
:1027A00010BD41780278914203D0491C4907490F76
:1027B0004170704710B504460020207060700821F9
:1027C0006068FDF7D8FC0821A068FDF7D4FC10BDB7
:1027D00010B50A4602290AD00549095C002906D02D
:1027E000002A01D080200143024800F019F910BDF1
:1027F000A83700082000002010B5024800F023F997
:1028000010BD00002000002010B50921C90601609C
:10281000082181800349816001218181FFF7ECFF5C
:1028200010BD00000004004810B505480122818851
:102830000068FDF792FD034800F036F910BD000076
:10284000C40000202000002038B52A4CA188206850
:10285000FDF77EFD01283DD0274800F081FE411C98
:1028600039D00A2836DD254800F0F7F8002831D1A4
:102870006946224800F004F90925ED061021284692
:10288000FDF766FD002825D01C4800F004F9012260
:1028900011462846FDF761FD72B60820FFF77AFE63
:1028A000A18800222068FDF758FD0F20FFF772FE77
:1028B0006846007800F024F8A18801222068FDF71E
:1028C0004CFD0F20FFF766FE62B60022012128466C
:1028D000FDF743FD38BD094800F0E6F880210748C0
:1028E00000F09EF80548001F0178001D00F098F8E0
:1028F00038BD0000C400002094110000200000201A
:1029000070B50C490C4E0D5C07242846E040C20708
:10291000D20FB1883068FDF720FD0F20FFF73AFE97
:10292000042C02D0641EF0D570BD0F20FFF732FEDC
:102930000324EAE7A8360008C400002070B5124C52
:1029400061892069FDF704FD104D012804D1284656
:10295000FFF784FD401C10D00120A0702846FFF72F
:102960007DFD7D210901884209DC411C07D0FF2142
:10297000F531884205DA042070BDFF2070BD0320C8
:1029800070BD012070BD000050000020A861000053
:1029900070B509201021C006FDF7DAFC002832D0FE
:1029A0001D4C207900282ED0FDF7DEFC6169002542
:1029B000401AFA2803D97B2000F00EF922E0207992
:1029C000002820D01448183000F047F8002817D00D
:1029D0002079002817D0104A1048921D511EFFF789
:1029E000D0FE00280FD10C48183000F05DF80A4ADC
:1029F000A1791832607900F00DFA002804D006E0C1
:102A000000F028F9257170BD00F024F92571034804
:102A1000FFF7C7FE70BD000028000020E80200207C
:102A200000B50B46024600F020F8002801D0012036
:102A300000BD1178506843541078401C4007400F87
:102A40001070002000BD10B50446082000F04EFABA
:102A50006060204600F028F810BD4178007881427F
:102A600001D1012070470020704741780078401C58
:102A70004007400F814201D101207047002070477C
:102A8000427803789A4201D1012070474068805C07
:102A900008700020704741780278914203D0491CA9
:102AA0004907490F4170704710B50021017041700E
:102AB00040680821FDF75FFB10BD000070B5FDF711
:102AC00053FC0446084D07E004212846FDF740FC6E
:102AD000002801D0012070BDFDF746FC001B0A282C
:102AE000F2D3022070BD000000040048F1B50025BB
:102AF0008024114FE600002231463846FDF72DFCB8
:102B0000B420FFF747FD012231463846FDF725FC8A
:102B10005020FFF73FFD04213846FDF719FC01283E
:102B200000D1254364088C20FFF734FD002CE2D14E
:102B3000009805700020F8BD0004004870B50C46F0
:102B40000546FFF7BBFF012805D02846FFF7CEFF5B
:102B5000204600F0EDFC70BD10B5FFF7A5FF064C58
:102B6000012291022046FDF7F8FB012204212046B4
:102B7000FDF7F3FB10BD00000004004810B54B2129
:102B8000C9001448FFF7DAFF124C641EA070002839
:102B90000FD16078102807D014280BD0162814D035
:102BA000362806D17D2011E001202071FDF7DCFBE5
:102BB000606110BD07481730FFF74FFF002801D0B4
:102BC0007B2003E000F046F810BD0B2000F004F875
:102BD00010BD000029000020F8B501221C4E074658
:102BE000950229463046FDF7B8FBC82000F0A0FC4E
:102BF00003282CD0012209201146C006FDF7ADFBA9
:102C000072B607240120A040384201D0012200E022
:102C1000002204213046FDF7A0FB00222946304661
:102C2000FDF79BFBA020FFF7B5FC012229463046AB
:102C3000FDF793FBAA20FFF7ADFC641EE2D562B658
:102C4000002209200121C006FDF787FB0020F8BD06
:102C50000004004808B569460548FFF711FF04481D
:102C6000FFF719FF68460078FFF7B6FF08BD0000C0
:102C70004000002088B0FDF785FBFEF795FEFEF7CB
:102C80000BFCFEF787FCFEF7CDFCFEF7A1FC5248DB
:102C90000024524E84604F49C6602F25046122C033
:102CA00080270C3090C01C38FEF71EF9002800D099
:102CB000FEE749484A494030846022C08460C460CD
:102CC0004849046141600838FEF70EF9002800D039
:102CD000FEE741484449403884608761C66004612A
:102CE00022C00838FEF700F9002800D0FEE70120D6
:102CF0003E4D0190009400232A783D493DA0FFF706
:102D0000CFF835488038FFF751FC00F065FA2846C7
:102D10001830FFF798FE3C48FFF712FD2846203098
:102D200000F038F9384820214038FDF724FA364AB7
:102D300029482023203AD11AE438FDF7E9FF334827
:102D4000FFF762FD324C20232246DF003946104651
:102D5000FFF7B8F93801C60039460790069480009D
:102D60001D4A09271C4B019103900596FF06114649
:102D700028460494403B009702944031203000F0F4
:102D800087FA0920FFF7BCFC002802D000F066FAA1
:102D900001E000F03DFAEA7808212046FDF7DDFA6F
:102DA00000F0DAF82969884204D900223146384611
:102DB000FDF7D3FA00F0BAFA00F088FB00F060FBF0
:102DC000114A05482023203AD11AE438FDF7A0FF24
:102DD000E1E7000000440140B8010020FFFF0000CF
:102DE000004801401027000000200040280000207B
:102DF0002838000825730A726576256420762564D4
:102E00002E25642E25640A00E8020020C40000205C
:102E10000004004870B500241646802801D2314ACB
:102E2000145C02293BD0002C39D080253A282CD0C4
:102E300037283DD04E283BD0622839D0452843D092
:102E4000472841D048283FD049283DD04A283BD088
:102E50004B2839D04C2837D04D2835D04F2833D087
:102E6000502831D051282FD052282DD053282BD084
:102E7000602829D0672827D0692825D06A2823D040
:102E80006C2821D0002908D12AE0002907D0164853
:102E9000012102789143017003D0214603E0042010
:102EA00070BD214629433046FFF7BAFD002070BDB2
:102EB000002904D071213046FFF7B2FD06E0F12170
:102EC0003046FFF7ADFD06E0002904D079213046F9
:102ED000FFF7A6FDE1E779213046FFF7A1FDE0E726
:102EE0002C43DAE72836000818000020F0B50B3034
:102EF000C108C900144F0026144A0FE003688B4232
:102F00000BD38B4205D95C1A4318456830C3083B84
:102F100000E04368136002C004E0021D106800284E
:102F2000ECD13046002803D13868002801D00020B9
:102F3000F0BD064A06481060064A121AD208D200AE
:102F400044C001203860D7E77800002074000020DA
:102F50001C03002018050020024800680068406A31
:102F6000704700000000002030B50B46024600F01C
:102F700024F8002801D0012030BD117850680901E3
:102F800040183ACB3AC01078401C0007000F107070
:102F9000002030BD10B50446FF200130FFF7A6FF2A
:102FA0006060204600F027F810BD4178007881422B
:102FB00001D1012070470020704741780078401C03
:102FC0000007000F814201D10120704700207047A7
:102FD00041780278914201D1002070474068090190
:102FE0004018704741780278914203D0491C090784
:102FF000090F4170704710B5002101704170FF2129
:1030000040680131FDF7B7F810BD0000F8B50107C1
:1030100086070509890FB60F002D58D0374C0329B4
:10302000207802D002292DD066E0032E02D0002E97
:103030004BD022E085420ED1207900280BD0304FB2
:10304000FDF780F80F21FDF769F80806010C3846F6
:103050000843FFF7BFF9607885420ED1E078002879
:103060000BD0274F3F1DFDF76DF80F21FDF756F8E8
:103070000806000C3843FFF7ADF9002E29D0022EC8
:103080002CD039E0032E02D0022E2CD034E0854221
:103090000BD16846FFF7C4F8684600880106490E60
:1030A0007F2902D10005000F20706078854223D16E
:1030B0006846FFF7B5F8684600880106490E7F2983
:1030C0001AD10005000F607016E0854201D105207D
:1030D000F8BD607885420FD10220F8BD6078854246
:1030E0000AD10320F8BD6078854205D10348801DD0
:1030F000FFF796F80420F8BD0020F8BD500000202E
:103100000160000070B50446807809280FD00828B7
:1031100027D001282CD0022808D10325605D002883
:1031200004D0FFF791FA6D1C202DF7DB70BD61799B
:103130002079FFF70EFA264A1060E179A079FFF7AF
:1031400008FA5060607B1072A07B9072E07B507236
:10315000207CD072607C10731D491E48FFF704FF6D
:1031600070BD1B48A27921790C38FFF7D3FA70BDE6
:10317000174820214C38FCF7FEFF1548CD214C386C
:10318000017061784170802585700321C1701149FB
:1031900008222039097801710021417181710121D2
:1031A000C171002104465C34635C002B0BD0022B00
:1031B00002D0012B02D004E0815402E00B462B43E5
:1031C0008354521CD2B2491C1029EDDB70BD0000A3
:1031D000F4020020480000200748002101634163F9
:1031E0008163C16301213030C1708171022141725C
:1031F0008172C17270470000D402002010B5817B3B
:10320000491E8907890F817300F078F810BD00000E
:1032100010B50F4900200F4C0870A18801222068CA
:10322000FDF79BF8A1890122A068FDF796F81C34F0
:10323000A18801222068FDF790F8A1890122A068E9
:10324000FDF78BF8012251030348FDF786F810BD06
:10325000040000207C0000200004004810B5054850
:1032600000F042F803481C3000F03EF8024901200B
:10327000087010BD7C0000200400002010B5817B88
:10328000491C8907890F817300F038F810BD0000D0
:10329000F8B506ACE0CC124C2560A680A760099D6D
:1032A000A5811C340A9D25600B9DA5800C9DA56001
:1032B0000D9DA5810B4C2061241D0EC40848103CB7
:1032C00000F012F806481C3000F00EF86068FDF7B8
:1032D0007FFEA068FDF77CFEE068FDF779FEF8BD93
:1032E0007C0000200400002010B5002181730175CE
:1032F0008161018200F002F810BD000070B5044643
:10330000807B09490D5CA1882068EA0700D0012272
:10331000FDF723F8A807A189A06801D5012200E0E4
:103320000022FDF71AF870BDA4350008F8B5012198
:1033300049024948FDF70CF800281BD00320FFF78D
:10334000DFF9464D28700620FFF7DAF9444E307059
:10335000297801430CD04348FEF7F0FF414C002789
:10336000083C414960720F70032804D0002804D043
:10337000FFF724F8F8BDFFF721F8207A0009A072C2
:103380003A48FFF7EBF9002808D036481830FFF725
:103390000CFE00280CD0E772277321E03449A07A94
:1033A0000978884201D0012000E00020E07208E0A6
:1033B0003049A07A0978884201D0012000E000203D
:1033C0002073E07A002802D02878002805D1207BDD
:1033D000002805D03078002802D000F095F802E0EF
:1033E0002548FFF73BF8207AFFF710FE60720528AA
:1033F0001AD002281ED0214C032821D00428B9D18C
:103400001A4820214038FCF7B6FE1848CD21403834
:10341000017081218170228801215307002B00DB7C
:10342000C170D30713D013E030780028A2D0FEF784
:1034300039FFF8BD28780028FBD0FEF74FFEF8BD15
:1034400028780028FBD02088FEF7C4FFF8BD017162
:103450009207FBD44171F8BD0004004853000020DE
:10346000540000203000002052000020E80200201C
:103470005100002050000020A861000056000020EC
:1034800010B50F48C07A022819D001210D48FCF769
:103490005FFF002813D0FFF7D7F90B4A0848511EE9
:1034A0001C38FFF76EF9002809D10748801F817981
:1034B0004079FFF78DF902481C38FFF772F910BD0B
:1034C00004030020000400482E00002010B50C4822
:1034D000807A022812D00B4C0121C9022046FCF749
:1034E00037FF00280AD0012189022046FCF730FF6F
:1034F000002803D0FFF742FBFFF74AFA10BD000097
:10350000040300200004004810B5084C0022618923
:103510002069FCF722FFFF202D30FFF73BF8012246
:1035200061892069FCF719FF10BD000050000020E0
:1035300070B50546FCF718FF0446084EFCF714FF6B
:10354000001BA84201D9032070BD04213046FCF7BE
:10355000FFFE0128F2D1002070BD000000040048E9
:10356000F8B50746FFF7F8FC0D4C0090A1882068DD
:10357000FCF7EEFE05460AE0FFF7EEFC0099461A5E
:10358000002F04D0BE4202D90020C043F8BDA1885C
:103590002068FCF7DDFEA842EED03046F8BD000002
:1035A000C400002000010302B92F01287D22141E4F
:1035B000661A4617E314AE12D710300FE60DCC0C86
:1035C000E10B240B970A0A0A7D091F09C108630849
:1035D0000408A60777071907EA06BB065D062E064C
:1035E000FF05D005A105720543051405E404B504E3
:1035F0008604860457042804F903F903CA039B03CD
:103600009B036C036C033D033D030E030E03DF02BB
:10361000DF02B002B0028102810281025202520234
:10362000520223022302230200002527292B2F2DDB
:103630003539333B37316761191B1D1F2321414544
:103640003F47433D4975010305070B094D514B5356
:103650004F6571550D0F1113175B5D575F5971055C
:103660006F6373000000000000000000000F0033D3
:1036700037391D2D2F310D27292B2503000055002B
:10368000000000000000000019751B006F00001B07
:10369000000D050011000000000000000000000007
:1036A00000000000006F6F6FFFF7FBF3FDF5F9F10D
:1036B000FEF6FAF2FCF4F8F07F777B737D75797192
:1036C0007E767A727C747870BFB7BBB3BDB5B9B182
:1036D000BEB6BAB2BCB4B8B03F373B333D35393172
:1036E0003E363A323C343830DFD7DBD3DDD5D9D162
:1036F000DED6DAD2DCD4D8D05F575B535D55595152
:103700005E565A525C5458509F979B939D95999141
:103710009E969A929C9498901F171B131D15191131
:103720001E161A121C141810EFE7EBE3EDE5E9E1A1
:10373000EEE6EAE2ECE4E8E06F676B636D65696111
:103740006E666A626C646860AFA7ABA3ADA5A9A101
:10375000AEA6AAA2ACA4A8A02F272B232D252921F1
:103760002E262A222C242820CFC7CBC3CDC5C9C1E1
:10377000CEC6CAC2CCC4C8C04F474B434D454941D1
:103780004E464A424C4448408F878B838D858981C1
:103790008E868A828C8488800F070B030D050901B1
:1037A0000E060A020C040800000074717273646152
:1037B0006263505140414578757760656667525342
:1037C0005F445657487C70767B696A6B5455595AEA
:1037D0005B687E42797A6D6C6E6F585D5E4C7E22BE
:1037E0007F5C7D000000000000000000002000243D
:1037F00026252128292A2B4D2D2E492C000000009A
:1038000000000000000000002F7C27004600002779
:10381000002223002B000000000000000023000015
:103820000000000000000000555342345643205071
:10383000726F746F636F6C20426F6172640A4170C3
:10384000706C65205072652D5553420A64656B7526
:103850004E756B656D203230323200FF3512131415
:103860001517161A1C191D1B1833300C0D0E0F11CD
:103870001020221F23211E243600010203050426E6
:10388000282529273238FF060708090B2D2E2B2F54
:103890002C7B433A31397A78637660616264656D76
:1038A00047FF595B5C4E565758455354555241FF9C
:1038B000FF0A676FFFFFFFFFFFFFFF4C7D4BFF7CA1
:1038C000FF733E743B3C773D797275FFFFFFFF7FCE
:1038D00051FFFFFFFFFFFFFF37FFFFFFFFFFFFFF6E
:1038E000FFFFFFFFFFFFFFFFFFFFFFFFFFFFFFFFE8
:1038F000FFFFFFFFFFFFFFFFFFFFFFFFFFFFFFFFD8
:10390000FFFFFFFFFFFFFFFFFFFFFFFFFFFFFFFFC7
:10391000FFFF696B7100000000000000000102035E
:10392000040607080900000000010203040000006B
:1039300050390008000000207C000000DA1E00085A
:10394000CC3900087C0000209C080000EA1E00081A
:103950000000000000000000000000000000000067
:10396000000000000000000000000000AF000000A8
:103970000000000000000000000000000000000047
:103980000000000000000000000000000000000037
:103990000000000000000000000000000000000027
:1039A000000000000000FFFF000000000000000019
:1039B000000000000000000000127A00000000007B
:0C39C000000000000000000000000000FB
:04000005080000C12E
:00000001FF
